{"abi":[{"type":"constructor","inputs":[],"stateMutability":"nonpayable"},{"type":"fallback","stateMutability":"nonpayable"},{"type":"function","name":"add","inputs":[],"outputs":[],"stateMutability":"nonpayable"},{"type":"function","name":"add_Calc","inputs":[{"name":"id","type":"uint256","internalType":"uint256"}],"outputs":[],"stateMutability":"nonpayable"},{"type":"function","name":"getCalc","inputs":[{"name":"id","type":"uint256","internalType":"uint256"}],"outputs":[{"name":"","type":"uint256","internalType":"uint256"}],"stateMutability":"view"},{"type":"function","name":"getNumber","inputs":[],"outputs":[{"name":"","type":"uint256","internalType":"uint256"}],"stateMutability":"view"},{"type":"function","name":"upgrade","inputs":[{"name":"_newImpl","type":"address","internalType":"address"}],"outputs":[],"stateMutability":"nonpayable"},{"type":"event","name":"ImplementationUpdated","inputs":[{"name":"oldImpl","type":"address","indexed":false,"internalType":"address"},{"name":"newImpl","type":"address","indexed":false,"internalType":"address"}],"anonymous":false},{"type":"event","name":"NumberChanged","inputs":[{"name":"newValue","type":"uint256","indexed":false,"internalType":"uint256"}],"anonymous":false}],"bytecode":{"object":"0x60808060405234602757600180546001600160a01b031916331790556102fd908161002c8239f35b5f80fdfe60806040526004361015610019575b3415610298575b5f80fd5b5f3560e01c80630900f010146100685780634f2be91f1461006357806378a8a58a1461005e578063b0f17e2e146100595763f2c9ecd80361000e57610268565b610244565b61020d565b61019c565b34610015576020366003190112610015576004356001600160a01b038116808203610015576001546001600160a01b0316330361001557600354906001600160a01b0382161461015a576001600160a01b031690811561011557600380546001600160a01b0319166001600160a01b039283169081179091556040805193909216835260208301527faa3f731066a578e5f39b4215468d826cdd15373cbc0dfc9cb9bdc649718ef7da91a1005b60405162461bcd60e51b815260206004820152601760248201527f496d706c656d656e746163696f6e20696e76616c6964610000000000000000006044820152606490fd5b62461bcd60e51b6080526020608452601a60a4527f4573206c61206d69736d6120696d706c656d656e746163696f6e00000000000060c452607f1960e4016080fd5b34610015575f3660031901126100155760ff60015460a01c16610015575f54600181018091116101f6576020817f2fd81fd19d3c5c4b396dd13f451dafc8bcac1b3094c49c5fa90e68456323f0e3925f55604051908152a1005b610284565b60209060031901126100155760043590565b346100155761021b366101fb565b60ff60015460a01c16610015575f52600260205260405f2080545f1981146101f6576001019055005b3461001557610252366101fb565b5f526002602052602060405f2054604051908152f35b34610015575f3660031901126100155760205f54604051908152f35b634e487b7160e01b5f52601160045260245ffd5b6003546001600160a01b03811615610115575f8091368280378136915af43d5f803e156102c3573d5ff35b3d5ffdfea2646970667358221220af04f975882d3ba1bd56c3401fb010398f2ed194b6e9bec2427bdad542b44e7564736f6c634300081a0033","linkReferences":{}},"methodIdentifiers":{"add()":"4f2be91f","add_Calc(uint256)":"78a8a58a","getCalc(uint256)":"b0f17e2e","getNumber()":"f2c9ecd8","upgrade(address)":"0900f010"},"id":92}