{"abi":[{"type":"function","name":"mul","inputs":[{"name":"x","type":"uint256","internalType":"uint256"}],"outputs":[],"stateMutability":"nonpayable"},{"type":"function","name":"mul_Calc","inputs":[{"name":"id","type":"uint256","internalType":"uint256"},{"name":"x","type":"uint256","internalType":"uint256"}],"outputs":[],"stateMutability":"nonpayable"},{"type":"event","name":"ImplementationUpdated","inputs":[{"name":"oldImpl","type":"address","indexed":false,"internalType":"address"},{"name":"newImpl","type":"address","indexed":false,"internalType":"address"}],"anonymous":false},{"type":"event","name":"NumberChanged","inputs":[{"name":"newValue","type":"uint256","indexed":false,"internalType":"uint256"}],"anonymous":false}],"bytecode":{"object":"0x608080604052346015576101e2908161001a8239f35b5f80fdfe60806040526004361015610011575f80fd5b5f3560e01c80630b7b954b146100ea5763131e2f181461002f575f80fd5b346100e65760203660031901126100e65760043561005560ff60015460a01c1615610139565b80156100955760206100897f2fd81fd19d3c5c4b396dd13f451dafc8bcac1b3094c49c5fa90e68456323f0e3925f54610185565b805f55604051908152a1005b60405162461bcd60e51b815260206004820152602360248201527f456c206d756c7469706c696361646f72206465626520736572206d61796f722060448201526206120360ec1b6064820152608490fd5b5f80fd5b346100e65760403660031901126100e65760043561011060ff60015460a01c1615610139565b805f52600260205261012860243560405f2054610185565b905f52600260205260405f20555f80f35b1561014057565b60405162461bcd60e51b815260206004820152601860248201527f456c20636f6e747261746f2065737461207061757361646f00000000000000006044820152606490fd5b8181029291811591840414171561019857565b634e487b7160e01b5f52601160045260245ffdfea2646970667358221220b3ec6134e6ca78d3457a9b35ef591b136a10de598b00eff80234a51903f182c264736f6c634300081a0033","linkReferences":{}},"methodIdentifiers":{"mul(uint256)":"131e2f18","mul_Calc(uint256,uint256)":"0b7b954b"},"id":92}