{"abi":[{"type":"function","name":"send","inputs":[{"name":"_payload","type":"bytes","internalType":"bytes"},{"name":"_options","type":"bytes","internalType":"bytes"}],"outputs":[{"name":"","type":"bytes","internalType":"bytes"},{"name":"","type":"bytes","internalType":"bytes"},{"name":"","type":"uint256","internalType":"uint256"}],"stateMutability":"payable"}],"bytecode":{"object":"0x608080604052346015576101b5908161001a8239f35b5f80fdfe60806040526004361015610011575f80fd5b5f3560e01c637f0a3bf914610024575f80fd5b60403660031901126100bd5760043567ffffffffffffffff81116100bd576100509036906004016100c1565b906024359167ffffffffffffffff83116100bd576100916100b39161008961007f6100a59636906004016100c1565b9590923691610113565b933691610113565b6040519384936060855260608501906100ef565b9083820360208501526100ef565b3460408301520390f35b5f80fd5b9181601f840112156100bd5782359167ffffffffffffffff83116100bd57602083818601950101116100bd57565b805180835260209291819084018484015e5f828201840152601f01601f1916010190565b92919267ffffffffffffffff821161016b5760405191601f8101601f19908116603f0116830167ffffffffffffffff81118482101761016b576040528294818452818301116100bd578281602093845f960137010152565b634e487b7160e01b5f52604160045260245ffdfea2646970667358221220b9d023072186ab461592c39c5becf895b53a1b050888aca5fcbee01c86302c5e64736f6c634300081a0033","linkReferences":{}},"methodIdentifiers":{"send(bytes,bytes)":"7f0a3bf9"},"id":91}