{"abi":[{"type":"constructor","inputs":[{"name":"token","type":"address","internalType":"address"}],"stateMutability":"nonpayable"},{"type":"function","name":"deposit","inputs":[{"name":"userToReceive","type":"address","internalType":"address"},{"name":"token","type":"address","internalType":"address"},{"name":"amount","type":"uint256","internalType":"uint256"},{"name":"solutionId","type":"uint8","internalType":"uint8"},{"name":"options","type":"bytes","internalType":"bytes"}],"outputs":[],"stateMutability":"payable"},{"type":"function","name":"fisherDepositERC20","inputs":[{"name":"addressToReceive","type":"address","internalType":"address"},{"name":"tokenAddress","type":"address","internalType":"address"},{"name":"amount","type":"uint256","internalType":"uint256"},{"name":"priorityFee","type":"uint256","internalType":"uint256"},{"name":"signature","type":"bytes","internalType":"bytes"}],"outputs":[],"stateMutability":"nonpayable"},{"type":"function","name":"fisherDepositETH","inputs":[{"name":"addressToReceive","type":"address","internalType":"address"},{"name":"priorityFee","type":"uint256","internalType":"uint256"},{"name":"signature","type":"bytes","internalType":"bytes"}],"outputs":[],"stateMutability":"payable"},{"type":"function","name":"gatewayMock","inputs":[],"outputs":[{"name":"","type":"address","internalType":"contract MockCrossChainBridge"}],"stateMutability":"view"},{"type":"function","name":"getIfTokenIsWhitelisted","inputs":[{"name":"tokenAddress","type":"address","internalType":"address"}],"outputs":[{"name":"","type":"bool","internalType":"bool"}],"stateMutability":"view"},{"type":"function","name":"getNextFisherDepositNonce","inputs":[{"name":"user","type":"address","internalType":"address"}],"outputs":[{"name":"","type":"uint256","internalType":"uint256"}],"stateMutability":"view"},{"type":"function","name":"getTokensWhitelistPool","inputs":[{"name":"tokenAddress","type":"address","internalType":"address"}],"outputs":[{"name":"","type":"address","internalType":"address"}],"stateMutability":"view"},{"type":"function","name":"seeTokenWhitelist","inputs":[{"name":"tokenAddress","type":"address","internalType":"address"}],"outputs":[{"name":"","type":"bool","internalType":"bool"}],"stateMutability":"view"},{"type":"error","name":"FailedToTransfer","inputs":[]},{"type":"error","name":"InvalidSignature","inputs":[]},{"type":"error","name":"InvalidToken","inputs":[]}],"bytecode":{"object":"0x60803461019657601f61120b38819003918201601f19168301916001600160401b038311848410176101825780849260209460405283398101031261019657516001600160a01b03811690819003610196575f60208190527fdf7ad3c7a2e3db70708daeb487d406b3e889e02ca33162d16b44f6ca5b94f74e80547fc6521c8ea4247e8beb499344e591b9401fb2807ff9997dd598fd9e56c73a264d80546001600160a01b0319908116738ad599c3a0ff1de082011efddc58f1908eb6e6d8179091557f2a11cb67ca5c7e99dba99b50e02c11472d0f19c22ed5af42a1599a7f57e1c7a480548216734e68cc53d6b4f6e3f3c6b6a0e9cd5d6d3f5b9f3d90811790915591811682179092559282526040918290208054909116909217909155516101cf8082016001600160401b0381118382101761018257829161103c833903905ff0801561017757600180546001600160a01b0319166001600160a01b0392909216919091179055604051610ea1908161019b8239f35b6040513d5f823e3d90fd5b634e487b7160e01b5f52604160045260245ffd5b5f80fdfe60806040526004361015610011575f80fd5b5f3560e01c80630ff91c75146100715780634234a7061461008f5780639f53bc051461008a578063a2db9d1914610085578063acf1d77814610080578063b1a7e7ff1461007b578063dc54b824146100765763fbf006df14610071575f80fd5b6100f7565b6104ab565b610340565b6102c5565b61029d565b6101d4565b346100c75760203660031901126100c7576001600160a01b036100b06100cb565b165f526002602052602060405f2054604051908152f35b5f80fd5b600435906001600160a01b03821682036100c757565b602435906001600160a01b03821682036100c757565b346100c75760203660031901126100c7576101106100cb565b6001600160a01b039081165f90815260208181526040918290205491519190921615158152f35b634e487b7160e01b5f52604160045260245ffd5b90601f8019910116810190811067ffffffffffffffff82111761016d57604052565b610137565b67ffffffffffffffff811161016d57601f01601f191660200190565b81601f820112156100c7578035906101a582610172565b926101b3604051948561014b565b828452602083830101116100c757815f926020809301838601378301015290565b60603660031901126100c7576101e86100cb565b6024359060443567ffffffffffffffff81116100c75761020c90369060040161018e565b906001600160a01b038116610297575033905b335f52600260205260405f20549083340334811161029257846102469361024a9533610863565b1590565b6102835761026167016345785d8a000091346104fe565b116100c757335f9081526002602052604090205b61027f815461050b565b9055005b638baa579f60e01b5f5260045ffd5b6104ea565b9061021f565b346100c7575f3660031901126100c7576001546040516001600160a01b039091168152602090f35b60a03660031901126100c7576102d96100cb565b6102e16100e1565b6044359160643560ff811681036100c7576084359367ffffffffffffffff85116100c757366023860112156100c75784600401359367ffffffffffffffff85116100c75736602486880101116100c757602461033e96019361063d565b005b346100c75760a03660031901126100c7576103596100cb565b6103616100e1565b90604435906064359060843567ffffffffffffffff81116100c7576103bc9184848761039461024695369060040161018e565b936001600160a01b0381166104a65750335b335f9081526002602052604090205490336108ed565b6100c7576103f86103ec6103df8560018060a01b03165f525f60205260405f2090565b546001600160a01b031690565b6001600160a01b031690565b156100c7575f9261040e61043e9260209461082c565b6040516323b872dd60e01b8152336004820152306024820152604481019190915293849283919082906064820190565b03926001600160a01b03165af19081156104a1575f91610472575b50156100c757335f908152600260205260409020610275565b610494915060203d60201161049a575b61048c818361014b565b810190610839565b5f610459565b503d610482565b61060f565b6103a6565b346100c75760203660031901126100c7576001600160a01b036104cc6100cb565b165f525f602052602060018060a01b0360405f205416604051908152f35b634e487b7160e01b5f52601160045260245ffd5b9190820391821161029257565b5f1981146102925760010190565b81601f820112156100c75780519061053082610172565b9261053e604051948561014b565b828452602083830101116100c757815f9260208093018386015e8301015290565b90916060828403126100c757815167ffffffffffffffff81116100c75783610588918401610519565b92602083015167ffffffffffffffff81116100c7576040916105ab918501610519565b92015190565b805180835260209291819084018484015e5f828201840152601f01601f1916010190565b91926020936105ed82936040865260408601906105b1565b9385818603910152818452848401375f828201840152601f01601f1916010190565b6040513d5f823e3d90fd5b61062e6020926040835260408301906105b1565b90828183039101525f81520190565b949093929091346001600160a01b0386166107ce5750906106b98261066460ff94346104fe565b975b6001600160a01b0381166107c457506106ab33915b604080516001600160a01b0394851660208201529990931692890192909252606088019190915286906080820190565b03601f19810187528661014b565b166001810361072f5750506001545f926106fe9250906106e1906001600160a01b03166103ec565b90604051948580948193637f0a3bf960e01b83526004830161061a565b03925af180156104a15761070f5750565b61072a903d805f833e610722818361014b565b81019061055f565b505050565b600281036107565750506001545f926106fe9250906106e1906001600160a01b03166103ec565b6003810361077d5750506001545f926106fe9250906106e1906001600160a01b03166103ec565b91939290916004036100c7576001546106fe945f9490916107a6906001600160a01b03166103ec565b9260405196879586948593637f0a3bf960e01b8552600485016105d5565b6106ab909161067b565b956107f16103ec6103df8895949560018060a01b03165f525f60205260405f2090565b156100c75760ff926106b991610666565b90600c820180921161029257565b600201908160021161029257565b600301908160031161029257565b9190820180921161029257565b908160209103126100c7575180151581036100c75790565b805191908290602001825e015f815290565b94916108c06108dc9460016108b26108b298826108b26108a061089a61089461088e6108ce9c610a56565b9a610b6d565b97610b6d565b93610b6d565b95826040519d8e9a60208c0190610851565b600b60fa1b81520190610851565b03601f19810185528461014b565b6001600160a01b0392610cc3565b6001600160a01b0390921691161490565b9594906108fd9094929394610a56565b9261090790610b6d565b9361091190610a56565b9161091b90610b6d565b9061092590610b6d565b916040519485946020860161093991610851565b600b60fa1b815260010161094c91610851565b600b60fa1b815260010161095f91610851565b600b60fa1b815260010161097291610851565b600b60fa1b815260010161098591610851565b03601f1981018252610997908261014b565b6001600160a01b03916108dc91610cc3565b604051906109b860408361014b565b601082526f181899199a1a9b1b9c1cb0b131b232b360811b6020830152565b604051606091906109e8838261014b565b602a815291601f1901366020840137565b634e487b7160e01b5f52603260045260245ffd5b805115610a1a5760200190565b6109f9565b805160011015610a1a5760210190565b908151811015610a1a570160200190565b908160011b918083046002149015171561029257565b6001600160a01b0316610a676109a9565b90610a706109d7565b916030610a7c84610a0d565b536078610a8884610a1f565b535f5b60148110610a995750505090565b610aa281610802565b6020811015610a1a57610ad090610ac29085901a60041c600f1684610a2f565b516001600160f81b03191690565b610aee610ae4610adf84610a40565b610810565b915f1a9186610a2f565b53610af881610802565b906020821015610a1a57610b16610ac2600f866001951a1685610a2f565b610b34610b2a610b2584610a40565b61081e565b915f1a9187610a2f565b5301610a8b565b90610b4582610172565b610b52604051918261014b565b8281528092610b63601f1991610172565b0190602036910137565b805f9172184f03e93ff9f4daa797ed6e38ed64bf6a1f0160401b821015610ca0575b806d04ee2d6d415b85acef8100000000600a921015610c84575b662386f26fc10000811015610c6f575b6305f5e100811015610c5d575b612710811015610c4d575b6064811015610c3e575b1015610c33575b610c1e6021610bf360018501610b3b565b938401015b5f1901916f181899199a1a9b1b9c1cb0b131b232b360811b600a82061a8353600a900490565b8015610c2e57610c1e9091610bf8565b505090565b600190910190610be2565b60029060649004930192610bdb565b6004906127109004930192610bd1565b6008906305f5e1009004930192610bc6565b601090662386f26fc100009004930192610bb9565b6020906d04ee2d6d415b85acef81000000009004930192610ba9565b506040915072184f03e93ff9f4daa797ed6e38ed64bf6a1f0160401b8104610b8f565b610d15610d23610cd38351610b6d565b92604051928391610d0f60208401967f19457468657265756d205369676e6564204d6573736167653a0a0000000000008852603a850190610851565b90610851565b03601f19810183528261014b565b5190206041825103610dc857815f916020809401519160606040820151910151841a92601b8410610db1575b90610d9391610d6d60ff8616601b8114908115610da6575b50610e1f565b604051948594859094939260ff6060936080840197845216602083015260408201520152565b838052039060015afa156104a1575f5190565b601c9150145f610d67565b9290610dbf610d9392610e0d565b93909150610d4f565b60405162461bcd60e51b815260206004820152601860248201527f496e76616c6964207369676e6174757265206c656e67746800000000000000006044820152606490fd5b60ff601b9116019060ff821161029257565b15610e2657565b60405162461bcd60e51b815260206004820152601760248201527f496e76616c6964207369676e61747572652076616c75650000000000000000006044820152606490fdfea264697066735822122093675e39012ce2417a09d85720d84a88ce34009dfc6e1034ed4a8c0cec82d78c64736f6c634300081a0033608080604052346015576101b5908161001a8239f35b5f80fdfe60806040526004361015610011575f80fd5b5f3560e01c637f0a3bf914610024575f80fd5b60403660031901126100bd5760043567ffffffffffffffff81116100bd576100509036906004016100c1565b906024359167ffffffffffffffff83116100bd576100916100b39161008961007f6100a59636906004016100c1565b9590923691610113565b933691610113565b6040519384936060855260608501906100ef565b9083820360208501526100ef565b3460408301520390f35b5f80fd5b9181601f840112156100bd5782359167ffffffffffffffff83116100bd57602083818601950101116100bd57565b805180835260209291819084018484015e5f828201840152601f01601f1916010190565b92919267ffffffffffffffff821161016b5760405191601f8101601f19908116603f0116830167ffffffffffffffff81118482101761016b576040528294818452818301116100bd578281602093845f960137010152565b634e487b7160e01b5f52604160045260245ffdfea2646970667358221220b9d023072186ab461592c39c5becf895b53a1b050888aca5fcbee01c86302c5e64736f6c634300081a0033","linkReferences":{}},"methodIdentifiers":{"deposit(address,address,uint256,uint8,bytes)":"acf1d778","fisherDepositERC20(address,address,uint256,uint256,bytes)":"b1a7e7ff","fisherDepositETH(address,uint256,bytes)":"9f53bc05","gatewayMock()":"a2db9d19","getIfTokenIsWhitelisted(address)":"0ff91c75","getNextFisherDepositNonce(address)":"4234a706","getTokensWhitelistPool(address)":"dc54b824","seeTokenWhitelist(address)":"fbf006df"},"id":91}