{"abi":[{"type":"function","name":"EVM_EXTRA_ARGS_V1_TAG","inputs":[],"outputs":[{"name":"","type":"bytes4","internalType":"bytes4"}],"stateMutability":"view"}],"bytecode":{"object":"0x6080806040523460175760769081601c823930815050f35b5f80fdfe60808060405260043610156011575f80fd5b5f3560e01c633ab8c0d0146023575f80fd5b5f366003190112603c576397a657c960e01b8152602090f35b5f80fdfea264697066735822122002eae50fc8602677b6cfcb099c7bb6838ba6189b42783f2218518286febca56064736f6c634300081a0033","linkReferences":{}},"methodIdentifiers":{"EVM_EXTRA_ARGS_V1_TAG()":"3ab8c0d0"},"id":55}