{"abi":[{"type":"constructor","inputs":[{"name":"_MNS_ADDRESS","type":"address","internalType":"address"},{"name":"_autority","type":"address","internalType":"address"}],"stateMutability":"nonpayable"},{"type":"function","name":"MNS_ADDRESS","inputs":[],"outputs":[{"name":"","type":"address","internalType":"address"}],"stateMutability":"view"},{"type":"function","name":"changeAutority","inputs":[{"name":"_newAutority","type":"address","internalType":"address"}],"outputs":[],"stateMutability":"nonpayable"},{"type":"function","name":"claimTransfer","inputs":[{"name":"_phoneNumber","type":"string","internalType":"string"}],"outputs":[{"name":"reward","type":"uint256","internalType":"uint256"}],"stateMutability":"nonpayable"},{"type":"function","name":"getFullMetadata","inputs":[{"name":"phoneNumber","type":"string","internalType":"string"}],"outputs":[{"name":"","type":"address","internalType":"address"},{"name":"","type":"address","internalType":"address"},{"name":"","type":"uint256","internalType":"uint256"},{"name":"","type":"uint256","internalType":"uint256"}],"stateMutability":"view"},{"type":"function","name":"register","inputs":[{"name":"_user","type":"address","internalType":"address"},{"name":"_phoneNumber","type":"string","internalType":"string"},{"name":"_timestampUser","type":"uint256","internalType":"uint256"},{"name":"_signatureUser","type":"bytes","internalType":"bytes"},{"name":"_timestampAutority","type":"uint256","internalType":"uint256"},{"name":"_signatureAutority","type":"bytes","internalType":"bytes"}],"outputs":[{"name":"reward","type":"uint256","internalType":"uint256"}],"stateMutability":"nonpayable"},{"type":"function","name":"reverseTransfer","inputs":[{"name":"_user","type":"address","internalType":"address"},{"name":"_phoneNumber","type":"string","internalType":"string"},{"name":"_timestamp","type":"uint256","internalType":"uint256"},{"name":"_signature","type":"bytes","internalType":"bytes"}],"outputs":[{"name":"reward","type":"uint256","internalType":"uint256"}],"stateMutability":"nonpayable"}],"bytecode":{"object":"0x60a03460aa57601f610cf638819003918201601f19168301916001600160401b0383118484101760ae57808492604094855283398101031260aa57604b602060458360c2565b920160c2565b608091909152600180546001600160a01b0319166001600160a01b03909216919091179055604051610c2090816100d68239608051818181608f015281816101d2015281816102c9015281816103a80152818161052701526106600152f35b5f80fd5b634e487b7160e01b5f52604160045260245ffd5b51906001600160a01b038216820360aa5756fe60806040526004361015610011575f80fd5b5f3560e01c80630846e1fe146100745780630f88ab5c1461006f5780637f7d4a281461006a578063bd91a16214610065578063de9b8e89146100605763f106fe1d1461005b575f80fd5b6104c7565b610398565b6102f8565b6102b4565b6101c2565b346100df5760203660031901126100df5761008d6100e3565b7f00000000000000000000000000000000000000000000000000000000000000006001600160a01b031633036100df57600180546001600160a01b0319166001600160a01b0392909216919091179055005b5f80fd5b600435906001600160a01b03821682036100df57565b634e487b7160e01b5f52604160045260245ffd5b90601f8019910116810190811067ffffffffffffffff82111761012f57604052565b6100f9565b67ffffffffffffffff811161012f57601f01601f191660200190565b81601f820112156100df5760208135910161016a82610134565b92610178604051948561010d565b828452828201116100df57815f92602092838601378301015290565b60206003198201126100df576004359067ffffffffffffffff82116100df576101bf91600401610150565b90565b346100df576101d036610194565b7f00000000000000000000000000000000000000000000000000000000000000006001600160a01b031633036100df5760405161020d818361062b565b905f825260208160018060a01b03930301902054166102b06040516001610234828661062b565b915f8352602081838060a01b039403019020015416926003610278602060026040518281610262818961062b565b5f8152030190200154936040519283809261062b565b5f8152030190200154604080516001600160a01b03958616815295909416602086015292840152606083019190915281906080820190565b0390f35b346100df575f3660031901126100df576040517f00000000000000000000000000000000000000000000000000000000000000006001600160a01b03168152602090f35b346100df5760c03660031901126100df576103116100e3565b60243567ffffffffffffffff81116100df57610331903690600401610150565b906044359060643567ffffffffffffffff81116100df57610356903690600401610150565b6084359060a4359367ffffffffffffffff85116100df576102b095610382610388963690600401610150565b94610659565b6040519081529081906020820190565b346100df576103a636610194565b7f00000000000000000000000000000000000000000000000000000000000000006001600160a01b031633036100df576040516104026103e6828461062b565b5f8152829003602001909120546001600160a01b039190821690565b161580156104b3575b8015610496575b6100df5760026104888261046461043c600161042e5f9761063d565b01546001600160a01b031690565b6104458361063d565b80546001600160a01b0319166001600160a01b03909216919091179055565b61048360016104728361063d565b0180546001600160a01b0319169055565b61063d565b015560405160198152602090f35b506104ac60036104a58361063d565b01546106ab565b4211610412565b5060036104bf8261063d565b01541561040b565b346100df5760803660031901126100df576104e06100e3565b60243567ffffffffffffffff81116100df57610500903690600401610150565b9060443560643567ffffffffffffffff81116100df57610524903690600401610150565b907f00000000000000000000000000000000000000000000000000000000000000006001600160a01b031633036100df5761056891610564918585610866565b1590565b6100df576001600160a01b0361058d6105808461063d565b546001600160a01b031690565b1615908115610605575b81156105e2575b5080156105cd575b6100df5760026104885f924260036105bd8361063d565b015561048360016104728361063d565b5060026105d98261063d565b015442116105a6565b90506105f06105808361063d565b6001600160a01b03908116911614155f61059e565b9050610624610618600161042e8561063d565b6001600160a01b031690565b1590610597565b805191908290602001825e015f815290565b602061064f916040519283809261062b565b5f81520301902090565b94939291907f00000000000000000000000000000000000000000000000000000000000000006001600160a01b031633036100df576101bf956106cf565b634e487b7160e01b5f52601160045260245ffd5b906201518082018092116106bb57565b610697565b90610e1082018092116106bb57565b93929490946106e36105648285898961079a565b6100df576106f7918487610564938861081b565b6100df57610704906106c0565b4211908115610787575b506100df576001600160a01b036107276105808461063d565b1661073d576104456107389261063d565b603290565b61076c90600161074c8461063d565b0180546001600160a01b0319166001600160a01b03909216919091179055565b600261078061077a426106ab565b9261063d565b0155601990565b905061079342916106c0565b105f61070e565b926107fa61080a926107ec6107b16107de966108dc565b60016040519788946731321c98b0989b1960c11b6020870152600b60fa1b6028870152602986019061062b565b600b60fa1b8152019061062b565b03601f19810185528461010d565b82516001600160a01b0393610a3d565b6001600160a01b0390921691161490565b93906107fa906107ec61080a9460016107de6108396107de996108dc565b92826040519a8b976731321c98b0989b1960c11b60208a0152600b60fa1b60288a0152602989019061062b565b926107fa61080a926107ec61087d6107de966108dc565b600160405197889467198c4c0d99994c5960c21b6020870152600b60fa1b6028870152602986019061062b565b906108b482610134565b6108c1604051918261010d565b82815280926108d2601f1991610134565b0190602036910137565b805f9172184f03e93ff9f4daa797ed6e38ed64bf6a1f0160401b821015610a0f575b806d04ee2d6d415b85acef8100000000600a9210156109f3575b662386f26fc100008110156109de575b6305f5e1008110156109cc575b6127108110156109bc575b60648110156109ad575b10156109a2575b61098d6021610962600185016108aa565b938401015b5f1901916f181899199a1a9b1b9c1cb0b131b232b360811b600a82061a8353600a900490565b801561099d5761098d9091610967565b505090565b600190910190610951565b6002906064900493019261094a565b6004906127109004930192610940565b6008906305f5e1009004930192610935565b601090662386f26fc100009004930192610928565b6020906d04ee2d6d415b85acef81000000009004930192610918565b506040915072184f03e93ff9f4daa797ed6e38ed64bf6a1f0160401b81046108fe565b6040513d5f823e3d90fd5b90610a9d610a4d610a8f926108dc565b92604051928391610a8960208401967f19457468657265756d205369676e6564204d6573736167653a0a0000000000008852603a85019061062b565b9061062b565b03601f19810183528261010d565b5190206041825103610b4757815f916020809401519160606040820151910151841a92601b8410610b30575b90610b0d91610ae760ff8616601b8114908115610b25575b50610b9e565b604051948594859094939260ff6060936080840197845216602083015260408201520152565b838052039060015afa15610b20575f5190565b610a32565b601c9150145f610ae1565b9290610b3e610b0d92610b8c565b93909150610ac9565b60405162461bcd60e51b815260206004820152601860248201527f496e76616c6964207369676e6174757265206c656e67746800000000000000006044820152606490fd5b60ff601b9116019060ff82116106bb57565b15610ba557565b60405162461bcd60e51b815260206004820152601760248201527f496e76616c6964207369676e61747572652076616c75650000000000000000006044820152606490fdfea264697066735822122010ef46eea164258d8e071c1709a321ecee92710cf4a34fc0fafcdfb8b151d0e364736f6c634300081a0033","linkReferences":{}},"methodIdentifiers":{"MNS_ADDRESS()":"7f7d4a28","changeAutority(address)":"0846e1fe","claimTransfer(string)":"de9b8e89","getFullMetadata(string)":"0f88ab5c","register(address,string,uint256,bytes,uint256,bytes)":"bd91a162","reverseTransfer(address,string,uint256,bytes)":"f106fe1d"},"id":99}