{"abi":[{"type":"constructor","inputs":[{"name":"_endpoint","type":"address","internalType":"address"},{"name":"_owner","type":"address","internalType":"address"}],"stateMutability":"nonpayable"},{"type":"function","name":"endpoint","inputs":[],"outputs":[{"name":"","type":"address","internalType":"contract ILayerZeroEndpointV2"}],"stateMutability":"view"},{"type":"function","name":"oAppVersion","inputs":[],"outputs":[{"name":"senderVersion","type":"uint64","internalType":"uint64"},{"name":"receiverVersion","type":"uint64","internalType":"uint64"}],"stateMutability":"view"},{"type":"function","name":"owner","inputs":[],"outputs":[{"name":"","type":"address","internalType":"address"}],"stateMutability":"view"},{"type":"function","name":"peers","inputs":[{"name":"eid","type":"uint32","internalType":"uint32"}],"outputs":[{"name":"peer","type":"bytes32","internalType":"bytes32"}],"stateMutability":"view"},{"type":"function","name":"quote","inputs":[{"name":"_dstEid","type":"uint32","internalType":"uint32"},{"name":"_message","type":"string","internalType":"string"},{"name":"_options","type":"bytes","internalType":"bytes"},{"name":"_payInLzToken","type":"bool","internalType":"bool"}],"outputs":[{"name":"fee","type":"tuple","internalType":"struct MessagingFee","components":[{"name":"nativeFee","type":"uint256","internalType":"uint256"},{"name":"lzTokenFee","type":"uint256","internalType":"uint256"}]}],"stateMutability":"view"},{"type":"function","name":"renounceOwnership","inputs":[],"outputs":[],"stateMutability":"nonpayable"},{"type":"function","name":"send","inputs":[{"name":"_dstEid","type":"uint32","internalType":"uint32"},{"name":"_payload","type":"bytes","internalType":"bytes"},{"name":"_options","type":"bytes","internalType":"bytes"},{"name":"whoGetRefund","type":"address","internalType":"address"}],"outputs":[],"stateMutability":"payable"},{"type":"function","name":"setDelegate","inputs":[{"name":"_delegate","type":"address","internalType":"address"}],"outputs":[],"stateMutability":"nonpayable"},{"type":"function","name":"setPeer","inputs":[{"name":"_eid","type":"uint32","internalType":"uint32"},{"name":"_peer","type":"bytes32","internalType":"bytes32"}],"outputs":[],"stateMutability":"nonpayable"},{"type":"function","name":"transferOwnership","inputs":[{"name":"newOwner","type":"address","internalType":"address"}],"outputs":[],"stateMutability":"nonpayable"},{"type":"event","name":"OwnershipTransferred","inputs":[{"name":"previousOwner","type":"address","indexed":true,"internalType":"address"},{"name":"newOwner","type":"address","indexed":true,"internalType":"address"}],"anonymous":false},{"type":"event","name":"PeerSet","inputs":[{"name":"eid","type":"uint32","indexed":false,"internalType":"uint32"},{"name":"peer","type":"bytes32","indexed":false,"internalType":"bytes32"}],"anonymous":false},{"type":"error","name":"AddressEmptyCode","inputs":[{"name":"target","type":"address","internalType":"address"}]},{"type":"error","name":"AddressInsufficientBalance","inputs":[{"name":"account","type":"address","internalType":"address"}]},{"type":"error","name":"FailedInnerCall","inputs":[]},{"type":"error","name":"InvalidEndpointCall","inputs":[]},{"type":"error","name":"LzTokenUnavailable","inputs":[]},{"type":"error","name":"NoPeer","inputs":[{"name":"eid","type":"uint32","internalType":"uint32"}]},{"type":"error","name":"NotEnoughNative","inputs":[{"name":"msgValue","type":"uint256","internalType":"uint256"}]},{"type":"error","name":"OnlyPeer","inputs":[{"name":"eid","type":"uint32","internalType":"uint32"},{"name":"sender","type":"bytes32","internalType":"bytes32"}]},{"type":"error","name":"OwnableInvalidOwner","inputs":[{"name":"owner","type":"address","internalType":"address"}]},{"type":"error","name":"OwnableUnauthorizedAccount","inputs":[{"name":"account","type":"address","internalType":"address"}]},{"type":"error","name":"SafeERC20FailedOperation","inputs":[{"name":"token","type":"address","internalType":"address"}]}],"bytecode":{"object":"0x60a080604052346100f257604081610cef803803809161001f8285610109565b8339810103126100f25761003e602061003783610140565b9201610140565b9033156100f65761004e33610154565b61005782610154565b6001600160a01b0316608081905290813b156100f25760405163ca5eb5e160e01b81526001600160a01b039091166004820152905f908290602490829084905af180156100e7576100d7575b604051610b54908161019b82396080518181816101940152818161040f015281816104c00152818161067001526107be0152f35b5f6100e191610109565b5f6100a3565b6040513d5f823e3d90fd5b5f80fd5b631e4fbdf760e01b5f525f60045260245ffd5b601f909101601f19168101906001600160401b0382119082101761012c57604052565b634e487b7160e01b5f52604160045260245ffd5b51906001600160a01b03821682036100f257565b5f80546001600160a01b039283166001600160a01b03198216811783559216907f8be0079c531659141344cd1fd0a4f28419497f9722a3daafe3b4186f6b6457e09080a356fe6080806040526004361015610012575f80fd5b5f905f3560e01c90816317442b7014610856575080633400288b146107ed5780635e280f11146107a9578063715018a6146107525780638da5cb5b1461072b578063bb0b6a53146106f6578063ca5eb5e11461064c578063df004806146102bf578063f2fde38b146102395763f77e5dd31461008c575f80fd5b34610218576080366003190112610218576100a5610875565b60243567ffffffffffffffff81116102355736602382011215610235576100d6903690602481600401359101610944565b60443567ffffffffffffffff8111610231576100f690369060040161097a565b9160643580151580910361022d576101909361012e61013c604095610119610998565b508651928391602080840152888301906109b0565b03601f198101835282610906565b610144610998565b5061014e84610a90565b63ffffffff86519561015f876108ea565b16855260208501528484015260608301526080820152815180938192631bb8518b60e31b8352309060048401610a22565b03817f00000000000000000000000000000000000000000000000000000000000000006001600160a01b03165afa9081156102225782916101e1575b60408260208251918051835201516020820152f35b905060403d60401161021b575b6101f88183610906565b8101916040828403126102185750604091610212916109fa565b5f6101cc565b80fd5b503d6101ee565b6040513d84823e3d90fd5b8480fd5b8380fd5b8280fd5b503461021857602036600319011261021857610253610888565b61025b6109d4565b6001600160a01b031680156102ab5781546001600160a01b03198116821783556001600160a01b03167f8be0079c531659141344cd1fd0a4f28419497f9722a3daafe3b4186f6b6457e08380a380f35b631e4fbdf760e01b82526004829052602482fd5b506080366003190112610218576102d4610875565b60243567ffffffffffffffff8111610235576102f490369060040161097a565b6044359167ffffffffffffffff8311610231573660238401121561023157826004013567ffffffffffffffff811161022d57366024828601011161022d576064356001600160a01b03811694908590036106485761036d604051916103588361089e565b34835260208301938885526024369201610944565b9060405161037a816108ce565b87815287602082015260408051916103918361089e565b5f83525f602084015201525193843403610635578251806104b1575b50918391608095936103c261040b9896610a90565b925115159263ffffffff604051956103d9876108ea565b168552602085015260408401526060830152848201526040518095819482936302637a4560e41b845260048401610a22565b03917f00000000000000000000000000000000000000000000000000000000000000006001600160a01b03165af1801561022257610447575080f35b60803d6080116104aa575b61045c8183610906565b8101906080818303126102355760405191610476836108ce565b81518352602082015167ffffffffffffffff8116810361022d5760208401526104a1916040016109fa565b60408201525080f35b503d610452565b60405163393f876560e21b81527f00000000000000000000000000000000000000000000000000000000000000006001600160a01b031690602081600481855afa90811561062a578a916105e4575b506001600160a01b03169182156105d5578961057f9281926040519060208201926323b872dd60e01b8452336024840152604483015260648201526064815261054a608482610906565b519082865af13d156105cd573d9061056182610928565b9161056f6040519384610906565b82523d8b602084013e5b83610ac0565b80519081151591826105a5575b5050156103ad57635274afe760e01b8852600452602487fd5b81925090602091810103126105c957602001518015908115036105c9575f8061058c565b8880fd5b606090610579565b6329b99a9560e11b8a5260048afd5b90506020813d602011610622575b816105ff60209383610906565b8101031261061e57516001600160a01b038116810361061e575f610500565b8980fd5b3d91506105f2565b6040513d8c823e3d90fd5b6304fb820960e51b875234600452602487fd5b8580fd5b50346106f25760203660031901126106f257610666610888565b61066e6109d4565b7f00000000000000000000000000000000000000000000000000000000000000006001600160a01b031690813b156106f25760405163ca5eb5e160e01b81526001600160a01b039091166004820152905f908290602490829084905af180156106e7576106d9575080f35b6106e591505f90610906565b005b6040513d5f823e3d90fd5b5f80fd5b346106f25760203660031901126106f25763ffffffff610714610875565b165f526001602052602060405f2054604051908152f35b346106f2575f3660031901126106f2575f546040516001600160a01b039091168152602090f35b346106f2575f3660031901126106f25761076a6109d4565b5f80546001600160a01b0319811682556001600160a01b03167f8be0079c531659141344cd1fd0a4f28419497f9722a3daafe3b4186f6b6457e08280a3005b346106f2575f3660031901126106f2576040517f00000000000000000000000000000000000000000000000000000000000000006001600160a01b03168152602090f35b346106f25760403660031901126106f2577f238399d427b947898edb290f5ff0f9109849b1c3ba196a42e35f00c50a54b98b6040610829610875565b63ffffffff6024359161083a6109d4565b1690815f52600160205280835f205582519182526020820152a1005b346106f2575f3660031901126106f257806001604092525f6020820152f35b6004359063ffffffff821682036106f257565b600435906001600160a01b03821682036106f257565b6040810190811067ffffffffffffffff8211176108ba57604052565b634e487b7160e01b5f52604160045260245ffd5b6060810190811067ffffffffffffffff8211176108ba57604052565b60a0810190811067ffffffffffffffff8211176108ba57604052565b90601f8019910116810190811067ffffffffffffffff8211176108ba57604052565b67ffffffffffffffff81116108ba57601f01601f191660200190565b92919261095082610928565b9161095e6040519384610906565b8294818452818301116106f2578281602093845f960137010152565b9080601f830112156106f25781602061099593359101610944565b90565b604051906109a58261089e565b5f6020838281520152565b805180835260209291819084018484015e5f828201840152601f01601f1916010190565b5f546001600160a01b031633036109e757565b63118cdaa760e01b5f523360045260245ffd5b91908260409103126106f257604051610a128161089e565b6020808294805184520151910152565b906020909392936040835263ffffffff81511660408401528181015160608401526080610a76610a60604084015160a08488015260e08701906109b0565b6060840151868203603f190160a08801526109b0565b910151151560c08401526001600160a01b03909416910152565b63ffffffff16805f52600160205260405f2054908115610aae575090565b63f6ff4fb760e01b5f5260045260245ffd5b90610ae45750805115610ad557805190602001fd5b630a12f52160e11b5f5260045ffd5b81511580610b15575b610af5575090565b639996b31560e01b5f9081526001600160a01b0391909116600452602490fd5b50803b15610aed56fea2646970667358221220f44290c9ce390075105ef72cb0f216133b4f51266532935e48439b8e25b5d9d764736f6c634300081a0033","linkReferences":{}},"methodIdentifiers":{"endpoint()":"5e280f11","oAppVersion()":"17442b70","owner()":"8da5cb5b","peers(uint32)":"bb0b6a53","quote(uint32,string,bytes,bool)":"f77e5dd3","renounceOwnership()":"715018a6","send(uint32,bytes,bytes,address)":"df004806","setDelegate(address)":"ca5eb5e1","setPeer(uint32,bytes32)":"3400288b","transferOwnership(address)":"f2fde38b"},"id":94}