{"abi":[{"type":"constructor","inputs":[{"name":"initialOwner","type":"address","internalType":"address"},{"name":"AxelarGateway","type":"address","internalType":"address"},{"name":"AxelarGasService","type":"address","internalType":"address"},{"name":"CcipRouter","type":"address","internalType":"address"},{"name":"HyperlaneMailbox","type":"address","internalType":"address"},{"name":"LayerZeroEndpoint","type":"address","internalType":"address"}],"stateMutability":"nonpayable"},{"type":"function","name":"_setEvvmMetadata","inputs":[{"name":"_axelarEvvmAddress","type":"string","internalType":"string"},{"name":"_axelarEvvmChain","type":"string","internalType":"string"},{"name":"_ccipEvvmAddress","type":"address","internalType":"address"},{"name":"_ccipEvvmChain","type":"uint64","internalType":"uint64"},{"name":"_hyperlaneEvvmAddress","type":"address","internalType":"address"},{"name":"_hyperlaneEvvmChain","type":"uint32","internalType":"uint32"},{"name":"_layerZeroEvvmAddress","type":"address","internalType":"address"},{"name":"_layerZeroEvvmChain","type":"uint32","internalType":"uint32"}],"outputs":[],"stateMutability":"nonpayable"},{"type":"function","name":"acceptOwner","inputs":[],"outputs":[],"stateMutability":"nonpayable"},{"type":"function","name":"acceptyMaxAmountToDeposit","inputs":[],"outputs":[],"stateMutability":"nonpayable"},{"type":"function","name":"addTokenToWhitelist","inputs":[],"outputs":[],"stateMutability":"nonpayable"},{"type":"function","name":"allowInitializePath","inputs":[{"name":"origin","type":"tuple","internalType":"struct Origin","components":[{"name":"srcEid","type":"uint32","internalType":"uint32"},{"name":"sender","type":"bytes32","internalType":"bytes32"},{"name":"nonce","type":"uint64","internalType":"uint64"}]}],"outputs":[{"name":"","type":"bool","internalType":"bool"}],"stateMutability":"view"},{"type":"function","name":"cancelPrepareTokenToBeWhitelisted","inputs":[],"outputs":[],"stateMutability":"nonpayable"},{"type":"function","name":"ccipReceive","inputs":[{"name":"message","type":"tuple","internalType":"struct Client.Any2EVMMessage","components":[{"name":"messageId","type":"bytes32","internalType":"bytes32"},{"name":"sourceChainSelector","type":"uint64","internalType":"uint64"},{"name":"sender","type":"bytes","internalType":"bytes"},{"name":"data","type":"bytes","internalType":"bytes"},{"name":"destTokenAmounts","type":"tuple[]","internalType":"struct Client.EVMTokenAmount[]","components":[{"name":"token","type":"address","internalType":"address"},{"name":"amount","type":"uint256","internalType":"uint256"}]}]}],"outputs":[],"stateMutability":"nonpayable"},{"type":"function","name":"deposit","inputs":[{"name":"addressToReceive","type":"address","internalType":"address"},{"name":"token","type":"address","internalType":"address"},{"name":"amount","type":"uint256","internalType":"uint256"},{"name":"solutionId","type":"uint8","internalType":"uint8"},{"name":"options","type":"bytes","internalType":"bytes"}],"outputs":[],"stateMutability":"payable"},{"type":"function","name":"endpoint","inputs":[],"outputs":[{"name":"","type":"address","internalType":"contract ILayerZeroEndpointV2"}],"stateMutability":"view"},{"type":"function","name":"estimateAmountUsingUniswapV3Pool","inputs":[{"name":"poolv3","type":"address","internalType":"address"},{"name":"tokenIn","type":"address","internalType":"address"},{"name":"amountIn","type":"uint128","internalType":"uint128"},{"name":"secondsAgo","type":"uint32","internalType":"uint32"}],"outputs":[{"name":"ammountOut","type":"uint256","internalType":"uint256"}],"stateMutability":"view"},{"type":"function","name":"execute","inputs":[{"name":"commandId","type":"bytes32","internalType":"bytes32"},{"name":"sourceChain","type":"string","internalType":"string"},{"name":"sourceAddress","type":"string","internalType":"string"},{"name":"payload","type":"bytes","internalType":"bytes"}],"outputs":[],"stateMutability":"nonpayable"},{"type":"function","name":"executeWithToken","inputs":[{"name":"commandId","type":"bytes32","internalType":"bytes32"},{"name":"sourceChain","type":"string","internalType":"string"},{"name":"sourceAddress","type":"string","internalType":"string"},{"name":"payload","type":"bytes","internalType":"bytes"},{"name":"tokenSymbol","type":"string","internalType":"string"},{"name":"amount","type":"uint256","internalType":"uint256"}],"outputs":[],"stateMutability":"nonpayable"},{"type":"function","name":"fisherDepositERC20","inputs":[{"name":"addressToReceive","type":"address","internalType":"address"},{"name":"tokenAddress","type":"address","internalType":"address"},{"name":"amount","type":"uint256","internalType":"uint256"},{"name":"priorityFee","type":"uint256","internalType":"uint256"},{"name":"signature","type":"bytes","internalType":"bytes"}],"outputs":[],"stateMutability":"nonpayable"},{"type":"function","name":"fisherDepositETH","inputs":[{"name":"addressToReceive","type":"address","internalType":"address"},{"name":"priorityFee","type":"uint256","internalType":"uint256"},{"name":"signature","type":"bytes","internalType":"bytes"}],"outputs":[],"stateMutability":"payable"},{"type":"function","name":"fisherWithdrawalReceiver","inputs":[{"name":"user","type":"address","internalType":"address"},{"name":"addressToReceive","type":"address","internalType":"address"},{"name":"tokenAddress","type":"address","internalType":"address"},{"name":"priorityFee","type":"uint256","internalType":"uint256"},{"name":"amount","type":"uint256","internalType":"uint256"},{"name":"signature","type":"bytes","internalType":"bytes"}],"outputs":[],"stateMutability":"nonpayable"},{"type":"function","name":"gasService","inputs":[],"outputs":[{"name":"","type":"address","internalType":"contract IAxelarGasService"}],"stateMutability":"view"},{"type":"function","name":"gateway","inputs":[],"outputs":[{"name":"","type":"address","internalType":"contract IAxelarGateway"}],"stateMutability":"view"},{"type":"function","name":"getIfTokenIsWhitelisted","inputs":[{"name":"tokenAddress","type":"address","internalType":"address"}],"outputs":[{"name":"","type":"bool","internalType":"bool"}],"stateMutability":"view"},{"type":"function","name":"getMaxAmountToDeposit","inputs":[],"outputs":[{"name":"","type":"uint256","internalType":"uint256"}],"stateMutability":"view"},{"type":"function","name":"getNextFisherDepositNonce","inputs":[{"name":"user","type":"address","internalType":"address"}],"outputs":[{"name":"","type":"uint256","internalType":"uint256"}],"stateMutability":"view"},{"type":"function","name":"getNextFisherWithdrawalNonce","inputs":[{"name":"user","type":"address","internalType":"address"}],"outputs":[{"name":"","type":"uint256","internalType":"uint256"}],"stateMutability":"view"},{"type":"function","name":"getRouter","inputs":[],"outputs":[{"name":"","type":"address","internalType":"address"}],"stateMutability":"view"},{"type":"function","name":"getTokensWhitelistPool","inputs":[{"name":"tokenAddress","type":"address","internalType":"address"}],"outputs":[{"name":"","type":"address","internalType":"address"}],"stateMutability":"view"},{"type":"function","name":"handle","inputs":[{"name":"_origin","type":"uint32","internalType":"uint32"},{"name":"_sender","type":"bytes32","internalType":"bytes32"},{"name":"_data","type":"bytes","internalType":"bytes"}],"outputs":[],"stateMutability":"payable"},{"type":"function","name":"lookLzSenderApp","inputs":[],"outputs":[{"name":"","type":"address","internalType":"address"}],"stateMutability":"view"},{"type":"function","name":"lzReceive","inputs":[{"name":"_origin","type":"tuple","internalType":"struct Origin","components":[{"name":"srcEid","type":"uint32","internalType":"uint32"},{"name":"sender","type":"bytes32","internalType":"bytes32"},{"name":"nonce","type":"uint64","internalType":"uint64"}]},{"name":"_guid","type":"bytes32","internalType":"bytes32"},{"name":"_message","type":"bytes","internalType":"bytes"},{"name":"_executor","type":"address","internalType":"address"},{"name":"_extraData","type":"bytes","internalType":"bytes"}],"outputs":[],"stateMutability":"payable"},{"type":"function","name":"lzSenderApp","inputs":[],"outputs":[{"name":"","type":"address","internalType":"contract SourceOApp"}],"stateMutability":"view"},{"type":"function","name":"nextNonce","inputs":[{"name":"","type":"uint32","internalType":"uint32"},{"name":"","type":"bytes32","internalType":"bytes32"}],"outputs":[{"name":"nonce","type":"uint64","internalType":"uint64"}],"stateMutability":"view"},{"type":"function","name":"oAppVersion","inputs":[],"outputs":[{"name":"senderVersion","type":"uint64","internalType":"uint64"},{"name":"receiverVersion","type":"uint64","internalType":"uint64"}],"stateMutability":"pure"},{"type":"function","name":"owner","inputs":[],"outputs":[{"name":"","type":"address","internalType":"address"}],"stateMutability":"view"},{"type":"function","name":"peers","inputs":[{"name":"eid","type":"uint32","internalType":"uint32"}],"outputs":[{"name":"peer","type":"bytes32","internalType":"bytes32"}],"stateMutability":"view"},{"type":"function","name":"prepareTokenToBeWhitelisted","inputs":[{"name":"token","type":"address","internalType":"address"},{"name":"pool","type":"address","internalType":"address"}],"outputs":[],"stateMutability":"nonpayable"},{"type":"function","name":"proposeMaxAmountToDeposit","inputs":[{"name":"amount","type":"uint256","internalType":"uint256"}],"outputs":[],"stateMutability":"nonpayable"},{"type":"function","name":"rejectProposeMaxAmountToDeposit","inputs":[],"outputs":[],"stateMutability":"nonpayable"},{"type":"function","name":"rejectProposeOwner","inputs":[],"outputs":[],"stateMutability":"nonpayable"},{"type":"function","name":"removeTokenFromWhitelist","inputs":[{"name":"tokenAddress","type":"address","internalType":"address"}],"outputs":[],"stateMutability":"nonpayable"},{"type":"function","name":"renounceOwnership","inputs":[],"outputs":[],"stateMutability":"nonpayable"},{"type":"function","name":"seeTokenWhitelist","inputs":[{"name":"tokenAddress","type":"address","internalType":"address"}],"outputs":[{"name":"","type":"bool","internalType":"bool"}],"stateMutability":"view"},{"type":"function","name":"setDelegate","inputs":[{"name":"_delegate","type":"address","internalType":"address"}],"outputs":[],"stateMutability":"nonpayable"},{"type":"function","name":"setPeer","inputs":[{"name":"_eid","type":"uint32","internalType":"uint32"},{"name":"_peer","type":"bytes32","internalType":"bytes32"}],"outputs":[],"stateMutability":"nonpayable"},{"type":"function","name":"supportsInterface","inputs":[{"name":"interfaceId","type":"bytes4","internalType":"bytes4"}],"outputs":[{"name":"","type":"bool","internalType":"bool"}],"stateMutability":"pure"},{"type":"function","name":"transferOwnership","inputs":[{"name":"newOwner","type":"address","internalType":"address"}],"outputs":[],"stateMutability":"nonpayable"},{"type":"event","name":"DepositIntoRollAMate","inputs":[{"name":"user","type":"address","indexed":true,"internalType":"address"},{"name":"token","type":"address","indexed":true,"internalType":"address"},{"name":"amount","type":"uint256","indexed":false,"internalType":"uint256"},{"name":"solutionId","type":"uint8","indexed":false,"internalType":"uint8"}],"anonymous":false},{"type":"event","name":"FisherMakeDeposit","inputs":[{"name":"signature","type":"bytes","indexed":true,"internalType":"bytes"}],"anonymous":false},{"type":"event","name":"NewTokenWhitelisted","inputs":[{"name":"token","type":"address","indexed":true,"internalType":"address"},{"name":"pool","type":"address","indexed":true,"internalType":"address"}],"anonymous":false},{"type":"event","name":"OwnershipTransferred","inputs":[{"name":"previousOwner","type":"address","indexed":true,"internalType":"address"},{"name":"newOwner","type":"address","indexed":true,"internalType":"address"}],"anonymous":false},{"type":"event","name":"PeerSet","inputs":[{"name":"eid","type":"uint32","indexed":false,"internalType":"uint32"},{"name":"peer","type":"bytes32","indexed":false,"internalType":"bytes32"}],"anonymous":false},{"type":"error","name":"InvalidAddress","inputs":[]},{"type":"error","name":"InvalidEndpointCall","inputs":[]},{"type":"error","name":"InvalidRouter","inputs":[{"name":"router","type":"address","internalType":"address"}]},{"type":"error","name":"NoPeer","inputs":[{"name":"eid","type":"uint32","internalType":"uint32"}]},{"type":"error","name":"NotApprovedByGateway","inputs":[]},{"type":"error","name":"OnlyEndpoint","inputs":[{"name":"addr","type":"address","internalType":"address"}]},{"type":"error","name":"OnlyPeer","inputs":[{"name":"eid","type":"uint32","internalType":"uint32"},{"name":"sender","type":"bytes32","internalType":"bytes32"}]},{"type":"error","name":"OwnableInvalidOwner","inputs":[{"name":"owner","type":"address","internalType":"address"}]},{"type":"error","name":"OwnableUnauthorizedAccount","inputs":[{"name":"account","type":"address","internalType":"address"}]},{"type":"error","name":"T","inputs":[]}],"bytecode":{"object":"0x6101208060405234610233575f9060c081614ad38038038091610022828561026c565b83398101031261023357610035816102a3565b90610042602082016102a3565b9161004f604083016102a3565b9061005c606084016102a3565b61007460a061006d608087016102a3565b95016102a3565b6001600160a01b03831695909290861561025957610091826102b7565b6001600160a01b0316801561024a576080526001600160a01b03821615610237576100be9160a0526102b7565b6001600160a01b031660c081905292833b15610233576040519063ca5eb5e160e01b825260048201525f8160248183885af1801561022857610213575b506001600160a01b0390811660e052600980546001600160a01b0319169290911691909117905560405190610cef80830191906001600160401b038311848410176101ff57918391604093613de48439815230602082015203019082f09081156101f357506101005267016345785d8a0000600f55604051613ae690816102fe8239608051818181610388015281816111b201528181611cef0152611e28015260a051818181610c9d015281816112c101526115fc015260c0518181816104590152818161090b0152611a26015260e05181818161094f015261114b0152610100518181816106410152818161144c0152611f9a0152f35b604051903d90823e3d90fd5b634e487b7160e01b85526041600452602485fd5b6102209194505f9061026c565b5f925f6100fb565b6040513d5f823e3d90fd5b5f80fd5b6335fdcccd60e21b5f525f60045260245ffd5b63e6c4247b60e01b5f5260045ffd5b631e4fbdf760e01b5f525f60045260245ffd5b601f909101601f19168101906001600160401b0382119082101761028f57604052565b634e487b7160e01b5f52604160045260245ffd5b51906001600160a01b038216820361023357565b5f80546001600160a01b039283166001600160a01b03198216811783559216907f8be0079c531659141344cd1fd0a4f28419497f9722a3daafe3b4186f6b6457e09080a356fe60806040526004361015610011575f80fd5b5f3560e01c806301ffc9a7146102aa5780630ff91c75146101ec578063116191b6146102a557806313137d65146102a057806317442b701461029b5780631a98b2e0146102965780632288e2f61461029157806326415c711461028c5780632e9595eb14610200578063306275be146102875780633400288b146102825780633de62f671461027d5780634234a70614610278578063491606581461027357806356d5d4751461026e5780635e280f11146102695780636a22d8cc146102645780636e5952291461025f57806371034ee91461025a578063715018a614610255578063719ca6df146102505780637d25a05e1461024b57806385572ffb146102465780638da5cb5b14610241578063989106ff1461023c5780639c113d1b146102375780639c7fbc7c146102325780639f53bc051461022d578063a4cba4ba14610228578063acf1d77814610223578063b0f479a11461021e578063b1a7e7ff14610219578063b7ce53ca14610214578063bb0b6a531461020f578063ca5eb5e11461020a578063cd87aa1614610205578063d02e11c214610200578063dc54b824146101fb578063ebbc4965146101f6578063f2fde38b146101f1578063fbf006df146101ec5763ff7bd03d146101e7575f80fd5b611bd9565b610324565b611b87565b611b11565b611ace565b61062c565b611a9b565b6119fe565b6119c5565b6117db565b61162b565b6115e7565b611076565b61103b565b610f55565b610e78565b610dc2565b610da5565b610d7e565b610c6b565b610c45565b610bcb565b610b74565b610b3e565b610aa5565b61093a565b6108f6565b610859565b6107da565b61079f565b61075b565b6106d6565b610670565b6105fe565b6105db565b610534565b610514565b6103f5565b610373565b346103005760203660031901126103005760043563ffffffff60e01b8116809103610300576020906385572ffb60e01b81149081156102ef575b506040519015158152f35b6301ffc9a760e01b1490505f6102e4565b5f80fd5b6001600160a01b0381160361030057565b60c4359061032282610304565b565b346103005760203660031901126103005760043561034181610304565b60018060a01b03165f526014602052602060018060a01b0360405f2054161515604051908152f35b5f91031261030057565b34610300575f366003190112610300576040517f00000000000000000000000000000000000000000000000000000000000000006001600160a01b03168152602090f35b606090600319011261030057600490565b9181601f84011215610300578235916001600160401b038311610300576020838186019501011161030057565b60e03660031901126103005761040a366103b7565b6084356001600160401b038111610300576104299036906004016103c8565b9061043560a435610304565b60c4356001600160401b038111610300576104549036906004016103c8565b5050337f00000000000000000000000000000000000000000000000000000000000000006001600160a01b0316036105015763ffffffff8335610496816106bb565b16805f52600160205260405f20549081156104ef575060208401358091036104c457506104c29261279e565b005b6104ec906104d185611c1e565b63309afaf360e21b5f5263ffffffff16600452602452604490565b5ffd5b63f6ff4fb760e01b5f5260045260245ffd5b6391ac5e4f60e01b5f523360045260245ffd5b34610300575f36600319011261030057604080515f815260016020820152f35b346103005760c0366003190112610300576004356024356001600160401b038111610300576105679036906004016103c8565b6044929192356001600160401b038111610300576105899036906004016103c8565b6064949194356001600160401b038111610300576105ab9036906004016103c8565b91608435966001600160401b038811610300576105cf6104c29836906004016103c8565b96909560a43598611c6b565b34610300575f366003190112610300576105f36127ea565b5f6010819055601155005b34610300575f366003190112610300576106166127ea565b600a80546001600160a01b03191690555f600b55005b34610300575f366003190112610300576040517f00000000000000000000000000000000000000000000000000000000000000006001600160a01b03168152602090f35b346103005760203660031901126103005760043561068d81610304565b6106956127ea565b6001600160a01b03165f90815260146020526040902080546001600160a01b0319169055005b63ffffffff81160361030057565b60e43590610322826106bb565b34610300576040366003190112610300577f238399d427b947898edb290f5ff0f9109849b1c3ba196a42e35f00c50a54b98b600435610714816106bb565b602435906107206127ea565b63ffffffff81165f5260016020528160405f2055610756604051928392836020909392919363ffffffff60408201951681520152565b0390a1005b34610300575f366003190112610300576107736127ea565b6001600160601b0360a01b600c5416600c556001600160601b0360a01b600d5416600d555f600e555f80f35b34610300576020366003190112610300576004356107bc81610304565b60018060a01b03165f526012602052602060405f2054604051908152f35b34610300576080366003190112610300576004356024356001600160401b0381116103005761080d9036906004016103c8565b916044356001600160401b0381116103005761082d9036906004016103c8565b90606435946001600160401b038611610300576108516104c29636906004016103c8565b959094611dc3565b606036600319011261030057600435610871816106bb565b602435906044356001600160401b038111610300576108949036906004016103c8565b60095491939092916001600160a01b0316330361030057600554141590816108df575b5061030057816108cc916104c2930190611e8e565b916001600160a01b039182169116612933565b905063ffffffff60045460e01c911614155f6108b7565b34610300575f366003190112610300576040517f00000000000000000000000000000000000000000000000000000000000000006001600160a01b03168152602090f35b34610300575f366003190112610300576040517f00000000000000000000000000000000000000000000000000000000000000006001600160a01b03168152602090f35b634e487b7160e01b5f52604160045260245ffd5b604081019081106001600160401b038211176109ad57604052565b61097e565b60a081019081106001600160401b038211176109ad57604052565b90601f801991011681019081106001600160401b038211176109ad57604052565b6040519061032260a0836109cd565b604051906103226020836109cd565b6001600160401b0381116109ad57601f01601f191660200190565b929192610a3382610a0c565b91610a4160405193846109cd565b829481845281830111610300578281602093845f960137010152565b9080601f8301121561030057816020610a7893359101610a27565b90565b606435906001600160401b038216820361030057565b35906001600160401b038216820361030057565b3461030057610100366003190112610300576004356001600160401b03811161030057610ad6903690600401610a5d565b602435906001600160401b03821161030057610af96104c2923690600401610a5d565b604435610b0581610304565b610b0d610a7b565b60843590610b1a82610304565b60a43592610b27846106bb565b610b2f610315565b94610b386106c9565b96611ebb565b3461030057602036600319011261030057600435610b5a6127ea565b601055620151804201804211610b6f57601155005b61227d565b34610300575f36600319011261030057610b8c6127ea565b5f80546001600160a01b0319811682556001600160a01b03167f8be0079c531659141344cd1fd0a4f28419497f9722a3daafe3b4186f6b6457e08280a3005b3461030057604036600319011261030057600435610be881610304565b60243590610bf582610304565b610bfd6127ea565b60018060a01b03166001600160601b0360a01b600c541617600c5560018060a01b03166001600160601b0360a01b600d541617600d55620151804201804211610b6f57600e55005b3461030057604036600319011261030057610c616004356106bb565b60206040515f8152f35b34610300576020366003190112610300576004356001600160401b0381116103005760a06003198236030112610300577f00000000000000000000000000000000000000000000000000000000000000006001600160a01b03163303610d6b57610cd36109ee565b81600401358152610ce660248301610a91565b602082015260448201356001600160401b03811161030057610d0e9060043691850101610a5d565b604082015260648201356001600160401b03811161030057610d369060043691850101610a5d565b606082015260848201356001600160401b038111610300576104c2926004610d6192369201016122df565b6080820152612a0d565b6335fdcccd60e21b5f523360045260245ffd5b34610300575f366003190112610300575f546040516001600160a01b039091168152602090f35b34610300575f366003190112610300576020600f54604051908152f35b34610300575f36600319011261030057610dda6127ea565b600e54421161030057600d54600c546001600160a01b039081165f9081526014602052604090208054919092166001600160a01b0319909116179055600c80546001600160a01b0319169055600d80546001600160a01b0319169055610e3f5f600e55565b600c54600d546001600160a01b0390811691167ff1bd69c751a0ad5bbca53f38baed6014ab5c244c9863ec7cfaf08f60fe29a6bc5f80a3005b346103005760c036600319011261030057600435610e9581610304565b602435610ea181610304565b604435610ead81610304565b606435926084359260a4356001600160401b03811161030057610ed4903690600401610a5d565b7363c3774531ef83631111fe2cf01520fb3f5a68f7330361030057610f2a9185906001600160a01b038116610f4f575033965b6001600160a01b0385165f81815260136020526040902054909887919087612aab565b15610300576104c2935f52601360205260405f20610f488154612368565b9055612933565b96610f07565b606036600319011261030057600435610f6d81610304565b6024356044356001600160401b03811161030057610f8f903690600401610a5d565b9182906001600160a01b03811661102e5750610fc9610fcd91335b335f5260126020528460405f2054610fc28234612376565b9233612b78565b1590565b61030057610fdb9034612376565b600f541061030057335f90815260126020526040902061100891905b6110018154612368565b9055612395565b7fe2c03d2b916609767ac38265cf1076a929903ba8105886f1a81d50eaef8536255f80a2005b610fcd91610fc991610faa565b346103005760203660031901126103005760043561105881610304565b60018060a01b03165f526013602052602060405f2054604051908152f35b60a03660031901126103005760043561108e81610304565b60243561109a81610304565b6044359060643560ff811693848203610300576084356001600160401b038111610300576110cc9036906004016103c8565b6001600160a01b0385169691903488611507575086341080156114fc575b610300576110f88734612376565b915b6001600160a01b038516159384156114f35761113f335b604080516001600160a01b0392831660208201529a909116908a01526060808a018b905289526080896109cd565b600181036112995750507f00000000000000000000000000000000000000000000000000000000000000006001600160a01b0316919050813b15610300575f9060405192838092630c93e3bb60e01b8252816111a0338c3060048501612633565b03925af1801561128057611285575b507f00000000000000000000000000000000000000000000000000000000000000006001600160a01b0316803b1561030057604051631c92115f60e01b8152945f918691829084908290611206906004830161267d565b03925af1938415611280577f2482e60745e2fc6a8960bd550c96d0ff516390e707a41d1a45e8cc4e957814b094611266575b505b156112615750335b6040805194855260ff9290921660208501526001600160a01b031692a3005b611242565b806112745f61127a936109cd565b80610369565b5f611238565b611c60565b806112745f611293936109cd565b5f6111af565b600281036113d7575050600454956112bf9150604087901c6001600160a01b0316612c36565b7f00000000000000000000000000000000000000000000000000000000000000006001600160a01b0316956001600160401b0316956040516320487ded60e01b815260208180611313868c60048401612446565b0381855afa80156112805784915f916113b8575b5011610300576040516396f4e9f960e01b8152966020938893849283916113519160048401612446565b03925af1938415611280577f2482e60745e2fc6a8960bd550c96d0ff516390e707a41d1a45e8cc4e957814b094611389575b5061123a565b6113aa9060203d6020116113b1575b6113a281836109cd565b810190612415565b505f611383565b503d611398565b6113d1915060203d6020116113b1576113a281836109cd565b5f611327565b929692600381036114405750506009546113519660209392509061141190611405906001600160a01b031681565b6001600160a01b031690565b9061141e60045460e01c90565b60055460405163fa31de0160e01b8152998a9586949385939060048501612424565b600403610300576006547f00000000000000000000000000000000000000000000000000000000000000006001600160a01b0316919063ffffffff1697823b15610300575f946114a86040519a8b9687958694636f80240360e11b86523393600487016123cf565b03925af1938415611280577f2482e60745e2fc6a8960bd550c96d0ff516390e707a41d1a45e8cc4e957814b0946114df575061123a565b806112745f6114ed936109cd565b5f611383565b61113f86611111565b50600f5487116110ea565b916115356114056115288960018060a01b03165f52601460205260405f2090565b546001600160a01b031690565b15610300576001600160a01b0387165f90815260146020526040902061156f9061155e90611528565b886001600160801b038b16916126b3565b600f5410610300576040516323b872dd60e01b8152336004820152306024820152604481018990526020816064815f8e5af1908115611280575f916115b8575b506110fa575f80fd5b6115da915060203d6020116115e0575b6115d281836109cd565b810190611c28565b5f6115af565b503d6115c8565b34610300575f366003190112610300576040517f00000000000000000000000000000000000000000000000000000000000000006001600160a01b03168152602090f35b346103005760a03660031901126103005760043561164881610304565b60243561165481610304565b6044356064356084356001600160401b0381116103005761167a84913690600401610a5d565b948584846001600160a01b0384166117ce57610fc993506116ad94335b335f908152601260205260409020549033612aab565b6117b0576001600160a01b0383165f9081526014602052604090206116d59061140590611528565b15610300576001600160a01b0383165f90815260146020526040902061170f906116fe90611528565b846001600160801b038516916126b3565b600f5410610300575f92611728611758926020946122bb565b6040516323b872dd60e01b8152336004820152306024820152604481019190915293849283919082906064820190565b03926001600160a01b03165af1908115611280575f91611791575b501561030057335f9081526012602052604090206110089190610ff7565b6117aa915060203d6020116115e0576115d281836109cd565b5f611773565b60405162461bcd60e51b8152602060048201525f6024820152604490fd5b6116ad94610fc994611697565b34610300576080366003190112610300576004356117f881610304565b60243561180481610304565b604435906001600160801b038216820361030057611882915f606435611829816106bb565b63ffffffff81169561183c871515612cd2565b61185c611847612d03565b9261185184612d39565b9063ffffffff169052565b8261186683612d4b565b52604051808097819463883bdbfd60e01b835260048301612e63565b03916001600160a01b03165afa93841561128057602094611956945f905f92611997575b506118d3816118cd6118c06118c76118c06118f996612d4b565b5160060b90565b92612d39565b90612ea2565b916118f36118e66118c76118e684612d4b565b516001600160a01b031690565b90612ec7565b8260060b9161191161190b8483612ef4565b60020b90565b925f8260060b129182611979575b505061195e575b61194a6119366119509394612f45565b9160201b640100000000600160c01b031690565b90612f6e565b50612fb6565b604051908152f35b61194a61193661197061195094612f31565b93505050611926565b61198e92509061198891612f1f565b60060b90565b15155f8061191f565b6118d392506118f991506119bc903d805f833e6119b481836109cd565b810190612dc2565b929091506118a6565b346103005760203660031901126103005763ffffffff6004356119e7816106bb565b165f526001602052602060405f2054604051908152f35b34610300575f602036600319011261030057600435611a1c81610304565b611a246127ea565b7f00000000000000000000000000000000000000000000000000000000000000006001600160a01b031690813b156103005760405163ca5eb5e160e01b81526001600160a01b039091166004820152905f908290602490829084905af1801561128057611a8f575080f35b6104c291505f906109cd565b34610300575f36600319011261030057611ab36127ea565b601154421161030057601054600f555f6010555f6011555f80f35b3461030057602036600319011261030057600435611aeb81610304565b60018060a01b03165f526014602052602060018060a01b0360405f205416604051908152f35b34610300575f36600319011261030057600b54421161030057600a545f80546001600160a01b039283166001600160a01b03198216811783559216907f8be0079c531659141344cd1fd0a4f28419497f9722a3daafe3b4186f6b6457e09080a3600a80546001600160a01b03191690555f600b55005b3461030057602036600319011261030057600435611ba481610304565b611bac6127ea565b60018060a01b03166001600160601b0360a01b600a541617600a55620151804201804211610b6f57600b55005b34610300576060366003190112610300576020611bf5366103b7565b63ffffffff8135611c05816106bb565b165f52600182528160405f205491013560405191148152f35b35610a78816106bb565b90816020910312610300575180151581036103005790565b908060209392818452848401375f828201840152601f01601f1916010190565b6040513d5f823e3d90fd5b95611ce29493611c8760209a9499939b97611ccb933691610a27565b8a815191012094611cb96040519c8d9b8c9b631876eed960e01b8d5260048d015260c060248d015260c48c0191611c40565b8981036003190160448b015291611c40565b926064870152600319868403016084870152611c40565b60a483019190915203815f7f00000000000000000000000000000000000000000000000000000000000000006001600160a01b03165af1908115611280575f91611d3e575b5015611d2f57565b631403112d60e21b5f5260045ffd5b611d57915060203d6020116115e0576115d281836109cd565b5f611d27565b907f238399d427b947898edb290f5ff0f9109849b1c3ba196a42e35f00c50a54b98b91611d886127ea565b63ffffffff81165f5260016020528160405f2055611dbe604051928392836020909392919363ffffffff60408201951681520152565b0390a1565b6020611e1183611e209399989796959499611ddf368b8b610a27565b84815191012060606040519687958695635f6970c360e01b8752600487019586526080898701528a6080870191611c40565b84810360408601528b8b611c40565b92015203815f7f00000000000000000000000000000000000000000000000000000000000000006001600160a01b03165af1908115611280575f91611e6f575b5015611d2f5761032295612810565b611e88915060203d6020116115e0576115d281836109cd565b5f611e60565b90816060910312610300578035611ea481610304565b9160406020830135611eb581610304565b92013590565b93611f3e611f7194611f22611f7f9895611eed611f4c96611ee8611f959e9d9b611ee36127ea565b6120c3565b6121a6565b6004805468010000000000000000600160e01b03191660409290921b68010000000000000000600160e01b0316919091179055565b6001600160401b03166001600160401b03196004541617600455565b6001600160a01b0316600555565b600480546001600160e01b031660e09290921b6001600160e01b031916919091179055565b6001600160a01b0316600755565b63ffffffff1663ffffffff196006541617600655565b6006547f00000000000000000000000000000000000000000000000000000000000000006001600160a01b03169063ffffffff16600754823b1561030057604051633400288b60e01b815263ffffffff9290921660048301526024820152905f908290604490829084905af1801561128057612028575b5061032261201f60065463ffffffff1690565b60075490611d5d565b806112745f612036936109cd565b5f61200c565b90600182811c9216801561206a575b602083101461205657565b634e487b7160e01b5f52602260045260245ffd5b91607f169161204b565b601f821161208157505050565b5f5260205f20906020601f840160051c830193106120b9575b601f0160051c01905b8181106120ae575050565b5f81556001016120a3565b909150819061209a565b9081516001600160401b0381116109ad576120ea816120e360035461203c565b6003612074565b602092601f821160011461212a5761211a929382915f9261211f575b50508160011b915f199060031b1c19161790565b600355565b015190505f80612106565b60035f52601f198216937fc2575a0e9e593c00f959f8c92f12db2869c3395a3b0502d05e2516446f71f85b915f5b86811061218e5750836001959610612176575b505050811b01600355565b01515f1960f88460031b161c191690555f808061216b565b91926020600181928685015181550194019201612158565b9081516001600160401b0381116109ad576121cd816121c660025461203c565b6002612074565b602092601f8211600114612201576121fc929382915f9261211f5750508160011b915f199060031b1c19161790565b600255565b60025f52601f198216937f405787fa12a823e0f2b7631cc41b3ba8828b3321ca811111fa75cd3aa3bb5ace915f5b868110612265575083600195961061224d575b505050811b01600255565b01515f1960f88460031b161c191690555f8080612242565b9192602060018192868501518155019401920161222f565b634e487b7160e01b5f52601160045260245ffd5b90600c8201809211610b6f57565b6002019081600211610b6f57565b6003019081600311610b6f57565b91908201809211610b6f57565b6001600160401b0381116109ad5760051b60200190565b81601f82011215610300578035906122f6826122c8565b9261230460405194856109cd565b82845260208085019360061b8301019181831161030057602001925b82841061232e575050505090565b604084830312610300576020604091825161234881610992565b863561235381610304565b81528287013583820152815201930192612320565b5f198114610b6f5760010190565b91908203918211610b6f57565b805191908290602001825e015f815290565b6123a59060405191828092612383565b03902090565b805180835260209291819084018484015e5f828201840152601f01601f1916010190565b936123f76124059363ffffffff606096949998991687526080602088015260808701906123ab565b918583036040870152611c40565b6001600160a01b03909416910152565b90816020910312610300575190565b610a78939263ffffffff606093168252602082015281604082015201906123ab565b906001600160401b03909392931681526040602082015261248c612476845160a0604085015260e08401906123ab565b6020850151838203603f190160608501526123ab565b90604084015191603f19828203016080830152602080845192838152019301905f5b8181106124e85750505060608401516001600160a01b031660a08201529192610a789290608001519060c0603f19828503019101526123ab565b825180516001600160a01b0316865260209081015181870152604090950194909201916001016124ae565b6003545f92916125228261203c565b8082529160018116908115612596575060011461253d575050565b60035f9081529293509091907fc2575a0e9e593c00f959f8c92f12db2869c3395a3b0502d05e2516446f71f85b5b83831061257c575060209250010190565b60018160209294939454838587010152019101919061256b565b9050602093945060ff929192191683830152151560051b010190565b5f92918154916125c18361203c565b808352926001811690811561261657506001146125dd57505050565b5f9081526020812093945091925b8383106125fc575060209250010190565b6001816020929493945483858701015201910191906125eb565b915050602093945060ff929192191683830152151560051b010190565b916124059060809295949560018060a01b0316845260a0602085015261266f61266060a0860160026125b2565b858103604087015260036125b2565b9084820360608601526123ab565b610a7891606082526126a56126966060840160026125b2565b838103602085015260036125b2565b9160408184039101526123ab565b915f6126db936126c36001612cd2565b6126cb612d03565b9061185c610bb861185184612d39565b03916001600160a01b03165afa801561128057610a78935f905f92612778575b506118d3816118cd6118c06118c76118c061271596612d4b565b61272461190b610bb884612ef4565b915f8160060b12908161275f575b5061274a575b6119509061194a611936610bb8612f45565b9061275761195091612f31565b919050612738565b6127709150610bb861198891612f1f565b15155f612732565b6118d392506127159150612795903d805f833e6119b481836109cd565b929091506126fb565b91909160208135916127af836106bb565b01359063ffffffff8060065416911614908115916127dd575b5061030057816108cc91610322930190611e8e565b905060075414155f6127c8565b5f546001600160a01b031633036127fd57565b63118cdaa760e01b5f523360045260245ffd5b61281e919594953691610a27565b604051905f60025461282f8161203c565b808552906001811690811561290f57506001146128ad575b50906128598361285e949303836109cd565b6133d4565b15918261287c575b505061030057816108cc91610322930190611e8e565b6128a592509061288d913691610a27565b604051906128598261289e81612513565b03836109cd565b155f80612866565b60025f9081527f405787fa12a823e0f2b7631cc41b3ba8828b3321ca811111fa75cd3aa3bb5ace94939250905b8082106128f35750919250908201602001612859612847565b91929360018160209254838589010152019101909392916128da565b60ff191660208087019190915291151560051b850190910191506128599050612847565b906001600160a01b03168061296e57505f808093819382908215612964575b6001600160a01b031690f11561128057565b6108fc9150612952565b60405163a9059cbb60e01b81526001600160a01b03929092166004830152602482019290925290602090829060449082905f905af18015611280576129b05750565b6129c89060203d6020116115e0576115d281836109cd565b50565b908160209103126103005751610a7881610304565b908160609103126103005780516129f681610304565b9160406020830151612a0781610304565b92015190565b600854612a22906001600160a01b0316611405565b33036103005760208101516004546001600160401b0380821692169190911480159190612a69575b50610300576108cc6060610322920151602080825183010191016129e0565b9050612a98611405612a886040850151602080825183010191016129cb565b9260401c6001600160a01b031690565b6001600160a01b0390911614155f612a4a565b959490612abb9094929394613472565b92612ac590613595565b93612acf90613472565b91612ad990613595565b90612ae390613595565b9160405194859460208601612af791612383565b600b60fa1b8152600101612b0a91612383565b600b60fa1b8152600101612b1d91612383565b600b60fa1b8152600101612b3091612383565b600b60fa1b8152600101612b4391612383565b03601f1981018252612b5590826109cd565b6001600160a01b0391612b67916136eb565b6001600160a01b0390921691161490565b9491612bd5612b67946001612bc7612bc79882612bc7612bb5612baf612ba9612ba3612be39c613472565b9a613595565b97613595565b93613595565b95826040519d8e9a60208c0190612383565b600b60fa1b81520190612383565b03601f1981018552846109cd565b6001600160a01b03926136eb565b60405190612c006020836109cd565b5f80835282815b828110612c1357505050565b602090604051612c2281610992565b5f81525f8382015282828501015201612c07565b90612c90612c829260606080604051612c4e816109b2565b8281528260208201528260408201525f83820152015260405193849160208301919091602081019260018060a01b03169052565b03601f1981018452836109cd565b612c98612bf1565b612cae612ca36109fd565b62030d408152613835565b91612cb76109ee565b938452602084015260408301525f6060830152608082015290565b15612cd957565b60405162461bcd60e51b8152602060048201526002602482015261042560f41b6044820152606490fd5b60405160609190612d1483826109cd565b6002815291601f1901366020840137565b634e487b7160e01b5f52603260045260245ffd5b805115612d465760200190565b612d25565b805160011015612d465760400190565b9080601f83011215610300578151612d72816122c8565b92612d8060405194856109cd565b81845260208085019260051b82010192831161030057602001905b828210612da85750505090565b602080918351612db781610304565b815201910190612d9b565b9190916040818403126103005780516001600160401b03811161030057810183601f82011215610300578051612df7816122c8565b91612e0560405193846109cd565b81835260208084019260051b8201019086821161030057602001915b818310612e49575050509260208201516001600160401b03811161030057610a789201612d5b565b82518060060b810361030057815260209283019201612e21565b60206040818301928281528451809452019201905f5b818110612e865750505090565b825163ffffffff16845260209384019390920191600101612e79565b600691820b910b0390667fffffffffffff198212667fffffffffffff831317610b6f57565b6001600160a01b039182169082160391908211610b6f57565b634e487b7160e01b5f52601260045260245ffd5b60060b9060060b908115612f1a57667fffffffffffff1981145f19831416610b6f570590565b612ee0565b9060060b908115612f1a5760060b0790565b60020b627fffff198114610b6f575f190190565b6001600160c01b039081166001600160a01b0381810290921692918184041490151715610b6f57565b6001600160c01b03909116908115612f1a576001600160c01b03160490565b908160011b9180830460021490151715610b6f57565b81810292918115918404141715610b6f57565b90919060020b5f8112156133ce57805f035b620d89e881116133bf5773c02aaa39b223fe8d0a0e5c4f27ead9083c756cc29160018216156133ad576001600160881b036ffffcb933bd6fad37aa2d162d1a5940015b169160028116613391575b60048116613375575b60088116613359575b6010811661333d575b60208116613321575b60408116613305575b608081166132e9575b61010081166132cd575b61020081166132b1575b6104008116613295575b6108008116613279575b611000811661325d575b6120008116613241575b6140008116613225575b6180008116613209575b6201000081166131ed575b6202000081166131d2575b6204000081166131b7575b620800001661319e575b5f12613190575b6130e56130db8260201c90565b9163ffffffff1690565b613188575f905b60ff91909116016001600160a01b03166001600160801b038111613149578061311491612fa3565b916001600160a01b03161015613137576001600160801b03610a78921690613a0a565b6001600160801b03610a789216613987565b8061315391613862565b916001600160a01b03161015613176576001600160801b03610a7892169061393f565b6001600160801b03610a7892166138aa565b6001906130ec565b61319990613589565b6130ce565b6b048a170391f7dc42444e8fa290910260801c906130c7565b6d2216e584f5fa1ea926041bedfe9890920260801c916130bd565b916e5d6af8dedb81196699c329225ee6040260801c916130b2565b916f09aa508b5b7a84e1c677de54f3e99bc90260801c916130a7565b916f31be135f97d08fd981231505542fcfa60260801c9161309c565b916f70d869a156d2a1b890bb3df62baf32f70260801c91613092565b916fa9f746462d870fdf8a65dc1f90e061e50260801c91613088565b916fd097f3bdfd2022b8845ad8f792aa58250260801c9161307e565b916fe7159475a2c29b7443b29c7fa6e889d90260801c91613074565b916ff3392b0822b70005940c7a398e4b70f30260801c9161306a565b916ff987a7253ac413176f2b074cf7815e540260801c91613060565b916ffcbe86c7900a88aedcffc83b479aa3a40260801c91613056565b916ffe5dee046a99a2a811c461f1969c30530260801c9161304c565b916fff2ea16466c96a3843ec78b326b528610260801c91613043565b916fff973b41fa98c081472e6896dfb254c00260801c9161303a565b916fffcb9843d60f6159c9db58835c9266440260801c91613031565b916fffe5caca7e10e4e61c3624eaa0941cd00260801c91613028565b916ffff2e50f5f656932ef12357cf3c7fdcc0260801c9161301f565b916ffff97272373d413259a46990580e213a0260801c91613016565b6001600160881b03600160801b61300b565b6315e4079d60e11b5f5260045ffd5b80612fc8565b90815181519081811493846133eb575b5050505090565b602092939450820120920120145f8080806133e4565b604051906134106040836109cd565b601082526f181899199a1a9b1b9c1cb0b131b232b360811b6020830152565b6040516060919061344083826109cd565b602a815291601f1901366020840137565b805160011015612d465760210190565b908151811015612d46570160200190565b6001600160a01b0316613483613401565b9061348c61342f565b91603061349884612d39565b5360786134a484613451565b535f5b601481106134b55750505090565b6134be81612291565b6020811015612d46576134ec906134de9085901a60041c600f1684613461565b516001600160f81b03191690565b61350a6135006134fb84612f8d565b61229f565b915f1a9186613461565b5361351481612291565b906020821015612d46576135326134de600f866001951a1685613461565b61355061354661354184612f8d565b6122ad565b915f1a9187613461565b53016134a7565b9061356182610a0c565b61356e60405191826109cd565b828152809261357f601f1991610a0c565b0190602036910137565b8015612f1a575f190490565b805f9172184f03e93ff9f4daa797ed6e38ed64bf6a1f0160401b8210156136c8575b806d04ee2d6d415b85acef8100000000600a9210156136ac575b662386f26fc10000811015613697575b6305f5e100811015613685575b612710811015613675575b6064811015613666575b101561365b575b613646602161361b60018501613557565b938401015b5f1901916f181899199a1a9b1b9c1cb0b131b232b360811b600a82061a8353600a900490565b8015613656576136469091613620565b505090565b60019091019061360a565b60029060649004930192613603565b60049061271090049301926135f9565b6008906305f5e10090049301926135ee565b601090662386f26fc1000090049301926135e1565b6020906d04ee2d6d415b85acef810000000090049301926135d1565b506040915072184f03e93ff9f4daa797ed6e38ed64bf6a1f0160401b81046135b7565b61373d61374b6136fb8351613595565b9260405192839161373760208401967f19457468657265756d205369676e6564204d6573736167653a0a0000000000008852603a850190612383565b90612383565b03601f1981018352826109cd565b51902060418251036137f057815f916020809401519160606040820151910151841a92601b84106137d9575b906137bb9161379560ff8616601b81149081156137ce575b50613a64565b604051948594859094939260ff6060936080840197845216602083015260408201520152565b838052039060015afa15611280575f5190565b601c9150145f61378f565b92906137e76137bb92613a52565b93909150613777565b60405162461bcd60e51b815260206004820152601860248201527f496e76616c6964207369676e6174757265206c656e67746800000000000000006044820152606490fd5b604051906397a657c960e01b602083015251602482015260248152610a786044826109cd565b1561030057565b5f1982820990828102928380841093039280840393146138a15782600160401b111561030057600160401b910990828211900360c01b910360401c1790565b50505060401c90565b5f1981600160801b09918160801b9182808510940393808503941461392d5781906138d685831161385b565b600160801b0981805f03168092046002816003021880820260020302808202600203028082026002030280820260020302808202600203028091026002030293600183805f03040190848311900302920304170290565b50915061393b82151561385b565b0490565b5f19828209908281029283808410930392808403931461397e57600160801b83101561030057600160801b910990828211900360801b910360801c1790565b50505060801c90565b5f1981600160c01b09918160c01b9182808510940393808503941461392d5781906139b385831161385b565b600160c01b0981805f03168092046002816003021880820260020302808202600203028082026002030280820260020302808202600203028091026002030293600183805f03040190848311900302920304170290565b5f198282099082810292838084109303928084039314613a4957600160c01b83101561030057600160c01b910990828211900360401b910360c01c1790565b50505060c01c90565b60ff601b9116019060ff8211610b6f57565b15613a6b57565b60405162461bcd60e51b815260206004820152601760248201527f496e76616c6964207369676e61747572652076616c75650000000000000000006044820152606490fdfea2646970667358221220343c2fd2d3d82dddabfaf142b6a05e5101ab7b7e314c276c0b97c8e8090d9e5b64736f6c634300081a003360a080604052346100f257604081610cef803803809161001f8285610109565b8339810103126100f25761003e602061003783610140565b9201610140565b9033156100f65761004e33610154565b61005782610154565b6001600160a01b0316608081905290813b156100f25760405163ca5eb5e160e01b81526001600160a01b039091166004820152905f908290602490829084905af180156100e7576100d7575b604051610b54908161019b82396080518181816101940152818161040f015281816104c00152818161067001526107be0152f35b5f6100e191610109565b5f6100a3565b6040513d5f823e3d90fd5b5f80fd5b631e4fbdf760e01b5f525f60045260245ffd5b601f909101601f19168101906001600160401b0382119082101761012c57604052565b634e487b7160e01b5f52604160045260245ffd5b51906001600160a01b03821682036100f257565b5f80546001600160a01b039283166001600160a01b03198216811783559216907f8be0079c531659141344cd1fd0a4f28419497f9722a3daafe3b4186f6b6457e09080a356fe6080806040526004361015610012575f80fd5b5f905f3560e01c90816317442b7014610856575080633400288b146107ed5780635e280f11146107a9578063715018a6146107525780638da5cb5b1461072b578063bb0b6a53146106f6578063ca5eb5e11461064c578063df004806146102bf578063f2fde38b146102395763f77e5dd31461008c575f80fd5b34610218576080366003190112610218576100a5610875565b60243567ffffffffffffffff81116102355736602382011215610235576100d6903690602481600401359101610944565b60443567ffffffffffffffff8111610231576100f690369060040161097a565b9160643580151580910361022d576101909361012e61013c604095610119610998565b508651928391602080840152888301906109b0565b03601f198101835282610906565b610144610998565b5061014e84610a90565b63ffffffff86519561015f876108ea565b16855260208501528484015260608301526080820152815180938192631bb8518b60e31b8352309060048401610a22565b03817f00000000000000000000000000000000000000000000000000000000000000006001600160a01b03165afa9081156102225782916101e1575b60408260208251918051835201516020820152f35b905060403d60401161021b575b6101f88183610906565b8101916040828403126102185750604091610212916109fa565b5f6101cc565b80fd5b503d6101ee565b6040513d84823e3d90fd5b8480fd5b8380fd5b8280fd5b503461021857602036600319011261021857610253610888565b61025b6109d4565b6001600160a01b031680156102ab5781546001600160a01b03198116821783556001600160a01b03167f8be0079c531659141344cd1fd0a4f28419497f9722a3daafe3b4186f6b6457e08380a380f35b631e4fbdf760e01b82526004829052602482fd5b506080366003190112610218576102d4610875565b60243567ffffffffffffffff8111610235576102f490369060040161097a565b6044359167ffffffffffffffff8311610231573660238401121561023157826004013567ffffffffffffffff811161022d57366024828601011161022d576064356001600160a01b03811694908590036106485761036d604051916103588361089e565b34835260208301938885526024369201610944565b9060405161037a816108ce565b87815287602082015260408051916103918361089e565b5f83525f602084015201525193843403610635578251806104b1575b50918391608095936103c261040b9896610a90565b925115159263ffffffff604051956103d9876108ea565b168552602085015260408401526060830152848201526040518095819482936302637a4560e41b845260048401610a22565b03917f00000000000000000000000000000000000000000000000000000000000000006001600160a01b03165af1801561022257610447575080f35b60803d6080116104aa575b61045c8183610906565b8101906080818303126102355760405191610476836108ce565b81518352602082015167ffffffffffffffff8116810361022d5760208401526104a1916040016109fa565b60408201525080f35b503d610452565b60405163393f876560e21b81527f00000000000000000000000000000000000000000000000000000000000000006001600160a01b031690602081600481855afa90811561062a578a916105e4575b506001600160a01b03169182156105d5578961057f9281926040519060208201926323b872dd60e01b8452336024840152604483015260648201526064815261054a608482610906565b519082865af13d156105cd573d9061056182610928565b9161056f6040519384610906565b82523d8b602084013e5b83610ac0565b80519081151591826105a5575b5050156103ad57635274afe760e01b8852600452602487fd5b81925090602091810103126105c957602001518015908115036105c9575f8061058c565b8880fd5b606090610579565b6329b99a9560e11b8a5260048afd5b90506020813d602011610622575b816105ff60209383610906565b8101031261061e57516001600160a01b038116810361061e575f610500565b8980fd5b3d91506105f2565b6040513d8c823e3d90fd5b6304fb820960e51b875234600452602487fd5b8580fd5b50346106f25760203660031901126106f257610666610888565b61066e6109d4565b7f00000000000000000000000000000000000000000000000000000000000000006001600160a01b031690813b156106f25760405163ca5eb5e160e01b81526001600160a01b039091166004820152905f908290602490829084905af180156106e7576106d9575080f35b6106e591505f90610906565b005b6040513d5f823e3d90fd5b5f80fd5b346106f25760203660031901126106f25763ffffffff610714610875565b165f526001602052602060405f2054604051908152f35b346106f2575f3660031901126106f2575f546040516001600160a01b039091168152602090f35b346106f2575f3660031901126106f25761076a6109d4565b5f80546001600160a01b0319811682556001600160a01b03167f8be0079c531659141344cd1fd0a4f28419497f9722a3daafe3b4186f6b6457e08280a3005b346106f2575f3660031901126106f2576040517f00000000000000000000000000000000000000000000000000000000000000006001600160a01b03168152602090f35b346106f25760403660031901126106f2577f238399d427b947898edb290f5ff0f9109849b1c3ba196a42e35f00c50a54b98b6040610829610875565b63ffffffff6024359161083a6109d4565b1690815f52600160205280835f205582519182526020820152a1005b346106f2575f3660031901126106f257806001604092525f6020820152f35b6004359063ffffffff821682036106f257565b600435906001600160a01b03821682036106f257565b6040810190811067ffffffffffffffff8211176108ba57604052565b634e487b7160e01b5f52604160045260245ffd5b6060810190811067ffffffffffffffff8211176108ba57604052565b60a0810190811067ffffffffffffffff8211176108ba57604052565b90601f8019910116810190811067ffffffffffffffff8211176108ba57604052565b67ffffffffffffffff81116108ba57601f01601f191660200190565b92919261095082610928565b9161095e6040519384610906565b8294818452818301116106f2578281602093845f960137010152565b9080601f830112156106f25781602061099593359101610944565b90565b604051906109a58261089e565b5f6020838281520152565b805180835260209291819084018484015e5f828201840152601f01601f1916010190565b5f546001600160a01b031633036109e757565b63118cdaa760e01b5f523360045260245ffd5b91908260409103126106f257604051610a128161089e565b6020808294805184520151910152565b906020909392936040835263ffffffff81511660408401528181015160608401526080610a76610a60604084015160a08488015260e08701906109b0565b6060840151868203603f190160a08801526109b0565b910151151560c08401526001600160a01b03909416910152565b63ffffffff16805f52600160205260405f2054908115610aae575090565b63f6ff4fb760e01b5f5260045260245ffd5b90610ae45750805115610ad557805190602001fd5b630a12f52160e11b5f5260045ffd5b81511580610b15575b610af5575090565b639996b31560e01b5f9081526001600160a01b0391909116600452602490fd5b50803b15610aed56fea2646970667358221220f44290c9ce390075105ef72cb0f216133b4f51266532935e48439b8e25b5d9d764736f6c634300081a0033","linkReferences":{}},"methodIdentifiers":{"_setEvvmMetadata(string,string,address,uint64,address,uint32,address,uint32)":"6e595229","acceptOwner()":"ebbc4965","acceptyMaxAmountToDeposit()":"cd87aa16","addTokenToWhitelist()":"9c113d1b","allowInitializePath((uint32,bytes32,uint64))":"ff7bd03d","cancelPrepareTokenToBeWhitelisted()":"3de62f67","ccipReceive((bytes32,uint64,bytes,bytes,(address,uint256)[]))":"85572ffb","deposit(address,address,uint256,uint8,bytes)":"acf1d778","endpoint()":"5e280f11","estimateAmountUsingUniswapV3Pool(address,address,uint128,uint32)":"b7ce53ca","execute(bytes32,string,string,bytes)":"49160658","executeWithToken(bytes32,string,string,bytes,string,uint256)":"1a98b2e0","fisherDepositERC20(address,address,uint256,uint256,bytes)":"b1a7e7ff","fisherDepositETH(address,uint256,bytes)":"9f53bc05","fisherWithdrawalReceiver(address,address,address,uint256,uint256,bytes)":"9c7fbc7c","gasService()":"6a22d8cc","gateway()":"116191b6","getIfTokenIsWhitelisted(address)":"0ff91c75","getMaxAmountToDeposit()":"989106ff","getNextFisherDepositNonce(address)":"4234a706","getNextFisherWithdrawalNonce(address)":"a4cba4ba","getRouter()":"b0f479a1","getTokensWhitelistPool(address)":"dc54b824","handle(uint32,bytes32,bytes)":"56d5d475","lookLzSenderApp()":"2e9595eb","lzReceive((uint32,bytes32,uint64),bytes32,bytes,address,bytes)":"13137d65","lzSenderApp()":"d02e11c2","nextNonce(uint32,bytes32)":"7d25a05e","oAppVersion()":"17442b70","owner()":"8da5cb5b","peers(uint32)":"bb0b6a53","prepareTokenToBeWhitelisted(address,address)":"719ca6df","proposeMaxAmountToDeposit(uint256)":"71034ee9","rejectProposeMaxAmountToDeposit()":"2288e2f6","rejectProposeOwner()":"26415c71","removeTokenFromWhitelist(address)":"306275be","renounceOwnership()":"715018a6","seeTokenWhitelist(address)":"fbf006df","setDelegate(address)":"ca5eb5e1","setPeer(uint32,bytes32)":"3400288b","supportsInterface(bytes4)":"01ffc9a7","transferOwnership(address)":"f2fde38b"},"id":94}