{"abi":[{"type":"function","name":"bytes32ToString","inputs":[{"name":"data","type":"bytes32","internalType":"bytes32"}],"outputs":[{"name":"","type":"string","internalType":"string"}],"stateMutability":"pure"}],"bytecode":{"object":"0x60808060405234601957610316908161001e823930815050f35b5f80fdfe60806040526004361015610011575f80fd5b5f3560e01c639201de5514610024575f80fd5b60203660031901126100db5760043561005c6100496001600160801b031983166100df565b9160801b6001600160801b0319166100df565b9060405191602083019161060f60f31b83526022840152604283015260428252608082019180831067ffffffffffffffff8411176100c75760c0908360405260208452805180938160a08401528383015e5f828483010152607f1992601f8019910116810103010190f35b634e487b7160e01b5f52604160045260245ffd5b5f80fd5b8060401c906bffffffff0000000000000000821663ffffffff60c01b82161760201c9163ffffffff60601b169063ffffffff60e01b1617178060101c907fff00000000000000ff00000000000000ff00000000000000ff000000000000007bff00000000000000ff00000000000000ff00000000000000ff0000007aff00000000000000ff00000000000000ff00000000000000ff000084167eff00000000000000ff00000000000000ff00000000000000ff00000000000084161760081c9316911617177f0f000f000f000f000f000f000f000f000f000f000f000f000f000f000f000f007e0f000f000f000f000f000f000f000f000f000f000f000f000f000f000f000f8260081c169160041c1617807f30303030303030303030303030303030303030303030303030303030303030300190817f3030303030303030303030303030303030303030303030303030303030303030116102cc577f060606060606060606060606060606060606060606060606060606060606060681018082116102cc577f0f0f0f0f0f0f0f0f0f0f0f0f0f0f0f0f0f0f0f0f0f0f0f0f0f0f0f0f0f0f0f0f9060041c166007810290808204600714901517156102cc577f30303030303030303030303030303030303030303030303030303030303030309101018091116102cc5790565b634e487b7160e01b5f52601160045260245ffdfea264697066735822122071b7a6de3265cdb29641fcb3c489485b520d435435cb724e986c1771a47c483564736f6c634300081a0033","linkReferences":{}},"methodIdentifiers":{"bytes32ToString(bytes32)":"9201de55"},"id":80}