{"abi":[{"type":"function","name":"buildMessageSignedForDispersePay","inputs":[{"name":"hashList","type":"bytes32","internalType":"bytes32"},{"name":"_token","type":"address","internalType":"address"},{"name":"_amount","type":"uint256","internalType":"uint256"},{"name":"_priorityFee","type":"uint256","internalType":"uint256"},{"name":"_nonce","type":"uint256","internalType":"uint256"},{"name":"_priority_boolean","type":"bool","internalType":"bool"},{"name":"_executor","type":"address","internalType":"address"}],"outputs":[{"name":"messageHash","type":"bytes32","internalType":"bytes32"}],"stateMutability":"pure"}],"bytecode":{"object":"0x60808060405234601957610669908161001e823930815050f35b5f80fdfe6080806040526004361015610012575f80fd5b5f3560e01c63b7bec4eb14610025575f80fd5b60e036600319011261031357602435906001600160a01b03821682036103135760a43580151581036103135760c435926001600160a01b038416840361031357639201de5560e01b835260048035908401525f8360248173__$2586ee71363c751a7dcf59a6d696ae69ac$__5af4928315610317575f93610294575b506100ab90610399565b906100b76044356104c6565b936100c36064356104c6565b916100cf6084356104c6565b901561026b576100fd6040516100e6604082610322565b60048152637472756560e01b602082015292610399565b9260405196879560208701976733191bb31b98b23160c11b895260288801600b60fa1b90528051602081920160298a015e870160298101600b60fa1b905281516020819301602a83015e0160290160018101600b60fa1b905281516020819301600283015e0160010160018101600b60fa1b905281516020819301600283015e0160010160018101600b60fa1b905281516020819301600283015e0160010160018101600b60fa1b905281516020819301600283015e0160010160018101600b60fa1b905281516020819301600283015e01600101600181015f905203600101601f19810183526101ee9083610322565b81516101f9906104c6565b9160405191829160208301947f19457468657265756d205369676e6564204d6573736167653a0a000000000000865280516020819201603a86015e830190603a8201905f8252519283915e01603a015f815203601f198101825261025d9082610322565b519020604051908152602090f35b6100fd60405161027c604082610322565b600581526466616c736560d81b602082015292610399565b9092503d805f833e6102a68183610322565b8101906020818303126103135780519067ffffffffffffffff821161031357019080601f830112156103135781516102dd81610358565b916102eb6040519384610322565b81835260208285010111610313576020815f92826100ab96018386015e8301015292906100a1565b5f80fd5b6040513d5f823e3d90fd5b90601f8019910116810190811067ffffffffffffffff82111761034457604052565b634e487b7160e01b5f52604160045260245ffd5b67ffffffffffffffff811161034457601f01601f191660200190565b908151811015610385570160200190565b634e487b7160e01b5f52603260045260245ffd5b60018060a01b03166040516103af604082610322565b601081526f181899199a1a9b1b9c1cb0b131b232b360811b6020820152604051916103db606084610322565b602a8352602083016040368237835115610385576030905382516001101561038557607860218401535f5b601481106104145750505090565b600c81018082116104b25760208110156103855782901a906001600160f81b0319610446600484901c600f1686610374565b5116918160011b92828404600214831517156104b2578360020190816002116104b257610476905f1a9188610374565b536001600160f81b03199061048e90600f1686610374565b511691600301806003116104b2576104ab6001935f1a9187610374565b5301610406565b634e487b7160e01b5f52601160045260245ffd5b805f9172184f03e93ff9f4daa797ed6e38ed64bf6a1f0160401b821015610610575b806d04ee2d6d415b85acef8100000000600a9210156105f5575b662386f26fc100008110156105e1575b6305f5e1008110156105d0575b6127108110156105c1575b60648110156105b3575b10156105a8575b600a6021600184019361054d85610358565b9461055b6040519687610322565b80865261056a601f1991610358565b013660208701378401015b5f1901916f181899199a1a9b1b9c1cb0b131b232b360811b8282061a83530480156105a357600a9091610575565b505090565b60019091019061053b565b606460029104930192610534565b6127106004910493019261052a565b6305f5e1006008910493019261051f565b662386f26fc1000060109104930192610512565b6d04ee2d6d415b85acef810000000060209104930192610502565b506040915072184f03e93ff9f4daa797ed6e38ed64bf6a1f0160401b81046104e856fea26469706673582212200c3f49a18e72d32222a57f750322e4b1cae67a032d189b315cb80914d5ee2cc864736f6c634300081a0033","linkReferences":{"src/libraries/AdvancedStrings.sol":{"AdvancedStrings":[{"start":156,"length":20}]}}},"methodIdentifiers":{"buildMessageSignedForDispersePay(bytes32,address,uint256,uint256,uint256,bool,address)":"b7bec4eb"},"id":81}