{"abi":[{"type":"constructor","inputs":[{"name":"gateway_","type":"address","internalType":"address"}],"stateMutability":"nonpayable"},{"type":"function","name":"execute","inputs":[{"name":"commandId","type":"bytes32","internalType":"bytes32"},{"name":"sourceChain","type":"string","internalType":"string"},{"name":"sourceAddress","type":"string","internalType":"string"},{"name":"payload","type":"bytes","internalType":"bytes"}],"outputs":[],"stateMutability":"nonpayable"},{"type":"function","name":"executeWithToken","inputs":[{"name":"commandId","type":"bytes32","internalType":"bytes32"},{"name":"sourceChain","type":"string","internalType":"string"},{"name":"sourceAddress","type":"string","internalType":"string"},{"name":"payload","type":"bytes","internalType":"bytes"},{"name":"tokenSymbol","type":"string","internalType":"string"},{"name":"amount","type":"uint256","internalType":"uint256"}],"outputs":[],"stateMutability":"nonpayable"},{"type":"function","name":"gateway","inputs":[],"outputs":[{"name":"","type":"address","internalType":"contract IAxelarGateway"}],"stateMutability":"view"},{"type":"error","name":"InvalidAddress","inputs":[]},{"type":"error","name":"NotApprovedByGateway","inputs":[]}],"bytecode":{"object":"0x60a034608a57601f61051838819003918201601f19168301916001600160401b03831184841017608e57808492602094604052833981010312608a57516001600160a01b03811690819003608a578015607b5760805260405161047590816100a38239608051818181610116015281816102be015261032e0152f35b63e6c4247b60e01b5f5260045ffd5b5f80fd5b634e487b7160e01b5f52604160045260245ffdfe6080806040526004361015610012575f80fd5b5f3560e01c908163116191b61461031c575080631a98b2e0146101a35763491606581461003d575f80fd5b3461019f57608036600319011261019f5760243567ffffffffffffffff811161019f5761006e90369060040161035d565b60443567ffffffffffffffff811161019f5761008e90369060040161035d565b9290916064359367ffffffffffffffff851161019f576101096020946100c56100be6100f798369060040161035d565b36916103c1565b868151910120926040519788968796635f6970c360e01b8852600435600489015260806024890152608488019161041f565b8581036003190160448701529161041f565b606483019190915203815f7f00000000000000000000000000000000000000000000000000000000000000006001600160a01b03165af1908115610194575f91610165575b501561015657005b631403112d60e21b5f5260045ffd5b610187915060203d60201161018d575b61017f818361038b565b810190610407565b5f61014e565b503d610175565b6040513d5f823e3d90fd5b5f80fd5b3461019f5760c036600319011261019f5760243567ffffffffffffffff811161019f576101d490369060040161035d565b9060443567ffffffffffffffff811161019f576101f590369060040161035d565b91909260643567ffffffffffffffff811161019f5761021890369060040161035d565b9490936084359467ffffffffffffffff861161019f576102889661029a6102b19461025661024c60209a369060040161035d565b95909436916103c1565b898151910120946040519a8b998a99631876eed960e01b8b5260043560048c015260c060248c015260c48b019161041f565b8881036003190160448a01529161041f565b92606486015260031985840301608486015261041f565b60a480359083015203815f7f00000000000000000000000000000000000000000000000000000000000000006001600160a01b03165af1908115610194575f916102fd57501561015657005b610316915060203d60201161018d5761017f818361038b565b8161014e565b3461019f575f36600319011261019f577f00000000000000000000000000000000000000000000000000000000000000006001600160a01b03168152602090f35b9181601f8401121561019f5782359167ffffffffffffffff831161019f576020838186019501011161019f57565b90601f8019910116810190811067ffffffffffffffff8211176103ad57604052565b634e487b7160e01b5f52604160045260245ffd5b92919267ffffffffffffffff82116103ad57604051916103eb601f8201601f19166020018461038b565b82948184528183011161019f578281602093845f960137010152565b9081602091031261019f5751801515810361019f5790565b908060209392818452848401375f828201840152601f01601f191601019056fea2646970667358221220ea88897617bc2cd8c215a48c968028ada452bffe24468e9f3cf4a5d3425246e064736f6c634300081a0033","linkReferences":{}},"methodIdentifiers":{"execute(bytes32,string,string,bytes)":"49160658","executeWithToken(bytes32,string,string,bytes,string,uint256)":"1a98b2e0","gateway()":"116191b6"},"id":43}