{"abi":[{"type":"constructor","inputs":[{"name":"_activator","type":"address","internalType":"address"},{"name":"_evvmAddress","type":"address","internalType":"address"},{"name":"_addressSMate","type":"address","internalType":"address"},{"name":"_admin","type":"address","internalType":"address"}],"stateMutability":"nonpayable"},{"type":"function","name":"acceptActivatorProposal","inputs":[],"outputs":[],"stateMutability":"nonpayable"},{"type":"function","name":"acceptAddressSMateProposal","inputs":[],"outputs":[],"stateMutability":"nonpayable"},{"type":"function","name":"acceptAdminProposal","inputs":[],"outputs":[],"stateMutability":"nonpayable"},{"type":"function","name":"acceptEvvmAddressProposal","inputs":[],"outputs":[],"stateMutability":"nonpayable"},{"type":"function","name":"cancelActivatorProposal","inputs":[],"outputs":[],"stateMutability":"nonpayable"},{"type":"function","name":"cancelAddressSMateProposal","inputs":[],"outputs":[],"stateMutability":"nonpayable"},{"type":"function","name":"cancelAdminProposal","inputs":[],"outputs":[],"stateMutability":"nonpayable"},{"type":"function","name":"cancelEvvmAddressProposal","inputs":[],"outputs":[],"stateMutability":"nonpayable"},{"type":"function","name":"getActivatorMetadata","inputs":[],"outputs":[{"name":"","type":"tuple","internalType":"struct EstimatorMock.AddressTypeProposal","components":[{"name":"actual","type":"address","internalType":"address"},{"name":"proposal","type":"address","internalType":"address"},{"name":"timeToAccept","type":"uint256","internalType":"uint256"}]}],"stateMutability":"view"},{"type":"function","name":"getActualEpochInFormat","inputs":[],"outputs":[{"name":"","type":"bytes32","internalType":"bytes32"}],"stateMutability":"view"},{"type":"function","name":"getActualEpochInUint","inputs":[],"outputs":[{"name":"","type":"uint256","internalType":"uint256"}],"stateMutability":"view"},{"type":"function","name":"getAddressSMateMetadata","inputs":[],"outputs":[{"name":"","type":"tuple","internalType":"struct EstimatorMock.AddressTypeProposal","components":[{"name":"actual","type":"address","internalType":"address"},{"name":"proposal","type":"address","internalType":"address"},{"name":"timeToAccept","type":"uint256","internalType":"uint256"}]}],"stateMutability":"view"},{"type":"function","name":"getAdminMetadata","inputs":[],"outputs":[{"name":"","type":"tuple","internalType":"struct EstimatorMock.AddressTypeProposal","components":[{"name":"actual","type":"address","internalType":"address"},{"name":"proposal","type":"address","internalType":"address"},{"name":"timeToAccept","type":"uint256","internalType":"uint256"}]}],"stateMutability":"view"},{"type":"function","name":"getEpochMetadata","inputs":[],"outputs":[{"name":"","type":"tuple","internalType":"struct EstimatorMock.EpochMetadata","components":[{"name":"tokenPool","type":"address","internalType":"address"},{"name":"totalPool","type":"uint256","internalType":"uint256"},{"name":"totalStaked","type":"uint256","internalType":"uint256"},{"name":"tFinal","type":"uint256","internalType":"uint256"},{"name":"tStart","type":"uint256","internalType":"uint256"}]}],"stateMutability":"view"},{"type":"function","name":"getEvvmAddressMetadata","inputs":[],"outputs":[{"name":"","type":"tuple","internalType":"struct EstimatorMock.AddressTypeProposal","components":[{"name":"actual","type":"address","internalType":"address"},{"name":"proposal","type":"address","internalType":"address"},{"name":"timeToAccept","type":"uint256","internalType":"uint256"}]}],"stateMutability":"view"},{"type":"function","name":"makeEstimation","inputs":[{"name":"_user","type":"address","internalType":"address"}],"outputs":[{"name":"epochAnswer","type":"bytes32","internalType":"bytes32"},{"name":"tokenAddress","type":"address","internalType":"address"},{"name":"amountTotalToBeRewarded","type":"uint256","internalType":"uint256"},{"name":"idToOverwrite","type":"uint256","internalType":"uint256"},{"name":"timestampToOverwrite","type":"uint256","internalType":"uint256"}],"stateMutability":"nonpayable"},{"type":"function","name":"notifyNewEpoch","inputs":[{"name":"tokenPool","type":"address","internalType":"address"},{"name":"totalPool","type":"uint256","internalType":"uint256"},{"name":"totalStaked","type":"uint256","internalType":"uint256"},{"name":"tStart","type":"uint256","internalType":"uint256"}],"outputs":[],"stateMutability":"nonpayable"},{"type":"function","name":"setActivatorProposal","inputs":[{"name":"_proposal","type":"address","internalType":"address"}],"outputs":[],"stateMutability":"nonpayable"},{"type":"function","name":"setAddressSMateProposal","inputs":[{"name":"_proposal","type":"address","internalType":"address"}],"outputs":[],"stateMutability":"nonpayable"},{"type":"function","name":"setAdminProposal","inputs":[{"name":"_proposal","type":"address","internalType":"address"}],"outputs":[],"stateMutability":"nonpayable"},{"type":"function","name":"setEvvmAddressProposal","inputs":[{"name":"_proposal","type":"address","internalType":"address"}],"outputs":[],"stateMutability":"nonpayable"},{"type":"function","name":"simulteEstimation","inputs":[{"name":"_user","type":"address","internalType":"address"}],"outputs":[{"name":"epochAnswer","type":"bytes32","internalType":"bytes32"},{"name":"tokenAddress","type":"address","internalType":"address"},{"name":"amountTotalToBeRewarded","type":"uint256","internalType":"uint256"},{"name":"idToOverwrite","type":"uint256","internalType":"uint256"},{"name":"timestampToOverwrite","type":"uint256","internalType":"uint256"}],"stateMutability":"view"}],"bytecode":{"object":"0x6080346100cd57601f61120b38819003918201601f19168301916001600160401b038311848410176100d1578084926080946040528339810103126100cd57610047816100e5565b90610054602082016100e5565b61006c6060610065604085016100e5565b93016100e5565b6003601155600580546001600160a01b03199081166001600160a01b039687161790915560088054821693861693909317909255600b8054831693851693909317909255600e80549091169190921617905560405161111190816100fa8239f35b5f80fd5b634e487b7160e01b5f52604160045260245ffd5b51906001600160a01b03821682036100cd5756fe6080806040526004361015610012575f80fd5b5f3560e01c908163112c1d5a14610758575080631fa756731461070257806330b3d71f146106ab57806333a61fc3146106875780634cc05f461461064f57806355dbb3111461060b5780635637455a146105e15780635b74440a1461058b5780635fd99c5914610501578063608bd0bf146104bd57806369ec08641461048557806370b170da1461044d578063779a3481146103f657806379eb30f01461039e5780637fa80f0814610346578063a9131e23146102ee578063b1fc6a9114610297578063bd9731f91461022b578063c1a53583146101d4578063c9ed28e9146101b7578063f70272071461014a5763fd3607d01461010e575f80fd5b34610146575f366003190112610146576005546001600160a01b0316330361014657600680546001600160a01b03191690555f600755005b5f80fd5b346101465760203660031901126101465761016361081f565b600b546001600160a01b03163303610146576101816101b391610bd2565b604080519586526001600160a01b039094166020860152928401919091526060830152608082015290819060a0820190565b0390f35b34610146575f366003190112610146576020601154604051908152f35b34610146575f366003190112610146576101ec6108bf565b506101b36040516101fc81610865565b600e546001600160a01b039081168252600f5416602082015260105460408083019190915251918291826107f0565b346101465760203660031901126101465761024461081f565b600e546001600160a01b031633036101465760018060a01b03166001600160601b0360a01b600c541617600c5562015180420180421161028357600d55005b634e487b7160e01b5f52601160045260245ffd5b34610146575f366003190112610146576102af6108bf565b506101b36040516102bf81610865565b6005546001600160a01b03908116825260065416602082015260075460408083019190915251918291826107f0565b346101465760203660031901126101465761030761081f565b600e546001600160a01b031633036101465760018060a01b03166001600160601b0360a01b600954161760095562015180420180421161028357600a55005b346101465760203660031901126101465761035f61081f565b600e546001600160a01b031633036101465760018060a01b03166001600160601b0360a01b600f541617600f5562015180420180421161028357601055005b34610146576020366003190112610146576103b761081f565b6005546001600160a01b031633036101465760018060a01b03166001600160601b0360a01b600654161760065562015180420180421161028357600755005b34610146575f3660031901126101465761040e6108bf565b506101b360405161041e81610865565b6008546001600160a01b039081168252600954166020820152600a5460408083019190915251918291826107f0565b34610146575f36600319011261014657600e546001600160a01b0316330361014657600980546001600160a01b03191690555f600a55005b34610146575f36600319011261014657600e546001600160a01b0316330361014657600c80546001600160a01b03191690555f600d55005b34610146575f3660031901126101465760075442106101465760068054600580546001600160a01b03199081166001600160a01b038416179091551690555f600755005b346101465760803660031901126101465761051a61081f565b600554606435916044359160243591906001600160a01b03163303610146578360806040519261054984610835565b60018060a01b03169283815284602082015285604082015242606082015201526001600160601b0360a01b5f5416175f55600155600255426003556004555f80f35b34610146575f36600319011261014657600e546001600160a01b0316330361014657600d54421061014657600c8054600b80546001600160a01b03199081166001600160a01b038416179091551690555f600d55005b34610146575f36600319011261014657601154600119810190811161028357602090604051908152f35b34610146575f36600319011261014657601054421061014657600f8054600e80546001600160a01b03199081166001600160a01b038416179091551690555f601055005b34610146575f36600319011261014657600e546001600160a01b0316330361014657600f80546001600160a01b03191690555f601055005b34610146576020366003190112610146576101b36101816106a661081f565b610988565b34610146575f366003190112610146576106c36108bf565b506101b36040516106d381610865565b600b546001600160a01b039081168252600c54166020820152600d5460408083019190915251918291826107f0565b34610146575f36600319011261014657600e546001600160a01b0316330361014657600a5442106101465760098054600880546001600160a01b03199081166001600160a01b038416179091551690555f600a55005b34610146575f366003190112610146576080816107755f93610835565b828152826020820152826040820152826060820152015260a060405161079a81610835565b600180831b035f5416908181526001546020820190815260025460408301908152600354916060840192835260806004549401938452604051948552516020850152516040840152516060830152516080820152f35b81516001600160a01b039081168252602080840151909116908201526040918201519181019190915260600190565b600435906001600160a01b038216820361014657565b60a0810190811067ffffffffffffffff82111761085157604052565b634e487b7160e01b5f52604160045260245ffd5b6060810190811067ffffffffffffffff82111761085157604052565b6080810190811067ffffffffffffffff82111761085157604052565b90601f8019910116810190811067ffffffffffffffff82111761085157604052565b604051906108cc82610865565b5f6040838281528260208201520152565b604051906108ea82610881565b5f6060838281528260208201528260408201520152565b908160809103126101465760606040519161091b83610881565b8051835260208101516020840152604081015160408401520151606082015290565b9190820391821161028357565b8181029291811591840414171561028357565b9190820180921161028357565b8115610974570490565b634e487b7160e01b5f52601260045260245ffd5b905f915f915f905f925f600454918261099f6108dd565b50600b54604051637e17f55960e11b81526001600160a01b038481166004830152909116976020826024818c5afa918215610b93575f92610b9e575b50929197905f9360035499601154915b838710610a55575b50505050505050670de0b6b3a7640000810290808204670de0b6b3a7640000149015171561028357610a3b610a5091610a35670de0b6b3a7640000948861093d565b9061096a565b610a4a6001546002549061096a565b9061094a565b049290565b60405163120a744b60e31b81526001600160a01b038716600482015260248101889052969a509495939492939192608083604481895afa928315610b93575f93610b63575b5060408301918c835111610b135784845114610af85781610acf575b5050516060919091015160018a019594939291906109eb565b97610aea610af092610ae5859b6060965161093d565b61094a565b9061095d565b96905f610ab6565b5050505050505050505093505050505f905f905f905f905f90565b9550955050916001915097949714610b57575b5081610b3c575b5050925f8080808080806109f3565b610b4f929591610ae5610aea928961093d565b925f80610b2d565b6060015191505f610b26565b610b8591935060803d8111610b8c575b610b7d818361089d565b810190610901565b915f610a9a565b503d610b73565b6040513d5f823e3d90fd5b9091506020813d602011610bca575b81610bba6020938361089d565b810103126101465751905f6109db565b3d9150610bad565b5f915f915f905f925f916004548091610be96108dd565b600b54604051637e17f55960e11b81526001600160a01b038481166004830152929990949290911691602085602481865afa948515610b93575f95610fee575b5093915f9391939260035495601154905b828610610d78575b50505050505050610c7e604051610c5a60408261089d565b6012815271666f72206c6f6f7020656e646564202d2d2d60701b60208201526110a0565b670de0b6b3a7640000840291848304670de0b6b3a7640000148515171561028357610d0b96610d68610cb9610d7395610a356060958761093d565b93600154610d3560025496670de0b6b3a7640000610ce0610cda8a8661096a565b8361094a565b049c8d949b604051610cf360408261089d565b60068152651cdd5b54db5560d21b6020820152611046565b604051610d1960408261089d565b600a8152694176657261676520534d60b01b6020820152611046565b610d6382604051610d4760408261089d565b600a81526922b9ba34b6b0ba34b7b760b11b6020820152611046565b61093d565b60015501519061093d565b600255565b60405163120a744b60e31b81526001600160a01b038616600482015260248101879052969c50949a5092949193909290608083604481885afa928315610b93575f93610fce575b50829b60018514610fc3575b610df881604051610ddd60408261089d565b60098152681d1bdd14db53185cdd60ba1b6020820152611046565b604084019188835111610e9e5783855114610e835781610e65575b5050606090610e3d8c604051610e2a60408261089d565b60018152606960f81b6020820152611046565b610e4f8b604051610cf360408261089d565b519201519260018b019492959395919091610c3a565b9a610aea610e7b92610ae5859e6060965161093d565b99905f610e13565b505f9e508e9d508d9c508c9b508b9a50505050505050505050565b94509450999450505081610fa5575b5050805f80610f879398610f03604051610ec860608261089d565b602381527f682e74696d657374616d70203e2065706f63682e7446696e616c2068617070656020820152621b995960ea1b60408201526110a0565b51610f6460405191610f1660408461089d565b60018352601f60f91b6020840152610f50604051938492630dea9f5360e21b60208501526024840152606060448401526084830190611022565b88606483015203601f19810183528261089d565b6020815191016a636f6e736f6c652e6c6f675afa50604051610e2a60408261089d565b610f9984604051610cf360408261089d565b5f808080808080610c42565b95610aea610fbb92610ae5610f8795998761093d565b94905f610ead565b506060830151610dcb565b610fe791935060803d8111610b8c57610b7d818361089d565b915f610dbf565b9094506020813d60201161101a575b8161100a6020938361089d565b810103126101465751935f610c29565b3d9150610ffd565b805180835260209291819084018484015e5f828201840152601f01601f1916010190565b6110756110895f93928493604051938492632d839cb360e21b6020850152604060248501526064840190611022565b90604483015203601f19810183528261089d565b6020815191016a636f6e736f6c652e6c6f675afa50565b5f6110cd611089829360405192839163104c13eb60e21b6020840152602060248401526044830190611022565b03601f19810183528261089d56fea264697066735822122062affc83cd78036dcd7d97dc1736121aa3aa08e778434cec3933f515513bba5664736f6c634300081a0033","linkReferences":{}},"methodIdentifiers":{"acceptActivatorProposal()":"608bd0bf","acceptAddressSMateProposal()":"5b74440a","acceptAdminProposal()":"55dbb311","acceptEvvmAddressProposal()":"1fa75673","cancelActivatorProposal()":"fd3607d0","cancelAddressSMateProposal()":"69ec0864","cancelAdminProposal()":"4cc05f46","cancelEvvmAddressProposal()":"70b170da","getActivatorMetadata()":"b1fc6a91","getActualEpochInFormat()":"c9ed28e9","getActualEpochInUint()":"5637455a","getAddressSMateMetadata()":"30b3d71f","getAdminMetadata()":"c1a53583","getEpochMetadata()":"112c1d5a","getEvvmAddressMetadata()":"779a3481","makeEstimation(address)":"f7027207","notifyNewEpoch(address,uint256,uint256,uint256)":"5fd99c59","setActivatorProposal(address)":"79eb30f0","setAddressSMateProposal(address)":"bd9731f9","setAdminProposal(address)":"7fa80f08","setEvvmAddressProposal(address)":"a9131e23","simulteEstimation(address)":"33a61fc3"},"id":76}