{"abi":[{"type":"function","name":"approve","inputs":[{"name":"spender","type":"address","internalType":"address"},{"name":"id","type":"uint256","internalType":"uint256"}],"outputs":[],"stateMutability":"nonpayable"},{"type":"function","name":"balanceOf","inputs":[{"name":"owner","type":"address","internalType":"address"}],"outputs":[{"name":"","type":"uint256","internalType":"uint256"}],"stateMutability":"view"},{"type":"function","name":"getApproved","inputs":[{"name":"","type":"uint256","internalType":"uint256"}],"outputs":[{"name":"","type":"address","internalType":"address"}],"stateMutability":"view"},{"type":"function","name":"initialize","inputs":[{"name":"_name","type":"string","internalType":"string"},{"name":"_symbol","type":"string","internalType":"string"}],"outputs":[],"stateMutability":"nonpayable"},{"type":"function","name":"isApprovedForAll","inputs":[{"name":"","type":"address","internalType":"address"},{"name":"","type":"address","internalType":"address"}],"outputs":[{"name":"","type":"bool","internalType":"bool"}],"stateMutability":"view"},{"type":"function","name":"name","inputs":[],"outputs":[{"name":"","type":"string","internalType":"string"}],"stateMutability":"view"},{"type":"function","name":"ownerOf","inputs":[{"name":"id","type":"uint256","internalType":"uint256"}],"outputs":[{"name":"owner","type":"address","internalType":"address"}],"stateMutability":"view"},{"type":"function","name":"safeTransferFrom","inputs":[{"name":"from","type":"address","internalType":"address"},{"name":"to","type":"address","internalType":"address"},{"name":"id","type":"uint256","internalType":"uint256"}],"outputs":[],"stateMutability":"nonpayable"},{"type":"function","name":"safeTransferFrom","inputs":[{"name":"from","type":"address","internalType":"address"},{"name":"to","type":"address","internalType":"address"},{"name":"id","type":"uint256","internalType":"uint256"},{"name":"data","type":"bytes","internalType":"bytes"}],"outputs":[],"stateMutability":"nonpayable"},{"type":"function","name":"setApprovalForAll","inputs":[{"name":"operator","type":"address","internalType":"address"},{"name":"approved","type":"bool","internalType":"bool"}],"outputs":[],"stateMutability":"nonpayable"},{"type":"function","name":"supportsInterface","inputs":[{"name":"interfaceId","type":"bytes4","internalType":"bytes4"}],"outputs":[{"name":"","type":"bool","internalType":"bool"}],"stateMutability":"pure"},{"type":"function","name":"symbol","inputs":[],"outputs":[{"name":"","type":"string","internalType":"string"}],"stateMutability":"view"},{"type":"function","name":"tokenURI","inputs":[{"name":"id","type":"uint256","internalType":"uint256"}],"outputs":[{"name":"","type":"string","internalType":"string"}],"stateMutability":"view"},{"type":"function","name":"transferFrom","inputs":[{"name":"from","type":"address","internalType":"address"},{"name":"to","type":"address","internalType":"address"},{"name":"id","type":"uint256","internalType":"uint256"}],"outputs":[],"stateMutability":"nonpayable"},{"type":"event","name":"Approval","inputs":[{"name":"owner","type":"address","indexed":true,"internalType":"address"},{"name":"spender","type":"address","indexed":true,"internalType":"address"},{"name":"id","type":"uint256","indexed":true,"internalType":"uint256"}],"anonymous":false},{"type":"event","name":"ApprovalForAll","inputs":[{"name":"owner","type":"address","indexed":true,"internalType":"address"},{"name":"operator","type":"address","indexed":true,"internalType":"address"},{"name":"approved","type":"bool","indexed":false,"internalType":"bool"}],"anonymous":false},{"type":"event","name":"Transfer","inputs":[{"name":"from","type":"address","indexed":true,"internalType":"address"},{"name":"to","type":"address","indexed":true,"internalType":"address"},{"name":"id","type":"uint256","indexed":true,"internalType":"uint256"}],"anonymous":false}],"bytecode":{"object":"0x60808060405234601557610ea0908161001a8239f35b5f80fdfe6080806040526004361015610012575f80fd5b5f3560e01c90816301ffc9a714610a315750806306fdde03146109a2578063081812fc14610970578063095ea7b3146108b557806323b872dd1461089e57806342842e0e146107da5780634cd88b76146104c25780636352211e1461045457806370a08231146103e257806395d89b4114610313578063a22cb4651461028a578063b88d4fde14610155578063c87b56dd146101115763e985e9c5146100b6575f80fd5b3461010d57604036600319011261010d576100cf610b1a565b6100d7610b30565b9060018060a01b03165f52600560205260405f209060018060a01b03165f52602052602060ff60405f2054166040519015158152f35b5f80fd5b3461010d57602036600319011261010d5760405160208152602081816060518082840152806080604085015e5f8382018301830152601f01601f1916820101030190f35b3461010d57608036600319011261010d5761016e610b1a565b610176610b30565b6044359060643567ffffffffffffffff811161010d573660238201121561010d576101ab903690602481600401359101610b80565b906101b7838286610c21565b803b159283156101cd575b6101cb84610deb565b005b604051630a85bd0160e11b81523360048201526001600160a01b03909516602486015260448501526080606485015260209250839182905f908290610216906084830190610af6565b03926001600160a01b03165af1801561027f576101cb915f91610250575b506001600160e01b031916630a85bd0160e11b148280806101c2565b610272915060203d602011610278575b61026a8183610ad4565b810190610dcb565b82610234565b503d610260565b6040513d5f823e3d90fd5b3461010d57604036600319011261010d576102a3610b1a565b6024359081151580920361010d57335f52600560205260405f2060018060a01b0382165f5260205260405f2060ff1981541660ff841617905560405191825260018060a01b0316907f17307eab39ab6107e8899845ad3d59bd9653f200f220920489ca2b5937696c3160203392a3005b3461010d575f36600319011261010d576040515f60015461033381610a9c565b80845290600181169081156103be5750600114610373575b61036f8361035b81850382610ad4565b604051918291602083526020830190610af6565b0390f35b60015f9081525f80516020610e4b833981519152939250905b8082106103a45750909150810160200161035b61034b565b91926001816020925483858801015201910190929161038c565b60ff191660208086019190915291151560051b8401909101915061035b905061034b565b3461010d57602036600319011261010d576001600160a01b03610403610b1a565b168015610420575f526003602052602060405f2054604051908152f35b60405162461bcd60e51b815260206004820152600c60248201526b5a45524f5f4144445245535360a01b6044820152606490fd5b3461010d57602036600319011261010d576004355f908152600260205260409020546001600160a01b0316801561049057602090604051908152f35b60405162461bcd60e51b815260206004820152600a6024820152691393d517d3525395115160b21b6044820152606490fd5b3461010d57604036600319011261010d5760043567ffffffffffffffff811161010d576104f3903690600401610bc6565b60243567ffffffffffffffff811161010d57610513903690600401610bc6565b60ff6006541661079f57815167ffffffffffffffff81116106af576105385f54610a9c565b601f8111610738575b50602092601f82116001146106ce57928192935f926106c3575b50508160011b915f199060031b1c1916175f555b805167ffffffffffffffff81116106af5761058b600154610a9c565b601f8111610647575b50602091601f82116001146105dc579181925f926105d1575b50508160011b915f199060031b1c1916176001555b6006805460ff19166001179055005b0151905082806105ad565b601f1982169260015f525f80516020610e4b833981519152915f5b85811061062f57508360019510610617575b505050811b016001556105c2565b01515f1960f88460031b161c19169055828080610609565b919260206001819286850151815501940192016105f7565b60015f52601f820160051c5f80516020610e4b83398151915201906020831061069a575b601f0160051c5f80516020610e4b83398151915201905b81811061068f5750610594565b5f8155600101610682565b5f80516020610e4b833981519152915061066b565b634e487b7160e01b5f52604160045260245ffd5b01519050838061055b565b601f198216935f80525f80516020610e2b833981519152915f5b8681106107205750836001959610610708575b505050811b015f5561056f565b01515f1960f88460031b161c191690558380806106fb565b919260206001819286850151815501940192016106e8565b5f8052601f820160051c5f80516020610e2b83398151915201906020831061078a575b601f0160051c5f80516020610e2b83398151915201905b81811061077f5750610541565b5f8155600101610772565b5f80516020610e2b833981519152915061075b565b60405162461bcd60e51b81526020600482015260136024820152721053149150511657d253925512505312569151606a1b6044820152606490fd5b3461010d576107e836610b46565b6107f58183859495610c21565b823b15918215610809575b6101cb83610deb565b604051630a85bd0160e11b81523360048201526001600160a01b0391821660248201526044810192909252608060648301525f60848301819052919360209350849260a4928492165af1801561027f576101cb915f9161087f575b506001600160e01b031916630a85bd0160e11b148280610800565b610898915060203d6020116102785761026a8183610ad4565b82610864565b3461010d576101cb6108af36610b46565b91610c21565b3461010d57604036600319011261010d576108ce610b1a565b60243590815f52600260205260018060a01b0360405f20541690813314801561094e575b6108fb90610be4565b5f83815260046020526040812080546001600160a01b0319166001600160a01b039390931692831790559091907f8c5be1e5ebec7d5bd14f71427d1e84f3dd0314c0f7b2291e5b200ac8c7c3b9259080a4005b505f82815260056020908152604080832033845290915290205460ff166108f2565b3461010d57602036600319011261010d576004355f526004602052602060018060a01b0360405f205416604051908152f35b3461010d575f36600319011261010d576040515f80546109c181610a9c565b80845290600181169081156103be57506001146109e85761036f8361035b81850382610ad4565b5f8080525f80516020610e2b833981519152939250905b808210610a175750909150810160200161035b61034b565b9192600181602092548385880101520191019092916109ff565b3461010d57602036600319011261010d576004359063ffffffff60e01b821680920361010d576020916301ffc9a760e01b8114908115610a8b575b8115610a7a575b5015158152f35b635b5e139f60e01b14905083610a73565b6380ac58cd60e01b81149150610a6c565b90600182811c92168015610aca575b6020831014610ab657565b634e487b7160e01b5f52602260045260245ffd5b91607f1691610aab565b90601f8019910116810190811067ffffffffffffffff8211176106af57604052565b805180835260209291819084018484015e5f828201840152601f01601f1916010190565b600435906001600160a01b038216820361010d57565b602435906001600160a01b038216820361010d57565b606090600319011261010d576004356001600160a01b038116810361010d57906024356001600160a01b038116810361010d579060443590565b92919267ffffffffffffffff82116106af5760405191610baa601f8201601f191660200184610ad4565b82948184528183011161010d578281602093845f960137010152565b9080601f8301121561010d57816020610be193359101610b80565b90565b15610beb57565b60405162461bcd60e51b815260206004820152600e60248201526d1393d517d055551213d49256915160921b6044820152606490fd5b5f838152600260205260409020546001600160a01b039182169291168203610d99576001600160a01b0316908115610d60578033148015610d3e575b8015610d1f575b610c6d90610be4565b805f52600360205260405f2080548015610d0b575f19019055815f52600360205260405f2080545f198114610d0b576001019055825f52600260205260405f20826bffffffffffffffffffffffff60a01b825416179055825f52600460205260405f206bffffffffffffffffffffffff60a01b81541690557fddf252ad1be2c89b69c2b068fc378daa952ba7f163c4a11628f55a4df523b3ef5f80a4565b634e487b7160e01b5f52601160045260245ffd5b505f838152600460205260409020546001600160a01b03163314610c64565b505f81815260056020908152604080832033845290915290205460ff16610c5d565b60405162461bcd60e51b81526020600482015260116024820152701253959053125117d49150d25412515395607a1b6044820152606490fd5b60405162461bcd60e51b815260206004820152600a60248201526957524f4e475f46524f4d60b01b6044820152606490fd5b9081602091031261010d57516001600160e01b03198116810361010d5790565b15610df257565b60405162461bcd60e51b815260206004820152601060248201526f155394d0519157d49150d2541251539560821b6044820152606490fdfe290decd9548b62a8d60345a988386fc84ba6bc95484008f6362f93160ef3e563b10e2d527612073b26eecdfd717e6a320cf44b4afac2b0732d9fcbe2b7fa0cf6a2646970667358221220448df8a9cc645634aa43068ca4546ba6983220d831f6e7a13f7a08faf7dbd06664736f6c634300081a0033","linkReferences":{}},"methodIdentifiers":{"approve(address,uint256)":"095ea7b3","balanceOf(address)":"70a08231","getApproved(uint256)":"081812fc","initialize(string,string)":"4cd88b76","isApprovedForAll(address,address)":"e985e9c5","name()":"06fdde03","ownerOf(uint256)":"6352211e","safeTransferFrom(address,address,uint256)":"42842e0e","safeTransferFrom(address,address,uint256,bytes)":"b88d4fde","setApprovalForAll(address,bool)":"a22cb465","supportsInterface(bytes4)":"01ffc9a7","symbol()":"95d89b41","tokenURI(uint256)":"c87b56dd","transferFrom(address,address,uint256)":"23b872dd"},"id":18}