{"abi":[{"type":"function","name":"makeEstimation","inputs":[{"name":"data","type":"tuple[]","internalType":"struct SMate.HistoryMetadata[]","components":[{"name":"transactionType","type":"bytes1","internalType":"bytes1"},{"name":"amount","type":"uint256","internalType":"uint256"},{"name":"timestamp","type":"uint256","internalType":"uint256"},{"name":"totalStaked","type":"uint256","internalType":"uint256"}]}],"outputs":[{"name":"answer","type":"bool","internalType":"bool"},{"name":"result","type":"uint256","internalType":"uint256"}],"stateMutability":"pure"}],"bytecode":{"object":"0x60808060405234601557610178908161001a8239f35b5f80fdfe60806040526004361015610011575f80fd5b5f3560e01c637fe9fa3d14610024575f80fd5b3461012a57602036600319011261012a5760043567ffffffffffffffff811161012a573660238201121561012a5780600401359067ffffffffffffffff821161012e57604051601f19603f8460051b0116810181811067ffffffffffffffff82111761012e576040528281526020019160071b81016024019036821161012a57602401915b8183106100bf57604080515f81525f6020820152f35b60808336031261012a57604051906080820182811067ffffffffffffffff82111761012e576040528335906001600160f81b03198216820361012a578260209260809452828601358382015260408601356040820152606086013560608201528152019201916100a9565b5f80fd5b634e487b7160e01b5f52604160045260245ffdfea2646970667358221220a00b2ba2a4079f2db5e6e752321116b691e76dee4b6a4973412588ad014ec73664736f6c634300081a0033","linkReferences":{}},"methodIdentifiers":{"makeEstimation((bytes1,uint256,uint256,uint256)[])":"7fe9fa3d"},"id":84}