{"abi":[{"type":"constructor","inputs":[{"name":"_initialOwner","type":"address","internalType":"address"},{"name":"_AxelarGateway","type":"address","internalType":"address"},{"name":"_AxelarGasService","type":"address","internalType":"address"},{"name":"_CcipRouter","type":"address","internalType":"address"},{"name":"_HyperlaneMailbox","type":"address","internalType":"address"},{"name":"_LayerZeroEndpoint","type":"address","internalType":"address"},{"name":"_sMateContractAddress","type":"address","internalType":"address"}],"stateMutability":"nonpayable"},{"type":"function","name":"_setTreasuryMetadata","inputs":[{"name":"_axelarTreasuryAddress","type":"string","internalType":"string"},{"name":"_axelarTreasuryChain","type":"string","internalType":"string"},{"name":"_ccipTreasuryAddress","type":"address","internalType":"address"},{"name":"_ccipTreasuryChain","type":"uint64","internalType":"uint64"},{"name":"_hyperlaneTreasuryAddress","type":"address","internalType":"address"},{"name":"_hyperlaneTreasuryChain","type":"uint32","internalType":"uint32"},{"name":"_layerZeroTreasuryAddress","type":"address","internalType":"address"},{"name":"_layerZeroTreasuryChain","type":"uint32","internalType":"uint32"}],"outputs":[],"stateMutability":"nonpayable"},{"type":"function","name":"acceptOwner","inputs":[],"outputs":[],"stateMutability":"nonpayable"},{"type":"function","name":"addTokenToWhitelist","inputs":[],"outputs":[],"stateMutability":"nonpayable"},{"type":"function","name":"allowInitializePath","inputs":[{"name":"origin","type":"tuple","internalType":"struct Origin","components":[{"name":"srcEid","type":"uint32","internalType":"uint32"},{"name":"sender","type":"bytes32","internalType":"bytes32"},{"name":"nonce","type":"uint64","internalType":"uint64"}]}],"outputs":[{"name":"","type":"bool","internalType":"bool"}],"stateMutability":"view"},{"type":"function","name":"caPay","inputs":[{"name":"to","type":"address","internalType":"address"},{"name":"token","type":"address","internalType":"address"},{"name":"amount","type":"uint256","internalType":"uint256"}],"outputs":[],"stateMutability":"nonpayable"},{"type":"function","name":"cancelPrepareMaxAmountToWithdraw","inputs":[],"outputs":[],"stateMutability":"nonpayable"},{"type":"function","name":"cancelPrepareTokenToBeWhitelisted","inputs":[],"outputs":[],"stateMutability":"nonpayable"},{"type":"function","name":"ccipReceive","inputs":[{"name":"message","type":"tuple","internalType":"struct Client.Any2EVMMessage","components":[{"name":"messageId","type":"bytes32","internalType":"bytes32"},{"name":"sourceChainSelector","type":"uint64","internalType":"uint64"},{"name":"sender","type":"bytes","internalType":"bytes"},{"name":"data","type":"bytes","internalType":"bytes"},{"name":"destTokenAmounts","type":"tuple[]","internalType":"struct Client.EVMTokenAmount[]","components":[{"name":"token","type":"address","internalType":"address"},{"name":"amount","type":"uint256","internalType":"uint256"}]}]}],"outputs":[],"stateMutability":"nonpayable"},{"type":"function","name":"changePool","inputs":[{"name":"token","type":"address","internalType":"address"},{"name":"pool","type":"address","internalType":"address"}],"outputs":[],"stateMutability":"nonpayable"},{"type":"function","name":"disperseCaPay","inputs":[{"name":"toData","type":"tuple[]","internalType":"struct Evvm.DisperseCaPayMetadata[]","components":[{"name":"amount","type":"uint256","internalType":"uint256"},{"name":"toAddress","type":"address","internalType":"address"}]},{"name":"token","type":"address","internalType":"address"},{"name":"amount","type":"uint256","internalType":"uint256"}],"outputs":[],"stateMutability":"nonpayable"},{"type":"function","name":"dispersePay","inputs":[{"name":"from","type":"address","internalType":"address"},{"name":"toData","type":"tuple[]","internalType":"struct Evvm.DispersePayMetadata[]","components":[{"name":"amount","type":"uint256","internalType":"uint256"},{"name":"to_address","type":"address","internalType":"address"},{"name":"to_identity","type":"string","internalType":"string"}]},{"name":"token","type":"address","internalType":"address"},{"name":"amount","type":"uint256","internalType":"uint256"},{"name":"priorityFee","type":"uint256","internalType":"uint256"},{"name":"nonce","type":"uint256","internalType":"uint256"},{"name":"priority","type":"bool","internalType":"bool"},{"name":"executor","type":"address","internalType":"address"},{"name":"signature","type":"bytes","internalType":"bytes"}],"outputs":[],"stateMutability":"nonpayable"},{"type":"function","name":"endpoint","inputs":[],"outputs":[{"name":"","type":"address","internalType":"contract ILayerZeroEndpointV2"}],"stateMutability":"view"},{"type":"function","name":"estimateAmountUsingUniswapV3Pool","inputs":[{"name":"poolv3","type":"address","internalType":"address"},{"name":"tokenIn","type":"address","internalType":"address"},{"name":"amountIn","type":"uint128","internalType":"uint128"},{"name":"secondsAgo","type":"uint32","internalType":"uint32"}],"outputs":[{"name":"ammountOut","type":"uint256","internalType":"uint256"}],"stateMutability":"view"},{"type":"function","name":"estimateEthToTokenUsingUniswapV3Pool","inputs":[{"name":"poolv3","type":"address","internalType":"address"},{"name":"tokenOut","type":"address","internalType":"address"},{"name":"amountIn","type":"uint128","internalType":"uint128"},{"name":"secondsAgo","type":"uint32","internalType":"uint32"}],"outputs":[{"name":"ammountOut","type":"uint256","internalType":"uint256"}],"stateMutability":"view"},{"type":"function","name":"execute","inputs":[{"name":"commandId","type":"bytes32","internalType":"bytes32"},{"name":"sourceChain","type":"string","internalType":"string"},{"name":"sourceAddress","type":"string","internalType":"string"},{"name":"payload","type":"bytes","internalType":"bytes"}],"outputs":[],"stateMutability":"nonpayable"},{"type":"function","name":"executeWithToken","inputs":[{"name":"commandId","type":"bytes32","internalType":"bytes32"},{"name":"sourceChain","type":"string","internalType":"string"},{"name":"sourceAddress","type":"string","internalType":"string"},{"name":"payload","type":"bytes","internalType":"bytes"},{"name":"tokenSymbol","type":"string","internalType":"string"},{"name":"amount","type":"uint256","internalType":"uint256"}],"outputs":[],"stateMutability":"nonpayable"},{"type":"function","name":"fisherDepositReceiver","inputs":[{"name":"user","type":"address","internalType":"address"},{"name":"addressToReceive","type":"address","internalType":"address"},{"name":"token","type":"address","internalType":"address"},{"name":"priorityFee","type":"uint256","internalType":"uint256"},{"name":"amount","type":"uint256","internalType":"uint256"},{"name":"signature","type":"bytes","internalType":"bytes"}],"outputs":[],"stateMutability":"nonpayable"},{"type":"function","name":"fisherWithdrawal","inputs":[{"name":"user","type":"address","internalType":"address"},{"name":"addressToReceive","type":"address","internalType":"address"},{"name":"token","type":"address","internalType":"address"},{"name":"priorityFee","type":"uint256","internalType":"uint256"},{"name":"amount","type":"uint256","internalType":"uint256"},{"name":"signature","type":"bytes","internalType":"bytes"}],"outputs":[],"stateMutability":"nonpayable"},{"type":"function","name":"gateway","inputs":[],"outputs":[{"name":"","type":"address","internalType":"contract IAxelarGateway"}],"stateMutability":"view"},{"type":"function","name":"getIfUsedAsyncNonce","inputs":[{"name":"user","type":"address","internalType":"address"},{"name":"nonce","type":"uint256","internalType":"uint256"}],"outputs":[{"name":"","type":"bool","internalType":"bool"}],"stateMutability":"view"},{"type":"function","name":"getMateNameServiceAddress","inputs":[],"outputs":[{"name":"","type":"address","internalType":"address"}],"stateMutability":"view"},{"type":"function","name":"getMaxAmountToWithdraw","inputs":[],"outputs":[{"name":"","type":"uint256","internalType":"uint256"}],"stateMutability":"view"},{"type":"function","name":"getNextCurrentSyncNonce","inputs":[{"name":"user","type":"address","internalType":"address"}],"outputs":[{"name":"","type":"uint256","internalType":"uint256"}],"stateMutability":"view"},{"type":"function","name":"getNextFisherDepositNonce","inputs":[{"name":"user","type":"address","internalType":"address"}],"outputs":[{"name":"","type":"uint256","internalType":"uint256"}],"stateMutability":"view"},{"type":"function","name":"getNextFisherWithdrawalNonce","inputs":[{"name":"user","type":"address","internalType":"address"}],"outputs":[{"name":"","type":"uint256","internalType":"uint256"}],"stateMutability":"view"},{"type":"function","name":"getRouter","inputs":[],"outputs":[{"name":"","type":"address","internalType":"address"}],"stateMutability":"view"},{"type":"function","name":"getSMateContractAddress","inputs":[],"outputs":[{"name":"","type":"address","internalType":"address"}],"stateMutability":"view"},{"type":"function","name":"getTokenUniswapPool","inputs":[{"name":"token","type":"address","internalType":"address"}],"outputs":[{"name":"","type":"address","internalType":"address"}],"stateMutability":"view"},{"type":"function","name":"handle","inputs":[{"name":"_origin","type":"uint32","internalType":"uint32"},{"name":"_sender","type":"bytes32","internalType":"bytes32"},{"name":"_data","type":"bytes","internalType":"bytes"}],"outputs":[],"stateMutability":"payable"},{"type":"function","name":"isMateStaker","inputs":[{"name":"user","type":"address","internalType":"address"}],"outputs":[{"name":"","type":"bool","internalType":"bool"}],"stateMutability":"view"},{"type":"function","name":"lzReceive","inputs":[{"name":"_origin","type":"tuple","internalType":"struct Origin","components":[{"name":"srcEid","type":"uint32","internalType":"uint32"},{"name":"sender","type":"bytes32","internalType":"bytes32"},{"name":"nonce","type":"uint64","internalType":"uint64"}]},{"name":"_guid","type":"bytes32","internalType":"bytes32"},{"name":"_message","type":"bytes","internalType":"bytes"},{"name":"_executor","type":"address","internalType":"address"},{"name":"_extraData","type":"bytes","internalType":"bytes"}],"outputs":[],"stateMutability":"payable"},{"type":"function","name":"makeCallCrossChain","inputs":[{"name":"payload","type":"bytes","internalType":"bytes"},{"name":"_solutionId","type":"uint8","internalType":"uint8"},{"name":"_options","type":"bytes","internalType":"bytes"}],"outputs":[],"stateMutability":"payable"},{"type":"function","name":"nextNonce","inputs":[{"name":"","type":"uint32","internalType":"uint32"},{"name":"","type":"bytes32","internalType":"bytes32"}],"outputs":[{"name":"nonce","type":"uint64","internalType":"uint64"}],"stateMutability":"view"},{"type":"function","name":"oAppVersion","inputs":[],"outputs":[{"name":"senderVersion","type":"uint64","internalType":"uint64"},{"name":"receiverVersion","type":"uint64","internalType":"uint64"}],"stateMutability":"pure"},{"type":"function","name":"owner","inputs":[],"outputs":[{"name":"","type":"address","internalType":"address"}],"stateMutability":"view"},{"type":"function","name":"payMateStaking_async","inputs":[{"name":"from","type":"address","internalType":"address"},{"name":"to_address","type":"address","internalType":"address"},{"name":"to_identity","type":"string","internalType":"string"},{"name":"token","type":"address","internalType":"address"},{"name":"amount","type":"uint256","internalType":"uint256"},{"name":"priorityFee","type":"uint256","internalType":"uint256"},{"name":"nonce","type":"uint256","internalType":"uint256"},{"name":"executor","type":"address","internalType":"address"},{"name":"signature","type":"bytes","internalType":"bytes"}],"outputs":[],"stateMutability":"nonpayable"},{"type":"function","name":"payMateStaking_sync","inputs":[{"name":"from","type":"address","internalType":"address"},{"name":"to_address","type":"address","internalType":"address"},{"name":"to_identity","type":"string","internalType":"string"},{"name":"token","type":"address","internalType":"address"},{"name":"amount","type":"uint256","internalType":"uint256"},{"name":"priorityFee","type":"uint256","internalType":"uint256"},{"name":"executor","type":"address","internalType":"address"},{"name":"signature","type":"bytes","internalType":"bytes"}],"outputs":[],"stateMutability":"nonpayable"},{"type":"function","name":"payMultiple","inputs":[{"name":"payData","type":"tuple[]","internalType":"struct Evvm.PayData[]","components":[{"name":"from","type":"address","internalType":"address"},{"name":"to_address","type":"address","internalType":"address"},{"name":"to_identity","type":"string","internalType":"string"},{"name":"token","type":"address","internalType":"address"},{"name":"amount","type":"uint256","internalType":"uint256"},{"name":"priorityFee","type":"uint256","internalType":"uint256"},{"name":"nonce","type":"uint256","internalType":"uint256"},{"name":"priority","type":"bool","internalType":"bool"},{"name":"executor","type":"address","internalType":"address"},{"name":"signature","type":"bytes","internalType":"bytes"}]}],"outputs":[{"name":"successfulTransactions","type":"uint256","internalType":"uint256"},{"name":"failedTransactions","type":"uint256","internalType":"uint256"}],"stateMutability":"nonpayable"},{"type":"function","name":"payNoMateStaking_async","inputs":[{"name":"from","type":"address","internalType":"address"},{"name":"to_address","type":"address","internalType":"address"},{"name":"to_identity","type":"string","internalType":"string"},{"name":"token","type":"address","internalType":"address"},{"name":"amount","type":"uint256","internalType":"uint256"},{"name":"priorityFee","type":"uint256","internalType":"uint256"},{"name":"nonce","type":"uint256","internalType":"uint256"},{"name":"executor","type":"address","internalType":"address"},{"name":"signature","type":"bytes","internalType":"bytes"}],"outputs":[],"stateMutability":"nonpayable"},{"type":"function","name":"payNoMateStaking_sync","inputs":[{"name":"from","type":"address","internalType":"address"},{"name":"to_address","type":"address","internalType":"address"},{"name":"to_identity","type":"string","internalType":"string"},{"name":"token","type":"address","internalType":"address"},{"name":"amount","type":"uint256","internalType":"uint256"},{"name":"priorityFee","type":"uint256","internalType":"uint256"},{"name":"executor","type":"address","internalType":"address"},{"name":"signature","type":"bytes","internalType":"bytes"}],"outputs":[],"stateMutability":"nonpayable"},{"type":"function","name":"peers","inputs":[{"name":"eid","type":"uint32","internalType":"uint32"}],"outputs":[{"name":"peer","type":"bytes32","internalType":"bytes32"}],"stateMutability":"view"},{"type":"function","name":"pointStaker","inputs":[{"name":"user","type":"address","internalType":"address"},{"name":"answer","type":"bytes1","internalType":"bytes1"}],"outputs":[],"stateMutability":"nonpayable"},{"type":"function","name":"prepareMaxAmountToWithdraw","inputs":[{"name":"amount","type":"uint256","internalType":"uint256"}],"outputs":[],"stateMutability":"nonpayable"},{"type":"function","name":"prepareTokenToBeWhitelisted","inputs":[{"name":"token","type":"address","internalType":"address"},{"name":"pool","type":"address","internalType":"address"}],"outputs":[],"stateMutability":"nonpayable"},{"type":"function","name":"proposeOwner","inputs":[{"name":"_newOwner","type":"address","internalType":"address"}],"outputs":[],"stateMutability":"nonpayable"},{"type":"function","name":"recalculateReward","inputs":[],"outputs":[],"stateMutability":"nonpayable"},{"type":"function","name":"rejectProposalOwner","inputs":[],"outputs":[],"stateMutability":"nonpayable"},{"type":"function","name":"removeTokenWhitelist","inputs":[{"name":"token","type":"address","internalType":"address"}],"outputs":[],"stateMutability":"nonpayable"},{"type":"function","name":"renounceOwnership","inputs":[],"outputs":[],"stateMutability":"nonpayable"},{"type":"function","name":"seeBalance","inputs":[{"name":"user","type":"address","internalType":"address"},{"name":"token","type":"address","internalType":"address"}],"outputs":[{"name":"","type":"uint256","internalType":"uint256"}],"stateMutability":"view"},{"type":"function","name":"seeIfTokenIsWhitelisted","inputs":[{"name":"token","type":"address","internalType":"address"}],"outputs":[{"name":"","type":"bool","internalType":"bool"}],"stateMutability":"view"},{"type":"function","name":"seeMateEraTokens","inputs":[],"outputs":[{"name":"","type":"uint256","internalType":"uint256"}],"stateMutability":"view"},{"type":"function","name":"seeMateReward","inputs":[],"outputs":[{"name":"","type":"uint256","internalType":"uint256"}],"stateMutability":"view"},{"type":"function","name":"seeMateTotalSupply","inputs":[],"outputs":[{"name":"","type":"uint256","internalType":"uint256"}],"stateMutability":"view"},{"type":"function","name":"setDelegate","inputs":[{"name":"_delegate","type":"address","internalType":"address"}],"outputs":[],"stateMutability":"nonpayable"},{"type":"function","name":"setMNSAddress","inputs":[{"name":"_mateNameServiceAddress","type":"address","internalType":"address"}],"outputs":[],"stateMutability":"nonpayable"},{"type":"function","name":"setMaxAmountToWithdraw","inputs":[],"outputs":[],"stateMutability":"nonpayable"},{"type":"function","name":"setPeer","inputs":[{"name":"_eid","type":"uint32","internalType":"uint32"},{"name":"_peer","type":"bytes32","internalType":"bytes32"}],"outputs":[],"stateMutability":"nonpayable"},{"type":"function","name":"supportsInterface","inputs":[{"name":"interfaceId","type":"bytes4","internalType":"bytes4"}],"outputs":[{"name":"","type":"bool","internalType":"bool"}],"stateMutability":"pure"},{"type":"function","name":"transferOwnership","inputs":[{"name":"newOwner","type":"address","internalType":"address"}],"outputs":[],"stateMutability":"nonpayable"},{"type":"function","name":"withdrawalMateStaking_async","inputs":[{"name":"user","type":"address","internalType":"address"},{"name":"addressToReceive","type":"address","internalType":"address"},{"name":"token","type":"address","internalType":"address"},{"name":"amount","type":"uint256","internalType":"uint256"},{"name":"priorityFee","type":"uint256","internalType":"uint256"},{"name":"nonce","type":"uint256","internalType":"uint256"},{"name":"signature","type":"bytes","internalType":"bytes"},{"name":"_solutionId","type":"uint8","internalType":"uint8"},{"name":"_options","type":"bytes","internalType":"bytes"}],"outputs":[],"stateMutability":"payable"},{"type":"function","name":"withdrawalMateStaking_sync","inputs":[{"name":"user","type":"address","internalType":"address"},{"name":"addressToReceive","type":"address","internalType":"address"},{"name":"token","type":"address","internalType":"address"},{"name":"amount","type":"uint256","internalType":"uint256"},{"name":"priorityFee","type":"uint256","internalType":"uint256"},{"name":"signature","type":"bytes","internalType":"bytes"},{"name":"_solutionId","type":"uint8","internalType":"uint8"},{"name":"_options","type":"bytes","internalType":"bytes"}],"outputs":[],"stateMutability":"payable"},{"type":"function","name":"withdrawalNoMateStaking_async","inputs":[{"name":"user","type":"address","internalType":"address"},{"name":"addressToReceive","type":"address","internalType":"address"},{"name":"token","type":"address","internalType":"address"},{"name":"amount","type":"uint256","internalType":"uint256"},{"name":"priorityFee","type":"uint256","internalType":"uint256"},{"name":"nonce","type":"uint256","internalType":"uint256"},{"name":"signature","type":"bytes","internalType":"bytes"},{"name":"_solutionId","type":"uint8","internalType":"uint8"},{"name":"_options","type":"bytes","internalType":"bytes"}],"outputs":[],"stateMutability":"payable"},{"type":"function","name":"withdrawalNoMateStaking_sync","inputs":[{"name":"user","type":"address","internalType":"address"},{"name":"addressToReceive","type":"address","internalType":"address"},{"name":"token","type":"address","internalType":"address"},{"name":"amount","type":"uint256","internalType":"uint256"},{"name":"priorityFee","type":"uint256","internalType":"uint256"},{"name":"signature","type":"bytes","internalType":"bytes"},{"name":"_solutionId","type":"uint8","internalType":"uint8"},{"name":"_options","type":"bytes","internalType":"bytes"}],"outputs":[],"stateMutability":"payable"},{"type":"event","name":"MakePayment","inputs":[{"name":"from","type":"address","indexed":true,"internalType":"address"},{"name":"to","type":"address","indexed":true,"internalType":"address"},{"name":"token","type":"address","indexed":true,"internalType":"address"},{"name":"amount","type":"uint256","indexed":false,"internalType":"uint256"},{"name":"usingMateStaking","type":"bool","indexed":false,"internalType":"bool"}],"anonymous":false},{"type":"event","name":"MakeWithdrawal","inputs":[{"name":"user","type":"address","indexed":true,"internalType":"address"},{"name":"token","type":"address","indexed":true,"internalType":"address"},{"name":"solutionId","type":"uint8","indexed":true,"internalType":"uint8"},{"name":"usingMateStaking","type":"bool","indexed":false,"internalType":"bool"},{"name":"amount","type":"uint256","indexed":false,"internalType":"uint256"}],"anonymous":false},{"type":"event","name":"NewTokenWhitelisted","inputs":[{"name":"token","type":"address","indexed":true,"internalType":"address"},{"name":"pool","type":"address","indexed":true,"internalType":"address"}],"anonymous":false},{"type":"event","name":"OwnershipTransferred","inputs":[{"name":"previousOwner","type":"address","indexed":true,"internalType":"address"},{"name":"newOwner","type":"address","indexed":true,"internalType":"address"}],"anonymous":false},{"type":"event","name":"PeerSet","inputs":[{"name":"eid","type":"uint32","indexed":false,"internalType":"uint32"},{"name":"peer","type":"bytes32","indexed":false,"internalType":"bytes32"}],"anonymous":false},{"type":"error","name":"AddressEmptyCode","inputs":[{"name":"target","type":"address","internalType":"address"}]},{"type":"error","name":"AddressInsufficientBalance","inputs":[{"name":"account","type":"address","internalType":"address"}]},{"type":"error","name":"FailedInnerCall","inputs":[]},{"type":"error","name":"InvalidAddress","inputs":[]},{"type":"error","name":"InvalidEndpointCall","inputs":[]},{"type":"error","name":"InvalidRouter","inputs":[{"name":"router","type":"address","internalType":"address"}]},{"type":"error","name":"LzTokenUnavailable","inputs":[]},{"type":"error","name":"NoPeer","inputs":[{"name":"eid","type":"uint32","internalType":"uint32"}]},{"type":"error","name":"NotApprovedByGateway","inputs":[]},{"type":"error","name":"NotEnoughNative","inputs":[{"name":"msgValue","type":"uint256","internalType":"uint256"}]},{"type":"error","name":"OnlyEndpoint","inputs":[{"name":"addr","type":"address","internalType":"address"}]},{"type":"error","name":"OnlyPeer","inputs":[{"name":"eid","type":"uint32","internalType":"uint32"},{"name":"sender","type":"bytes32","internalType":"bytes32"}]},{"type":"error","name":"OwnableInvalidOwner","inputs":[{"name":"owner","type":"address","internalType":"address"}]},{"type":"error","name":"OwnableUnauthorizedAccount","inputs":[{"name":"account","type":"address","internalType":"address"}]},{"type":"error","name":"SafeERC20FailedOperation","inputs":[{"name":"token","type":"address","internalType":"address"}]},{"type":"error","name":"T","inputs":[]}],"bytecode":{"object":"0x60e08060405234610264575f9060e081616ee28038038091610021828561029d565b83398101031261026457610034816102d4565b91610041602083016102d4565b9061004e604084016102d4565b9161005b606085016102d4565b93610068608082016102d4565b9461008160c061007a60a085016102d4565b93016102d4565b966001600160a01b03811693841561028a5761009c826102e8565b6001600160a01b0316801561027b576080526001600160a01b03821615610268576100c99160a0526102e8565b6001600160a01b031660c081905290813b15610264575f9160248392604051948593849263ca5eb5e160e01b845260048401525af1801561025957610246575b506040519060808201906001600160401b03821183831017610232575060409081526b0691ef14d9ee1d2ee43400008083526b0348f78a6cf70e97721a000060208401819052674563918244f4000083850181905260016060909501859052600292909255600355600455600580546001600160a01b03199081169093179055600c805483166001600160a01b039485161790556018805483169484169490941790935567016345785d8a0000601355601a8054909116939091169290921790915551616bb3908161032f82396080518181816105730152818161368a015281816137d301526141f0015260a051818181611f530152818161294901526142ba015260c05181818161067a0152818161195801528181612d5701528181616015015261690a0152f35b634e487b7160e01b81526041600452602490fd5b61025291505f9061029d565b5f80610109565b6040513d5f823e3d90fd5b5f80fd5b6335fdcccd60e21b5f525f60045260245ffd5b63e6c4247b60e01b5f5260045ffd5b631e4fbdf760e01b5f525f60045260245ffd5b601f909101601f19168101906001600160401b038211908210176102c057604052565b634e487b7160e01b5f52604160045260245ffd5b51906001600160a01b038216820361026457565b5f80546001600160a01b039283166001600160a01b03198216811783559216907f8be0079c531659141344cd1fd0a4f28419497f9722a3daafe3b4186f6b6457e09080a356fe60806040526004361015610011575f80fd5b5f3560e01c806301ffc9a71461041457806306c8b9491461040f578063116191b61461040a57806312ca7d4c1461040557806313137d651461040057806317442b70146103fb5780631820170c146103f65780631a3c1ddc146103f15780631a98b2e0146103ec578063219f9c3d146103e75780633400288b146103e257806337da4ad8146103dd5780633de62f67146103d85780634234a706146103d357806349160658146103ce5780634925e4ed146103c95780634faa1fa2146103c457806352896a1f146103bf5780635300e162146103ba57806356d5d475146103b55780635e280f11146103b05780636cd30148146103ab578063715018a6146103a6578063719ca6df146103a157806374f060341461039c5780637d25a05e146103975780637d8e30591461039257806385572ffb1461038d5780638ae06ec1146103885780638da5cb5b146103835780638e0069811461037e578063920f3d7614610379578063959dd66f14610374578063992963a51461036f5780639a1f2e161461036a5780639c113d1b14610365578063a4cba4ba14610360578063a7a096f61461035b578063acc2d9cd14610356578063adb6233f14610351578063b0f479a11461034c578063b581d59414610347578063b5ed298a14610342578063b7ce53ca1461033d578063b88bfcdc14610338578063bb0b6a5314610333578063c0b559f41461032e578063c898a6e914610329578063ca5eb5e114610324578063cb62c7bc1461031f578063ced8cc5c1461031a578063d0e3692d14610315578063d5d7b2f114610310578063dedc9ff61461030b578063e4532e9b14610306578063e9a7e38a14610301578063ebbc4965146102fc578063ef83c1d6146102f7578063f2fde38b146102f2578063f4e1895b146102ed578063f7ebfebd146102e8578063fcaa9444146102e3578063fe9e6349146102de5763ff7bd03d146102d9575f80fd5b613506565b6134c7565b6134aa565b613463565b6132d0565b613280565b613138565b6130d7565b612f99565b612f7c565b612ee3565b612e68565b612e1a565b612de9565b612dcc565b612d2f565b612c9b565b612c6d565b612c34565b612a4c565b612a30565b6129bd565b612978565b612934565b6128cc565b612869565b6127ac565b612771565b612640565b6125fc565b6124a8565b612475565b612245565b6120bc565b61205c565b612034565b611f21565b611dd5565b611d26565b611b01565b611a19565b6119c2565b611987565b611943565b61188c565b61180f565b6115a5565b61136a565b6112bb565b61123c565b611201565b6111bd565b6111a0565b61111b565b6110f8565b611051565b610bf6565b6108bb565b61070d565b610616565b6105a2565b61055e565b6104e8565b3461046a57602036600319011261046a5760043563ffffffff60e01b811680910361046a576020906385572ffb60e01b8114908115610459575b506040519015158152f35b6301ffc9a760e01b1490505f61044e565b5f80fd5b6001600160a01b0381160361046a57565b6024359061048c8261046e565b565b60c4359061048c8261046e565b6044359061048c8261046e565b60e4359061048c8261046e565b359061048c8261046e565b604090600319011261046a576004356104d88161046e565b906024356104e58161046e565b90565b3461046a576104f6366104c0565b906104ff614be4565b6001600160a01b03165f81815260208052604090205490919060ff161561046a575f9182526020805260409091208054610100600160a81b03191660089290921b610100600160a81b0316919091179055005b005b5f91031261046a57565b3461046a575f36600319011261046a576040517f00000000000000000000000000000000000000000000000000000000000000006001600160a01b03168152602090f35b3461046a57602036600319011261046a576004356105be614be4565b6014556201518042018042116105d357601555005b61354b565b606090600319011261046a57600490565b9181601f8401121561046a578235916001600160401b03831161046a576020838186019501011161046a57565b60e036600319011261046a5761062b366105d8565b6084356001600160401b03811161046a5761064a9036906004016105e9565b9061065660a43561046e565b60c4356001600160401b03811161046a576106759036906004016105e9565b5050337f00000000000000000000000000000000000000000000000000000000000000006001600160a01b0316036106fa578235926106b384610b88565b6106bc84614c0a565b9360208201358095036106d457506105529350614c3a565b63ffffffff816106e48793610b88565b63309afaf360e21b5f521660045260245260445ffd5b6391ac5e4f60e01b5f523360045260245ffd5b3461046a575f36600319011261046a57604080515f815260016020820152f35b634e487b7160e01b5f52604160045260245ffd5b604081019081106001600160401b0382111761075c57604052565b61072d565b606081019081106001600160401b0382111761075c57604052565b60a081019081106001600160401b0382111761075c57604052565b90601f801991011681019081106001600160401b0382111761075c57604052565b6040519061048c60a083610797565b6040519061048c61014083610797565b6040519061048c604083610797565b6040519061048c602083610797565b6001600160401b03811161075c57601f01601f191660200190565b92919261081c826107f5565b9161082a6040519384610797565b82948184528183011161046a578281602093845f960137010152565b9080601f8301121561046a578160206104e593359101610810565b9060c060031983011261046a5760043561087a8161046e565b916024356108878161046e565b916044356108948161046e565b91606435916084359160a435906001600160401b03821161046a576104e591600401610846565b3461046a576108ff6108fb6108cf36610861565b9082848799959894966108f3849960018060a01b03165f52601f60205260405f2090565b54908b614cc1565b1590565b61046a57601a5460049060209061092c90610920906001600160a01b031681565b6001600160a01b031690565b604051637f8da59160e01b815292839182905afa908115610b83575f91610b54575b506001600160a01b03163314801590610b2e575b8015610afa575b61046a576001600160a01b0383169283610a9257601354831161046a575f945f80516020616b3e83398151915292610a076109ff610a8d945b6109ac8489613589565b6109ea6109e2836109cd8960018060a01b03165f52601b60205260405f2090565b9060018060a01b03165f5260205260405f2090565b9182546135b6565b9055335f908152601b602052604090206109cd565b918254613589565b9055600454335f908152601b60205260409020610a44906109ff905b6005546001600160a01b03165b60018060a01b03165f5260205260405f2090565b90556001600160a01b0381165f908152601f60205260409020610a6781546135c3565b9055604080516001815260208101959095526001600160a01b0390911693918291820190565b0390a4005b6001600160a01b0381165f9081526020805260409020610ad290610ac1905b5460081c6001600160a01b031690565b826001600160801b03861691614420565b6013541061046a575f945f80516020616b3e83398151915292610a076109ff610a8d946109a2565b506001600160a01b0384165f908152601b60205260409020610b1d9084906109cd565b54610b288284613589565b11610969565b50600554610b44906001600160a01b0316610920565b6001600160a01b03841614610962565b610b76915060203d602011610b7c575b610b6e8183610797565b810190613596565b5f61094e565b503d610b64565b6135ab565b63ffffffff81160361046a57565b60a4359061048c82610b88565b60e4359061048c82610b88565b608090600319011261046a57600435610bc88161046e565b90602435610bd58161046e565b906044356001600160801b038116810361046a57906064356104e581610b88565b3461046a57610c11610c0736610bb0565b9092939193614fe0565b5060020b915f83121561104b57825f035b620d89e8811161103c57602093600182161561102a576001600160881b036ffffcb933bd6fad37aa2d162d1a5940015b16916002811661100e575b60048116610ff2575b60088116610fd6575b60108116610fba575b858116610f9e575b60408116610f82575b60808116610f66575b6101008116610f4a575b6102008116610f2e575b6104008116610f12575b6108008116610ef6575b6110008116610eda575b6120008116610ebe575b6140008116610ea2575b6180008116610e86575b620100008116610e6a575b620200008116610e4f575b620400008116610e34575b6208000016610e1b575b5f12610e0d575b610d2b610d218260201c90565b9163ffffffff1690565b610e05575f905b60ff91909116016001600160a01b03166001600160801b038111610db15780610d5a916138bd565b906001600160a01b03167349d5c2bdffac6ce2bfdb6640f4f80f226bc10bab1015610d9a576001600160801b03610d92921690616896565b604051908152f35b6001600160801b03610dac9216616813565b610d92565b80610dbb916166ee565b906001600160a01b03167349d5c2bdffac6ce2bfdb6640f4f80f226bc10bab1015610df3576001600160801b03610dac9216906167cb565b6001600160801b03610dac9216616736565b600190610d32565b610e1690613896565b610d14565b6b048a170391f7dc42444e8fa290910260801c90610d0d565b6d2216e584f5fa1ea926041bedfe9890920260801c91610d03565b916e5d6af8dedb81196699c329225ee6040260801c91610cf8565b916f09aa508b5b7a84e1c677de54f3e99bc90260801c91610ced565b916f31be135f97d08fd981231505542fcfa60260801c91610ce2565b916f70d869a156d2a1b890bb3df62baf32f70260801c91610cd8565b916fa9f746462d870fdf8a65dc1f90e061e50260801c91610cce565b916fd097f3bdfd2022b8845ad8f792aa58250260801c91610cc4565b916fe7159475a2c29b7443b29c7fa6e889d90260801c91610cba565b916ff3392b0822b70005940c7a398e4b70f30260801c91610cb0565b916ff987a7253ac413176f2b074cf7815e540260801c91610ca6565b916ffcbe86c7900a88aedcffc83b479aa3a40260801c91610c9c565b916ffe5dee046a99a2a811c461f1969c30530260801c91610c92565b916fff2ea16466c96a3843ec78b326b528610260801c91610c89565b916fff973b41fa98c081472e6896dfb254c00260801c91610c80565b916fffcb9843d60f6159c9db58835c9266440260801c91610c78565b916fffe5caca7e10e4e61c3624eaa0941cd00260801c91610c6f565b916ffff2e50f5f656932ef12357cf3c7fdcc0260801c91610c66565b916ffff97272373d413259a46990580e213a0260801c91610c5d565b6001600160881b03600160801b610c52565b6315e4079d60e11b5f5260045ffd5b82610c22565b3461046a5760c036600319011261046a576004356024356001600160401b03811161046a576110849036906004016105e9565b6044929192356001600160401b03811161046a576110a69036906004016105e9565b6064949194356001600160401b03811161046a576110c89036906004016105e9565b91608435966001600160401b03881161046a576110ec6105529836906004016105e9565b96909560a43598613606565b3461046a575f36600319011261046a57611110614be4565b5f6014819055601555005b3461046a57604036600319011261046a577f238399d427b947898edb290f5ff0f9109849b1c3ba196a42e35f00c50a54b98b60043561115981610b88565b60243590611165614be4565b63ffffffff81165f5260016020528160405f205561119b604051928392836020909392919363ffffffff60408201951681520152565b0390a1005b3461046a575f36600319011261046a576020600454604051908152f35b3461046a575f36600319011261046a576111d5614be4565b6001600160601b0360a01b601054166010556001600160601b0360a01b601154166011555f6012555f80f35b3461046a57602036600319011261046a5760043561121e8161046e565b60018060a01b03165f52601e602052602060405f2054604051908152f35b3461046a57608036600319011261046a576004356024356001600160401b03811161046a5761126f9036906004016105e9565b916044356001600160401b03811161046a5761128f9036906004016105e9565b90606435946001600160401b03861161046a576112b36105529636906004016105e9565b95909461376e565b3461046a575f36600319011261046a57601a546040516001600160a01b039091168152602090f35b9061010060031983011261046a576004356112fd8161046e565b9160243561130a8161046e565b916044356001600160401b03811161046a578261132991600401610846565b916064356113368161046e565b916084359160a4359160c43561134b8161046e565b9160e435906001600160401b03821161046a576104e591600401610846565b3461046a576113b16108fb61137e366112e3565b81888486888a979e978c859f989a9e6113aa909e9c9e60018060a01b03165f52601c60205260405f2090565b549561584a565b61046a576001600160a01b0316806114ff575b506113d16108fb33614430565b61046a576113e96108fb6113e3613839565b846159e9565b156114f757506019546114289160209161140d90610920906001600160a01b031681565b604051808095819463063c696360e11b835260048301613871565b03915afa908115610b83575f916114d8575b50935b61144c6108fb84848888615a16565b61046a57806114bf575b50610a8d5f80516020616b5e8339815191529161147233615af2565b506001600160a01b0385165f908152601c6020526040902061149481546135c3565b905560408051948552600160208601526001600160a01b039182169682169590911693918291820190565b6108fb6114ce91833387615a16565b61046a575f611456565b6114f1915060203d602011610b7c57610b6e8183610797565b5f61143a565b90509361143d565b330361046a575f6113c4565b359060ff8216820361046a57565b9061010060031983011261046a576004356115338161046e565b916024356115408161046e565b9160443561154d8161046e565b91606435916084359160a4356001600160401b03811161046a578161157491600401610846565b9160c43560ff8116810361046a579160e435906001600160401b03821161046a576115a1916004016105e9565b9091565b6115e66108fb6115b436611519565b92888587898b849f979a9d969e966115df909d9a9d60018060a01b03165f52601c60205260405f2090565b5494615c31565b61046a576005546115ff906001600160a01b0316610920565b6001600160a01b0385169790881480156117fd575b80156117c9575b61046a57876117605767016345785d8a0000871161046a57838561173094888c61167b6109e260ff9b6109cd8f5f80516020616b3e8339815191529f61166091613589565b6001600160a01b039095165f908152601b6020526040902090565b9055335f908152601b6020526040902061169a906109ff9085906109cd565b90556001600160a01b03811661175757506116e7335b604080516001600160a01b0392831660208201529390911690830152606082018a905281608081015b03601f198101835282610797565b600454335f908152601b60205260409020611705906109ff90610a23565b90556001600160a01b038b165f908152601c602052604090205b61172981546135c3565b905561418c565b604080516001815260208101959095529116946001600160a01b0316929081908101610a8d565b6116e7906116b0565b6001600160a01b0385165f90815260208052604090206117949061178390610ab1565b866001600160801b038a1691614420565b6013541061046a57838561173094888c61167b6109e260ff9b6109cd8f5f80516020616b3e8339815191529f61166091613589565b506001600160a01b0389165f908152601b602052604090206117ec9086906109cd565b546117f78789613589565b1161161b565b5061180a6108fb33614430565b611614565b3461046a575f36600319011261046a57600254600354908181111561046a578181039081116105d35760011c81018091116105d35760035561185b600454611855615d35565b906138bd565b335f908152601b60205260409020611876906109ff90610a23565b905561055261188760045460011c90565b600455565b606036600319011261046a576004356118a481610b88565b602435906044356001600160401b03811161046a576118c79036906004016105e9565b60185491939092916001600160a01b0316330361046a576009541415908161192a575b5061046a576109ff61190583611926936109cd9501906138d0565b6001600160a01b039283165f908152601b6020526040902090959290911691565b9055005b60085490915063ffffffff9060e01c911614155f6118ea565b3461046a575f36600319011261046a576040517f00000000000000000000000000000000000000000000000000000000000000006001600160a01b03168152602090f35b3461046a57602036600319011261046a576004356119a48161046e565b60018060a01b03165f52601c602052602060405f2054604051908152f35b3461046a575f36600319011261046a576119da614be4565b5f80546001600160a01b0319811682556001600160a01b03167f8be0079c531659141344cd1fd0a4f28419497f9722a3daafe3b4186f6b6457e08280a3005b3461046a57611a27366104c0565b90611a30614be4565b60018060a01b03166001600160601b0360a01b601054161760105560018060a01b03166001600160601b0360a01b60115416176011556201518042018042116105d357601255005b61012060031982011261046a57600435611a918161046e565b91602435611a9e8161046e565b91604435611aab8161046e565b91606435916084359160a4359160c4356001600160401b03811161046a5781611ad691600401610846565b91611ae160e461150b565b9161010435906001600160401b03821161046a576115a1916004016105e9565b6108fb611b26611b1036611a78565b9493899a93919487898b959e95849b9a9d615cd0565b61046a57600554611b3f906001600160a01b0316610920565b6001600160a01b0384169790881490879085908315611cf6575b8315611cca575b50505061046a5786611c795767016345785d8a0000861161046a5787611c22935b335f908152601b60205260409020611b9a9082906109cd565b611ba58982546135b6565b90556001600160a01b0387161595611c1d90611c10908815611c7057611bf4335b604080516001600160a01b039283166020820152969091169086015260608086018d90528552608085610797565b335f908152601d602052604090205b905f5260205260405f2090565b805460ff19166001179055565b61418c565b15611c5957506040805160018152602081019290925260ff939093169233915f80516020616b3e8339815191529181908101610a8d565b60ff5f80516020616b3e8339815191529194611730565b611bf48a611bc6565b6001600160a01b0383165f9081526020805260409020611cb890611ca7905460081c6001600160a01b031690565b846001600160801b03891691614420565b6013541061046a5787611c2293611b81565b6001600160a01b03165f908152601b60205260409020919250611cec916109cd565b541086845f611b60565b9250611d20611d1988611c038660018060a01b03165f52601d60205260405f2090565b5460ff1690565b92611b59565b3461046a57604036600319011261046a57611d42600435610b88565b60206040515f8152f35b61012060031982011261046a57600435611d658161046e565b91602435611d728161046e565b916044356001600160401b03811161046a5781611d9191600401610846565b91606435611d9e8161046e565b916084359160a4359160c43591611db560e46104b5565b9161010435906001600160401b03821161046a576104e591600401610846565b3461046a576108fb611e00611de936611d4c565b9082899a9486888a969e968c869a9e9d9b9d6158d1565b61046a576001600160a01b031680611f15575b50611e35611d1987611c038860018060a01b03165f52601d60205260405f2090565b61046a57611e476108fb6113e3613839565b15611f0d5750601954611e6b9160209161140d90610920906001600160a01b031681565b03915afa908115610b83575f91611eee575b50935b611e8f6108fb84848888615a16565b61046a575f80516020616b5e83398151915291611ec6611c10610a8d93611c038860018060a01b03165f52601d60205260405f2090565b604080519485525f60208601526001600160a01b039182169682169590911693918291820190565b611f07915060203d602011610b7c57610b6e8183610797565b5f611e7d565b905093611e80565b330361046a575f611e13565b3461046a57602036600319011261046a576004356001600160401b03811161046a5760a0600319823603011261046a577f00000000000000000000000000000000000000000000000000000000000000006001600160a01b0316330361202157611f896107b8565b81600401358152611f9c60248301612ed8565b602082015260448201356001600160401b03811161046a57611fc49060043691850101610846565b604082015260648201356001600160401b03811161046a57611fec9060043691850101610846565b606082015260848201356001600160401b03811161046a5761055292600461201792369201016138fd565b6080820152615ddd565b6335fdcccd60e21b5f523360045260245ffd5b3461046a575f36600319011261046a576019546040516001600160a01b039091168152602090f35b3461046a575f36600319011261046a575f546040516001600160a01b039091168152602090f35b6001600160401b03811161075c5760051b60200190565b8015150361046a57565b60c4359061048c8261209a565b359061048c8261209a565b3461046a57602036600319011261046a576004356001600160401b03811161046a573660238201121561046a578060040135906120f882612083565b906121066040519283610797565b8282526024602083019360051b8201019036821161046a5760248101935b82851061214657612134846139d0565b60408051928352602083019190915290f35b84356001600160401b03811161046a578201610140602319823603011261046a5761216f6107c7565b9161217c602483016104b5565b835261218a604483016104b5565b602084015260648201356001600160401b03811161046a576121b29060243691850101610846565b60408401526121c3608483016104b5565b606084015260a4820135608084015260c482013560a084015260e482013560c08401526121f361010483016120b1565b60e084015261220561012483016104b5565b610100840152610144820135926001600160401b03841161046a57612234602094936024869536920101610846565b610120820152815201940193612124565b61226a6108fb61225436611a78565b94928484888a959e958c8e9c9f96999b9e615cd0565b61046a57600554612283906001600160a01b0316610920565b6001600160a01b03891698908914801561244e575b801561243c575b8015612408575b61046a57886123a95767016345785d8a0000881161046a57611c1d611c10611c229684896122e18f97878f6116606109e2936109cd92613589565b9055335f908152601b60205260409020612300906109ff9087906109cd565b90556001600160a01b038a161598611c03908b8d8c1561239c57612363915061235533915b604080516001600160a01b0394851660208201529a909316928a0192909252606089019190915287906080820190565b03601f198101885287610797565b600454335f908152601b60205260409020612381906109ff90610a23565b90556001600160a01b03165f908152601d6020526040902090565b6123556123639291612325565b6001600160a01b0381165f90815260208052604090206123dd906123cc90610ab1565b826001600160801b038b1691614420565b6013541061046a57611c1d611c10611c229684896122e18f97878f6116606109e2936109cd92613589565b506001600160a01b0386165f908152601b6020526040902061242b9082906109cd565b54612436838a613589565b116122a6565b506124496108fb33614430565b61229f565b50612470611d1986611c038960018060a01b03165f52601d60205260405f2090565b612298565b3461046a575f36600319011261046a5761248d614be4565b601554421061046a576014546013555f6014555f6015555f80f35b3461046a576124e86108fb6124bc36610861565b908284829995966124e0899a969960018060a01b03165f52601e60205260405f2090565b54908a614cc1565b61046a57601a5460049060209061250990610920906001600160a01b031681565b604051637f8da59160e01b815292839182905afa908115610b83575f916125dd575b506001600160a01b031633148015906125b4575b61046a576109ff816125aa956109ea6109ff61256f956109cd8960018060a01b03165f52601b60205260405f2090565b9055600454335f908152601b6020526040902061258f906109ff90610a23565b90556001600160a01b03165f908152601e6020526040902090565b61192681546135c3565b506001600160a01b0381165f90815260208052604090206125d8906108fb90611d19565b61253f565b6125f6915060203d602011610b7c57610b6e8183610797565b5f61252b565b3461046a57602061263761260f366104c0565b6001600160a01b039182165f908152601b855260408082209290931681526020919091522090565b54604051908152f35b3461046a575f36600319011261046a57612658614be4565b601254421061046a576011546040516126f691612695906001600160a01b031661268183610741565b600183526001600160a01b03166020830152565b6010546126be906001600160a01b03165b6001600160a01b03165f908152602080526040902090565b815181546020909301516001600160a81b031990931660ff911515919091161760089290921b610100600160a81b0316919091179055565b60105461270f90611c10906001600160a01b03166126a6565b601080546001600160a01b0319169055601180546001600160a01b03191690556127385f601255565b6010546011546001600160a01b0390811691167ff1bd69c751a0ad5bbca53f38baed6014ab5c244c9863ec7cfaf08f60fe29a6bc5f80a3005b3461046a57602036600319011261046a5760043561278e8161046e565b60018060a01b03165f52601f602052602060405f2054604051908152f35b3461046a57606036600319011261046a576004356001600160401b03811161046a573660238201121561046a578060040135906127e882612083565b906127f66040519283610797565b8282526024602083019360061b8201019036821161046a57602401925b81841061282f576105528361282661047f565b60443591613e76565b60408436031261046a576020604091825161284981610741565b863581528287013561285a8161046e565b83820152815201930192612813565b606036600319011261046a576004356001600160401b03811161046a57612894903690600401610846565b60243560ff8116810361046a57604435916001600160401b03831161046a576128c46105529336906004016105e9565b92909161418c565b3461046a57604036600319011261046a576004356128e98161046e565b602435906001600160f81b03198216820361046a57601a546001600160a01b0316330361046a5760018060a01b03165f52601660205260405f209060f81c60ff198254161790555f80f35b3461046a575f36600319011261046a576040517f00000000000000000000000000000000000000000000000000000000000000006001600160a01b03168152602090f35b3461046a57602036600319011261046a576004356129958161046e565b60018060a01b03165f5260208052602060018060a01b0360405f205460081c16604051908152f35b3461046a57602036600319011261046a576004356129da8161046e565b6129e2614be4565b6001600160a01b031680158015612a1d575b61046a576001600160601b0360a01b600e541617600e556201518042018042116105d357600f55005b505f546001600160a01b031681146129f4565b3461046a576020610d92612a46610c0736610bb0565b50615185565b6108fb612a8b612a5b36611519565b959892909693612a808996999b939b60018060a01b03165f52601c60205260405f2090565b5490898b8789615c31565b61046a57600554612aa4906001600160a01b0316610920565b6001600160a01b038716969087148015612c0d575b61046a5786612bb75767016345785d8a0000861161046a57612b7860ff945f80516020616b3e833981519152965b6001600160a01b0386165f908152601b60205260409020612b099085906109cd565b612b148a82546135b6565b90556001600160a01b03851615938b908515612bae57612b5c885b604080516001600160a01b0392831660208201529390911690830152606082018c905281608081016116d9565b6001600160a01b0388165f908152601c6020526040902061171f565b15612ba65750945b604080515f815260208101959095529116946001600160a01b0316929081908101610a8d565b905094612b80565b612b5c87612b2f565b6001600160a01b0381165f9081526020805260409020612beb90612bda90610ab1565b826001600160801b03891691614420565b6013541061046a57612b7860ff945f80516020616b3e83398151915296612ae7565b5085612c2d826109cd8660018060a01b03165f52601b60205260405f2090565b5410612ab9565b3461046a57602036600319011261046a5763ffffffff600435612c5681610b88565b165f526001602052602060405f2054604051908152f35b3461046a575f36600319011261046a57612c85614be4565b600e80546001600160a01b03191690555f600f55005b3461046a57606036600319011261046a57600435612cb88161046e565b602435612cc48161046e565b60443590333b1561046a57612cdb82828533615a16565b1561046a57612ce933614430565b612d20575b60408051928352600160208401526001600160a01b03918216939091169133915f80516020616b5e83398151915291a4005b612d2933615af2565b50612cee565b3461046a575f602036600319011261046a57600435612d4d8161046e565b612d55614be4565b7f00000000000000000000000000000000000000000000000000000000000000006001600160a01b031690813b1561046a5760405163ca5eb5e160e01b81526001600160a01b039091166004820152905f908290602490829084905af18015610b8357612dc0575080f35b61055291505f90610797565b3461046a575f36600319011261046a576020601354604051908152f35b3461046a57602036600319011261046a576020612e10600435612e0b8161046e565b614430565b6040519015158152f35b3461046a57604036600319011261046a57600435612e378161046e565b6024359060018060a01b03165f52601d60205260405f20905f52602052602060ff60405f2054166040519015158152f35b3461046a57602036600319011261046a57600435612e858161046e565b612e8d614be4565b6001600160a01b03165f81815260208052604090205460ff161561046a575f908152602080526040902080546001600160a81b0319169055005b6001600160401b0381160361046a57565b359061048c82612ec7565b3461046a5761010036600319011261046a576004356001600160401b03811161046a57612f14903690600401610846565b602435906001600160401b03821161046a57612f37610552923690600401610846565b604435612f438161046e565b606435612f4f81612ec7565b60843590612f5c8261046e565b612f64610b96565b92612f6d61048e565b94612f76610ba3565b9661445d565b3461046a575f36600319011261046a576020600254604051908152f35b3461046a57612fd86108fb612fad366112e3565b90878099938587898b869a9f999d6113aa909d9c9d60018060a01b03165f52601c60205260405f2090565b61046a576001600160a01b0316806130cb575b50612ffa6108fb6113e3613839565b156130c3575060195461301e9160209161140d90610920906001600160a01b031681565b03915afa908115610b83575f916130a4575b50925b6130426108fb83838787615a16565b61046a576001600160a01b0383165f908152601c602052604090205f80516020616b5e83398151915291610a8d9161307a81546135c3565b9055604080519485525f60208601526001600160a01b039182169682169590911693918291820190565b6130bd915060203d602011610b7c57610b6e8183610797565b5f613030565b905092613033565b330361046a575f612feb565b3461046a575f36600319011261046a57600f54421061046a57600e546001600160a01b03163381900361046a5761310d90615d6a565b600e8054600d80546001600160a01b03199081166001600160a01b038416179091551690555f600f55005b3461046a5761012036600319011261046a576004356131568161046e565b6024356001600160401b03811161046a576004019036601f8301121561046a57813561318181612083565b9261318f6040519485610797565b81845260208085019260051b8201019036821161046a5760208101925b8284106132025785856131bd61049b565b60643560a4356084356131ce6120a4565b926131d76104a8565b9461010435976001600160401b03891161046a576131fc610552993690600401610846565b9761485d565b83356001600160401b03811161046a5782016060601f19823603011261046a576040519161322f83610761565b6020820135835260408201356132448161046e565b60208401526060820135926001600160401b03841161046a576132706020949385809536920101610846565b60408201528152019301926131ac565b3461046a57602036600319011261046a5760043561329d8161046e565b6132a5614be4565b6001600160a01b038116156132bd5761055290615d6a565b631e4fbdf760e01b5f525f60045260245ffd5b3461046a576108fb6132fc6132e436611d4c565b8183858789979e95978b8e9f989c9b9d809b9f6158d1565b61046a576001600160a01b031680613457575b5061331c6108fb33614430565b8015613430575b61046a576133356108fb6113e3613839565b1561342857506019546133599160209161140d90610920906001600160a01b031681565b03915afa908115610b83575f91613409575b50945b61337d6108fb85858989615a16565b61046a57806133f0575b505f80516020616b5e833981519152916133c7611c10610a8d936133aa33615af2565b506001600160a01b0388165f908152601d60205260409020611c03565b60408051948552600160208601526001600160a01b039182169682169590911693918291820190565b6108fb6133ff91843388615a16565b61046a575f613387565b613422915060203d602011610b7c57610b6e8183610797565b5f61336b565b90509461336e565b50613452611d1984611c038960018060a01b03165f52601d60205260405f2090565b613323565b330361046a575f61330f565b3461046a57602036600319011261046a576004356134808161046e565b613488614be4565b601980546001600160a01b0319166001600160a01b0392909216919091179055005b3461046a575f36600319011261046a576020600354604051908152f35b3461046a57602036600319011261046a576004356134e48161046e565b60018060a01b03165f5260208052602060ff60405f2054166040519015158152f35b3461046a57606036600319011261046a576020613522366105d8565b63ffffffff813561353281610b88565b165f52600182528160405f205491013560405191148152f35b634e487b7160e01b5f52601160045260245ffd5b90600c82018092116105d357565b60020190816002116105d357565b60030190816003116105d357565b919082018092116105d357565b9081602091031261046a57516104e58161046e565b6040513d5f823e3d90fd5b919082039182116105d357565b5f1981146105d35760010190565b9081602091031261046a57516104e58161209a565b908060209392818452848401375f828201840152601f01601f1916010190565b9561367d949361362260209a9499939b97613666933691610810565b8a8151910120946136546040519c8d9b8c9b631876eed960e01b8d5260048d015260c060248d015260c48c01916135e6565b8981036003190160448b0152916135e6565b9260648701526003198684030160848701526135e6565b60a483019190915203815f7f00000000000000000000000000000000000000000000000000000000000000006001600160a01b03165af1908115610b83575f916136d9575b50156136ca57565b631403112d60e21b5f5260045ffd5b6136fb915060203d602011613701575b6136f38183610797565b8101906135d1565b5f6136c2565b503d6136e9565b907f238399d427b947898edb290f5ff0f9109849b1c3ba196a42e35f00c50a54b98b91613733614be4565b63ffffffff81165f5260016020528160405f2055613769604051928392836020909392919363ffffffff60408201951681520152565b0390a1565b60206137bc836137cb939998979695949961378a368b8b610810565b84815191012060606040519687958695635f6970c360e01b8752600487019586526080898701528a60808701916135e6565b84810360408601528b8b6135e6565b92015203815f7f00000000000000000000000000000000000000000000000000000000000000006001600160a01b03165af1908115610b83575f9161381a575b50156136ca5761048c9561563f565b613833915060203d602011613701576136f38183610797565b5f61380b565b60405190613848602083610797565b5f8252565b805180835260209291819084018484015e5f828201840152601f01601f1916010190565b9060206104e592818152019061384d565b634e487b7160e01b5f52601260045260245ffd5b80156138a2575f190490565b613882565b908160011b91808304600214901517156105d357565b818102929181159184041417156105d357565b9081606091031261046a5780356138e68161046e565b91604060208301356138f78161046e565b92013590565b81601f8201121561046a5780359061391482612083565b926139226040519485610797565b82845260208085019360061b8301019181831161046a57602001925b82841061394c575050505090565b60408483031261046a576020604091825161396681610741565b86356139718161046e565b8152828701358382015281520193019261393e565b634e487b7160e01b5f52603260045260245ffd5b8051156139a75760200190565b613986565b8051600110156139a75760400190565b80518210156139a75760209160051b010190565b905f80805b8451821015613e555781806139fb6139ed82896139bc565b51516001600160a01b031690565b878080613a1c6020613a0d87846139bc565b5101516001600160a01b031690565b6040613a2887846139bc565b510151613a3a6060613a0d89866139bc565b6080613a4689866139bc565b5101519160a0613a568a876139bc565b51015193613a7160e0613a698c896139bc565b510151151590565b15613e015789613a8181886139bc565b5160c0015196613ac29c613ab3610100613a0d6108fb9f613aad60e0613a6961012099613ab9996139bc565b9d6139bc565b9a6139bc565b51015198615931565b61046a57613ad9610920610100613a0d85896139bc565b613ddd575b613aed60e0613a6984886139bc565b15613d7e57613b3f6108fb611d19613b24613b0b6139ed878b6139bc565b6001600160a01b03165f908152601d6020526040902090565b60c0613b30878b6139bc565b5101515f5260205260405f2090565b15613d7357613b66611c10613b5a613b0b6139ed868a6139bc565b60c0613b30868a6139bc565b613b896108fb6040613b7885896139bc565b510151613b83613839565b906159e9565b15613d5f57601954613bd790602090613bac90610920906001600160a01b031681565b6040613bb8868a6139bc565b51015190604051808095819463063c696360e11b835260048301613871565b03915afa908115610b83575f91613d41575b505b613c1260a0613bfa85896139bc565b5101516080613c09868a6139bc565b51015190613589565b613c4d613c3e613c256139ed878b6139bc565b6001600160a01b03165f908152601b6020526040902090565b610a306060613a0d888c6139bc565b5410613d35576108fb613c8d91613c676139ed868a6139bc565b90613c776060613a0d888c6139bc565b906080613c84888c6139bc565b51015192615a16565b15613ca657613c9d6001916135c3565b915b01906139d5565b909160a0613cb484876139bc565b510151151580613d26575b613cd5575b613ccf6001916135c3565b92613c9f565b613d0e6108fb613ce86139ed86896139bc565b613cf76060613a0d888b6139bc565b60a0613d03888b6139bc565b510151913390615a16565b15613cc4579190613d206001916135c3565b91613c9f565b50613d3033614430565b613cbf565b50613d206001916135c3565b613d59915060203d8111610b7c57610b6e8183610797565b5f613be9565b613d6e6020613a0d84886139bc565b613beb565b613d206001916135c3565b613da7613d8e6139ed84886139bc565b6001600160a01b03165f908152601c6020526040902090565b5460c0613db484886139bc565b51015103613d7357613dcc613d8e6139ed84886139bc565b613dd681546135c3565b9055613b66565b613df0610920610100613a0d85896139bc565b3314613ade57613d206001916135c3565b89613e0c81886139bc565b51516001600160a01b03166001600160a01b03165f908152601c602052604090205496613ac29c613ab3610100613a0d6108fb9f613aad60e0613a6961012099613ab9996139bc565b9291935050613e6333614430565b613e6957565b613e738333615b87565b50565b909291333b1561046a57335f908152601b602052604081208290613e9b9087906109cd565b541061046a57335f908152601b60205260409020613eba9086906109cd565b613ec58382546135b6565b90555f905b8351821015613f2257613ee990613ee183866139bc565b515190613589565b9082821161046a5780613efe600192866139bc565b5151613f196109ff896109cd613c256020613a0d888d6139bc565b90550190613eca565b9250509192500361046a57613f3633614430565b613f3c57565b613e7333615af2565b9081602091031261046a575190565b6104e5939263ffffffff6060931682526020820152816040820152019061384d565b906001600160401b039093929316815260406020820152613fbc613fa6845160a0604085015260e084019061384d565b6020850151838203603f1901606085015261384d565b90604084015191603f19828203016080830152602080845192838152019301905f5b8181106140185750505060608401516001600160a01b031660a082015291926104e59290608001519060c0603f198285030191015261384d565b825180516001600160a01b031686526020908101518187015260409095019490920191600101613fde565b90600182811c92168015614071575b602083101461405d57565b634e487b7160e01b5f52602260045260245ffd5b91607f1691614052565b5f929181549161408a83614043565b80835292600181169081156140df57506001146140a657505050565b5f9081526020812093945091925b8383106140c5575060209250010190565b6001816020929493945483858701015201910191906140b4565b915050602093945060ff929192191683830152151560051b010190565b916141469060809295949560018060a01b0316845260a0602085015261413861412960a08601600661407b565b8581036040870152600761407b565b90848203606086015261384d565b6001600160a01b03909416910152565b6104e5916060825261417e61416f60608401600661407b565b8381036020850152600761407b565b91604081840391015261384d565b92919060ff166001810361427d575050600c546141b49150610920906001600160a01b031681565b803b1561046a575f6040518092630c93e3bb60e01b825281806141dc338830600485016140fc565b039134905af18015610b8357614269575b507f00000000000000000000000000000000000000000000000000000000000000006001600160a01b0316803b1561046a57604051631c92115f60e01b8152915f9183918290849082906142449060048301614156565b03925af18015610b83576142555750565b806142635f61048c93610797565b80610554565b806142635f61427793610797565b5f6141ed565b60028103614390575050600854916142a39150604083901c6001600160a01b03166160c1565b6040516320487ded60e01b81526001600160a01b037f000000000000000000000000000000000000000000000000000000000000000016926001600160401b03169190602081806142f8858760048401613f76565b0381875afa908115610b83575f91614371575b50341061046a576040516396f4e9f960e01b8152926020928492839182916143369160048401613f76565b039134905af18015610b83576143495750565b613e739060203d60201161436a575b6143628183610797565b810190613f45565b503d614358565b61438a915060203d60201161436a576143628183610797565b5f61430b565b600381036143e15750506018546143369260209250906143ba90610920906001600160a01b031681565b60085460e01c60095460405163fa31de0160e01b8152958694859384939060048501613f54565b60040361046a57613e73926143fb600a5463ffffffff1690565b9061441a6144076107d7565b933485525f602086015233953691610810565b91615f8c565b91612a46610bb86104e594614fe0565b6001600160a01b03165f9081526016602052604090205460f81b6001600160f81b031916600160f81b1490565b97969594939291909761446e614be4565b8051906001600160401b03821161075c576144938261448e600754614043565b614654565b602090601f83116001146145b5579361451c614546946144e761458f9c9d6144df8761456b9b98614538986145799f9e9c5f926145aa575b50508160011b915f199060031b1c19161790565b6007556146f3565b6008805468010000000000000000600160e01b03191660409290921b68010000000000000000600160e01b0316919091179055565b6001600160401b03166001600160401b03196008541617600855565b6001600160a01b0316600955565b600880546001600160e01b031660e09290921b6001600160e01b031916919091179055565b6001600160a01b0316600b55565b63ffffffff1663ffffffff19600a541617600a55565b61048c6145a1600a5463ffffffff1690565b600b5490613708565b015190505f806144cb565b60075f52601f19831691907fa66cc928b5edb82af9bd49922954155ab7b0942694bea4ce44661d9a8736c688925f5b81811061463c5750946144e761458f9c9d600187614538976145799e9d9b9761451c9761456b9e9b6145469d10614624575b505050811b016007556146f3565b01515f1960f88460031b161c191690555f8080614616565b929360206001819287860151815501950193016145e4565b601f8111614660575050565b60075f5260205f20906020601f840160051c8301931061469a575b601f0160051c01905b81811061468f575050565b5f8155600101614684565b909150819061467b565b601f82116146b157505050565b5f5260205f20906020601f840160051c830193106146e9575b601f0160051c01905b8181106146de575050565b5f81556001016146d3565b90915081906146ca565b9081516001600160401b03811161075c5761471a81614713600654614043565b60066146a4565b602092601f821160011461474e57614749929382915f926145aa5750508160011b915f199060031b1c19161790565b600655565b60065f52601f198216937ff652222313e28459528d920b65115c16c04f3efc82aaedc97be59f3f377c0d3f915f5b8681106147b2575083600195961061479a575b505050811b01600655565b01515f1960f88460031b161c191690555f808061478f565b9192602060018192868501518155019401920161477c565b602081016020825282518091526040820191602060408360051b8301019401925f915b8383106147fc57505050505090565b909192939460208061483c600193603f19868203018752606060408b5180518452878060a01b03868201511686850152015191816040820152019061384d565b970193019301919392906147ed565b805191908290602001825e015f815290565b91989396909594929760205f61488b60405161487f816116d98d8783016147ca565b6040519182809261484b565b039060025afa15610b83576108fb6148b59183888d8c8e5f5192845f14614bc6578b935b8b616194565b61046a5784906001600160a01b031680614bb7575b50614b8d575b6001600160a01b0381165f908152601b602052604090206148f29089906109cd565b546148fd8789613589565b1161046a575f9361490e8789613589565b61492f6109e28b6109cd8660018060a01b03165f52601b60205260405f2090565b90555f965f955b8751871015614acd5761494d90613ee1888a6139bc565b958a6149616108fb6040613b78858d6139bc565b15614a9857506019546149ad9061498290610920906001600160a01b031681565b60206040614990858d6139bc565b510151604051809481926310d9158b60e31b835260048301613871565b0381845afa8015610b83578d925f91614a7a575b50614a06575b5090896149fd6109ff6001946109cd6149e0868f6139bc565b51516001600160a01b039095165f908152601b6020526040902090565b90550195614936565b899a50602091506040614a1c84614a3b9c6139bc565b5101519060405180809c8194630d3dcb9f60e01b835260048301613871565b03915afa908115610b8357808c928b9a5f91614a5c575b509a5091906149c7565b614a74915060203d8111610b7c57610b6e8183610797565b5f614a52565b614a92915060203d8111613701576136f38183610797565b5f6149c1565b9088995080614aa7818b6139bc565b51602001516001600160a01b03169a6109ff6001946109cd6149e08f956149fd956139bc565b929750945094509691969590950361046a57614ae833614430565b15614b62576109ff614b1191614afd33615af2565b50335f908152601b602052604090206109cd565b90555b15614b3c576001600160a01b03165f908152601d6020526040902061048c91611c1091611c03565b6001600160a01b03165f908152601c602052604090209050614b5e81546135c3565b9055565b6001600160a01b0384165f908152601b60205260409020614b86916109ff916109cd565b9055614b14565b614bae611d1983611c038460018060a01b03165f52601d60205260405f2090565b156148d0575f80fd5b9050330361046a57835f6148ca565b6001600160a01b038b165f908152601c6020526040902054936148af565b5f546001600160a01b03163303614bf757565b63118cdaa760e01b5f523360045260245ffd5b63ffffffff16805f52600160205260405f2054908115614c28575090565b63f6ff4fb760e01b5f5260045260245ffd5b9190916020813591614c4b83610b88565b01359063ffffffff80600a541691161490811591614cb4575b5061046a5781614c7991614ca59301906138d0565b6001600160a01b039283165f908152601b60209081526040808320949095168252929092529190209091565b80549182018092116105d35755565b9050600b5414155f614c64565b9490614cd1909694929396616330565b92614cdb90616447565b95614ce590616330565b91614cef90616447565b90614cf990616447565b9160405196879460208601614d0d9161484b565b600b60fa1b8152600101614d209161484b565b600b60fa1b8152600101614d339161484b565b600b60fa1b8152600101614d469161484b565b600b60fa1b8152600101614d599161484b565b03601f1981018452614d6b9084610797565b6104e59261659d565b15614d7b57565b60405162461bcd60e51b8152602060048201526002602482015261042560f41b6044820152606490fd5b60405160609190614db68382610797565b6002815291601f1901366020840137565b9080601f8301121561046a578151614dde81612083565b92614dec6040519485610797565b81845260208085019260051b82010192831161046a57602001905b828210614e145750505090565b602080918351614e238161046e565b815201910190614e07565b91909160408184031261046a5780516001600160401b03811161046a57810183601f8201121561046a578051614e6381612083565b91614e716040519384610797565b81835260208084019260051b8201019086821161046a57602001915b818310614eb5575050509260208201516001600160401b03811161046a576104e59201614dc7565b82518060060b810361046a57815260209283019201614e8d565b60206040818301928281528451809452019201905f5b818110614ef25750505090565b825163ffffffff16845260209384019390920191600101614ee5565b600691820b910b0390667fffffffffffff198212667fffffffffffff8313176105d357565b6001600160a01b0391821690821603919082116105d357565b60060b9060060b9081156138a257667fffffffffffff1981145f198314166105d3570590565b9060060b9081156138a25760060b0790565b60020b627fffff1981146105d3575f190190565b6001600160c01b039081166001600160a01b03818102909216929181840414901517156105d357565b6001600160c01b039091169081156138a2576001600160c01b03160490565b5f61503f939263ffffffff811692614ff9841515614d74565b615019615004614da5565b9261500e8461399a565b9063ffffffff169052565b82615023836139ac565b52604051808097819463883bdbfd60e01b835260048301614ecf565b03916001600160a01b03165afa928315610b83575f905f94615157575b506150898161508361507661507d6150766150af966139ac565b5160060b90565b9261399a565b90614f0e565b936150a961509c61507d61509c846139ac565b516001600160a01b031690565b90614f33565b908060060b936150c86150c28683614f4c565b60020b90565b945f8260060b129182615139575b5050615116575b6104e5916151046150f061510a93614f98565b9160201b640100000000600160c01b031690565b90614fc1565b6001600160801b031690565b926104e5916151046150f061512d61510a94614f84565b969350505091506150dd565b61514e92509061514891614f72565b60060b90565b15155f806150d6565b61508994506150af915061517c903d805f833e6151748183610797565b810190614e2e565b9490915061505c565b90919060020b5f81121561558457805f035b620d89e8811161103c577349d5c2bdffac6ce2bfdb6640f4f80f226bc10bab916001821615615572576001600160881b036ffffcb933bd6fad37aa2d162d1a5940015b169160028116615556575b6004811661553a575b6008811661551e575b60108116615502575b602081166154e6575b604081166154ca575b608081166154ae575b6101008116615492575b6102008116615476575b610400811661545a575b610800811661543e575b6110008116615422575b6120008116615406575b61400081166153ea575b61800081166153ce575b6201000081166153b2575b620200008116615397575b62040000811661537c575b6208000016615363575b5f12615355575b6152aa610d218260201c90565b61534d575f905b60ff91909116016001600160a01b03166001600160801b03811161530e57806152d9916138bd565b916001600160a01b031610156152fc576001600160801b036104e5921690616896565b6001600160801b036104e59216616813565b80615318916166ee565b916001600160a01b0316101561533b576001600160801b036104e59216906167cb565b6001600160801b036104e59216616736565b6001906152b1565b61535e90613896565b61529d565b6b048a170391f7dc42444e8fa290910260801c90615296565b6d2216e584f5fa1ea926041bedfe9890920260801c9161528c565b916e5d6af8dedb81196699c329225ee6040260801c91615281565b916f09aa508b5b7a84e1c677de54f3e99bc90260801c91615276565b916f31be135f97d08fd981231505542fcfa60260801c9161526b565b916f70d869a156d2a1b890bb3df62baf32f70260801c91615261565b916fa9f746462d870fdf8a65dc1f90e061e50260801c91615257565b916fd097f3bdfd2022b8845ad8f792aa58250260801c9161524d565b916fe7159475a2c29b7443b29c7fa6e889d90260801c91615243565b916ff3392b0822b70005940c7a398e4b70f30260801c91615239565b916ff987a7253ac413176f2b074cf7815e540260801c9161522f565b916ffcbe86c7900a88aedcffc83b479aa3a40260801c91615225565b916ffe5dee046a99a2a811c461f1969c30530260801c9161521b565b916fff2ea16466c96a3843ec78b326b528610260801c91615212565b916fff973b41fa98c081472e6896dfb254c00260801c91615209565b916fffcb9843d60f6159c9db58835c9266440260801c91615200565b916fffe5caca7e10e4e61c3624eaa0941cd00260801c916151f7565b916ffff2e50f5f656932ef12357cf3c7fdcc0260801c916151ee565b916ffff97272373d413259a46990580e213a0260801c916151e5565b6001600160881b03600160801b6151da565b80615197565b604051905f826007549161559d83614043565b808352926001811690811561562057506001146155c1575b61048c92500383610797565b5060075f90815290917fa66cc928b5edb82af9bd49922954155ab7b0942694bea4ce44661d9a8736c6885b81831061560457505090602061048c928201016155b5565b60209193508060019154838589010152019101909184926155ec565b6020925061048c94915060ff191682840152151560051b8201016155b5565b61564d919594953691610810565b604051905f60065461565e81614043565b808552906001811690811561572e57506001146156cc575b50906156888361568d94930383610797565b6159e9565b1591826156ab575b505061046a5781614c7991614ca59301906138d0565b6156c49250906156bc913691610810565b613b8361558a565b155f80615695565b60065f9081527ff652222313e28459528d920b65115c16c04f3efc82aaedc97be59f3f377c0d3f94939250905b8082106157125750919250908201602001615688615676565b91929360018160209254838589010152019101909392916156f9565b60ff191660208087019190915291151560051b850190910191506156889050615676565b60405190615761604083610797565b600582526466616c736560d81b6020830152565b60405190615784604083610797565b60048252637472756560e01b6020830152565b959391979694929097604051988997602089016157b39161484b565b600b60fa1b81526001016157c69161484b565b600b60fa1b81526001016157d99161484b565b600b60fa1b81526001016157ec9161484b565b600b60fa1b81526001016157ff9161484b565b600b60fa1b81526001016158129161484b565b600b60fa1b81526001016158259161484b565b600b60fa1b81526001016158389161484b565b03601f198101835261048c9083610797565b969291946104e5989691946158a461589e61589e61589e6158bc9a6040519a61587460408d610797565b60088c52671a3330b098b3309960c11b60208d01526001600160a01b0381166158c1575097616330565b93616447565b936158b66158b0615752565b96616330565b96615797565b61659d565b6158cb9150616330565b97616330565b969291946104e59896919461592561589e61589e61589e6158bc9a6040519a6158fb60408d610797565b60088c5267331a32989c1c9ab160c11b60208d01526001600160a01b0381166158c1575097616330565b936158b66158b0615775565b97936104e599979361599461598e61598e61598e6158bc9b979a969a895f146159c057604051615962604082610797565b6008815267331a32989c1c9ab160c11b60208201529b5b6001600160a01b0381166159b0575094616330565b94616447565b94156159a5576158b66158b0615775565b6158b66158b0615752565b6159ba9150616330565b94616330565b6040516159ce604082610797565b60088152671a3330b098b3309960c11b60208201529b615979565b9081518151908181149384615a00575b5050505090565b602092939450820120920120145f8080806159f9565b6001600160a01b038181165f908152601b60208181526040808420888616808652908352818520549588168552928252808420928452919052902054929492939290919080831015615a6c575050505050505f90565b8083039283116105d357615aed946109cd93615a9f866109cd615ad29660018060a01b03165f52601b60205260405f2090565b55615aaa8282613589565b6001600160a01b0388165f908152601b60205260409020615acc9087906109cd565b55613589565b6001600160a01b039094165f908152601b6020526040902090565b541490565b600454801581800460011417156105d3576001600160a01b038281165f818152601b602090815260408083206005549095168084529490915290209091905492808401938481116105d357615aed94615acc615b6c94610a23965f52601b60205260405f209060018060a01b03165f5260205260405f2090565b6001600160a01b039093165f908152601b6020526040902090565b90615b94906004546138bd565b6001600160a01b038281165f818152601b602090815260408083206005549095168084529490915290205492830193919290919084106105d35783615bfa615aed94615c14945f52601b60205260405f209060018060a01b03165f5260205260405f2090565b556001600160a01b03165f908152601b6020526040902090565b6005546001600160a01b03165f9081526020919091526040902090565b9495939092919560405193615c47604086610797565b60088552671a991c1c9b3098b360c11b6020860152615c6590616330565b96615c6f90616330565b92615c7990616447565b91615c8390616447565b90615c8d90616447565b91615c96615752565b9360405198899660208801615caa9161484b565b600b60fa1b8152600101615cbd9161484b565b600b60fa1b8152600101614d0d9161484b565b9495939092919560405193615ce6604086610797565b60088552671c99183319b21b9b60c11b6020860152615d0490616330565b96615d0e90616330565b92615d1890616447565b91615d2290616447565b90615d2c90616447565b91615c96615775565b6113db604051602081019042825244604082015260408152615d58606082610797565b51902006600101806001116105d35790565b5f80546001600160a01b039283166001600160a01b03198216811783559216907f8be0079c531659141344cd1fd0a4f28419497f9722a3daafe3b4186f6b6457e09080a3565b9081606091031261046a578051615dc68161046e565b9160406020830151615dd78161046e565b92015190565b601754615df2906001600160a01b0316610920565b330361046a5760208101516008546001600160401b0380821692169190911480159190615e3f575b5061046a57614b5e6109ff61190560606109cd94015160208082518301019101615db0565b9050615e6e610920615e5e604085015160208082518301019101613596565b9260401c6001600160a01b031690565b6001600160a01b0390911614155f615e1a565b60405190615e8e82610741565b5f6020838281520152565b60405190615ea682610761565b815f81525f60208201526040615eba615e81565b910152565b809103906080821261046a576040805192615ed984610761565b825184526020830151615eeb81612ec7565b6020850152603f19011261046a57606060405191615f0883610741565b6040810151835201516020820152604082015290565b906020909392936040835263ffffffff81511660408401528181015160608401526080615f72615f5c604084015160a08488015260e087019061384d565b6060840151868203603f190160a088015261384d565b910151151560c08401526001600160a01b03909416910152565b615ff5608094926160119694615fa0615e99565b506020615fad86516168de565b950191825180616079575b50615fc285614c0a565b9251151592615fde615fd26107b8565b63ffffffff9097168752565b602086015260408501526060840152151585830152565b6040518095819482936302637a4560e41b845260048401615f1e565b03917f00000000000000000000000000000000000000000000000000000000000000006001600160a01b03165af1908115610b83575f91616050575090565b6104e5915060803d608011616072575b61606a8183610797565b810190615ebf565b503d616060565b616082906168fb565b5f615fb8565b60405190616097602083610797565b5f80835282815b8281106160aa57505050565b6020906160b5615e81565b8282850101520161609e565b9061611b61610d92606060806040516160d98161077c565b8281528260208201528260408201525f83820152015260405193849160208301919091602081019260018060a01b03169052565b03601f198101845283610797565b616123616088565b61613961612e6107e6565b62030d408152616a5b565b916161426107b8565b938452602084015260408301525f6060830152608082015290565b94929096959391604051978896602088016733191bb31b98b23160c11b905260288801600b60fa1b9052602988016157c69161484b565b96979593919492909460405195639201de5560e01b875260048701525f8660248173__$2586ee71363c751a7dcf59a6d696ae69ac$__5af4958615610b83575f96616221575b50916104e59893916161f961589e61589e61589e6158bc9a9997616330565b93156162165761621061620a615775565b95616330565b9561615d565b61621061620a615752565b989391955093913d805f8b3e616237818b610797565b8901986020818b031261046a578051906001600160401b03821161046a57019589601f8801121561046a5786519661626e886107f5565b9a61627c6040519c8d610797565b888c526020898301011161046a5761589e61589e61589e6104e59d5f60208d6158bc9e826161f999018386015e830101529a5050505050919398949092946161da565b604051906162ce604083610797565b601082526f181899199a1a9b1b9c1cb0b131b232b360811b6020830152565b604051606091906162fe8382610797565b602a815291601f1901366020840137565b8051600110156139a75760210190565b9081518110156139a7570160200190565b6001600160a01b03166163416162bf565b9061634a6162ed565b9160306163568461399a565b5360786163628461630f565b535f5b601481106163735750505090565b61637c8161355f565b60208110156139a7576163aa9061639c9085901a60041c600f168461631f565b516001600160f81b03191690565b6163c86163be6163b9846138a7565b61356d565b915f1a918661631f565b536163d28161355f565b9060208210156139a7576163f061639c600f866001951a168561631f565b61640e6164046163ff846138a7565b61357b565b915f1a918761631f565b5301616365565b9061641f826107f5565b61642c6040519182610797565b828152809261643d601f19916107f5565b0190602036910137565b805f9172184f03e93ff9f4daa797ed6e38ed64bf6a1f0160401b82101561657a575b806d04ee2d6d415b85acef8100000000600a92101561655e575b662386f26fc10000811015616549575b6305f5e100811015616537575b612710811015616527575b6064811015616518575b101561650d575b6164f860216164cd60018501616415565b938401015b5f1901916f181899199a1a9b1b9c1cb0b131b232b360811b600a82061a8353600a900490565b8015616508576164f890916164d2565b505090565b6001909101906164bc565b600290606490049301926164b5565b60049061271090049301926164ab565b6008906305f5e10090049301926164a0565b601090662386f26fc100009004930192616493565b6020906d04ee2d6d415b85acef81000000009004930192616483565b506040915072184f03e93ff9f4daa797ed6e38ed64bf6a1f0160401b8104616469565b6116d96165ef6165ad8351616447565b926040519283916165e960208401967f19457468657265756d205369676e6564204d6573736167653a0a0000000000008852603a85019061484b565b9061484b565b51902060418251036166a257815f916020809401519160606040820151910151841a92601b841061668b575b9061665f9161663960ff8616601b8114908115616680575b50616a93565b604051948594859094939260ff6060936080840197845216602083015260408201520152565b838052039060015afa15610b83575f516001600160a01b0390811691161490565b601c9150145f616633565b929061669961665f92616a81565b9390915061661b565b60405162461bcd60e51b815260206004820152601860248201527f496e76616c6964207369676e6174757265206c656e67746800000000000000006044820152606490fd5b1561046a57565b5f19828209908281029283808410930392808403931461672d5782600160401b111561046a57600160401b910990828211900360c01b910360401c1790565b50505060401c90565b5f1981600160801b09918160801b918280851094039380850394146167b95781906167628583116166e7565b600160801b0981805f03168092046002816003021880820260020302808202600203028082026002030280820260020302808202600203028091026002030293600183805f03040190848311900302920304170290565b5091506167c78215156166e7565b0490565b5f19828209908281029283808410930392808403931461680a57600160801b83101561046a57600160801b910990828211900360801b910360801c1790565b50505060801c90565b5f1981600160c01b09918160c01b918280851094039380850394146167b957819061683f8583116166e7565b600160c01b0981805f03168092046002816003021880820260020302808202600203028082026002030280820260020302808202600203028091026002030293600183805f03040190848311900302920304170290565b5f1982820990828102928380841093039280840393146168d557600160c01b83101561046a57600160c01b910990828211900360401b910360c01c1790565b50505060c01c90565b8034036168e85790565b6304fb820960e51b5f523460045260245ffd5b60405163393f876560e21b81527f00000000000000000000000000000000000000000000000000000000000000006001600160a01b03169190602081600481865afa908115610b83575f91616a3c575b506001600160a01b0316918215616a2d576040516323b872dd60e01b602082019081523360248301526001600160a01b03909216604482015260648101929092526169d6915f9182916169a181608481016116d9565b519082865af13d15616a25573d906169b8826107f5565b916169c66040519384610797565b82523d5f602084013e5b83616adf565b8051908115159182616a07575b50506169ec5750565b635274afe760e01b5f526001600160a01b031660045260245ffd5b616a1e9250906020806108fb9383010191016135d1565b5f806169e3565b6060906169d0565b6329b99a9560e11b5f5260045ffd5b616a55915060203d602011610b7c57610b6e8183610797565b5f61694b565b604051906397a657c960e01b6020830152516024820152602481526104e5604482610797565b60ff601b9116019060ff82116105d357565b15616a9a57565b60405162461bcd60e51b815260206004820152601760248201527f496e76616c6964207369676e61747572652076616c75650000000000000000006044820152606490fd5b90616b035750805115616af457805190602001fd5b630a12f52160e11b5f5260045ffd5b81511580616b34575b616b14575090565b639996b31560e01b5f9081526001600160a01b0391909116600452602490fd5b50803b15616b0c56fe6bc602d1885f862e059d39e096db3cbcc680eb1d107439b9412c9815320f97186190156994cd20674c0c4e8f977827f36ce57b998fff492b0f9ac14e8e0ca5bda2646970667358221220b94f746bc62411a4b7550e86f1c44716525f48d89ca24962f2666ab4017ce6af64736f6c634300081a0033","linkReferences":{"src/libraries/AdvancedStrings.sol":{"AdvancedStrings":[{"start":25830,"length":20}]}}},"methodIdentifiers":{"_setTreasuryMetadata(string,string,address,uint64,address,uint32,address,uint32)":"dedc9ff6","acceptOwner()":"ebbc4965","addTokenToWhitelist()":"9c113d1b","allowInitializePath((uint32,bytes32,uint64))":"ff7bd03d","caPay(address,address,uint256)":"c898a6e9","cancelPrepareMaxAmountToWithdraw()":"219f9c3d","cancelPrepareTokenToBeWhitelisted()":"3de62f67","ccipReceive((bytes32,uint64,bytes,bytes,(address,uint256)[]))":"85572ffb","changePool(address,address)":"06c8b949","disperseCaPay((uint256,address)[],address,uint256)":"a7a096f6","dispersePay(address,(uint256,address,string)[],address,uint256,uint256,uint256,bool,address,bytes)":"ef83c1d6","endpoint()":"5e280f11","estimateAmountUsingUniswapV3Pool(address,address,uint128,uint32)":"b7ce53ca","estimateEthToTokenUsingUniswapV3Pool(address,address,uint128,uint32)":"1a3c1ddc","execute(bytes32,string,string,bytes)":"49160658","executeWithToken(bytes32,string,string,bytes,string,uint256)":"1a98b2e0","fisherDepositReceiver(address,address,address,uint256,uint256,bytes)":"992963a5","fisherWithdrawal(address,address,address,uint256,uint256,bytes)":"1820170c","gateway()":"116191b6","getIfUsedAsyncNonce(address,uint256)":"d0e3692d","getMateNameServiceAddress()":"8ae06ec1","getMaxAmountToWithdraw()":"cb62c7bc","getNextCurrentSyncNonce(address)":"6cd30148","getNextFisherDepositNonce(address)":"4234a706","getNextFisherWithdrawalNonce(address)":"a4cba4ba","getRouter()":"b0f479a1","getSMateContractAddress()":"4925e4ed","getTokenUniswapPool(address)":"b581d594","handle(uint32,bytes32,bytes)":"56d5d475","isMateStaker(address)":"ced8cc5c","lzReceive((uint32,bytes32,uint64),bytes32,bytes,address,bytes)":"13137d65","makeCallCrossChain(bytes,uint8,bytes)":"acc2d9cd","nextNonce(uint32,bytes32)":"7d25a05e","oAppVersion()":"17442b70","owner()":"8da5cb5b","payMateStaking_async(address,address,string,address,uint256,uint256,uint256,address,bytes)":"f4e1895b","payMateStaking_sync(address,address,string,address,uint256,uint256,address,bytes)":"4faa1fa2","payMultiple((address,address,string,address,uint256,uint256,uint256,bool,address,bytes)[])":"8e006981","payNoMateStaking_async(address,address,string,address,uint256,uint256,uint256,address,bytes)":"7d8e3059","payNoMateStaking_sync(address,address,string,address,uint256,uint256,address,bytes)":"e9a7e38a","peers(uint32)":"bb0b6a53","pointStaker(address,bytes1)":"adb6233f","prepareMaxAmountToWithdraw(uint256)":"12ca7d4c","prepareTokenToBeWhitelisted(address,address)":"719ca6df","proposeOwner(address)":"b5ed298a","recalculateReward()":"5300e162","rejectProposalOwner()":"c0b559f4","removeTokenWhitelist(address)":"d5d7b2f1","renounceOwnership()":"715018a6","seeBalance(address,address)":"9a1f2e16","seeIfTokenIsWhitelisted(address)":"fe9e6349","seeMateEraTokens()":"fcaa9444","seeMateReward()":"37da4ad8","seeMateTotalSupply()":"e4532e9b","setDelegate(address)":"ca5eb5e1","setMNSAddress(address)":"f7ebfebd","setMaxAmountToWithdraw()":"959dd66f","setPeer(uint32,bytes32)":"3400288b","supportsInterface(bytes4)":"01ffc9a7","transferOwnership(address)":"f2fde38b","withdrawalMateStaking_async(address,address,address,uint256,uint256,uint256,bytes,uint8,bytes)":"920f3d76","withdrawalMateStaking_sync(address,address,address,uint256,uint256,bytes,uint8,bytes)":"52896a1f","withdrawalNoMateStaking_async(address,address,address,uint256,uint256,uint256,bytes,uint8,bytes)":"74f06034","withdrawalNoMateStaking_sync(address,address,address,uint256,uint256,bytes,uint8,bytes)":"b88bfcdc"},"id":83}