{"abi":[{"type":"constructor","inputs":[{"name":"_evvmAddress","type":"address","internalType":"address"},{"name":"_owner","type":"address","internalType":"address"}],"stateMutability":"nonpayable"},{"type":"function","name":"acceptFillFixedPercentage","inputs":[],"outputs":[],"stateMutability":"nonpayable"},{"type":"function","name":"acceptFillPropotionalPercentage","inputs":[],"outputs":[],"stateMutability":"nonpayable"},{"type":"function","name":"acceptMaxLimitFillFixedFee","inputs":[],"outputs":[],"stateMutability":"nonpayable"},{"type":"function","name":"acceptOwner","inputs":[],"outputs":[],"stateMutability":"nonpayable"},{"type":"function","name":"acceptPercentageFee","inputs":[],"outputs":[],"stateMutability":"nonpayable"},{"type":"function","name":"acceptWithdrawal","inputs":[],"outputs":[],"stateMutability":"nonpayable"},{"type":"function","name":"cancelOrder","inputs":[{"name":"user","type":"address","internalType":"address"},{"name":"metadata","type":"tuple","internalType":"struct P2PSwap.MetadataCancelOrder","components":[{"name":"nonce","type":"uint256","internalType":"uint256"},{"name":"tokenA","type":"address","internalType":"address"},{"name":"tokenB","type":"address","internalType":"address"},{"name":"orderId","type":"uint256","internalType":"uint256"},{"name":"signature","type":"bytes","internalType":"bytes"}]},{"name":"_priorityFee_Evvm","type":"uint256","internalType":"uint256"},{"name":"_nonce_Evvm","type":"uint256","internalType":"uint256"},{"name":"_priority_Evvm","type":"bool","internalType":"bool"},{"name":"_signature_Evvm","type":"bytes","internalType":"bytes"}],"outputs":[],"stateMutability":"nonpayable"},{"type":"function","name":"checkIfANonceP2PSwapIsUsed","inputs":[{"name":"user","type":"address","internalType":"address"},{"name":"nonce","type":"uint256","internalType":"uint256"}],"outputs":[{"name":"","type":"bool","internalType":"bool"}],"stateMutability":"view"},{"type":"function","name":"dispatchOrder_fillFixedFee","inputs":[{"name":"user","type":"address","internalType":"address"},{"name":"metadata","type":"tuple","internalType":"struct P2PSwap.MetadataDispatchOrder","components":[{"name":"nonce","type":"uint256","internalType":"uint256"},{"name":"tokenA","type":"address","internalType":"address"},{"name":"tokenB","type":"address","internalType":"address"},{"name":"orderId","type":"uint256","internalType":"uint256"},{"name":"amountOfTokenBToFill","type":"uint256","internalType":"uint256"},{"name":"signature","type":"bytes","internalType":"bytes"}]},{"name":"_priorityFee_Evvm","type":"uint256","internalType":"uint256"},{"name":"_nonce_Evvm","type":"uint256","internalType":"uint256"},{"name":"_priority_Evvm","type":"bool","internalType":"bool"},{"name":"_signature_Evvm","type":"bytes","internalType":"bytes"},{"name":"_amountOut","type":"uint256","internalType":"uint256"}],"outputs":[],"stateMutability":"nonpayable"},{"type":"function","name":"dispatchOrder_fillPropotionalFee","inputs":[{"name":"user","type":"address","internalType":"address"},{"name":"metadata","type":"tuple","internalType":"struct P2PSwap.MetadataDispatchOrder","components":[{"name":"nonce","type":"uint256","internalType":"uint256"},{"name":"tokenA","type":"address","internalType":"address"},{"name":"tokenB","type":"address","internalType":"address"},{"name":"orderId","type":"uint256","internalType":"uint256"},{"name":"amountOfTokenBToFill","type":"uint256","internalType":"uint256"},{"name":"signature","type":"bytes","internalType":"bytes"}]},{"name":"_priorityFee_Evvm","type":"uint256","internalType":"uint256"},{"name":"_nonce_Evvm","type":"uint256","internalType":"uint256"},{"name":"_priority_Evvm","type":"bool","internalType":"bool"},{"name":"_signature_Evvm","type":"bytes","internalType":"bytes"}],"outputs":[],"stateMutability":"nonpayable"},{"type":"function","name":"findMarket","inputs":[{"name":"tokenA","type":"address","internalType":"address"},{"name":"tokenB","type":"address","internalType":"address"}],"outputs":[{"name":"","type":"uint256","internalType":"uint256"}],"stateMutability":"view"},{"type":"function","name":"getAllMarketsMetadata","inputs":[],"outputs":[{"name":"","type":"tuple[]","internalType":"struct P2PSwap.MarketInformation[]","components":[{"name":"tokenA","type":"address","internalType":"address"},{"name":"tokenB","type":"address","internalType":"address"},{"name":"maxSlot","type":"uint256","internalType":"uint256"},{"name":"ordersAvailable","type":"uint256","internalType":"uint256"}]}],"stateMutability":"view"},{"type":"function","name":"getAllMartetOrders","inputs":[{"name":"market","type":"uint256","internalType":"uint256"}],"outputs":[{"name":"orders","type":"tuple[]","internalType":"struct P2PSwap.OrderForGetter[]","components":[{"name":"marketId","type":"uint256","internalType":"uint256"},{"name":"orderId","type":"uint256","internalType":"uint256"},{"name":"seller","type":"address","internalType":"address"},{"name":"amountA","type":"uint256","internalType":"uint256"},{"name":"amountB","type":"uint256","internalType":"uint256"}]}],"stateMutability":"view"},{"type":"function","name":"getMarketMetadata","inputs":[{"name":"market","type":"uint256","internalType":"uint256"}],"outputs":[{"name":"","type":"tuple","internalType":"struct P2PSwap.MarketInformation","components":[{"name":"tokenA","type":"address","internalType":"address"},{"name":"tokenB","type":"address","internalType":"address"},{"name":"maxSlot","type":"uint256","internalType":"uint256"},{"name":"ordersAvailable","type":"uint256","internalType":"uint256"}]}],"stateMutability":"view"},{"type":"function","name":"getMyOrdersInSpecificMarket","inputs":[{"name":"user","type":"address","internalType":"address"},{"name":"market","type":"uint256","internalType":"uint256"}],"outputs":[{"name":"orders","type":"tuple[]","internalType":"struct P2PSwap.OrderForGetter[]","components":[{"name":"marketId","type":"uint256","internalType":"uint256"},{"name":"orderId","type":"uint256","internalType":"uint256"},{"name":"seller","type":"address","internalType":"address"},{"name":"amountA","type":"uint256","internalType":"uint256"},{"name":"amountB","type":"uint256","internalType":"uint256"}]}],"stateMutability":"view"},{"type":"function","name":"makeOrder","inputs":[{"name":"user","type":"address","internalType":"address"},{"name":"metadata","type":"tuple","internalType":"struct P2PSwap.MetadataMakeOrder","components":[{"name":"nonce","type":"uint256","internalType":"uint256"},{"name":"tokenA","type":"address","internalType":"address"},{"name":"tokenB","type":"address","internalType":"address"},{"name":"amountA","type":"uint256","internalType":"uint256"},{"name":"amountB","type":"uint256","internalType":"uint256"},{"name":"signature","type":"bytes","internalType":"bytes"}]},{"name":"signature","type":"bytes","internalType":"bytes"},{"name":"_priorityFee_Evvm","type":"uint256","internalType":"uint256"},{"name":"_nonce_Evvm","type":"uint256","internalType":"uint256"},{"name":"_priority_Evvm","type":"bool","internalType":"bool"},{"name":"_signature_Evvm","type":"bytes","internalType":"bytes"}],"outputs":[{"name":"market","type":"uint256","internalType":"uint256"},{"name":"orderId","type":"uint256","internalType":"uint256"}],"stateMutability":"nonpayable"},{"type":"function","name":"proposeFillFixedPercentage","inputs":[{"name":"_seller","type":"uint256","internalType":"uint256"},{"name":"_service","type":"uint256","internalType":"uint256"},{"name":"_mateStaker","type":"uint256","internalType":"uint256"}],"outputs":[],"stateMutability":"nonpayable"},{"type":"function","name":"proposeFillPropotionalPercentage","inputs":[{"name":"_seller","type":"uint256","internalType":"uint256"},{"name":"_service","type":"uint256","internalType":"uint256"},{"name":"_mateStaker","type":"uint256","internalType":"uint256"}],"outputs":[],"stateMutability":"nonpayable"},{"type":"function","name":"proposeMaxLimitFillFixedFee","inputs":[{"name":"_maxLimitFillFixedFee","type":"uint256","internalType":"uint256"}],"outputs":[],"stateMutability":"nonpayable"},{"type":"function","name":"proposeOwner","inputs":[{"name":"_owner","type":"address","internalType":"address"}],"outputs":[],"stateMutability":"nonpayable"},{"type":"function","name":"proposePercentageFee","inputs":[{"name":"_percentageFee","type":"uint256","internalType":"uint256"}],"outputs":[],"stateMutability":"nonpayable"},{"type":"function","name":"proposeWithdrawal","inputs":[{"name":"_tokenToWithdraw","type":"address","internalType":"address"},{"name":"_amountToWithdraw","type":"uint256","internalType":"uint256"},{"name":"_to","type":"address","internalType":"address"}],"outputs":[],"stateMutability":"nonpayable"},{"type":"function","name":"rejectProposeFillFixedPercentage","inputs":[],"outputs":[],"stateMutability":"nonpayable"},{"type":"function","name":"rejectProposeFillPropotionalPercentage","inputs":[],"outputs":[],"stateMutability":"nonpayable"},{"type":"function","name":"rejectProposeMaxLimitFillFixedFee","inputs":[],"outputs":[],"stateMutability":"nonpayable"},{"type":"function","name":"rejectProposeOwner","inputs":[],"outputs":[],"stateMutability":"nonpayable"},{"type":"function","name":"rejectProposePercentageFee","inputs":[],"outputs":[],"stateMutability":"nonpayable"},{"type":"function","name":"rejectProposeWithdrawal","inputs":[],"outputs":[],"stateMutability":"nonpayable"}],"bytecode":{"object":"0x6080604052346100fa57604051601f6131d838819003918201601f19168301916001600160401b038311848410176100e65780849260409485528339810103126100fa576100586020610051836100fe565b92016100fe565b600380546001600160a01b039384166001600160a01b0319918216179091555f805492909316911617905566038d7ea4c68000600e556101f4600b55604051606081018181106001600160401b038211176100e6576103e89160409182526113888152610fa060208201520152611388600455610fa06005556103e86006556040516130c590816101138239f35b634e487b7160e01b5f52604160045260245ffd5b5f80fd5b51906001600160a01b03821682036100fa5756fe60806040526004361015610011575f80fd5b5f3560e01c80631128a79a146101ca57806314438428146101c557806316790f81146101c057806326415c71146101bb578063313c66dc146101b657806335287eaf146101b157806335b2c22c146101ac57806354282704146101a75780636ae76d5b146101a25780636b6445b61461019d5780636cdbf92714610198578063701c70de146101935780637280ff351461018e57806374efedc91461018957806376a75a291461017a578063891b8fa2146101845780638a82edca1461017f5780638eb163d31461017a578063952469d014610170578063a936e0d114610175578063af5cecc014610170578063b3d4fd791461016b578063b5ed298a14610166578063b7ac72ff14610161578063cfb35fd01461015c578063d53723bd14610157578063db7ccd63146101525763ebbc49651461014d575f80fd5b611147565b6110e8565b61106b565b611010565b610f53565b610ef8565b610ebd565b610e3b565b610e83565b610cd8565b610ded565b610d47565b610c9c565b610c61565b610be9565b610ae7565b610a5e565b61097b565b6107bf565b610679565b61061f565b6104cc565b61041c565b61034b565b610217565b6101dd565b5f9103126101d957565b5f80fd5b346101d9575f3660031901126101d9575f546001600160a01b0316331480159061020c575b6101d9575f600f55005b506010544211610202565b346101d9575f3660031901126101d9575f546001600160a01b031633148015906102cf575b6101d957601354601154610260916001600160a01b039081169116601254916124ae565b601180546001600160a01b03191690556102795f601255565b601380546001600160a01b03191690556102925f601455565b6012546011546102cb906102c3906001600160a01b03165b6001600160a01b03165f908152601a6020526040902090565b9182546111b4565b9055005b50601454421161023c565b60206040818301928281528451809452019201905f5b8181106102fd5750505090565b909192602060808261034060019488516060809160018060a01b03815116845260018060a01b036020820151166020850152604081015160408501520151910152565b0194019291016102f0565b346101d9575f3660031901126101d95760155460018101908181116104175761037382611216565b9161038160405193846108a8565b808352610390601f1991611216565b015f5b81811061040057505060015b818111156103b957604051806103b585826102da565b0390f35b806103f56103d26103fb935f52601860205260405f2090565b6103e46103de846111a6565b916112a9565b6103ee8288611295565b5285611295565b50611251565b61039f565b60209061040b61122d565b82828701015201610393565b611192565b346101d9575f3660031901126101d957600154336001600160a01b03821614801590610456575b6101d9576001600160a01b031916600155005b506002544211610443565b60206040818301928281528451809452019201905f5b8181106104845750505090565b909192602060a0600192608087518051835284810151858401528580851b03604082015116604084015260608101516060840152015160808201520194019101919091610477565b346101d95760203660031901126101d95760043561050661050160026104fa845f52601860205260405f2090565b01546111c1565b6112e7565b9060015b61052160026104fa845f52601860205260405f2090565b8111610611578061056d61056161055461057694610547875f52601960205260405f2090565b905f5260205260405f2090565b546001600160a01b031690565b6001600160a01b031690565b61057b57611251565b61050a565b6103f561059761055483610547875f52601960205260405f2090565b60016105af84610547885f52601960205260405f2090565b015460026105c985610547895f52601960205260405f2090565b0154906105f36105d76108c9565b888152602081018790526001600160a01b039094166040850152565b60608301526080820152610606836111a6565b906103ee8288611295565b604051806103b58582610461565b346101d9575f3660031901126101d9575f546001600160a01b03163314801590610650575b6101d957600c54600b55005b50600d544211610644565b6001600160a01b038116036101d957565b35906106778261065b565b565b346101d95760403660031901126101d9576004356106968161065b565b6024356106b361050160026104fa845f52601860205260405f2090565b6001600160a01b039092169160015b6106d960026104fa855f52601860205260405f2090565b81116107b15761070f908460018060a01b0361070461055484610547895f52601960205260405f2090565b161461071457611251565b6106c2565b6103f561073061055483610547885f52601960205260405f2090565b600161074884610547895f52601960205260405f2090565b01546002610762856105478a5f52601960205260405f2090565b01549061078c6107706108c9565b898152602081018790526001600160a01b039094166040850152565b6060830152608082015261079f836111a6565b906107aa8287611295565b5284611295565b604051806103b58482610461565b346101d9575f3660031901126101d9575f546001600160a01b03163314801590610818575b6101d9576001600160601b0360a01b601154166011555f6012556001600160601b0360a01b601354166013555f6014555f80f35b5060145442116107e4565b634e487b7160e01b5f52604160045260245ffd5b60a081019081106001600160401b0382111761085257604052565b610823565b60c081019081106001600160401b0382111761085257604052565b608081019081106001600160401b0382111761085257604052565b604081019081106001600160401b0382111761085257604052565b90601f801991011681019081106001600160401b0382111761085257604052565b6040519061067760a0836108a8565b604051906106776060836108a8565b604051906106776040836108a8565b6001600160401b03811161085257601f01601f191660200190565b81601f820112156101d957803590610928826108f6565b9261093660405194856108a8565b828452602083830101116101d957815f926020809301838601378301015290565b801515036101d957565b6084359061067782610957565b60a4359061067782610957565b346101d95760c03660031901126101d9576004356109988161065b565b602435906001600160401b0382116101d95760a060031983360301126101d957604051916109c583610837565b8060040135835260248101356109da8161065b565b602084015260448101356109ed8161065b565b6040840152606481013560608401526084810135906001600160401b0382116101d9576004610a1f9236920101610911565b6080830152604435606435610a32610961565b9160a435946001600160401b0386116101d957610a56610a5c963690600401610911565b94611415565b005b346101d95760203660031901126101d957600435610a7a61122d565b505f5260186020526080610a9060405f206112a9565b610acb60405180926060809160018060a01b03815116845260018060a01b036020820151166020850152604081015160408501520151910152565bf35b60609060031901126101d957600435906024359060443590565b346101d957610af536610acd565b5f549192916001600160a01b031633036101d9578282018083116104175781810180911161041757612710036101d957610b5b9260405192610b386060856108a8565b835260208301526040820152604090805160075560208101516008550151600955565b610a5c610b67426111cf565b600a55565b919060c0838203126101d95760405190610b8582610857565b8193803583526020810135610b998161065b565b6020840152610baa6040820161066c565b6040840152606081013560608401526080810135608084015260a0810135916001600160401b0383116101d95760a092610be49201610911565b910152565b346101d95760c03660031901126101d957600435610c068161065b565b6024356001600160401b0381116101d957610c25903690600401610b6c565b90608435606435604435610c3883610957565b60a435946001600160401b0386116101d957610c5b610a5c963690600401610911565b94611801565b346101d95760203660031901126101d9575f54600435906001600160a01b031633036101d957600f5562015180420180421161041757601055005b346101d9575f3660031901126101d9575f546001600160a01b03163314801590610ccd575b6101d957600f54600e55005b506010544211610cc1565b346101d9575f3660031901126101d9575f546001600160a01b03163314801590610d3c575b6101d957604051606081018181106001600160401b03821117610852575f91604091825282815282602082015201525f6007555f6008555f6009555f80f35b50600a544211610cfd565b346101d95760e03660031901126101d957600435610d648161065b565b6024356001600160401b0381116101d957610d83903690600401610b6c565b906044356001600160401b0381116101d957610da3903690600401610911565b608435606435610db161096e565b9260c435956001600160401b0387116101d957610dd5610ddb973690600401610911565b95611d11565b60408051928352602083019190915290f35b346101d95760403660031901126101d957600435610e0a8161065b565b6024359060018060a01b03165f52601660205260405f20905f52602052602060ff60405f2054166040519015158152f35b346101d9575f3660031901126101d9575f546001600160a01b03163314801590610e78575b6101d957600754600455600854600555600954600655005b50600a544211610e60565b346101d9575f3660031901126101d9575f546001600160a01b03163314801590610eb2575b6101d9575f600c55005b50600d544211610ea8565b346101d95760203660031901126101d9575f54600435906001600160a01b031633036101d957600c5562015180420180421161041757600d55005b346101d95760203660031901126101d957600435610f158161065b565b5f546001600160a01b031633036101d95760018060a01b03166001600160601b0360a01b600154161760015562015180420180421161041757600255005b346101d95760603660031901126101d957600435610f708161065b565b6024359060443590610f818261065b565b5f546001600160a01b03163314801590610ff0575b6101d957610fdf92610fc29160018060a01b03166001600160601b0360a01b6011541617601155601255565b60018060a01b03166001600160601b0360a01b6013541617601355565b610a5c610feb426111cf565b601455565b506001600160a01b0381165f908152601a60205260409020548311610f96565b346101d95761101e36610acd565b5f549192916001600160a01b03163314158061104c575b6101d957610b5b9260405192610b386060856108a8565b5082820180831161041757818101809111610417576127101415611035565b346101d95760e03660031901126101d9576004356110888161065b565b6024356001600160401b0381116101d9576110a7903690600401610b6c565b60443591906084356064356110bb82610957565b60a435946001600160401b0386116101d9576110de610a5c963690600401610911565b9360c4359561210c565b346101d95760403660031901126101d957602061113e60043561110a8161065b565b602435906111178261065b565b60018060a01b03165f526017835260405f209060018060a01b03165f5260205260405f2090565b54604051908152f35b346101d9575f3660031901126101d9576001546001600160a01b0316338114801590611187575b6101d9576001600160601b0360a01b5f5416175f555f80f35b50600254421161116e565b634e487b7160e01b5f52601160045260245ffd5b5f1981019190821161041757565b9190820391821161041757565b906001820180921161041757565b9062015180820180921161041757565b90600c820180921161041757565b600201908160021161041757565b600301908160031161041757565b9190820180921161041757565b6001600160401b0381116108525760051b60200190565b6040519061123a82610872565b5f6060838281528260208201528260408201520152565b5f1981146104175760010190565b634e487b7160e01b5f52603260045260245ffd5b8051156112805760200190565b61125f565b8051600110156112805760400190565b80518210156112805760209160051b010190565b906040516112b681610872565b82546001600160a01b0390811682526001840154166020820152600283015460408201526003909201546060830152565b906112f182611216565b6112fe60405191826108a8565b828152809261130f601f1991611216565b01905f5b82811061131f57505050565b60209060405161132e81610837565b5f81525f838201525f60408201525f60608201525f608082015282828501015201611313565b908160209103126101d9575161136981610957565b90565b6040513d5f823e3d90fd5b908160209103126101d9575190565b908160011b918083046002149015171561041757565b9060038202918083046003149015171561041757565b908160021b918083046004149015171561041757565b9060058202918083046005149015171561041757565b906103e88202918083046103e8149015171561041757565b8181029291811591840414171561041757565b8015610417575f190190565b81516020830180519397929695939091906001600160a01b031661146361145f898b604081019461144c865160018060a01b031690565b906060830197608089519401519461251e565b1590565b6101d95782516114b5919061148a906001600160a01b03165b91516001600160a01b031690565b906001600160a01b039081165f90815260176020908152604080832093909416825291909152205490565b958615801561177a575b801561173f575b6101d9576114f9611547938961155796611527948a8015159a8b61172c575b505092516001600160a01b03169392505050565b600161151e6115108a5f52601960205260405f2090565b85515f5260205260405f2090565b015490896124ae565b611539865f52601960205260405f2090565b90515f5260205260405f2090565b80546001600160a01b0319169055565b60035461156e90610561906001600160a01b031681565b6040516333b6331760e21b8152336004820152909190602081602481865afa90811561168d575f916116fd575b506115f6575b505050916115396115e99260036115c3610677965f52601860205260405f2090565b016115ce8154611409565b90556001600160a01b03165f90815260166020526040902090565b805460ff19166001179055565b91949293911561169257906020600492604051938480926306fb495b60e31b82525afa801561168d576115c36115e99561165261164c61067799611647600396611539995f9161165e575b5061139c565b611209565b3361244c565b949650508194506115a1565b611680915060203d602011611686575b61167881836108a8565b810190611377565b5f611641565b503d61166e565b61136c565b600493919450602090604051948580926306fb495b60e31b82525afa93841561168d5760036115c3611539936116526116d9610677996115e9995f916116de575b50611386565b61164c565b6116f7915060203d6020116116865761167881836108a8565b5f6116d3565b61171f915060203d602011611725575b61171781836108a8565b810190611354565b5f61159b565b503d61170d565b611735946126a3565b895f808a816114e5565b50611766610554611758895f52601960205260405f2090565b84515f5260205260405f2090565b6001600160a01b03898116911614156114c6565b506001600160a01b0388165f9081526016602052604090206117b0906117a9905b8b515f5260205260405f2090565b5460ff1690565b6114bf565b604051606091906117c683826108a8565b6002815291601f1901825f5b8281106117de57505050565b6020906040516117ed8161088d565b5f81525f83820152828285010152016117d2565b929190939460a09585516020870161184c61145f611825835160018060a01b031690565b60408b0180519095918c916001600160a01b03165b90606083019e8f51930151938d612809565b6101d957805161186f906001600160a01b031683516001600160a01b031661148a565b9586158015611cdb575b8015611cb1575b6101d95761153995608095886118d48c60028f6118cd906118b7836118b0611758895f52601960205260405f2090565b0154612861565b9c8d94019d8e51965f52601960205260405f2090565b0154611209565b116101d957611a6e85611a03848f948e8d8f88908f9a611aaf9f95611a819f9661191892611a749f8f9961190e905160018060a01b031690565b908851918a612769565b8783516119448760026118cd611936875f52601960205260405f2090565b88515f5260205260405f2090565b10611c66575b5093505050506119d86119bd6105546119616117b5565b986115396119ae8c6119a860026119916119838b5f52601960205260405f2090565b87515f5260205260405f2090565b0154916119a2600454612710900490565b906113f6565b90611209565b955f52601960205260405f2090565b6119c56108e7565b9283526001600160a01b03166020830152565b6119e186611273565b526119eb85611273565b506119a86119fd600654612710900490565b876113f6565b611a0b6108e7565b908152336020820152611a1d84611285565b52611a2783611285565b50611a3f611a39600554612710900490565b856113f6565b8151611a5f90611a57906001600160a01b03166102aa565b918254611209565b9055516001600160a01b031690565b90612875565b516001600160a01b031690565b6001611aa6611a98875f52601960205260405f2090565b8a515f5260205260405f2090565b015490866124ae565b600354611ac690610561906001600160a01b031681565b6040516333b6331760e21b8152336004820152909290602081602481875afa90811561168d575f91611c47575b50611b34575b5050506115e9929160036115c383611b2661154761067799611539611539985f52601960205260405f2090565b5f52601860205260405f2090565b91602091611b68600495979694519160026118cd611b5a8b5f52601960205260405f2090565b8c515f5260205260405f2090565b1015611be2576040516306fb495b60e31b815293849182905afa91821561168d576115c36115e995611b2661154761067799611bb461164c611539996003985f91611bc3575b506113c8565b99505050935082949550611af9565b611bdc915060203d6020116116865761167881836108a8565b5f611bae565b6040516306fb495b60e31b815293849182905afa91821561168d576115c36115e995611b2661154761067799611bb46116d9611539996003985f91611c28575b506113b2565b611c41915060203d6020116116865761167881836108a8565b5f611c22565b611c60915060203d6020116117255761171781836108a8565b5f611af3565b51611ca595611c9f93611c99926002916118cd91611539906001600160a01b03165b9851965f52601960205260405f2090565b906111b4565b916124ae565b858e8d8f88908761194a565b506001600160a01b0388165f908152601660205260409020611cd6906117a99061179b565b611880565b50611cee875f52601960205260405f2090565b611d0a61055460018060a01b03928d515f5260205260405f2090565b1615611879565b929091969394955f9683519660208501928351611d339060018060a01b031690565b604087018051909c91949189916001600160a01b03169b60608a019c8d519060808c0198895193611d639661291f565b156101d9576001600160a01b0388165f908152601660205260409020611d95906117a99089515f5260205260405f2090565b6101d95784518a51611db29488926001600160a01b03168b612769565b8151611dd1906001600160a01b03168a516001600160a01b031661148a565b9889156120e4575b506002611dee8a5f52601860205260405f2090565b01546003611e048b5f52601860205260405f2090565b01540361205157611edd91929394959697506002611e2a8a5f52601860205260405f2090565b01611e358154611251565b90556003611e4b8a5f52601860205260405f2090565b01611e568154611251565b90556002611e6c8a5f52601860205260405f2090565b0154975b519051611e7b6108d8565b6001600160a01b03881681529160208301526040820152611ea8886105478b5f52601960205260405f2090565b815181546001600160a01b0319166001600160a01b039190911617815590600290604090602081015160018501550151910155565b600354611ef490610561906001600160a01b031681565b6040516333b6331760e21b815233600482015290602090829060249082905afa90811561168d575f91612032575b50611f4f575b50506001600160a01b039091165f908152601660205260409020610677916115e991611539565b90600492918115159182612015575b505015611fc257600354602090611f7f90610561906001600160a01b031681565b6040516306fb495b60e31b815293849182905afa91821561168d5761067793611fb861164c6115e995611539945f9161165e575061139c565b9350819250611f28565b600354602090611fdc90610561906001600160a01b031681565b6040516306fb495b60e31b815293849182905afa91821561168d5761067793611fb86116d96115e995611539945f916116de5750611386565b905161202b91906001600160a01b0316336124ae565b5f80611f5e565b61204b915060203d6020116117255761171781836108a8565b5f611f22565b60015b8961206c60026104fa835f52601860205260405f2090565b82116120d4576105616105548361054761208e945f52601960205260405f2090565b156120a15761209c90611251565b612054565b611edd9293949596979850975b60036120c28b5f52601860205260405f2090565b016120cd8154611251565b9055611e70565b5050611edd9192939495966120ae565b8251919950612105916120ff906001600160a01b031661147c565b90612a06565b975f611dd9565b939460a0969392919586519261214a61145f61213160208b015160018060a01b031690565b60408b0180519097918c916001600160a01b031661183a565b6101d9576020880151612170906001600160a01b031685516001600160a01b031661148a565b9586158015612416575b80156123ec575b6101d95784516001600160a01b0316906121a3885f52601960205260405f2090565b8b516121b691905f5260205260405f2090565b600201546121c392612af2565b909460808a01968b83888a51926121e28d5f52601960205260405f2090565b90516121f591905f5260205260405f2090565b600201549061220391611209565b9061220d916111b4565b116101d9578861234385611a6e958f976123759a8f9a612248928f9c8f9d99611a3f9a6122408d5160018060a01b031690565b905192612769565b61226f8c519161226a8b60026118cd8d6115398b5f52601960205260405f2090565b6111b4565b1115806123c8575b156123bd57878d8c896122a48251600261229c6115108b5f52601960205260405f2090565b0154906111b4565b965b8983516122c48760026118cd611936875f52601960205260405f2090565b1061238c575b5093505050506123186119bd6105546122e16117b5565b9a6115396119ae60026122ff611510895f52601960205260405f2090565b01546119a8612312600454612710900490565b8c6113f6565b61232188611273565b5261232b87611273565b506119a861233d600654612710900490565b846113f6565b61234b6108e7565b90815233602082015261235d86611285565b5261236785611285565b5060055461271090046119a2565b6020850151611aaf906001600160a01b0316611a81565b516123b295611c9f93611c99926002916118cd91611539906001600160a01b0316611c88565b878d8c898f896122ca565b878d8c8983966122a6565b508a516123e68960026118cd611b5a885f52601960205260405f2090565b11612277565b506001600160a01b0388165f908152601660205260409020612411906117a99061179b565b612181565b50612429875f52601960205260405f2090565b61244561055460018060a01b03928d515f5260205260405f2090565b161561217a565b6003546001600160a01b031691823b156101d95760405163c898a6e960e01b81526001600160a01b039092166004830152600160248301526044820152905f908290606490829084905af1801561168d576124a45750565b5f610677916108a8565b6003549091906001600160a01b0316803b156101d95760405163c898a6e960e01b81526001600160a01b03938416600482015291909216602482015260448101929092525f908290606490829084905af1801561168d576124a45750565b805191908290602001825e015f815290565b94916125966125b2946001612588612588988261258861255b61255561254f6125496125a49c612c3b565b9a612e02565b97612e02565b93612c3b565b95826040519d8e9a67323135343937633160c01b60208d0152600b60fa1b60288d015260298c019061250c565b600b60fa1b8152019061250c565b03601f1981018552846108a8565b6001600160a01b0392612ee7565b6001600160a01b0390921691161490565b805180835260209291819084018484015e5f828201840152601f01601f1916010190565b6001600160a01b0391821681529181166020830152610100604083018190525f908301529182166060820152608081019290925260a0820192909252911660c082015261012060e08201819052611369929101906125c3565b6001600160a01b0391821681529181166020830152610120604083018190525f908301529182166060820152608081019290925260a082019290925260c081019290925290911660e08201526101406101008201819052611369929101906125c3565b93929091901561271d576003546126c490610561906001600160a01b031681565b90813b156101d9575f8094916126f882936040519889978896879563f4e1895b60e01b875260013094309060048a01612640565b03925af1801561168d576127095750565b806127175f610677936108a8565b806101cf565b9192905061273861056161056160035460018060a01b031690565b803b156101d9575f8080946126f8604051978896879586946327d50fd160e11b8652600130933090600489016125e7565b9495909291955f146127bd5760035461278c90610561906001600160a01b031681565b92833b156101d9576126f85f96928793604051998a988997889663f4e1895b60e01b88523094309060048a01612640565b60035494955091936127d990610561906001600160a01b031681565b91823b156101d9575f946126f88692604051988997889687956327d50fd160e11b875230933090600489016125e7565b94916125966125b2946001612588612588988261258861283461255561254f6125496125a49c612c3b565b95826040519d8e9a6732199a9c1a1b1c9b60c11b60208d0152600b60fa1b60288d015260298c019061250c565b61287161271091600b54906113f6565b0490565b60035491926001600160a01b0390921691823b156101d95792906040519384926353d04b7b60e11b8452606484016060600486015283518091526020608486019401905f5b8181106128f1575050506001600160a01b0316602484015260448301525f929082900390829084905af1801561168d576127095750565b8251805187526020908101516001600160a01b031681880152899750604090960195909201916001016128ba565b95939192949061292e90612c3b565b9261293890612e02565b9461294290612e02565b9161294c90612c3b565b9061295690612c3b565b916040519586946020860167363362383839366360c01b905260288601600b60fa1b9052602986016129879161250c565b600b60fa1b815260010161299a9161250c565b600b60fa1b81526001016129ad9161250c565b600b60fa1b81526001016129c09161250c565b600b60fa1b81526001016129d39161250c565b03601f19810183526129e590836108a8565b6129ee91612ee7565b6001600160a01b03166001600160a01b039091161490565b90600390612a15601554611251565b60158190556001600160a01b039384165f8181526017602090815260408083209786168352969052949094205560405192612a4f84610872565b8352602083019060018060a01b03168152604083015f8152612acd60608501925f8452612aa8612a896015545f52601860205260405f2090565b965187546001600160a01b0319166001600160a01b0391909116178755565b516001860180546001600160a01b0319166001600160a01b0392909216919091179055565b5160028401555191015560155490565b908160209103126101d957516113698161065b565b9192915f91906001600160a01b03811615612be257600354612b5291602091612b2590610561906001600160a01b031681565b604051632d60756560e21b81526001600160a01b0390921660048301529092839190829081906024820190565b03915afa90811561168d575f91612bb3575b506001600160a01b0316612b8157612b7e91929350612861565b91565b83612b8b82612861565b1115612ba7575050611369612b9f836113de565b612710900490565b612b7e91929350612861565b612bd5915060203d602011612bdb575b612bcd81836108a8565b810190612add565b5f612b64565b503d612bc3565b509250612bee83612861565b92600e548094115f14612ba7575050611369612b9f836113de565b90612c13826108f6565b612c2060405191826108a8565b8281528092612c31601f19916108f6565b0190602036910137565b805f9172184f03e93ff9f4daa797ed6e38ed64bf6a1f0160401b821015612d6e575b806d04ee2d6d415b85acef8100000000600a921015612d52575b662386f26fc10000811015612d3d575b6305f5e100811015612d2b575b612710811015612d1b575b6064811015612d0c575b1015612d01575b612cec6021612cc160018501612c09565b938401015b5f1901916f181899199a1a9b1b9c1cb0b131b232b360811b600a82061a8353600a900490565b8015612cfc57612cec9091612cc6565b505090565b600190910190612cb0565b60029060649004930192612ca9565b6004906127109004930192612c9f565b6008906305f5e1009004930192612c94565b601090662386f26fc100009004930192612c87565b6020906d04ee2d6d415b85acef81000000009004930192612c77565b506040915072184f03e93ff9f4daa797ed6e38ed64bf6a1f0160401b8104612c5d565b60405190612da06040836108a8565b601082526f181899199a1a9b1b9c1cb0b131b232b360811b6020830152565b60405160609190612dd083826108a8565b602a815291601f1901366020840137565b8051600110156112805760210190565b908151811015611280570160200190565b6001600160a01b0316612e13612d91565b90612e1c612dbf565b916030612e2884611273565b536078612e3484612de1565b535f5b60148110612e455750505090565b612e4e816111df565b602081101561128057612e7c90612e6e9085901a60041c600f1684612df1565b516001600160f81b03191690565b612e9a612e90612e8b84611386565b6111ed565b915f1a9186612df1565b53612ea4816111df565b90602082101561128057612ec2612e6e600f866001951a1685612df1565b612ee0612ed6612ed184611386565b6111fb565b915f1a9187612df1565b5301612e37565b612f39612f47612ef78351612c3b565b92604051928391612f3360208401967f19457468657265756d205369676e6564204d6573736167653a0a0000000000008852603a85019061250c565b9061250c565b03601f1981018352826108a8565b5190206041825103612fec57815f916020809401519160606040820151910151841a92601b8410612fd5575b90612fb791612f9160ff8616601b8114908115612fca575b50613043565b604051948594859094939260ff6060936080840197845216602083015260408201520152565b838052039060015afa1561168d575f5190565b601c9150145f612f8b565b9290612fe3612fb792613031565b93909150612f73565b60405162461bcd60e51b815260206004820152601860248201527f496e76616c6964207369676e6174757265206c656e67746800000000000000006044820152606490fd5b60ff601b9116019060ff821161041757565b1561304a57565b60405162461bcd60e51b815260206004820152601760248201527f496e76616c6964207369676e61747572652076616c75650000000000000000006044820152606490fdfea2646970667358221220e4bb8b249082ce73b1b97d3fbefd433d65a7199befa149b09fe8ef4a3e6e08bc64736f6c634300081a0033","linkReferences":{}},"methodIdentifiers":{"acceptFillFixedPercentage()":"af5cecc0","acceptFillPropotionalPercentage()":"952469d0","acceptMaxLimitFillFixedFee()":"74efedc9","acceptOwner()":"ebbc4965","acceptPercentageFee()":"35287eaf","acceptWithdrawal()":"14438428","cancelOrder(address,(uint256,address,address,uint256,bytes),uint256,uint256,bool,bytes)":"6ae76d5b","checkIfANonceP2PSwapIsUsed(address,uint256)":"8a82edca","dispatchOrder_fillFixedFee(address,(uint256,address,address,uint256,uint256,bytes),uint256,uint256,bool,bytes,uint256)":"d53723bd","dispatchOrder_fillPropotionalFee(address,(uint256,address,address,uint256,uint256,bytes),uint256,uint256,bool,bytes)":"701c70de","findMarket(address,address)":"db7ccd63","getAllMarketsMetadata()":"16790f81","getAllMartetOrders(uint256)":"313c66dc","getMarketMetadata(uint256)":"6b6445b6","getMyOrdersInSpecificMarket(address,uint256)":"35b2c22c","makeOrder(address,(uint256,address,address,uint256,uint256,bytes),bytes,uint256,uint256,bool,bytes)":"891b8fa2","proposeFillFixedPercentage(uint256,uint256,uint256)":"6cdbf927","proposeFillPropotionalPercentage(uint256,uint256,uint256)":"cfb35fd0","proposeMaxLimitFillFixedFee(uint256)":"7280ff35","proposeOwner(address)":"b5ed298a","proposePercentageFee(uint256)":"b3d4fd79","proposeWithdrawal(address,uint256,address)":"b7ac72ff","rejectProposeFillFixedPercentage()":"76a75a29","rejectProposeFillPropotionalPercentage()":"8eb163d3","rejectProposeMaxLimitFillFixedFee()":"1128a79a","rejectProposeOwner()":"26415c71","rejectProposePercentageFee()":"a936e0d1","rejectProposeWithdrawal()":"54282704"},"id":81}