{"abi":[{"type":"constructor","inputs":[{"name":"_evvmAddress","type":"address","internalType":"address"},{"name":"_initialOwner","type":"address","internalType":"address"}],"stateMutability":"nonpayable"},{"type":"function","name":"_setIdentityBaseMetadata","inputs":[{"name":"_identity","type":"string","internalType":"string"},{"name":"_identityBaseMetadata","type":"tuple","internalType":"struct MateNameServiceMock.IdentityBaseMetadata","components":[{"name":"owner","type":"address","internalType":"address"},{"name":"expireDate","type":"uint256","internalType":"uint256"},{"name":"customMetadataMaxSlots","type":"uint256","internalType":"uint256"},{"name":"offerMaxSlots","type":"uint256","internalType":"uint256"},{"name":"flagNotAUsername","type":"bytes1","internalType":"bytes1"}]}],"outputs":[],"stateMutability":"nonpayable"},{"type":"function","name":"_setIdentityCustomMetadata","inputs":[{"name":"_identity","type":"string","internalType":"string"},{"name":"_numberKey","type":"uint256","internalType":"uint256"},{"name":"_customValue","type":"string","internalType":"string"}],"outputs":[],"stateMutability":"nonpayable"},{"type":"function","name":"acceptChangeEvvmAddress","inputs":[],"outputs":[],"stateMutability":"nonpayable"},{"type":"function","name":"acceptOffer","inputs":[{"name":"_user","type":"address","internalType":"address"},{"name":"_nonce","type":"uint256","internalType":"uint256"},{"name":"_username","type":"string","internalType":"string"},{"name":"_offerID","type":"uint256","internalType":"uint256"},{"name":"_priorityFeeForFisher","type":"uint256","internalType":"uint256"},{"name":"_signature","type":"bytes","internalType":"bytes"},{"name":"_nonce_Evvm","type":"uint256","internalType":"uint256"},{"name":"_priority_Evvm","type":"bool","internalType":"bool"},{"name":"_signature_Evvm","type":"bytes","internalType":"bytes"}],"outputs":[],"stateMutability":"nonpayable"},{"type":"function","name":"acceptProposeAdmin","inputs":[],"outputs":[],"stateMutability":"nonpayable"},{"type":"function","name":"addCustomMetadata","inputs":[{"name":"_user","type":"address","internalType":"address"},{"name":"_nonce","type":"uint256","internalType":"uint256"},{"name":"_identity","type":"string","internalType":"string"},{"name":"_value","type":"string","internalType":"string"},{"name":"_priorityFeeForFisher","type":"uint256","internalType":"uint256"},{"name":"_signature","type":"bytes","internalType":"bytes"},{"name":"_nonce_Evvm_forAddCustomMetadata","type":"uint256","internalType":"uint256"},{"name":"_priority_Evvm_forAddCustomMetadata","type":"bool","internalType":"bool"},{"name":"_signature_Evvm_forAddCustomMetadata","type":"bytes","internalType":"bytes"}],"outputs":[],"stateMutability":"nonpayable"},{"type":"function","name":"cancelChangeAutority","inputs":[],"outputs":[],"stateMutability":"nonpayable"},{"type":"function","name":"cancelChangeEmailRegistery","inputs":[],"outputs":[],"stateMutability":"nonpayable"},{"type":"function","name":"cancelChangeEvvmAddress","inputs":[],"outputs":[],"stateMutability":"nonpayable"},{"type":"function","name":"cancelChangePhoneNumberRegistery","inputs":[],"outputs":[],"stateMutability":"nonpayable"},{"type":"function","name":"cancelProposeAdmin","inputs":[],"outputs":[],"stateMutability":"nonpayable"},{"type":"function","name":"cancelSetStopChangeVerificationsAddress","inputs":[],"outputs":[],"stateMutability":"nonpayable"},{"type":"function","name":"cancelWithdrawMateTokens","inputs":[],"outputs":[],"stateMutability":"nonpayable"},{"type":"function","name":"changeAutority","inputs":[],"outputs":[],"stateMutability":"nonpayable"},{"type":"function","name":"changeEmailRegistery","inputs":[],"outputs":[],"stateMutability":"nonpayable"},{"type":"function","name":"changePhoneNumberRegistery","inputs":[],"outputs":[],"stateMutability":"nonpayable"},{"type":"function","name":"checkIfMNSNonceIsAvailable","inputs":[{"name":"_user","type":"address","internalType":"address"},{"name":"_nonce","type":"uint256","internalType":"uint256"}],"outputs":[{"name":"","type":"bool","internalType":"bool"}],"stateMutability":"view"},{"type":"function","name":"claimWithdrawMateTokens","inputs":[],"outputs":[],"stateMutability":"nonpayable"},{"type":"function","name":"flushCustomMetadata","inputs":[{"name":"_user","type":"address","internalType":"address"},{"name":"_nonce","type":"uint256","internalType":"uint256"},{"name":"_identity","type":"string","internalType":"string"},{"name":"_priorityFeeForFisher","type":"uint256","internalType":"uint256"},{"name":"_signature","type":"bytes","internalType":"bytes"},{"name":"_nonce_Evvm","type":"uint256","internalType":"uint256"},{"name":"_priority_Evvm","type":"bool","internalType":"bool"},{"name":"_signature_Evvm","type":"bytes","internalType":"bytes"}],"outputs":[],"stateMutability":"nonpayable"},{"type":"function","name":"flushUsername","inputs":[{"name":"_user","type":"address","internalType":"address"},{"name":"_identity","type":"string","internalType":"string"},{"name":"_priorityFeeForFisher","type":"uint256","internalType":"uint256"},{"name":"_nonce","type":"uint256","internalType":"uint256"},{"name":"_signature","type":"bytes","internalType":"bytes"},{"name":"_nonce_Evvm","type":"uint256","internalType":"uint256"},{"name":"_priority_Evvm","type":"bool","internalType":"bool"},{"name":"_signature_Evvm","type":"bytes","internalType":"bytes"}],"outputs":[],"stateMutability":"nonpayable"},{"type":"function","name":"getAdmin","inputs":[],"outputs":[{"name":"","type":"address","internalType":"address"}],"stateMutability":"view"},{"type":"function","name":"getAdminFullDetails","inputs":[],"outputs":[{"name":"currentAdmin","type":"address","internalType":"address"},{"name":"proposalAdmin","type":"address","internalType":"address"},{"name":"timeToAcceptAdmin","type":"uint256","internalType":"uint256"}],"stateMutability":"view"},{"type":"function","name":"getAmountOfCustomMetadata","inputs":[{"name":"_username","type":"string","internalType":"string"}],"outputs":[{"name":"","type":"uint256","internalType":"uint256"}],"stateMutability":"view"},{"type":"function","name":"getAutority","inputs":[],"outputs":[{"name":"","type":"address","internalType":"address"}],"stateMutability":"view"},{"type":"function","name":"getAutorityFullDetails","inputs":[],"outputs":[{"name":"currentAutority","type":"address","internalType":"address"},{"name":"proposalAutority","type":"address","internalType":"address"},{"name":"timeToAcceptAutority","type":"uint256","internalType":"uint256"}],"stateMutability":"view"},{"type":"function","name":"getCustomMetadataMaxSlotsOfIdentity","inputs":[{"name":"_username","type":"string","internalType":"string"}],"outputs":[{"name":"","type":"uint256","internalType":"uint256"}],"stateMutability":"view"},{"type":"function","name":"getEmailRegistery","inputs":[],"outputs":[{"name":"","type":"address","internalType":"address"}],"stateMutability":"view"},{"type":"function","name":"getEmailRegisteryFullDetails","inputs":[],"outputs":[{"name":"currentEmailRegistery","type":"address","internalType":"address"},{"name":"proposalEmailRegistery","type":"address","internalType":"address"},{"name":"timeToAcceptEmailRegistery","type":"uint256","internalType":"uint256"}],"stateMutability":"view"},{"type":"function","name":"getEvvmAddress","inputs":[],"outputs":[{"name":"","type":"address","internalType":"address"}],"stateMutability":"view"},{"type":"function","name":"getEvvmAddressFullDetails","inputs":[],"outputs":[{"name":"currentEvvmAddress","type":"address","internalType":"address"},{"name":"proposalEvvmAddress","type":"address","internalType":"address"},{"name":"timeToAcceptEvvmAddress","type":"uint256","internalType":"uint256"}],"stateMutability":"view"},{"type":"function","name":"getExpireDateOfUsername","inputs":[{"name":"_phoneNumber","type":"string","internalType":"string"}],"outputs":[{"name":"","type":"uint256","internalType":"uint256"}],"stateMutability":"view"},{"type":"function","name":"getFullCustomMetadataOfIdentity","inputs":[{"name":"_username","type":"string","internalType":"string"}],"outputs":[{"name":"","type":"string[]","internalType":"string[]"}],"stateMutability":"view"},{"type":"function","name":"getIdentityBasicMetadata","inputs":[{"name":"_username","type":"string","internalType":"string"}],"outputs":[{"name":"","type":"address","internalType":"address"},{"name":"","type":"uint256","internalType":"uint256"}],"stateMutability":"view"},{"type":"function","name":"getLengthOfOffersUsername","inputs":[{"name":"_username","type":"string","internalType":"string"}],"outputs":[{"name":"length","type":"uint256","internalType":"uint256"}],"stateMutability":"view"},{"type":"function","name":"getOffersOfUsername","inputs":[{"name":"_username","type":"string","internalType":"string"}],"outputs":[{"name":"offers","type":"tuple[]","internalType":"struct MateNameServiceMock.OfferMetadata[]","components":[{"name":"offerer","type":"address","internalType":"address"},{"name":"expireDate","type":"uint256","internalType":"uint256"},{"name":"amount","type":"uint256","internalType":"uint256"}]}],"stateMutability":"view"},{"type":"function","name":"getOwnerOfIdentity","inputs":[{"name":"_username","type":"string","internalType":"string"}],"outputs":[{"name":"","type":"address","internalType":"address"}],"stateMutability":"view"},{"type":"function","name":"getPhoneNumberRegistery","inputs":[],"outputs":[{"name":"","type":"address","internalType":"address"}],"stateMutability":"view"},{"type":"function","name":"getPhoneNumberRegisteryFullDetails","inputs":[],"outputs":[{"name":"currentPhoneNumberRegistery","type":"address","internalType":"address"},{"name":"proposalPhoneNumberRegistery","type":"address","internalType":"address"},{"name":"timeToAcceptPhoneNumberRegistery","type":"uint256","internalType":"uint256"}],"stateMutability":"view"},{"type":"function","name":"getPricePerRegistration","inputs":[],"outputs":[{"name":"","type":"uint256","internalType":"uint256"}],"stateMutability":"view"},{"type":"function","name":"getPriceToAddCustomMetadata","inputs":[],"outputs":[{"name":"price","type":"uint256","internalType":"uint256"}],"stateMutability":"view"},{"type":"function","name":"getPriceToFlushCustomMetadata","inputs":[{"name":"_identity","type":"string","internalType":"string"}],"outputs":[{"name":"price","type":"uint256","internalType":"uint256"}],"stateMutability":"view"},{"type":"function","name":"getPriceToFlushUsername","inputs":[{"name":"_identity","type":"string","internalType":"string"}],"outputs":[{"name":"price","type":"uint256","internalType":"uint256"}],"stateMutability":"view"},{"type":"function","name":"getPriceToRemoveCustomMetadata","inputs":[],"outputs":[{"name":"price","type":"uint256","internalType":"uint256"}],"stateMutability":"view"},{"type":"function","name":"getProposedWithdrawAmountFullDetails","inputs":[],"outputs":[{"name":"proposalAmountToWithdrawTokens","type":"uint256","internalType":"uint256"},{"name":"timeToAcceptAmountToWithdrawTokens","type":"uint256","internalType":"uint256"}],"stateMutability":"view"},{"type":"function","name":"getSingleCustomMetadataOfIdentity","inputs":[{"name":"_username","type":"string","internalType":"string"},{"name":"_key","type":"uint256","internalType":"uint256"}],"outputs":[{"name":"","type":"string","internalType":"string"}],"stateMutability":"view"},{"type":"function","name":"getSingleOfferOfUsername","inputs":[{"name":"_username","type":"string","internalType":"string"},{"name":"_offerID","type":"uint256","internalType":"uint256"}],"outputs":[{"name":"offer","type":"tuple","internalType":"struct MateNameServiceMock.OfferMetadata","components":[{"name":"offerer","type":"address","internalType":"address"},{"name":"expireDate","type":"uint256","internalType":"uint256"},{"name":"amount","type":"uint256","internalType":"uint256"}]}],"stateMutability":"view"},{"type":"function","name":"getStopChangeVerificationsAddressFullDetails","inputs":[],"outputs":[{"name":"flag","type":"bool","internalType":"bool"},{"name":"timeToAcceptChange","type":"uint256","internalType":"uint256"}],"stateMutability":"view"},{"type":"function","name":"hashUsername","inputs":[{"name":"_username","type":"string","internalType":"string"},{"name":"_randomNumber","type":"uint256","internalType":"uint256"}],"outputs":[{"name":"","type":"bytes32","internalType":"bytes32"}],"stateMutability":"pure"},{"type":"function","name":"isUsernameAvailable","inputs":[{"name":"_username","type":"string","internalType":"string"}],"outputs":[{"name":"","type":"bool","internalType":"bool"}],"stateMutability":"view"},{"type":"function","name":"makeOffer","inputs":[{"name":"_user","type":"address","internalType":"address"},{"name":"_nonce","type":"uint256","internalType":"uint256"},{"name":"_username","type":"string","internalType":"string"},{"name":"_amount","type":"uint256","internalType":"uint256"},{"name":"_expireDate","type":"uint256","internalType":"uint256"},{"name":"_priorityFeeForFisher","type":"uint256","internalType":"uint256"},{"name":"_signature","type":"bytes","internalType":"bytes"},{"name":"_nonce_Evvm","type":"uint256","internalType":"uint256"},{"name":"_priority_Evvm","type":"bool","internalType":"bool"},{"name":"_signature_Evvm","type":"bytes","internalType":"bytes"}],"outputs":[{"name":"offerID","type":"uint256","internalType":"uint256"}],"stateMutability":"nonpayable"},{"type":"function","name":"preRegistrationUsername","inputs":[{"name":"_user","type":"address","internalType":"address"},{"name":"_nonce","type":"uint256","internalType":"uint256"},{"name":"_hashUsername","type":"bytes32","internalType":"bytes32"},{"name":"_priorityFeeForFisher","type":"uint256","internalType":"uint256"},{"name":"_signature","type":"bytes","internalType":"bytes"},{"name":"_nonce_Evvm","type":"uint256","internalType":"uint256"},{"name":"_priority_Evvm","type":"bool","internalType":"bool"},{"name":"_signature_Evvm","type":"bytes","internalType":"bytes"}],"outputs":[],"stateMutability":"nonpayable"},{"type":"function","name":"prepareChangeAutority","inputs":[{"name":"_newAddress","type":"address","internalType":"address"}],"outputs":[],"stateMutability":"nonpayable"},{"type":"function","name":"prepareChangeEmailRegistery","inputs":[{"name":"_newAddress","type":"address","internalType":"address"}],"outputs":[],"stateMutability":"nonpayable"},{"type":"function","name":"proposeAdmin","inputs":[{"name":"_adminToPropose","type":"address","internalType":"address"}],"outputs":[],"stateMutability":"nonpayable"},{"type":"function","name":"proposeChangeEvvmAddress","inputs":[{"name":"_newEvvmAddress","type":"address","internalType":"address"}],"outputs":[],"stateMutability":"nonpayable"},{"type":"function","name":"proposeChangePhoneNumberRegistery","inputs":[{"name":"_newAddress","type":"address","internalType":"address"}],"outputs":[],"stateMutability":"nonpayable"},{"type":"function","name":"proposeSetStopChangeVerificationsAddress","inputs":[],"outputs":[],"stateMutability":"nonpayable"},{"type":"function","name":"proposeWithdrawMateTokens","inputs":[{"name":"_amount","type":"uint256","internalType":"uint256"}],"outputs":[],"stateMutability":"nonpayable"},{"type":"function","name":"registrationUsername","inputs":[{"name":"_user","type":"address","internalType":"address"},{"name":"_nonce","type":"uint256","internalType":"uint256"},{"name":"_username","type":"string","internalType":"string"},{"name":"_clowNumber","type":"uint256","internalType":"uint256"},{"name":"_signature","type":"bytes","internalType":"bytes"},{"name":"_priorityFeeForFisher","type":"uint256","internalType":"uint256"},{"name":"_nonce_Evvm","type":"uint256","internalType":"uint256"},{"name":"_priority_Evvm","type":"bool","internalType":"bool"},{"name":"_signature_Evvm","type":"bytes","internalType":"bytes"}],"outputs":[],"stateMutability":"nonpayable"},{"type":"function","name":"removeCustomMetadata","inputs":[{"name":"_user","type":"address","internalType":"address"},{"name":"_nonce","type":"uint256","internalType":"uint256"},{"name":"_identity","type":"string","internalType":"string"},{"name":"_key","type":"uint256","internalType":"uint256"},{"name":"_priorityFeeForFisher","type":"uint256","internalType":"uint256"},{"name":"_signature","type":"bytes","internalType":"bytes"},{"name":"_nonce_Evvm","type":"uint256","internalType":"uint256"},{"name":"_priority_Evvm","type":"bool","internalType":"bool"},{"name":"_signature_Evvm","type":"bytes","internalType":"bytes"}],"outputs":[],"stateMutability":"nonpayable"},{"type":"function","name":"renewUsername","inputs":[{"name":"_user","type":"address","internalType":"address"},{"name":"_nonce","type":"uint256","internalType":"uint256"},{"name":"_username","type":"string","internalType":"string"},{"name":"_priorityFeeForFisher","type":"uint256","internalType":"uint256"},{"name":"_signature","type":"bytes","internalType":"bytes"},{"name":"_nonce_Evvm","type":"uint256","internalType":"uint256"},{"name":"_priority_Evvm","type":"bool","internalType":"bool"},{"name":"_signature_Evvm","type":"bytes","internalType":"bytes"}],"outputs":[],"stateMutability":"nonpayable"},{"type":"function","name":"seePriceToRenew","inputs":[{"name":"_identity","type":"string","internalType":"string"}],"outputs":[{"name":"price","type":"uint256","internalType":"uint256"}],"stateMutability":"view"},{"type":"function","name":"setStopChangeVerificationsAddress","inputs":[],"outputs":[],"stateMutability":"nonpayable"},{"type":"function","name":"strictVerifyIfIdentityExist","inputs":[{"name":"_username","type":"string","internalType":"string"}],"outputs":[{"name":"","type":"bool","internalType":"bool"}],"stateMutability":"view"},{"type":"function","name":"verifyIfIdentityExists","inputs":[{"name":"_identity","type":"string","internalType":"string"}],"outputs":[{"name":"","type":"bool","internalType":"bool"}],"stateMutability":"view"},{"type":"function","name":"verifyStrictAndGetOwnerOfIdentity","inputs":[{"name":"_username","type":"string","internalType":"string"}],"outputs":[{"name":"answer","type":"address","internalType":"address"}],"stateMutability":"view"},{"type":"function","name":"withdrawOffer","inputs":[{"name":"_user","type":"address","internalType":"address"},{"name":"_nonce","type":"uint256","internalType":"uint256"},{"name":"_username","type":"string","internalType":"string"},{"name":"_offerID","type":"uint256","internalType":"uint256"},{"name":"_priorityFeeForFisher","type":"uint256","internalType":"uint256"},{"name":"_signature","type":"bytes","internalType":"bytes"},{"name":"_nonce_Evvm","type":"uint256","internalType":"uint256"},{"name":"_priority_Evvm","type":"bool","internalType":"bool"},{"name":"_signature_Evvm","type":"bytes","internalType":"bytes"}],"outputs":[],"stateMutability":"nonpayable"},{"type":"error","name":"HasNoCustomMetadata","inputs":[]},{"type":"error","name":"InvalidEmailOrPhoneNumber","inputs":[]},{"type":"error","name":"InvalidOwner","inputs":[]},{"type":"error","name":"InvalidSignature","inputs":[]},{"type":"error","name":"InvalidSignatureOnMNS","inputs":[]},{"type":"error","name":"InvalidUsername","inputs":[]},{"type":"error","name":"Logic","inputs":[{"name":"","type":"uint256","internalType":"uint256"}]},{"type":"error","name":"NonceAlreadyUsed","inputs":[]},{"type":"error","name":"OfferAlreadyWithdrawn","inputs":[]},{"type":"error","name":"OfferExpired","inputs":[]},{"type":"error","name":"UsernameAlreadyRegistered","inputs":[]},{"type":"error","name":"checkIfUsernameHasWindowTime","inputs":[]},{"type":"error","name":"checkIfUsernameOwner","inputs":[]}],"bytecode":{"object":"0x608034608657601f6149f438819003918201601f19168301916001600160401b03831184841017608a578084926040948552833981010312608657604b6020604583609e565b9201609e565b600780546001600160a01b039384166001600160a01b031991821617909155600a805492909316911617905560405161494290816100b28239f35b5f80fd5b634e487b7160e01b5f52604160045260245ffd5b51906001600160a01b038216820360865756fe60806040526004361015610011575f80fd5b5f3560e01c80630c78d2c61461043a5780630d1ffe3a146104355780630d3dcb9f1461043057806310d8bb091461042b57806310e5c25f1461042657806311eed71414610421578063147bf6c41461041c5780631de25a89146104175780631f4131fb14610412578063218116091461040d57806324866f15146104085780632e76af5c14610403578063331a3989146103fe57806335834e10146103f957806336e7a1b814610390578063393b9c6f146103f45780633e7899a1146103ef57806343a82d67146103ea57806348ffba55146103e557806349166379146103e057806352649c2e146103db57806354dc585d146103d65780635548a762146103d15780636196fc67146103cc5780636413033f146103c75780636a582c30146103c25780636a74ca46146103bd5780636b5bb1ca146103a95780636e9960c3146103b85780637126b2a3146103b357806375dab53b146103ae5780637bd9da7a146103a95780638001a999146103a457806381bb2df31461039f57806386c8ac581461039a57806388ecb91f1461039557806399e7bac214610390578063a6ba51ca1461038b578063a893b5ec14610386578063ae36fe7214610381578063b0d107da1461037c578063b19517dd14610377578063b2bc0ed614610372578063b7e5296d1461036d578063b8086f9814610368578063b88dc00414610363578063bcd5a47c1461035e578063bf2e9ab514610359578063c12615bb14610354578063c150741e1461034f578063c97da33e1461034a578063cf97ed1a14610345578063d134f8b414610340578063d2234a1a1461033b578063d22c816c14610336578063d7fd313414610331578063debeef5c1461032c578063dfb91dea14610327578063e6efeffa14610322578063eba5e53e1461031d578063f174748314610318578063f559b24e14610313578063f69c6dec1461030e578063f6d0ecbe14610309578063f7b2efb514610304578063fe7ab683146102ff5763ff9794f0146102fa575f80fd5b612873565b612815565b6127ed565b61271e565b6126f5565b61269d565b6124a0565b61242d565b612377565b612321565b6122d7565b61220c565b612118565b6120f4565b61205a565b612002565b611fab565b611f73565b611eea565b611eae565b611e95565b611e5d565b611e43565b611e05565b611dc1565b611cfc565b611b56565b61189a565b611842565b6117e3565b610c7e565b6117ab565b611793565b611766565b61150c565b611494565b6114f4565b6114d2565b6114aa565b611461565b6113f2565b6113b6565b61127a565b61123e565b611226565b611174565b611138565b6110af565b611010565b610d9d565b610c98565b610c56565b610c00565b610bc8565b610b90565b610900565b610813565b610784565b6106fa565b610692565b61066a565b61062a565b6105f0565b6105c8565b61055f565b634e487b7160e01b5f52604160045260245ffd5b60a081019081106001600160401b0382111761046e57604052565b61043f565b606081019081106001600160401b0382111761046e57604052565b90601f801991011681019081106001600160401b0382111761046e57604052565b604051906104be60a08361048e565b565b604051906104be60608361048e565b6001600160401b03811161046e57601f01601f191660200190565b81601f8201121561052e57602081359101610504826104cf565b92610512604051948561048e565b8284528282011161052e57815f92602092838601378301015290565b5f80fd5b602060031982011261052e57600435906001600160401b03821161052e5761055c916004016104ea565b90565b3461052e57602061056f36610532565b5f9061057a816136ef565b610592575b506040516001600160a01b039091168152f35b90506105a1604051809261289c565b5f808252908290038301909120546001600160a01b03169061057f565b5f91031261052e57565b3461052e575f36600319011261052e576007546040516001600160a01b039091168152602090f35b3461052e57602061060036610532565b61060d604051809261289c565b5f815281900382019020546040516001600160a01b039091168152f35b3461052e575f36600319011261052e57600d54600e54600f54604080516001600160a01b03948516815293909216602084015290820152606090f35b0390f35b3461052e575f36600319011261052e576013546040516001600160a01b039091168152602090f35b3461052e575f36600319011261052e576010546040516001600160a01b039091168152602090f35b600435906001600160a01b038216820361052e57565b602435906001600160a01b038216820361052e57565b35906001600160a01b038216820361052e57565b3461052e57602036600319011261052e576107136106ba565b600a546001600160a01b03169033829003610775576001600160a01b031690811590811561076b575b5061052e576001600160601b0360a01b600b541617600b5562015180420180421161076657600c55005b612904565b905081145f61073c565b6349e27cff60e01b5f5260045ffd5b3461052e5760c036600319011261052e576004356001600160401b03811161052e576107b49036906004016104ea565b60a036602319011261052e576040516107cc81610453565b6107d46106d0565b815260443560208201526064356040820152608435606082015260a435916001600160f81b03198316830361052e576108119260808301526129d8565b005b3461052e57602061082b61082636610532565b612af7565b604051908152f35b8015150361052e57565b60c435906104be82610833565b61010435906104be82610833565b60e435906104be82610833565b35906104be82610833565b61012060031982011261052e5761088760046106e6565b91602435916044356001600160401b03811161052e57816108aa916004016104ea565b91606435916084359160a4356001600160401b03811161052e57826108d1916004016104ea565b9160c435916108e060e4610865565b9161010435906001600160401b03821161052e5761055c916004016104ea565b3461052e5761090e36610870565b909793949260018060a09998991b03851690815f52600360205260405f20885f5260205260ff60405f205416610b8257600160f81b6001600160f81b0319610962600461095a8d6128ae565b015460f81b90565b1614918215610b50575b508115610b34575b5061052e576004978580610b21575b505050506109ae60026109a683610999896128ca565b905f5260205260405f2090565b015483614188565b6109ce6109be82610999886128ca565b80546001600160a01b0319169055565b6007546020906109f4906109e8906001600160a01b031681565b6001600160a01b031690565b6040516306fb495b60e31b815297889182905afa958615610b1c57610aa486610a6d610a9e610a976002610a5e88610a7e6108119f610aca9f9d610a736109999f92610ab19e610a7894610aac9f5f93610ad7575b5089610a5e610a6d93610999610a65946128ca565b0154612a31565b61031c900490565b90612977565b612977565b33614188565b61099983610a8f836109998b6128ca565b0154976128ca565b60c7900490565b60021c90565b601854612b64565b601855565b6001600160a01b03165f90815260036020526040902090565b805460ff19166001179055565b610a65919350610a5e610a6d93610999610b098e9460203d602011610b15575b610b01818361048e565b810190612a17565b96945050935050610a49565b503d610af7565b612a26565b610b2b9386614029565b5f808085610983565b610b4a9150610b469088868b89613eff565b1590565b5f610974565b9091506001600160a01b03610b78610b6b876109998d6128ca565b546001600160a01b031690565b161415905f61096c565b623f613760e71b5f5260045ffd5b3461052e575f36600319011261052e57600a546001600160a01b0316330361077557600880546001600160a01b03191690555f600955005b3461052e575f36600319011261052e57600a546001600160a01b0316330361077557600e80546001600160a01b03191690555f600f55005b3461052e575f36600319011261052e57600a546001600160a01b0316330361077557601554421061052e5760148054601380546001600160a01b03199081166001600160a01b038416179091551690555f601555005b3461052e575f36600319011261052e57600d546040516001600160a01b039091168152602090f35b3461052e575f36600319011261052e57602061082b612b71565b3461052e5761010036600319011261052e57610cb26106ba565b6024356064356084356001600160401b03811161052e57610cd79036906004016104ea565b60a43590610ce361083d565b9260e435956001600160401b03871161052e57610d076108119736906004016104ea565b9560443591612bd6565b9061010060031983011261052e57610d2960046106e6565b91602435916044356001600160401b03811161052e5782610d4c916004016104ea565b91606435916084356001600160401b03811161052e5782610d6f916004016104ea565b9160a43591610d7e60c4610865565b9160e435906001600160401b03821161052e5761055c916004016104ea565b3461052e57610dab36610d11565b919260409694959651610dbe818961289c565b5f81528190036020019020546001600160a01b038981169116819003610fd0575f52600360205260405f20855f5260205260ff60405f205416610b8257610b4688610e1a92610e15610e0f8961459d565b8b614295565b6146f3565b610fc1576002610e29876128ae565b015415610fb25784610e4593610e3e88612af7565b90896140eb565b5f5b6002610e52856128ae565b0154811015610e795780610e73610e6e600193610999886128e7565b612eb2565b01610e47565b5060075484908490610e95906109e8906001600160a01b031681565b6040516333b6331760e21b8152336004820152909490602081602481895afa908115610b1c575f91610f83575b50610efa575b610811610aca85610999865f6002610edf896128ae565b01556001600160a01b03165f90815260036020526040902090565b92916020600495604051968780926306fb495b60e31b82525afa8015610b1c576002610edf61099994610f58610a78610aca99610a73610f465f986108119e8a91610f64575b50612a42565b87610f50876128ae565b015490612ae4565b94505050509192610ec8565b610f7d915060203d602011610b1557610b01818361048e565b8f610f40565b610fa5915060203d602011610fab575b610f9d818361048e565b810190612e4f565b86610ec2565b503d610f93565b63041674a560e41b5f5260045ffd5b63ebbaebff60e01b5f5260045ffd5b630d86710960e31b5f5260045ffd5b604060031982011261052e57600435906001600160401b03821161052e57611009916004016104ea565b9060243590565b3461052e57602061103a61102336610fdf565b929061102d612f11565b506040519283809261289c565b6001815203019020905f5260205261066660405f2060026040519161105e83610473565b80546001600160a01b03168352600181015460208401520154604080830191909152519182918281516001600160a01b03168152602080830151908201526040918201519181019190915260600190565b3461052e575f36600319011261052e57600a546001600160a01b0316330361077557600954421061052e5760085460408051611122926001600160a01b0316915f916110fa81610473565b838152826020820152015260018060a01b03166001600160601b0360a01b6007541617600755565b600880546001600160a01b03191690555f600955005b3461052e575f36600319011261052e57600754600854600954604080516001600160a01b03948516815293909216602084015290820152606090f35b3461052e5761014036600319011261052e5761118e6106ba565b602435906044356001600160401b03811161052e576111b19036906004016104ea565b9060643560843560a43560c4356001600160401b03811161052e576111da9036906004016104ea565b9060e435926111e761084a565b9461012435976001600160401b03891161052e57610666996112106112169a36906004016104ea565b98612f60565b6040519081529081906020820190565b3461052e57602061082b61123936610532565b6131d5565b3461052e575f36600319011261052e57600a54600b54600c54604080516001600160a01b03948516815293909216602084015290820152606090f35b3461052e57606036600319011261052e576004356001600160401b03811161052e576112aa9036906004016104ea565b6024356044356001600160401b03811161052e5760206112d16112de9236906004016104ea565b936040519283809261289c565b6002815203019020905f5260205260405f2081516001600160401b03811161046e576113148161130e8454612e64565b84613289565b602092601f821160011461135357611344929382915f92611348575b50508160011b915f199060031b1c19161790565b9055005b015190505f80611330565b601f19821693611366845f5260205f2090565b915f5b86811061139e5750836001959610611386575b505050811b019055005b01515f1960f88460031b161c191690555f808061137c565b91926020600181928685015181550194019201611369565b3461052e575f36600319011261052e57601054601154601254604080516001600160a01b03948516815293909216602084015290820152606090f35b3461052e575f36600319011261052e57600a546001600160a01b0316330361077557601754421061052e57604051604081018181106001600160401b0382111761046e575f9160209160405260018152015261145b600160ff8019601654169115151617601655565b5f601755005b3461052e57602060016114838261147736610532565b6040519283809261289c565b5f8152030190200154604051908152f35b3461052e57602060026114838261147736610532565b3461052e575f36600319011261052e57600a546040516001600160a01b039091168152602090f35b3461052e5760206114ea6114e536610532565b613385565b6040519015158152f35b3461052e57602061082b61150736610532565b613400565b3461052e5761151a36610870565b9192604098969594985161152e818861289c565b5f81528190036020019020546001600160a01b038881169116819003610fd0575f52600360205260405f20885f5260205260ff60405f205416610b8257610b4661157b918987898b61432a565b6117575783600261158b876128ae565b0154111561052e57876115a7936115a0612b71565b90886140eb565b8060026115b3846128ae565b0154036116c557610aca9260026115e0846115db610e6e610999966109996116069b996128e7565b6128ae565b016115eb81546136e3565b90556001600160a01b03165f90815260036020526040902090565b60075461161d906109e8906001600160a01b031681565b6040516333b6331760e21b8152336004820152909190602081602481865afa908115610b1c575f916116a6575b5061165157005b6020600492604051938480926306fb495b60e31b82525afa908115610b1c57610a73610a7892610811945f916116875750612a42565b6116a0915060203d602011610b1557610b01818361048e565b5f610f40565b6116bf915060203d602011610fab57610f9d818361048e565b5f61164a565b93919290935b60026116d6866128ae565b015481101561171e576001906117186117066116f1886128e7565b6116fa84612918565b5f5260205260405f2090565b611713836109998a6128e7565b613603565b016116cb565b506109996116069360026115e0610aca95976115db610e6e61173f836128e7565b85611749856128ae565b01545f5260205260405f2090565b638baa579f60e01b5f5260045ffd5b3461052e575f36600319011261052e57600a546001600160a01b03163303610775575f6005819055600655005b3461052e5760206114ea6117a636610532565b6136ef565b3461052e575f36600319011261052e57600a546001600160a01b0316330361077557600b80546001600160a01b03191690555f600c55005b3461052e57602036600319011261052e576117fc6106ba565b600a546001600160a01b03163303610775576001600160a01b0316801561052e576001600160601b0360a01b600854161760085562015180420180421161076657600955005b3461052e57602036600319011261052e5761185b6106ba565b600a546001600160a01b031633036107755760018060a01b03166001600160601b0360a01b601154161760115562015180420180421161076657601255005b3461052e576118a836610870565b91926040989798516118ba818961289c565b5f81528190036020019020546001600160a01b038981169116819003610fd0575f52600360205260405f20895f5260205260ff60405f205416610b8257600160f81b6001600160f81b0319611913600461095a8b6128ae565b16148015611b36575b8015611b1d575b61052e57610b46611937918a888a8c614378565b611757578380611b0a575b50505050611960600261195884610999876128ca565b015485614188565b61199b611973610b6b84610999876128ca565b61197c856128ae565b80546001600160a01b0319166001600160a01b03909216919091179055565b6119ab6109be83610999866128ca565b6007546119c2906109e8906001600160a01b031681565b6040516333b6331760e21b8152336004820152602081602481855afa908115610b1c575f91611aeb575b50611a28575b50610811610aca8661099987610ab1610aac610aa48a610a6d610a9e610a976002610a5e8f61099983610a8f836109998b6128ca565b91602060049694959293604051978880926306fb495b60e31b82525afa958615610b1c57610aa486610a6d610a9e610a976002610a5e88611a9e6108119f610aca9f9d610a736109999f92610ab19e610a7894610aac9f5f93611ab2575b50610a978a610a5e610a6d94610999610a9e956128ca565b9a50505050505095975050508194506119f2565b610a9e9193508a610a5e610a6d94610999611ade610a979560203d602011610b1557610b01818361048e565b9795505094505050611a86565b611b04915060203d602011610fab57610f9d818361048e565b5f6119ec565b611b149388614029565b5f808083611942565b506001611b2d876109998a6128ca565b01544211611923565b506001600160a01b03611b4f610b6b886109998b6128ca565b161561191c565b3461052e57602036600319011261052e57600435600a546001600160a01b0316330361077557600754611b93906109e8906001600160a01b031681565b604051634d0f970b60e11b81523060048201526001602482015290602082604481845afa918215610b1c575f92611c54575b506020600491604051928380926306fb495b60e31b82525afa918215610b1c57611c07611bfe8594611c0d945f91611c35575b50612926565b60185490612977565b90612b64565b108015611c2d575b61052e57600555610811611c2842612936565b600655565b508015611c15565b611c4e915060203d602011610b1557610b01818361048e565b5f611bf8565b6004919250611c71602091823d8411610b1557610b01818361048e565b929150611bc5565b805180835260209291819084018484015e5f828201840152601f01601f1916010190565b602081016020825282518091526040820191602060408360051b8301019401925f915b838310611ccf57505050505090565b9091929394602080611ced600193603f198682030187528951611c79565b97019301930191939290611cc0565b3461052e57611d0a36610532565b6002604051602081611d1c818661289c565b5f815203019020015490611d2f82613765565b91611d3d604051938461048e565b808352611d4c601f1991613765565b015f5b818110611db05750505f5b6002611d65836128ae565b0154811015611da25780611d86611d81600193610999866128e7565b6137a9565b611d908286613790565b52611d9b8185613790565b5001611d5a565b604051806106668582611c9d565b806060602080938701015201611d4f565b3461052e575f36600319011261052e57600a546001600160a01b03163381900361077557600654421061052e57600554611dfa91614188565b5f6005819055600655005b3461052e575f36600319011261052e57600a546001600160a01b031633036107755760ff6016541661052e5762015180420180421161076657601755005b3461052e575f36600319011261052e57602061082b613847565b3461052e575f36600319011261052e57600a546001600160a01b0316330361077557601180546001600160a01b03191690555f601255005b3461052e57602061082b611ea836610fdf565b906138b1565b3461052e575f36600319011261052e57601354601454601554604080516001600160a01b03948516815293909216602084015290820152606090f35b3461052e575f36600319011261052e57600a546001600160a01b0316330361077557600f54421061052e57600e5460408051611f5d926001600160a01b0316915f91611f3581610473565b838152826020820152015260018060a01b03166001600160601b0360a01b600d541617600d55565b600e80546001600160a01b03191690555f600f55005b3461052e575f36600319011261052e57600a546001600160a01b0316330361077557601480546001600160a01b03191690555f601555005b3461052e576040611fbb36610532565b6001611fed60208451611fce818661289c565b905f82528281868060a01b03930301902054169385519283809261289c565b5f815203019020015482519182526020820152f35b3461052e57602036600319011261052e5761201b6106ba565b600a546001600160a01b031633036107755760018060a01b03166001600160601b0360a01b600e541617600e5562015180420180421161076657600f55005b3461052e5761012036600319011261052e576120746106ba565b602435906044356001600160401b03811161052e576120979036906004016104ea565b6064356084356001600160401b03811161052e576120b99036906004016104ea565b60a4359060c435926120c9610858565b9461010435976001600160401b03891161052e576120ee6108119936906004016104ea565b976138dd565b3461052e575f36600319011261052e57604060055460065482519182526020820152f35b3461052e5761010036600319011261052e576121326106ba565b6024356001600160401b03811161052e576121519036906004016104ea565b906044356064356084356001600160401b03811161052e576121779036906004016104ea565b60a4359161218361083d565b9360e435966001600160401b03881161052e576121a76108119836906004016104ea565b96613b58565b60206040818301928281528451809452019201905f5b8181106121d05750505090565b909192602060608261220160019488516040809160018060a01b038151168452602081015160208501520151910152565b0194019291016121c3565b3461052e5761221a36610532565b600360405160208161222c818661289c565b5f81520301902001549061223f82613765565b9161224d604051938461048e565b80835261225c601f1991613765565b015f5b8181106122c05750505f5b6003612275836128ae565b01548110156122b25780612296612291600193610999866128ca565b612f2f565b6122a08286613790565b526122ab8185613790565b500161226a565b6040518061066685826121ad565b6020906122cb612f11565b8282870101520161225f565b3461052e57604036600319011261052e576122f06106ba565b6024359060018060a01b03165f52600360205260405f20905f52602052602060ff60405f2054166040519015158152f35b3461052e575f36600319011261052e57600a546001600160a01b0316330361077557601254421061052e5760118054601080546001600160a01b03199081166001600160a01b038416179091551690555f601255005b3461052e5761012036600319011261052e576123916106ba565b602435906044356001600160401b03811161052e576123b49036906004016104ea565b6064356001600160401b03811161052e576123d39036906004016104ea565b60843560a4356001600160401b03811161052e576123f59036906004016104ea565b9060c43592612402610858565b9461010435976001600160401b03891161052e576124276108119936906004016104ea565b97613d19565b3461052e575f36600319011261052e57600b546001600160a01b031633810361052e57600c54421061052e575f6040805161246781610473565b838152602081018390520152600a80546001600160a01b039092166001600160a01b0319928316179055600b805490911690555f600c55005b3461052e576124ae36610d11565b909193926040979597516124c2818a61289c565b5f81528190036020019020546001600160a01b038781169116819003610fd0575f52600360205260405f20875f5260205260ff60405f205416610b825785600160f81b6001600160f81b031961251c600461095a8d6128ae565b161491821561267a575b505061052e57612541600161253a896128ae565b0154612946565b61254a42612957565b1061052e57612565918361255d89613400565b8096886140eb565b60075461257c906109e8906001600160a01b031681565b6040516333b6331760e21b8152336004820152602081602481855afa908115610b1c575f9161265b575b506125cd575b610811610aca866109998760016125c28c6128ae565b016115eb8154612946565b9060206004959492604051968780926306fb495b60e31b82525afa948515610b1c5761081196612626610a78600194610a73610aca9a610999996125c2975f92612632575b5061261f610a6d91612a53565b6064900490565b965050819394506125ac565b610a6d91925061265361261f9160203d602011610b1557610b01818361048e565b929150612612565b612674915060203d602011610fab57610f9d818361048e565b5f6125a6565b612696925090610b4691610e156126908b61459d565b8c614532565b855f612526565b3461052e57602036600319011261052e576126b66106ba565b600a546001600160a01b031633036107755760018060a01b03166001600160601b0360a01b601454161760145562015180420180421161076657601555005b3461052e5760206114ea61270836610532565b613eab565b90602061055c928181520190611c79565b3461052e5761273661272f36610fdf565b91906128e7565b905f5260205260405f20604051905f9080549061275282612e64565b80855291600181169081156127c65750600114612786575b6106668461277a8186038261048e565b6040519182918261270d565b5f90815260208120939250905b8082106127ac5750909150810160200161277a8261276a565b919260018160209254838588010152019101909291612793565b60ff191660208087019190915292151560051b8501909201925061277a915083905061276a565b3461052e575f36600319011261052e57600a546001600160a01b03163303610775575f601755005b3461052e5761282336610532565b5f9060015b1561283e575b6128385f926131c7565b91612828565b60405160208161284e818561289c565b6001815203019020825f52602052600160405f20015461282e57602082604051908152f35b3461052e575f36600319011261052e57604060ff60165416601754825191151582526020820152f35b805191908290602001825e015f815290565b60206128c0916040519283809261289c565b5f81520301902090565b60206128dc916040519283809261289c565b600181520301902090565b60206128f9916040519283809261289c565b600281520301902090565b634e487b7160e01b5f52601160045260245ffd5b906001820180921161076657565b6113db0190816113db1161076657565b9062015180820180921161076657565b906301e28500820180921161076657565b9063bc7bf400820180921161076657565b90610708820180921161076657565b9190820180921161076657565b815181546001600160a01b0319166001600160a01b03919091161781556080906004905b6020840151600182015560408401516002820155606084015160038201550191015160f81c60ff19825416179055565b60046129ee60206080936040519283809261289c565b5f815203019020835181546001600160a01b0319166001600160a01b03919091161781556129a8565b9081602091031261052e575190565b6040513d5f823e3d90fd5b908115600183800414171561076657565b908160050291600583040361076657565b9060328202918083046032149015171561076657565b9081600a0291600a83040361076657565b906103e38202918083046103e3149015171561076657565b90607d820291808304607d149015171561076657565b90816207a12002916207a12083040361076657565b9060058202918083046005149015171561076657565b908160320291603283040361076657565b8181029291811591840414171561076657565b6007546040516306fb495b60e31b81529190602090839060049082906001600160a01b03165afa918215610b1c57610f50612b3f61055c946002935f91612b45575b50612a69565b926128ae565b612b5e915060203d602011610b1557610b01818361048e565b5f612b39565b9190820391821161076657565b6007546040516306fb495b60e31b815290602090829060049082906001600160a01b03165afa908115610b1c575f91612bb7575b5080600a0290600a8204036107665790565b612bd0915060203d602011610b1557610b01818361048e565b5f612ba5565b95929694909360018060a01b0387165f52600360205260405f20855f5260205260ff60405f205416610b8257610b46612c119186858a6141ea565b610fc157612c45945f938880612daa575b5050505060405180948192639201de5560e01b8352600483019190602083019252565b038173__$2586ee71363c751a7dcf59a6d696ae69ac$__5af4918215610b1c57612ccc93610ab1612c84610aca95610999945f91612d88575b50612e1f565b612cc7612c9042612968565b91612c996104af565b6001600160a01b03861681529260208401525f604084018190526060840152600160f81b60808401526128ae565b612984565b600754612ce3906109e8906001600160a01b031681565b6040516333b6331760e21b8152336004820152602081602481855afa908115610b1c575f91612d69575b50612d16575050565b6020600491604051928380926306fb495b60e31b82525afa918215610b1c576104be92610a78925f91612d4a575b50612977565b612d63915060203d602011610b1557610b01818361048e565b5f612d44565b612d82915060203d602011610fab57610f9d818361048e565b5f612d0d565b612da491503d805f833e612d9c818361048e565b810190612dbd565b5f612c7e565b612db49389614029565b5f808088612c22565b60208183031261052e578051906001600160401b03821161052e570181601f8201121561052e57805190612df0826104cf565b92612dfe604051948561048e565b8284526020838301011161052e57815f9260208093018386015e8301015290565b906104be612e4192604051938491600160fe1b6020840152602183019061289c565b03601f19810184528361048e565b9081602091031261052e575161055c81610833565b90600182811c92168015612e92575b6020831014612e7e57565b634e487b7160e01b5f52602260045260245ffd5b91607f1691612e73565b818110612ea7575050565b5f8155600101612e9c565b612ebc8154612e64565b9081612ec6575050565b81601f5f9311600114612ed7575055565b81835260208320612ef391601f0160051c810190600101612e9c565b808252602082209081548360011b9084198560031b1c191617905555565b60405190612f1e82610473565b5f6040838281528260208201520152565b90604051612f3c81610473565b82546001600160a01b03168152600183015460208201526002909201546040830152565b93999798909598969192949660018060a01b0385165f52600360205260405f20875f5260205260ff60405f205416610b82575f99600160f81b6001600160f81b0319612fb0600461095a896128ae565b161480156131b5575b80156131ad575b80156131a3575b61052e57610b46612fdc9189898f898b6142ce565b611757578786612fef94879c969c6140eb565b6130026109e8610b6b836109998b6128ca565b1561301557613010906131c7565b612fef565b956130926004969861303161302986612a7a565b6103e8900490565b6130396104c0565b6001600160a01b0386168152916020830152604082015261305d89610999856128ca565b815181546001600160a01b0319166001600160a01b039190911617815590600290604090602081015160018501550151910155565b6007546020906130ac906109e8906001600160a01b031681565b6040516306fb495b60e31b815297889182905afa958615610b1c57610aac61311b61099995613103610a78610aca9a610a7361055c9d613123985f91613184575b50610a6d6130fa87612a92565b620186a0900490565b610a6d61311261302983612a7a565b91610320900490565b601854612977565b600361312e826128ae565b015487111561314d576131426003916128ae565b016115eb81546131c7565b6003613158826128ae565b015415613166575b50610ab1565b6131716003916128ae565b0161317c81546131c7565b90555f613160565b61319d915060203d602011610b1557610b01818361048e565b5f6130ed565b50428c1115612fc7565b508615612fc0565b506131c2610b4686613385565b612fb9565b5f1981146107665760010190565b6007546131ec906109e8906001600160a01b031681565b6040516306fb495b60e31b8152602081600481855afa8015610b1c576004936002610f50612b3f613226946020965f916132725750612a69565b91604051938480926306fb495b60e31b82525afa908115610b1c5761055c925f926132515750612977565b61326b91925060203d602011610b1557610b01818361048e565b905f612d44565b612b5e9150873d8911610b1557610b01818361048e565b9190601f811161329857505050565b6104be925f5260205f20906020601f840160051c830193106132c2575b601f0160051c0190612e9c565b90915081906132b5565b91909182516001600160401b03811161046e576132ed8161130e8454612e64565b6020601f821160011461332057819061331c9394955f926113485750508160011b915f199060031b1c19161790565b9055565b601f19821690613333845f5260205f2090565b915f5b81811061336d57509583600195969710613355575b505050811b019055565b01515f1960f88460031b161c191690555f808061334b565b9192602060018192868b015181550194019201613336565b600160f81b6001600160f81b03196133a1600461095a856128ae565b16036133eb576001600160a01b036133bb610b6b836128ae565b16159081156133d4575b50156133cf575f90565b600190565b600191506133e1906128ae565b015415155f6133c5565b6133f66001916128ae565b01546133cf575f90565b5f90600161340d826128ae565b0154421161359a576002613430613423836128ca565b5f805260205260405f2090565b0154151580613582575b6134e4575b50806134535750681b1ae4d6e2ef50000090565b600754600490602090613470906109e8906001600160a01b031681565b6040516306fb495b60e31b815292839182905afa908115610b1c575f916134c5575b5061349f61302983612abd565b6134a882612aa8565b10156134b85761055c9150612aa8565b5061302961055c91612abd565b6134de915060203d602011610b1557610b01818361048e565b5f613492565b91905f5b60036134f3856128ae565b01548110156135785742600161350c83610999886128ca565b01541180613557575b613522575b6001016134e8565b81600261353283610999886128ca565b0154111561351a5790506001600261354d83610999876128ca565b015491905061351a565b506001600160a01b03613570610b6b83610999886128ca565b161515613515565b509091505f61343f565b506001613591613423836128ca565b0154151561343a565b50506007546004906020906135b9906109e8906001600160a01b031681565b6040516306fb495b60e31b815292839182905afa8015610b1c5761055c915f916135e4575b50612aa8565b6135fd915060203d602011610b1557610b01818361048e565b5f6135de565b9190918281146136de576136178354612e64565b6001600160401b03811161046e576136338161130e8454612e64565b5f93601f821160011461366d5761331c92939482915f926136625750508160011b915f199060031b1c19161790565b015490505f80611330565b61367f601f198316915f5260205f2090565b9461368d845f5260205f2090565b915f5b8181106136c6575095836001959697106136ae57505050811b019055565b01545f1960f88460031b161c191690555f808061334b565b9192600180602092868b015481550194019201613690565b509050565b8015610766575f190190565b600160f81b6001600160f81b031961370b600461095a856128ae565b1603613750576001600160a01b03613725610b6b836128ae565b1615908115613739575b50156133cf575f80fd5b60019150613746906128ae565b015415155f61372f565b61375b6001916128ae565b01546133cf575f80fd5b6001600160401b03811161046e5760051b60200190565b634e487b7160e01b5f52603260045260245ffd5b80518210156137a45760209160051b010190565b61377c565b9060405191825f8254926137bc84612e64565b808452936001811690811561382557506001146137e1575b506104be9250038361048e565b90505f9291925260205f20905f915b8183106138095750509060206104be928201015f6137d4565b60209193508060019154838589010152019101909184926137f0565b9050602092506104be94915060ff191682840152151560051b8201015f6137d4565b6007546040516306fb495b60e31b815290602090829060049082906001600160a01b03165afa908115610b1c575f91613892575b506064810290808204606414901517156107665790565b6138ab915060203d602011610b1557610b01818361048e565b5f61387b565b906138d7602060405180936138c9838301809761289c565b90815203808452018261048e565b51902090565b949690939791959260018060a01b03861698895f52600360205260405f20865f5260205260ff60405f205416610b8257600a546001600160a01b03168a9003613b38575b61392d610b4689613eab565b613b2957610b466139419187848b8b61446e565b610fc1576139625f93613968938a6139879761395b613847565b908b6140eb565b866138b1565b60405180938192639201de5560e01b8352600483019190602083019252565b038173__$2586ee71363c751a7dcf59a6d696ae69ac$__5af48015610b1c576139b6915f91612d885750612e1f565b946139c66109e8610b6b886128ae565b14801590613b14575b61052e57610999610aca92610ab1613a1f95612cc76139ed42612946565b916139f66104af565b6001600160a01b03861681529260208401525f60408401525f60608401525f60808401526128ae565b600754613a36906109e8906001600160a01b031681565b6040516333b6331760e21b8152336004820152602081602481855afa908115610b1c575f91613af5575b50613a91575b5050613a746104be916128ae565b60045f918281558260018201558260028201558260038201550155565b916020600493604051948580926306fb495b60e31b82525afa928315610b1c57610a78613a7493610a736104be96613ad0945f91613ad6575b50612ad3565b91613a66565b613aef915060203d602011610b1557610b01818361048e565b5f613aca565b613b0e915060203d602011610fab57610f9d818361048e565b5f613a60565b506001613b20866128ae565b015442106139cf565b633efbb39b60e11b5f5260045ffd5b613b44610b46896143d7565b1561392157630a1de65160e31b5f5260045ffd5b93979591979692909660018060a01b038516805f52600360205260405f20835f5260205260ff60405f205416610b8257604051613b95818b61289c565b5f81528190036020019020546001600160a01b031603610fd057846001613bbb8a6128ae565b0154421091821592613cf3575b8215613cd1575b5050905061052e5786613bec9385613be6896131d5565b916140eb565b5f5b6002613bf9856128ae565b0154811015613c1b5780613c15610e6e600193610999886128e7565b01613bee565b506007549193600492602090613c3b906109e8906001600160a01b031681565b6040516306fb495b60e31b815294859182905afa938415610b1c57613c85610a78613cbe93610a73613c7a6104be99610aca995f916116875750612a42565b6002610f50876128ae565b612cc76003613c93836128ae565b015491613c9e6104af565b925f84525f60208501525f604085015260608401525f60808401526128ae565b335f908152600360205260409020610999565b610b469250610e15613ce5613ceb9561459d565b8b6144bc565b80845f613bcf565b9150600160f81b6001600160f81b0319613d11600461095a8d6128ae565b161491613bc8565b959294979197969096604051613d2f818b61289c565b5f81528190036020019020546001600160a01b038881169116819003610fd0575f52600360205260405f20885f5260205260ff60405f205416610b8257610b4687613d8892610e158c8a613d828e61459d565b916144f5565b61052e5784511561052e5783613da0936115a0612b71565b600754613db7906109e8906001600160a01b031681565b6040516333b6331760e21b8152336004820152602081602481855afa908115610b1c575f91613e8c575b50613e19575b5050610aca92916002613142866115db61099995613e14613e0a6104be9b6128e7565b86611749866128ae565b6132cc565b602060049160409695939651928380926306fb495b60e31b82525afa908115610b1c576104be966115db61099995613e7d610a78610aca9a610a73613e6a600299613142995f916116875750612a42565b610a6d61261f613e78612b71565b612a53565b95505096505081939450613de7565b613ea5915060203d602011610fab57610f9d818361048e565b5f613de1565b6001604051602081613ebd818661289c565b5f8152030190200154613ed05750600190565b613ee460206001926040519283809261289c565b5f8152030190200154624f1a00810180911161076657421190565b92613f5391613f61610e15926001613f53613f26613f2061055c9b9961459d565b9361459d565b928260405198899767323138313136303960c01b60208a0152600b60fa1b60288a0152602989019061289c565b600b60fa1b8152019061289c565b03601f19810183528261048e565b6001600160a01b0391821681529181166020830152610100604083018190525f9083015260016060830152608082019290925260a081019290925290911660c082015261012060e0820181905261055c92910190611c79565b6001600160a01b0391821681529181166020830152610120604083018190525f9083015260016060830152608082019290925260a081019290925260c0820192909252911660e0820152610140610100820181905261055c92910190611c79565b9392909190156140a15760075461404a906109e8906001600160a01b031681565b90813b1561052e575f80949161407c82936040519889978896879563f4e1895b60e01b87523093309060048901613fc8565b03925af18015610b1c5761408d5750565b8061409b5f6104be9361048e565b806105be565b919290506140bc6109e86109e860075460018060a01b031690565b803b1561052e575f80809461407c604051978896879586946327d50fd160e11b86523092309060048801613f6f565b9491939092901561413d5760075461410d906109e8906001600160a01b031681565b91823b1561052e575f9461407c86926040519889978896879563f4e1895b60e01b87523093309060048901613fc8565b6007549194925090614159906109e8906001600160a01b031681565b90813b1561052e575f809461407c604051978896879586946327d50fd160e11b86523092309060048801613f6f565b6007546001600160a01b031691823b1561052e5760405163c898a6e960e01b81526001600160a01b039092166004830152600160248301526044820152905f908290606490829084905af18015610b1c576141e05750565b5f6104be9161048e565b9192909260405193639201de5560e01b855260048501525f8460248173__$2586ee71363c751a7dcf59a6d696ae69ac$__5af4938415610b1c5761055c94613f5392610e15925f92614271575b50614244613f619161459d565b600160405195869467311b1b1bb19c183160c11b6020870152600b60fa1b6028870152602986019061289c565b613f6191925061428d614244913d805f833e612d9c818361048e565b929150614237565b6104be90612e41613f539493600160405196879467336537383939613160c01b6020870152600b60fa1b6028870152602986019061289c565b9390613f6161055c96946001613f53610e159582613f536142fd613f206142f7613f539c61459d565b9761459d565b95826040519b8c9a67353236343963326560c01b60208d0152600b60fa1b60288d015260298c019061289c565b92613f5391613f61610e15926001613f5361434b613f2061055c9b9961459d565b928260405198899767383030316139393960c01b60208a0152600b60fa1b60288a0152602989019061289c565b92613f5391613f61610e15926001613f53614399613f2061055c9b9961459d565b92826040519889976730b2999b33329b9960c11b60208a0152600b60fa1b60288a0152602989019061289c565b9081518110156137a4570160200190565b80516004811061052e57156137a457602081015161440790610b46906001600160f81b03191661483d565b61483d565b61052e575f5b81518110156144675761443c610b4661443761442984866143c6565b516001600160f81b03191690565b61488a565b8061444e575b61052e5760010161440d565b50614462610b4661440261442984866143c6565b614442565b5050600190565b92613f5391613f61610e15926001613f5361448f613f2061055c9b9961459d565b928260405198899767373566373531636560c01b60208a0152600b60fa1b60288a0152602989019061289c565b6104be90612e41613f539493600160405196879467643232633831366360c01b6020870152600b60fa1b6028870152602986019061289c565b612e41613f5394936001613f536104be9582604051998a9767653665666566666160c01b60208a0152600b60fa1b60288a0152602989019061289c565b6104be90612e41613f539493600160405196879467663137343734383360c01b6020870152600b60fa1b6028870152602986019061289c565b90614575826104cf565b614582604051918261048e565b8281528092614593601f19916104cf565b0190602036910137565b805f9172184f03e93ff9f4daa797ed6e38ed64bf6a1f0160401b8210156146d0575b806d04ee2d6d415b85acef8100000000600a9210156146b4575b662386f26fc1000081101561469f575b6305f5e10081101561468d575b61271081101561467d575b606481101561466e575b1015614663575b61464e60216146236001850161456b565b938401015b5f1901916f181899199a1a9b1b9c1cb0b131b232b360811b600a82061a8353600a900490565b801561465e5761464e9091614628565b505090565b600190910190614612565b6002906064900493019261460b565b6004906127109004930192614601565b6008906305f5e10090049301926145f6565b601090662386f26fc1000090049301926145e9565b6020906d04ee2d6d415b85acef810000000090049301926145d9565b506040915072184f03e93ff9f4daa797ed6e38ed64bf6a1f0160401b81046145bf565b613f61614745614703835161459d565b9260405192839161473f60208401967f19457468657265756d205369676e6564204d6573736167653a0a0000000000008852603a85019061289c565b9061289c565b51902060418251036147f857815f916020809401519160606040820151910151841a92601b84106147e1575b906147b59161478f60ff8616601b81149081156147d6575b506148c0565b604051948594859094939260ff6060936080840197845216602083015260408201520152565b838052039060015afa15610b1c575f516001600160a01b0390811691161490565b601c9150145f614789565b92906147ef6147b5926148ae565b93909150614771565b60405162461bcd60e51b815260206004820152601860248201527f496e76616c6964207369676e6174757265206c656e67746800000000000000006044820152606490fd5b60ff60f81b16604160f81b811015908161487b575b811561485c575090565b606160f81b81101591508161486f575090565b603d60f91b1015905090565b602d60f91b8111159150614852565b60ff60f81b16600360fc1b81101590816148a2575090565b603960f81b1015919050565b60ff601b9116019060ff821161076657565b156148c757565b60405162461bcd60e51b815260206004820152601760248201527f496e76616c6964207369676e61747572652076616c75650000000000000000006044820152606490fdfea2646970667358221220bb412953b92dbdaf148612b2eb8e1f9a4b3c0e59bf58b61c049bcd32c806683464736f6c634300081a0033","linkReferences":{"src/libraries/AdvancedStrings.sol":{"AdvancedStrings":[{"start":11515,"length":20},{"start":14909,"length":20},{"start":17082,"length":20}]}}},"methodIdentifiers":{"_setIdentityBaseMetadata(string,(address,uint256,uint256,uint256,bytes1))":"1de25a89","_setIdentityCustomMetadata(string,uint256,string)":"6196fc67","acceptChangeEvvmAddress()":"48ffba55","acceptOffer(address,uint256,string,uint256,uint256,bytes,uint256,bool,bytes)":"ae36fe72","acceptProposeAdmin()":"eba5e53e","addCustomMetadata(address,uint256,string,string,uint256,bytes,uint256,bool,bytes)":"e6efeffa","cancelChangeAutority()":"c150741e","cancelChangeEmailRegistery()":"b88dc004","cancelChangeEvvmAddress()":"24866f15","cancelChangePhoneNumberRegistery()":"2e76af5c","cancelProposeAdmin()":"88ecb91f","cancelSetStopChangeVerificationsAddress()":"f7b2efb5","cancelWithdrawMateTokens()":"81bb2df3","changeAutority()":"331a3989","changeEmailRegistery()":"dfb91dea","changePhoneNumberRegistery()":"c12615bb","checkIfMNSNonceIsAvailable(address,uint256)":"debeef5c","claimWithdrawMateTokens()":"b2bc0ed6","flushCustomMetadata(address,uint256,string,uint256,bytes,uint256,bool,bytes)":"3e7899a1","flushUsername(address,string,uint256,uint256,bytes,uint256,bool,bytes)":"d22c816c","getAdmin()":"6e9960c3","getAdminFullDetails()":"5548a762","getAmountOfCustomMetadata(string)":"6b5bb1ca","getAutority()":"10e5c25f","getAutorityFullDetails()":"bf2e9ab5","getCustomMetadataMaxSlotsOfIdentity(string)":"7bd9da7a","getEmailRegistery()":"11eed714","getEmailRegisteryFullDetails()":"6413033f","getEvvmAddress()":"0d1ffe3a","getEvvmAddressFullDetails()":"49166379","getExpireDateOfUsername(string)":"6a74ca46","getFullCustomMetadataOfIdentity(string)":"b19517dd","getIdentityBasicMetadata(string)":"c97da33e","getLengthOfOffersUsername(string)":"fe7ab683","getOffersOfUsername(string)":"d7fd3134","getOwnerOfIdentity(string)":"0d3dcb9f","getPhoneNumberRegistery()":"35834e10","getPhoneNumberRegisteryFullDetails()":"10d8bb09","getPricePerRegistration()":"b8086f98","getPriceToAddCustomMetadata()":"36e7a1b8","getPriceToFlushCustomMetadata(string)":"1f4131fb","getPriceToFlushUsername(string)":"54dc585d","getPriceToRemoveCustomMetadata()":"99e7bac2","getProposedWithdrawAmountFullDetails()":"d2234a1a","getSingleCustomMetadataOfIdentity(string,uint256)":"f6d0ecbe","getSingleOfferOfUsername(string,uint256)":"43a82d67","getStopChangeVerificationsAddressFullDetails()":"ff9794f0","hashUsername(string,uint256)":"bcd5a47c","isUsernameAvailable(string)":"f69c6dec","makeOffer(address,uint256,string,uint256,uint256,uint256,bytes,uint256,bool,bytes)":"52649c2e","preRegistrationUsername(address,uint256,bytes32,uint256,bytes,uint256,bool,bytes)":"393b9c6f","prepareChangeAutority(address)":"f559b24e","prepareChangeEmailRegistery(address)":"a893b5ec","proposeAdmin(address)":"147bf6c4","proposeChangeEvvmAddress(address)":"a6ba51ca","proposeChangePhoneNumberRegistery(address)":"cf97ed1a","proposeSetStopChangeVerificationsAddress()":"b7e5296d","proposeWithdrawMateTokens(uint256)":"b0d107da","registrationUsername(address,uint256,string,uint256,bytes,uint256,uint256,bool,bytes)":"d134f8b4","removeCustomMetadata(address,uint256,string,uint256,uint256,bytes,uint256,bool,bytes)":"8001a999","renewUsername(address,uint256,string,uint256,bytes,uint256,bool,bytes)":"f1747483","seePriceToRenew(string)":"75dab53b","setStopChangeVerificationsAddress()":"6a582c30","strictVerifyIfIdentityExist(string)":"86c8ac58","verifyIfIdentityExists(string)":"7126b2a3","verifyStrictAndGetOwnerOfIdentity(string)":"0c78d2c6","withdrawOffer(address,uint256,string,uint256,uint256,bytes,uint256,bool,bytes)":"21811609"},"id":80}