{"abi":[{"type":"constructor","inputs":[{"name":"_evvmAddress","type":"address","internalType":"address"},{"name":"_initialOwner","type":"address","internalType":"address"}],"stateMutability":"nonpayable"},{"type":"function","name":"acceptChangeEvvmAddress","inputs":[],"outputs":[],"stateMutability":"nonpayable"},{"type":"function","name":"acceptOffer","inputs":[{"name":"_user","type":"address","internalType":"address"},{"name":"_nonce","type":"uint256","internalType":"uint256"},{"name":"_username","type":"string","internalType":"string"},{"name":"_offerID","type":"uint256","internalType":"uint256"},{"name":"_priorityFeeForFisher","type":"uint256","internalType":"uint256"},{"name":"_signature","type":"bytes","internalType":"bytes"},{"name":"_nonce_Evvm","type":"uint256","internalType":"uint256"},{"name":"_priority_Evvm","type":"bool","internalType":"bool"},{"name":"_signature_Evvm","type":"bytes","internalType":"bytes"}],"outputs":[],"stateMutability":"nonpayable"},{"type":"function","name":"acceptProposeAdmin","inputs":[],"outputs":[],"stateMutability":"nonpayable"},{"type":"function","name":"addCustomMetadata","inputs":[{"name":"_user","type":"address","internalType":"address"},{"name":"_nonce","type":"uint256","internalType":"uint256"},{"name":"_identity","type":"string","internalType":"string"},{"name":"_value","type":"string","internalType":"string"},{"name":"_priorityFeeForFisher","type":"uint256","internalType":"uint256"},{"name":"_signature","type":"bytes","internalType":"bytes"},{"name":"_nonce_Evvm_forAddCustomMetadata","type":"uint256","internalType":"uint256"},{"name":"_priority_Evvm_forAddCustomMetadata","type":"bool","internalType":"bool"},{"name":"_signature_Evvm_forAddCustomMetadata","type":"bytes","internalType":"bytes"}],"outputs":[],"stateMutability":"nonpayable"},{"type":"function","name":"cancelChangeAutority","inputs":[],"outputs":[],"stateMutability":"nonpayable"},{"type":"function","name":"cancelChangeEmailRegistery","inputs":[],"outputs":[],"stateMutability":"nonpayable"},{"type":"function","name":"cancelChangeEvvmAddress","inputs":[],"outputs":[],"stateMutability":"nonpayable"},{"type":"function","name":"cancelChangePhoneNumberRegistery","inputs":[],"outputs":[],"stateMutability":"nonpayable"},{"type":"function","name":"cancelProposeAdmin","inputs":[],"outputs":[],"stateMutability":"nonpayable"},{"type":"function","name":"cancelSetStopChangeVerificationsAddress","inputs":[],"outputs":[],"stateMutability":"nonpayable"},{"type":"function","name":"cancelWithdrawMateTokens","inputs":[],"outputs":[],"stateMutability":"nonpayable"},{"type":"function","name":"changeAutority","inputs":[],"outputs":[],"stateMutability":"nonpayable"},{"type":"function","name":"changeEmailRegistery","inputs":[],"outputs":[],"stateMutability":"nonpayable"},{"type":"function","name":"changePhoneNumberRegistery","inputs":[],"outputs":[],"stateMutability":"nonpayable"},{"type":"function","name":"checkIfMNSNonceIsAvailable","inputs":[{"name":"_user","type":"address","internalType":"address"},{"name":"_nonce","type":"uint256","internalType":"uint256"}],"outputs":[{"name":"","type":"bool","internalType":"bool"}],"stateMutability":"view"},{"type":"function","name":"claimTransferEmail","inputs":[{"name":"_email","type":"string","internalType":"string"}],"outputs":[],"stateMutability":"nonpayable"},{"type":"function","name":"claimTransferTelephoneNumber","inputs":[{"name":"_phoneNumber","type":"string","internalType":"string"}],"outputs":[],"stateMutability":"nonpayable"},{"type":"function","name":"claimWithdrawMateTokens","inputs":[],"outputs":[],"stateMutability":"nonpayable"},{"type":"function","name":"flushCustomMetadata","inputs":[{"name":"_user","type":"address","internalType":"address"},{"name":"_nonce","type":"uint256","internalType":"uint256"},{"name":"_identity","type":"string","internalType":"string"},{"name":"_priorityFeeForFisher","type":"uint256","internalType":"uint256"},{"name":"_signature","type":"bytes","internalType":"bytes"},{"name":"_nonce_Evvm","type":"uint256","internalType":"uint256"},{"name":"_priority_Evvm","type":"bool","internalType":"bool"},{"name":"_signature_Evvm","type":"bytes","internalType":"bytes"}],"outputs":[],"stateMutability":"nonpayable"},{"type":"function","name":"flushUsername","inputs":[{"name":"_user","type":"address","internalType":"address"},{"name":"_identity","type":"string","internalType":"string"},{"name":"_priorityFeeForFisher","type":"uint256","internalType":"uint256"},{"name":"_nonce","type":"uint256","internalType":"uint256"},{"name":"_signature","type":"bytes","internalType":"bytes"},{"name":"_nonce_Evvm","type":"uint256","internalType":"uint256"},{"name":"_priority_Evvm","type":"bool","internalType":"bool"},{"name":"_signature_Evvm","type":"bytes","internalType":"bytes"}],"outputs":[],"stateMutability":"nonpayable"},{"type":"function","name":"getAdmin","inputs":[],"outputs":[{"name":"","type":"address","internalType":"address"}],"stateMutability":"view"},{"type":"function","name":"getAdminFullDetails","inputs":[],"outputs":[{"name":"currentAdmin","type":"address","internalType":"address"},{"name":"proposalAdmin","type":"address","internalType":"address"},{"name":"timeToAcceptAdmin","type":"uint256","internalType":"uint256"}],"stateMutability":"view"},{"type":"function","name":"getAmountOfCustomMetadata","inputs":[{"name":"_username","type":"string","internalType":"string"}],"outputs":[{"name":"","type":"uint256","internalType":"uint256"}],"stateMutability":"view"},{"type":"function","name":"getAutority","inputs":[],"outputs":[{"name":"","type":"address","internalType":"address"}],"stateMutability":"view"},{"type":"function","name":"getAutorityFullDetails","inputs":[],"outputs":[{"name":"currentAutority","type":"address","internalType":"address"},{"name":"proposalAutority","type":"address","internalType":"address"},{"name":"timeToAcceptAutority","type":"uint256","internalType":"uint256"}],"stateMutability":"view"},{"type":"function","name":"getCustomMetadataMaxSlotsOfIdentity","inputs":[{"name":"_username","type":"string","internalType":"string"}],"outputs":[{"name":"","type":"uint256","internalType":"uint256"}],"stateMutability":"view"},{"type":"function","name":"getEmailRegistery","inputs":[],"outputs":[{"name":"","type":"address","internalType":"address"}],"stateMutability":"view"},{"type":"function","name":"getEmailRegisteryFullDetails","inputs":[],"outputs":[{"name":"currentEmailRegistery","type":"address","internalType":"address"},{"name":"proposalEmailRegistery","type":"address","internalType":"address"},{"name":"timeToAcceptEmailRegistery","type":"uint256","internalType":"uint256"}],"stateMutability":"view"},{"type":"function","name":"getEvvmAddress","inputs":[],"outputs":[{"name":"","type":"address","internalType":"address"}],"stateMutability":"view"},{"type":"function","name":"getEvvmAddressFullDetails","inputs":[],"outputs":[{"name":"currentEvvmAddress","type":"address","internalType":"address"},{"name":"proposalEvvmAddress","type":"address","internalType":"address"},{"name":"timeToAcceptEvvmAddress","type":"uint256","internalType":"uint256"}],"stateMutability":"view"},{"type":"function","name":"getExpireDateOfUsername","inputs":[{"name":"_phoneNumber","type":"string","internalType":"string"}],"outputs":[{"name":"","type":"uint256","internalType":"uint256"}],"stateMutability":"view"},{"type":"function","name":"getFullCustomMetadataOfIdentity","inputs":[{"name":"_username","type":"string","internalType":"string"}],"outputs":[{"name":"","type":"string[]","internalType":"string[]"}],"stateMutability":"view"},{"type":"function","name":"getIdentityBasicMetadata","inputs":[{"name":"_username","type":"string","internalType":"string"}],"outputs":[{"name":"","type":"address","internalType":"address"},{"name":"","type":"uint256","internalType":"uint256"}],"stateMutability":"view"},{"type":"function","name":"getLengthOfOffersUsername","inputs":[{"name":"_username","type":"string","internalType":"string"}],"outputs":[{"name":"length","type":"uint256","internalType":"uint256"}],"stateMutability":"view"},{"type":"function","name":"getOffersOfUsername","inputs":[{"name":"_username","type":"string","internalType":"string"}],"outputs":[{"name":"offers","type":"tuple[]","internalType":"struct MateNameService.OfferMetadata[]","components":[{"name":"offerer","type":"address","internalType":"address"},{"name":"expireDate","type":"uint256","internalType":"uint256"},{"name":"amount","type":"uint256","internalType":"uint256"}]}],"stateMutability":"view"},{"type":"function","name":"getOwnerOfIdentity","inputs":[{"name":"_username","type":"string","internalType":"string"}],"outputs":[{"name":"","type":"address","internalType":"address"}],"stateMutability":"view"},{"type":"function","name":"getPhoneNumberRegistery","inputs":[],"outputs":[{"name":"","type":"address","internalType":"address"}],"stateMutability":"view"},{"type":"function","name":"getPhoneNumberRegisteryFullDetails","inputs":[],"outputs":[{"name":"currentPhoneNumberRegistery","type":"address","internalType":"address"},{"name":"proposalPhoneNumberRegistery","type":"address","internalType":"address"},{"name":"timeToAcceptPhoneNumberRegistery","type":"uint256","internalType":"uint256"}],"stateMutability":"view"},{"type":"function","name":"getPricePerRegistration","inputs":[],"outputs":[{"name":"","type":"uint256","internalType":"uint256"}],"stateMutability":"view"},{"type":"function","name":"getPriceToAddCustomMetadata","inputs":[],"outputs":[{"name":"price","type":"uint256","internalType":"uint256"}],"stateMutability":"view"},{"type":"function","name":"getPriceToFlushCustomMetadata","inputs":[{"name":"_identity","type":"string","internalType":"string"}],"outputs":[{"name":"price","type":"uint256","internalType":"uint256"}],"stateMutability":"view"},{"type":"function","name":"getPriceToFlushUsername","inputs":[{"name":"_identity","type":"string","internalType":"string"}],"outputs":[{"name":"price","type":"uint256","internalType":"uint256"}],"stateMutability":"view"},{"type":"function","name":"getPriceToRemoveCustomMetadata","inputs":[],"outputs":[{"name":"price","type":"uint256","internalType":"uint256"}],"stateMutability":"view"},{"type":"function","name":"getProposedWithdrawAmountFullDetails","inputs":[],"outputs":[{"name":"proposalAmountToWithdrawTokens","type":"uint256","internalType":"uint256"},{"name":"timeToAcceptAmountToWithdrawTokens","type":"uint256","internalType":"uint256"}],"stateMutability":"view"},{"type":"function","name":"getSingleCustomMetadataOfIdentity","inputs":[{"name":"_username","type":"string","internalType":"string"},{"name":"_key","type":"uint256","internalType":"uint256"}],"outputs":[{"name":"","type":"string","internalType":"string"}],"stateMutability":"view"},{"type":"function","name":"getSingleOfferOfUsername","inputs":[{"name":"_username","type":"string","internalType":"string"},{"name":"_offerID","type":"uint256","internalType":"uint256"}],"outputs":[{"name":"offer","type":"tuple","internalType":"struct MateNameService.OfferMetadata","components":[{"name":"offerer","type":"address","internalType":"address"},{"name":"expireDate","type":"uint256","internalType":"uint256"},{"name":"amount","type":"uint256","internalType":"uint256"}]}],"stateMutability":"view"},{"type":"function","name":"getStopChangeVerificationsAddressFullDetails","inputs":[],"outputs":[{"name":"flag","type":"bool","internalType":"bool"},{"name":"timeToAcceptChange","type":"uint256","internalType":"uint256"}],"stateMutability":"view"},{"type":"function","name":"hashUsername","inputs":[{"name":"_username","type":"string","internalType":"string"},{"name":"_randomNumber","type":"uint256","internalType":"uint256"}],"outputs":[{"name":"","type":"bytes32","internalType":"bytes32"}],"stateMutability":"pure"},{"type":"function","name":"isUsernameAvailable","inputs":[{"name":"_username","type":"string","internalType":"string"}],"outputs":[{"name":"","type":"bool","internalType":"bool"}],"stateMutability":"view"},{"type":"function","name":"makeOffer","inputs":[{"name":"_user","type":"address","internalType":"address"},{"name":"_nonce","type":"uint256","internalType":"uint256"},{"name":"_username","type":"string","internalType":"string"},{"name":"_amount","type":"uint256","internalType":"uint256"},{"name":"_expireDate","type":"uint256","internalType":"uint256"},{"name":"_priorityFeeForFisher","type":"uint256","internalType":"uint256"},{"name":"_signature","type":"bytes","internalType":"bytes"},{"name":"_nonce_Evvm","type":"uint256","internalType":"uint256"},{"name":"_priority_Evvm","type":"bool","internalType":"bool"},{"name":"_signature_Evvm","type":"bytes","internalType":"bytes"}],"outputs":[{"name":"offerID","type":"uint256","internalType":"uint256"}],"stateMutability":"nonpayable"},{"type":"function","name":"preRegistrationUsername","inputs":[{"name":"_user","type":"address","internalType":"address"},{"name":"_nonce","type":"uint256","internalType":"uint256"},{"name":"_hashUsername","type":"bytes32","internalType":"bytes32"},{"name":"_priorityFeeForFisher","type":"uint256","internalType":"uint256"},{"name":"_signature","type":"bytes","internalType":"bytes"},{"name":"_nonce_Evvm","type":"uint256","internalType":"uint256"},{"name":"_priority_Evvm","type":"bool","internalType":"bool"},{"name":"_signature_Evvm","type":"bytes","internalType":"bytes"}],"outputs":[],"stateMutability":"nonpayable"},{"type":"function","name":"prepareChangeAutority","inputs":[{"name":"_newAddress","type":"address","internalType":"address"}],"outputs":[],"stateMutability":"nonpayable"},{"type":"function","name":"prepareChangeEmailRegistery","inputs":[{"name":"_newAddress","type":"address","internalType":"address"}],"outputs":[],"stateMutability":"nonpayable"},{"type":"function","name":"proposeAdmin","inputs":[{"name":"_adminToPropose","type":"address","internalType":"address"}],"outputs":[],"stateMutability":"nonpayable"},{"type":"function","name":"proposeChangeEvvmAddress","inputs":[{"name":"_newEvvmAddress","type":"address","internalType":"address"}],"outputs":[],"stateMutability":"nonpayable"},{"type":"function","name":"proposeChangePhoneNumberRegistery","inputs":[{"name":"_newAddress","type":"address","internalType":"address"}],"outputs":[],"stateMutability":"nonpayable"},{"type":"function","name":"proposeSetStopChangeVerificationsAddress","inputs":[],"outputs":[],"stateMutability":"nonpayable"},{"type":"function","name":"proposeWithdrawMateTokens","inputs":[{"name":"_amount","type":"uint256","internalType":"uint256"}],"outputs":[],"stateMutability":"nonpayable"},{"type":"function","name":"registrationEmail","inputs":[{"name":"_user","type":"address","internalType":"address"},{"name":"_nonce","type":"uint256","internalType":"uint256"},{"name":"_email","type":"string","internalType":"string"},{"name":"_timestampUser","type":"uint256","internalType":"uint256"},{"name":"_signatureUser","type":"bytes","internalType":"bytes"},{"name":"_timestampAuthority","type":"uint256","internalType":"uint256"},{"name":"_signatureAuthority","type":"bytes","internalType":"bytes"},{"name":"_priorityFeeForFisher","type":"uint256","internalType":"uint256"},{"name":"_nonce_Evvm","type":"uint256","internalType":"uint256"},{"name":"_priority_Evvm","type":"bool","internalType":"bool"},{"name":"_signature_Evvm","type":"bytes","internalType":"bytes"}],"outputs":[],"stateMutability":"nonpayable"},{"type":"function","name":"registrationTelephoneNumber","inputs":[{"name":"_user","type":"address","internalType":"address"},{"name":"_nonce","type":"uint256","internalType":"uint256"},{"name":"_phoneNumber","type":"string","internalType":"string"},{"name":"_timestampUser","type":"uint256","internalType":"uint256"},{"name":"_signatureUser","type":"bytes","internalType":"bytes"},{"name":"_timestampAuthority","type":"uint256","internalType":"uint256"},{"name":"_signatureAuthority","type":"bytes","internalType":"bytes"},{"name":"_priorityFeeForFisher","type":"uint256","internalType":"uint256"},{"name":"_nonce_Evvm","type":"uint256","internalType":"uint256"},{"name":"_priority_Evvm","type":"bool","internalType":"bool"},{"name":"_signature_Evvm","type":"bytes","internalType":"bytes"}],"outputs":[],"stateMutability":"nonpayable"},{"type":"function","name":"registrationUsername","inputs":[{"name":"_user","type":"address","internalType":"address"},{"name":"_nonce","type":"uint256","internalType":"uint256"},{"name":"_username","type":"string","internalType":"string"},{"name":"_clowNumber","type":"uint256","internalType":"uint256"},{"name":"_signature","type":"bytes","internalType":"bytes"},{"name":"_priorityFeeForFisher","type":"uint256","internalType":"uint256"},{"name":"_nonce_Evvm","type":"uint256","internalType":"uint256"},{"name":"_priority_Evvm","type":"bool","internalType":"bool"},{"name":"_signature_Evvm","type":"bytes","internalType":"bytes"}],"outputs":[],"stateMutability":"nonpayable"},{"type":"function","name":"removeCustomMetadata","inputs":[{"name":"_user","type":"address","internalType":"address"},{"name":"_nonce","type":"uint256","internalType":"uint256"},{"name":"_identity","type":"string","internalType":"string"},{"name":"_key","type":"uint256","internalType":"uint256"},{"name":"_priorityFeeForFisher","type":"uint256","internalType":"uint256"},{"name":"_signature","type":"bytes","internalType":"bytes"},{"name":"_nonce_Evvm","type":"uint256","internalType":"uint256"},{"name":"_priority_Evvm","type":"bool","internalType":"bool"},{"name":"_signature_Evvm","type":"bytes","internalType":"bytes"}],"outputs":[],"stateMutability":"nonpayable"},{"type":"function","name":"renewUsername","inputs":[{"name":"_user","type":"address","internalType":"address"},{"name":"_nonce","type":"uint256","internalType":"uint256"},{"name":"_username","type":"string","internalType":"string"},{"name":"_priorityFeeForFisher","type":"uint256","internalType":"uint256"},{"name":"_signature","type":"bytes","internalType":"bytes"},{"name":"_nonce_Evvm","type":"uint256","internalType":"uint256"},{"name":"_priority_Evvm","type":"bool","internalType":"bool"},{"name":"_signature_Evvm","type":"bytes","internalType":"bytes"}],"outputs":[],"stateMutability":"nonpayable"},{"type":"function","name":"reverseTransferEmail","inputs":[{"name":"_user","type":"address","internalType":"address"},{"name":"_nonce","type":"uint256","internalType":"uint256"},{"name":"_email","type":"string","internalType":"string"},{"name":"_timestamp","type":"uint256","internalType":"uint256"},{"name":"_signature","type":"bytes","internalType":"bytes"}],"outputs":[],"stateMutability":"nonpayable"},{"type":"function","name":"reverseTransferTelephoneNumber","inputs":[{"name":"_user","type":"address","internalType":"address"},{"name":"_nonce","type":"uint256","internalType":"uint256"},{"name":"_phoneNumber","type":"string","internalType":"string"},{"name":"_timestamp","type":"uint256","internalType":"uint256"},{"name":"_signature","type":"bytes","internalType":"bytes"}],"outputs":[],"stateMutability":"nonpayable"},{"type":"function","name":"seePriceToRenew","inputs":[{"name":"_identity","type":"string","internalType":"string"}],"outputs":[{"name":"price","type":"uint256","internalType":"uint256"}],"stateMutability":"view"},{"type":"function","name":"setStopChangeVerificationsAddress","inputs":[],"outputs":[],"stateMutability":"nonpayable"},{"type":"function","name":"strictVerifyIfIdentityExist","inputs":[{"name":"_username","type":"string","internalType":"string"}],"outputs":[{"name":"","type":"bool","internalType":"bool"}],"stateMutability":"view"},{"type":"function","name":"verifyIfIdentityExists","inputs":[{"name":"_identity","type":"string","internalType":"string"}],"outputs":[{"name":"","type":"bool","internalType":"bool"}],"stateMutability":"view"},{"type":"function","name":"verifyStrictAndGetOwnerOfIdentity","inputs":[{"name":"_username","type":"string","internalType":"string"}],"outputs":[{"name":"answer","type":"address","internalType":"address"}],"stateMutability":"view"},{"type":"function","name":"withdrawOffer","inputs":[{"name":"_user","type":"address","internalType":"address"},{"name":"_nonce","type":"uint256","internalType":"uint256"},{"name":"_username","type":"string","internalType":"string"},{"name":"_offerID","type":"uint256","internalType":"uint256"},{"name":"_priorityFeeForFisher","type":"uint256","internalType":"uint256"},{"name":"_signature","type":"bytes","internalType":"bytes"},{"name":"_nonce_Evvm","type":"uint256","internalType":"uint256"},{"name":"_priority_Evvm","type":"bool","internalType":"bool"},{"name":"_signature_Evvm","type":"bytes","internalType":"bytes"}],"outputs":[],"stateMutability":"nonpayable"}],"bytecode":{"object":"0x608034608657601f61582c38819003918201601f19168301916001600160401b03831184841017608a578084926040948552833981010312608657604b6020604583609e565b9201609e565b600780546001600160a01b039384166001600160a01b031991821617909155600a805492909316911617905560405161577a90816100b28239f35b5f80fd5b634e487b7160e01b5f52604160045260245ffd5b51906001600160a01b038216820360865756fe60806040526004361015610011575f80fd5b5f3560e01c80630c78d2c61461047a5780630d1ffe3a146104755780630d3dcb9f1461047057806310d8bb091461046b57806310e5c25f1461046657806311eed71414610461578063147bf6c41461045c5780631f4131fb14610457578063218116091461045257806324866f151461044d57806327f8290d146104485780632e76af5c14610443578063331a39891461043e57806335834e101461043957806336e7a1b8146103c1578063393b9c6f146104345780633e7899a11461042f57806343a82d671461042a57806348ffba5514610425578063491663791461042057806349973b191461041b57806352649c2e1461041657806354dc585d146104115780635548a7621461040c5780636413033f146104075780636a582c30146104025780636a74ca46146103fd5780636b5bb1ca146103e45780636e9960c3146103f85780637126b2a3146103f357806375dab53b146103ee57806376de08a1146103e95780637bd9da7a146103e45780638001a999146103df5780638104625d146103da57806381bb2df3146103d557806386c8ac58146103d057806388ecb91f146103cb578063950f80b1146103c657806399e7bac2146103c1578063a6ba51ca146103bc578063a893b5ec146103b7578063aa5ae794146103b2578063ae36fe72146103ad578063b0d107da146103a8578063b19517dd146103a3578063b2bc0ed61461039e578063b7e5296d14610399578063b8086f9814610394578063b88dc0041461038f578063bcd5a47c1461038a578063bf2e9ab514610385578063c12615bb14610380578063c150741e1461037b578063c97da33e14610376578063cf97ed1a14610371578063d134f8b41461036c578063d2234a1a14610367578063d22c816c14610362578063d7fd31341461035d578063debeef5c14610358578063dfb91dea14610353578063e6efeffa1461034e578063eba5e53e14610349578063f174748314610344578063f559b24e1461033f578063f69c6dec1461033a578063f6d0ecbe14610335578063f7b2efb514610330578063fe7ab6831461032b5763ff9794f014610326575f80fd5b612e1f565b612dc1565b612d99565b612cca565b612ca1565b612c45565b612a2d565b6129ba565b612904565b6128ae565b612860565b612795565b6126a1565b61267d565b6125e3565b612587565b612530565b6124f8565b61246f565b612433565b61241a565b6123e2565b612360565b612322565b6122de565b612219565b612073565b611d58565b611ca2565b611c46565b611be3565b610ec8565b611b6b565b611b33565b611b1b565b611aee565b611a5c565b611992565b611757565b6117cf565b6117b7565b611795565b61176d565b611724565b6116b5565b611679565b61163d565b611625565b611573565b6113d2565b611338565b6112af565b611210565b610feb565b610ee2565b610ea0565b610d62565b610d2a565b610a1e565b610931565b610874565b610787565b610708565b6106b7565b61068f565b61064f565b610615565b6105ed565b610584565b634e487b7160e01b5f52604160045260245ffd5b606081019081106001600160401b038211176104ae57604052565b61047f565b90601f801991011681019081106001600160401b038211176104ae57604052565b604051906104e360a0836104b3565b565b604051906104e36060836104b3565b6001600160401b0381116104ae57601f01601f191660200190565b81601f8201121561055357602081359101610529826104f4565b9261053760405194856104b3565b8284528282011161055357815f92602092838601378301015290565b5f80fd5b602060031982011261055357600435906001600160401b038211610553576105819160040161050f565b90565b3461055357602061059436610557565b5f9061059f8161407e565b6105b7575b506040516001600160a01b039091168152f35b90506105c66040518092612e48565b5f808252908290038301909120546001600160a01b0316906105a4565b5f91031261055357565b34610553575f366003190112610553576007546040516001600160a01b039091168152602090f35b3461055357602061062536610557565b6106326040518092612e48565b5f815281900382019020546040516001600160a01b039091168152f35b34610553575f36600319011261055357600d54600e54600f54604080516001600160a01b03948516815293909216602084015290820152606090f35b0390f35b34610553575f366003190112610553576013546040516001600160a01b039091168152602090f35b34610553575f366003190112610553576010546040516001600160a01b039091168152602090f35b6001600160a01b0381160361055357565b600435906104e3826106df565b35906104e3826106df565b3461055357602036600319011261055357600435610725816106df565b600a546001600160a01b03169033829003610553576001600160a01b031690811590811561077d575b50610553576001600160601b0360a01b600b541617600b5562015180420180421161077857600c55005b612eb0565b905081145f61074e565b3461055357602061079f61079a36610557565b613021565b604051908152f35b8015150361055357565b60c435906104e3826107a7565b61010435906104e3826107a7565b60e435906104e3826107a7565b35906104e3826107a7565b610120600319820112610553576107fb60046106fd565b91602435916044356001600160401b038111610553578161081e9160040161050f565b91606435916084359160a4356001600160401b03811161055357826108459160040161050f565b9160c4359161085460e46107d9565b9161010435906001600160401b038211610553576105819160040161050f565b3461055357610882366107e4565b9660018060a09893989794979695961b0389165f52600360205260405f20815f5260205260ff60405f205416610553576007546040516333b6331760e21b815233600482015290602090829060249082906001600160a01b03165afa90811561092c575f916108fd575b5015610553576108fb986130aa565b005b61091f915060203d602011610925575b61091781836104b3565b810190613088565b5f6108ec565b503d61090d565b612f3f565b34610553575f36600319011261055357600a546001600160a01b0316330361055357600880546001600160a01b03191690555f600955005b6101606003198201126105535761098060046106fd565b91602435916044356001600160401b03811161055357816109a39160040161050f565b91606435916084356001600160401b03811161055357816109c69160040161050f565b9160a4359160c4356001600160401b03811161055357816109e99160040161050f565b9160e4359161010435916109fe6101246107d9565b9161014435906001600160401b038211610553576105819160040161050f565b3461055357610a2c36610969565b919492969360018060a09a989a1b038b165f52600360205260405f208a5f5260205260ff60405f20541661055357600495610a6688614cdf565b50600754602090610a8d90610a81906001600160a01b031681565b6001600160a01b031690565b6040516306fb495b60e31b815298899182905afa91821561092c57610ad189955f958f95610b0695610aca8f9260209e8b91610d0c575b50612f4a565b9088614bcf565b601054610ae890610a81906001600160a01b031681565b956040519b8c9889978896635ec8d0b160e11b88526004880161323c565b03925af192831561092c575f93610ceb575b5060328314610c4e575b50600754610b3a90610a81906001600160a01b031681565b6040516333b6331760e21b8152336004820152602081602481855afa90811561092c575f91610c2f575b50610ba5575b6108fb610b9885610b8b8860018060a01b03165f52600360205260405f2090565b905f5260205260405f2090565b805460ff19166001179055565b936020600492949395604051938480926306fb495b60e31b82525afa801561092c57610bef610b9895610bea610bf5936108fb99610b8b975f92610bfe575b5061300e565b612f23565b33614c6c565b93829350610b6a565b610c2191925060203d602011610c28575b610c1981836104b3565b810190612f30565b905f610be4565b503d610c0f565b610c48915060203d6020116109255761091781836104b3565b5f610b64565b610ce590610c92610c5d6104d4565b6001600160a01b0388168152915f60208401819052604084018190526060840152600160f81b6080840152612e5a565b612e5a565b815181546001600160a01b0319166001600160a01b03919091161781556080906004906020840151600182015560408401516002820155606084015160038201550191015160f81c60ff19825416179055565b5f610b22565b610d0591935060203d602011610c2857610c1981836104b3565b915f610b18565b8f610d2492503d602011610c2857610c1981836104b3565b5f610ac4565b34610553575f36600319011261055357600a546001600160a01b0316330361055357600e80546001600160a01b03191690555f600f55005b34610553575f36600319011261055357600a546001600160a01b031633036105535760155442106105535760148054601380546001600160a01b0383166001600160a01b0319918216179091551690555f601555600d54610dcd90610a81906001600160a01b031681565b6013546001600160a01b031690803b156105535760405163042370ff60e11b81526001600160a01b0383166004820152905f908290602490829084905af1801561092c57610e8c575b50601054610e2e90610a81906001600160a01b031681565b6013546001600160a01b031690803b156105535760405163042370ff60e11b81526001600160a01b0383166004820152905f908290602490829084905af1801561092c57610e7857005b80610e865f6108fb936104b3565b806105e3565b80610e865f610e9a936104b3565b80610e16565b34610553575f36600319011261055357600d546040516001600160a01b039091168152602090f35b34610553575f36600319011261055357602061079f61328c565b346105535761010036600319011261055357600435610f00816106df565b6024356064356084356001600160401b03811161055357610f2590369060040161050f565b60a43590610f316107b1565b9260e435956001600160401b03871161055357610f556108fb97369060040161050f565b95604435916132f1565b9061010060031983011261055357610f7760046106fd565b91602435916044356001600160401b0381116105535782610f9a9160040161050f565b91606435916084356001600160401b0381116105535782610fbd9160040161050f565b9160a43591610fcc60c46107d9565b9160e435906001600160401b038211610553576105819160040161050f565b3461055357610ff936610f5f565b9192604097969495975161100d818a612e48565b5f81528190036020019020546001600160a01b038881169116819003610553575f52600360205260405f20855f5260205260ff60405f205416610553578660026110568a612e5a565b0154159182156111b3575b5050610553578461107593610aca89613021565b5f5b600261108286612e5a565b01548110156110a957806110a361109e600193610b8b89612e76565b613622565b01611077565b50610b9890610b8b6110dd93945f60026110c289612e5a565b01556001600160a01b03165f90815260036020526040902090565b6007546110f490610a81906001600160a01b031681565b6040516333b6331760e21b8152336004820152909190602081602481865afa90811561092c575f91611194575b5061112857005b6020600492604051938480926306fb495b60e31b82525afa801561092c576108fb93600261116d611167610bea94610bef975f91611175575b50612f5b565b92612e5a565b01549061300e565b61118e915060203d602011610c2857610c1981836104b3565b5f611161565b6111ad915060203d6020116109255761091781836104b3565b5f611121565b6111d89250906111d4916111cf6111c9896152cf565b8c614f99565b615425565b1590565b865f611061565b604060031982011261055357600435906001600160401b038211610553576112099160040161050f565b9060243590565b3461055357602061123a611223366111df565b929061122d613681565b5060405192838092612e48565b6001815203019020905f5260205261068b60405f2060026040519161125e83610493565b80546001600160a01b03168352600181015460208401520154604080830191909152519182918281516001600160a01b03168152602080830151908201526040918201519181019190915260600190565b34610553575f36600319011261055357600a546001600160a01b031633036105535760095442106105535760085460408051611322926001600160a01b0316915f916112fa81610493565b838152826020820152015260018060a01b03166001600160601b0360a01b6007541617600755565b600880546001600160a01b03191690555f600955005b34610553575f36600319011261055357600754600854600954604080516001600160a01b03948516815293909216602084015290820152606090f35b60a06003198201126105535760043561138c816106df565b91602435916044356001600160401b03811161055357816113af9160040161050f565b9160643591608435906001600160401b038211610553576105819160040161050f565b34610553576113e036611374565b60018060a01b0385165f52600360205260405f20845f5260205260ff60405f2054166105535761142e61142785610b8b8860018060a01b03165f52600360205260405f2090565b5460ff1690565b61055357611470926020925f611451610a81610a8160105460018060a01b031690565b926040519687958694859363f106fe1d60e01b85528c600486016136d0565b03925af190811561092c575f91611554575b5060075461149a90610a81906001600160a01b031681565b6040516333b6331760e21b8152336004820152602081602481855afa90811561092c575f91611535575b506114eb575b6108fb610b9884610b8b8760018060a01b03165f52600360205260405f2090565b9260206004939294604051948580926306fb495b60e31b82525afa90811561092c5761152b610bef610b8b936108fb97610b98975f92610bfe575061300e565b93508192506114ca565b61154e915060203d6020116109255761091781836104b3565b5f6114c4565b61156d915060203d602011610c2857610c1981836104b3565b5f611482565b34610553576101403660031901126105535761158d6106f0565b602435906044356001600160401b038111610553576115b090369060040161050f565b9060643560843560a43560c4356001600160401b038111610553576115d990369060040161050f565b9060e435926115e66107be565b9461012435976001600160401b0389116105535761068b9961160f6116159a369060040161050f565b9861370a565b6040519081529081906020820190565b3461055357602061079f61163836610557565b613a08565b34610553575f36600319011261055357600a54600b54600c54604080516001600160a01b03948516815293909216602084015290820152606090f35b34610553575f36600319011261055357601054601154601254604080516001600160a01b03948516815293909216602084015290820152606090f35b34610553575f36600319011261055357600a546001600160a01b0316330361055357601754421061055357604051604081018181106001600160401b038211176104ae575f9160209160405260018152015261171e600160ff8019601654169115151617601655565b5f601755005b3461055357602060016117468261173a36610557565b60405192838092612e48565b5f8152030190200154604051908152f35b3461055357602060026117468261173a36610557565b34610553575f36600319011261055357600a546040516001600160a01b039091168152602090f35b346105535760206117ad6117a836610557565b613abc565b6040519015158152f35b3461055357602061079f6117ca36610557565b613b37565b34610553576117dd36610557565b600d546117f490610a81906001600160a01b031681565b906020604051809363de9b8e8960e01b8252815f816118168760048301612cb9565b03925af191821561092c575f92611971575b50600d5461184090610a81906001600160a01b031681565b90608060405180936303e22ad760e21b825281806118618660048301612cb9565b03915afa90811561092c576118a0925f92611939575b5061188190612e5a565b80546001600160a01b0319166001600160a01b03909216919091179055565b6007546118b790610a81906001600160a01b031681565b6040516333b6331760e21b8152336004820152602081602481855afa90811561092c575f9161191a575b506118e857005b6020600491604051928380926306fb495b60e31b82525afa801561092c576108fb92610bef925f92610bfe575061300e565b611933915060203d6020116109255761091781836104b3565b5f6118e1565b6118819192506119609060803d60801161196a575b61195881836104b3565b810190613d3f565b5050509190611877565b503d61194e565b61198b91925060203d602011610c2857610c1981836104b3565b905f611828565b34610553576119a0366107e4565b966040969196959295949394516119b78184612e48565b5f81528190036020019020546001600160a01b038a81169116819003610553575f52600360205260405f20815f5260205260ff60405f205416610553576007546040516333b6331760e21b815233600482015290602090829060249082906001600160a01b03165afa90811561092c575f91611a3d575b5015610553576108fb98613eae565b611a56915060203d6020116109255761091781836104b3565b5f611a2e565b3461055357611a6a36610557565b601054611a8190610a81906001600160a01b031681565b906020604051809363de9b8e8960e01b8252815f81611aa38760048301612cb9565b03925af191821561092c575f92611acd575b5060105461184090610a81906001600160a01b031681565b611ae791925060203d602011610c2857610c1981836104b3565b905f611ab5565b34610553575f36600319011261055357600a546001600160a01b03163303610553575f6005819055600655005b346105535760206117ad611b2e36610557565b61407e565b34610553575f36600319011261055357600a546001600160a01b0316330361055357600b80546001600160a01b03191690555f600c55005b3461055357611b7936611374565b60018060a01b0385165f52600360205260405f20845f5260205260ff60405f20541661055357611bc061142785610b8b8860018060a01b03165f52600360205260405f2090565b61055357611470926020925f611451610a81610a81600d5460018060a01b031690565b3461055357602036600319011261055357600435611c00816106df565b600a546001600160a01b03163303610553576001600160a01b03168015610553576001600160601b0360a01b600854161760085562015180420180421161077857600955005b3461055357602036600319011261055357600435611c63816106df565b600a546001600160a01b031633036105535760018060a01b03166001600160601b0360a01b601154161760115562015180420180421161077857601255005b3461055357611cb036610969565b919492969360018060a09a989a1b038b165f52600360205260405f208a5f5260205260ff60405f20541661055357600495611cea8861507c565b50600754602090611d0590610a81906001600160a01b031681565b6040516306fb495b60e31b815298899182905afa91821561092c57611d4189955f958f95610b0695610aca8f9260209e8b91610d0c5750612f4a565b600d54610ae890610a81906001600160a01b031681565b3461055357611d66366107e4565b9192604098979851611d788189612e48565b5f81528190036020019020546001600160a01b038981169116819003610553575f52600360205260405f20895f5260205260ff60405f20541661055357600160f81b6001600160f81b0319611dd96004611dd18b612e5a565b015460f81b90565b1614908115612051575b8115612036575b811561201e575b5061055357838061200b575b50505050611e1b6002611e1384610b8b87612e93565b015485614c6c565b611e44611e3b611e2e84610b8b87612e93565b546001600160a01b031690565b61188185612e5a565b611e64611e5483610b8b86612e93565b80546001600160a01b0319169055565b600754611e7b90610a81906001600160a01b031681565b6040516333b6331760e21b8152336004820152602081602481855afa90811561092c575f91611fec575b50611f29575b506108fb610b9886610b8b87611f10611f0b611f038a611efd611ef7611ef06002611ee98f610b8b83611ee183610b8b8b612e93565b015497612e93565b0154612f6c565b60c7900490565b60021c90565b90612f23565b60185461309d565b601855565b6001600160a01b03165f90815260036020526040902090565b91602060049694959293604051978880926306fb495b60e31b82525afa95861561092c57611f0386611efd611ef7611ef06002611ee988611f9f6108fb9f610b989f9d610bea610b8b9f92611f109e610bef94611f0b9f5f93611fb3575b50611ef08a611ee9611efd94610b8b611ef795612e93565b9a5050505050509597505050819450611eab565b611ef79193508a611ee9611efd94610b8b611fdf611ef09560203d602011610c2857610c1981836104b3565b9795505094505050611f87565b612005915060203d6020116109255761091781836104b3565b5f611ea5565b6120159388614b13565b5f808083611dfd565b61203091506111d4908a888a8c6150d5565b5f611df1565b9050600161204787610b8b8a612e93565b0154421190611dea565b90506001600160a01b0361206b611e2e88610b8b8b612e93565b161590611de3565b3461055357602036600319011261055357600435600a546001600160a01b03163303610553576007546120b090610a81906001600160a01b031681565b604051634d0f970b60e11b81523060048201526001602482015290602082604481845afa91821561092c575f92612171575b506020600491604051928380926306fb495b60e31b82525afa91821561092c5761212461211b859461212a945f91612152575b50612ec4565b60185490612f23565b9061309d565b10801561214a575b610553576005556108fb61214542612ed4565b600655565b508015612132565b61216b915060203d602011610c2857610c1981836104b3565b5f612115565b600491925061218e602091823d8411610c2857610c1981836104b3565b9291506120e2565b805180835260209291819084018484015e5f828201840152601f01601f1916010190565b602081016020825282518091526040820191602060408360051b8301019401925f915b8383106121ec57505050505090565b909192939460208061220a600193603f198682030187528951612196565b970193019301919392906121dd565b346105535761222736610557565b60026040516020816122398186612e48565b5f81520301902001549061224c826140f4565b9161225a60405193846104b3565b808352612269601f19916140f4565b015f5b8181106122cd5750505f5b600261228283612e5a565b01548110156122bf57806122a361229e600193610b8b86612e76565b614138565b6122ad828661411f565b526122b8818561411f565b5001612277565b6040518061068b85826121ba565b80606060208093870101520161226c565b34610553575f36600319011261055357600a546001600160a01b0316338190036105535760065442106105535760055461231791614c6c565b5f6005819055600655005b34610553575f36600319011261055357600a546001600160a01b031633036105535760ff601654166105535762015180420180421161077857601755005b34610553575f366003190112610553576007546040516306fb495b60e31b815290602090829060049082906001600160a01b03165afa90811561092c575f916123c3575b5060648102908082046064149015171561077857604051908152602090f35b6123dc915060203d602011610c2857610c1981836104b3565b5f6123a4565b34610553575f36600319011261055357600a546001600160a01b0316330361055357601180546001600160a01b03191690555f601255005b3461055357602061079f61242d366111df565b906141d6565b34610553575f36600319011261055357601354601454601554604080516001600160a01b03948516815293909216602084015290820152606090f35b34610553575f36600319011261055357600a546001600160a01b0316330361055357600f54421061055357600e54604080516124e2926001600160a01b0316915f916124ba81610493565b838152826020820152015260018060a01b03166001600160601b0360a01b600d541617600d55565b600e80546001600160a01b03191690555f600f55005b34610553575f36600319011261055357600a546001600160a01b0316330361055357601480546001600160a01b03191690555f601555005b3461055357604061254036610557565b6001612572602084516125538186612e48565b905f82528281868060a01b039303019020541693855192838092612e48565b5f815203019020015482519182526020820152f35b34610553576020366003190112610553576004356125a4816106df565b600a546001600160a01b031633036105535760018060a01b03166001600160601b0360a01b600e541617600e5562015180420180421161077857600f55005b3461055357610120366003190112610553576125fd6106f0565b602435906044356001600160401b0381116105535761262090369060040161050f565b6064356084356001600160401b0381116105535761264290369060040161050f565b60a4359060c435926126526107cc565b9461010435976001600160401b038911610553576126776108fb99369060040161050f565b97614202565b34610553575f36600319011261055357604060055460065482519182526020820152f35b3461055357610100366003190112610553576126bb6106f0565b6024356001600160401b038111610553576126da90369060040161050f565b906044356064356084356001600160401b0381116105535761270090369060040161050f565b60a4359161270c6107b1565b9360e435966001600160401b038811610553576127306108fb98369060040161050f565b966144e9565b60206040818301928281528451809452019201905f5b8181106127595750505090565b909192602060608261278a60019488516040809160018060a01b038151168452602081015160208501520151910152565b01940192910161274c565b34610553576127a336610557565b60036040516020816127b58186612e48565b5f8152030190200154906127c8826140f4565b916127d660405193846104b3565b8083526127e5601f19916140f4565b015f5b8181106128495750505f5b60036127fe83612e5a565b015481101561283b578061281f61281a600193610b8b86612e93565b61369f565b612829828661411f565b52612834818561411f565b50016127f3565b6040518061068b8582612736565b602090612854613681565b828287010152016127e8565b346105535760403660031901126105535760043561287d816106df565b6024359060018060a01b03165f52600360205260405f20905f52602052602060ff60405f2054166040519015158152f35b34610553575f36600319011261055357600a546001600160a01b031633036105535760125442106105535760118054601080546001600160a01b03199081166001600160a01b038416179091551690555f601255005b34610553576101203660031901126105535761291e6106f0565b602435906044356001600160401b0381116105535761294190369060040161050f565b6064356001600160401b0381116105535761296090369060040161050f565b60843560a4356001600160401b0381116105535761298290369060040161050f565b9060c4359261298f6107cc565b9461010435976001600160401b038911610553576129b46108fb99369060040161050f565b976146a3565b34610553575f36600319011261055357600b546001600160a01b031633810361055357600c544210610553575f604080516129f481610493565b838152602081018390520152600a80546001600160a01b039092166001600160a01b0319928316179055600b805490911690555f600c55005b3461055357612a3b36610f5f565b90919392604097959751612a4f818a612e48565b5f81528190036020019020546001600160a01b038781169116819003610553575f52600360205260405f20875f5260205260ff60405f2054166105535785600160f81b6001600160f81b0319612aa96004611dd18d612e5a565b1614918215612c22575b505061055357612ace6001612ac789612e5a565b0154612ee4565b612ad742612ef5565b1061055357612af29183612aea89613b37565b809688614bcf565b600754612b0990610a81906001600160a01b031681565b6040516333b6331760e21b8152336004820152602081602481855afa90811561092c575f91612c03575b50612b75575b6108fb610b9886610b8b876001612b4f8c612e5a565b01612b5a8154612ee4565b90556001600160a01b03165f90815260036020526040902090565b9060206004959492604051968780926306fb495b60e31b82525afa94851561092c576108fb96612bce610bef600194610bea610b989a610b8b99612b4f975f92612bda575b50612bc7611efd91612f7d565b6064900490565b96505081939450612b39565b611efd919250612bfb612bc79160203d602011610c2857610c1981836104b3565b929150612bba565b612c1c915060203d6020116109255761091781836104b3565b5f612b33565b612c3e9250906111d4916111cf612c388b6152cf565b8c615264565b855f612ab3565b3461055357602036600319011261055357600435612c62816106df565b600a546001600160a01b031633036105535760018060a01b03166001600160601b0360a01b601454161760145562015180420180421161077857601555005b346105535760206117ad612cb436610557565b614995565b906020610581928181520190612196565b3461055357612ce2612cdb366111df565b9190612e76565b905f5260205260405f20604051905f90805490612cfe826135d4565b8085529160018116908115612d725750600114612d32575b61068b84612d26818603826104b3565b60405191829182612cb9565b5f90815260208120939250905b808210612d5857509091508101602001612d2682612d16565b919260018160209254838588010152019101909291612d3f565b60ff191660208087019190915292151560051b85019092019250612d269150839050612d16565b34610553575f36600319011261055357600a546001600160a01b03163303610553575f601755005b3461055357612dcf36610557565b5f9060015b15612dea575b612de45f926137a2565b91612dd4565b604051602081612dfa8185612e48565b6001815203019020825f52602052600160405f200154612dda57602082604051908152f35b34610553575f36600319011261055357604060ff60165416601754825191151582526020820152f35b805191908290602001825e015f815290565b6020612e6c9160405192838092612e48565b5f81520301902090565b6020612e889160405192838092612e48565b600281520301902090565b6020612ea59160405192838092612e48565b600181520301902090565b634e487b7160e01b5f52601160045260245ffd5b6113db0190816113db1161077857565b9062015180820180921161077857565b906301e28500820180921161077857565b9063bc7bf400820180921161077857565b90610708820180921161077857565b906001820180921161077857565b9190820180921161077857565b90816020910312610553575190565b6040513d5f823e3d90fd5b908160640291606483040361077857565b908160050291600583040361077857565b908115600183800414171561077857565b9060328202918083046032149015171561077857565b9081600a0291600a83040361077857565b906103e38202918083046103e3149015171561077857565b90607d820291808304607d149015171561077857565b90816207a12002916207a12083040361077857565b9060058202918083046005149015171561077857565b908160320291603283040361077857565b8181029291811591840414171561077857565b6007546040516306fb495b60e31b81529190602090839060049082906001600160a01b03165afa91821561092c5761116d611167610581946002935f91613069575b50612f93565b613082915060203d602011610c2857610c1981836104b3565b5f613063565b908160209103126105535751610581816107a7565b9190820391821161077857565b9394979095919697600160f81b60ff60f81b6130ca6004611dd18c612e5a565b1614908115613215575b81156131fd575b506105535760049785806131ea575b50505050613108600261310083610b8b89612e93565b015483614c6c565b613118611e5482610b8b88612e93565b60075460209061313290610a81906001600160a01b031681565b6040516306fb495b60e31b815297889182905afa95861561092c57611f0386611efd611ef7611ef06002611ee9886131a46104e39f610b989f9d610bea610b8b9f92611f109e610bef94611f0b9f5f936131b5575b5089611ee9611efd93610b8b61319c94612e93565b61031c900490565b610b8b83611ee183610b8b8b612e93565b61319c919350611ee9611efd93610b8b6131de8e9460203d602011610c2857610c1981836104b3565b96945050935050613187565b6131f49386614b13565b5f8080856130ea565b61320f91506111d49088868b896149e9565b5f6130db565b9050613227611e2e85610b8b8b612e93565b6001600160a01b0386811691161415906130d4565b92909361326661327993610581989660018060a01b0316865260c0602087015260c0860190612196565b9160408501528382036060850152612196565b92608082015260a0818403910152612196565b6007546040516306fb495b60e31b815290602090829060049082906001600160a01b03165afa90811561092c575f916132d2575b5080600a0290600a8204036107785790565b6132eb915060203d602011610c2857610c1981836104b3565b5f6132c0565b9695949392919060018060a01b0388165f52600360205260405f20815f5260205260ff60405f205416610553576007546040516333b6331760e21b815233600482015290602090829060249082906001600160a01b03165afa90811561092c575f91613367575b5015610553576104e397613418565b613380915060203d6020116109255761091781836104b3565b5f613358565b602081830312610553578051906001600160401b038211610553570181601f82011215610553578051906133b9826104f4565b926133c760405194856104b3565b8284526020838301011161055357815f9260208093018386015e8301015290565b906104e361340a92604051938491600160fe1b60208401526021830190612e48565b03601f1981018452836104b3565b9592969490936111d461342d9186858a614eee565b61055357613461945f9388806135c1575b5050505060405180948192639201de5560e01b8352600483019190602083019252565b038173__$2586ee71363c751a7dcf59a6d696ae69ac$__5af491821561092c576134e393611f106134a0610b9895610b8b945f9161359f575b506133e8565b610c926134ac42612f06565b916134b56104d4565b6001600160a01b03861681529260208401525f604084018190526060840152600160f81b6080840152612e5a565b6007546134fa90610a81906001600160a01b031681565b6040516333b6331760e21b8152336004820152602081602481855afa90811561092c575f91613580575b5061352d575050565b6020600491604051928380926306fb495b60e31b82525afa91821561092c576104e392610bef925f91613561575b50612f23565b61357a915060203d602011610c2857610c1981836104b3565b5f61355b565b613599915060203d6020116109255761091781836104b3565b5f613524565b6135bb91503d805f833e6135b381836104b3565b810190613386565b5f61349a565b6135cb9389614b13565b5f80808861343e565b90600182811c92168015613602575b60208310146135ee57565b634e487b7160e01b5f52602260045260245ffd5b91607f16916135e3565b818110613617575050565b5f815560010161360c565b61362c81546135d4565b9081613636575050565b81601f5f9311600114613647575055565b8183526020832061366391601f0160051c81019060010161360c565b808252602082209081548360011b9084198560031b1c191617905555565b6040519061368e82610493565b5f6040838281528260208201520152565b906040516136ac81610493565b82546001600160a01b03168152600183015460208201526002909201546040830152565b6001600160a01b03909116815260806020820181905261058194926136f791830190612196565b9260408201526060818403910152612196565b98979695949392919060018060a01b038a165f52600360205260405f20815f5260205260ff60405f205416610553576007546040516333b6331760e21b815233600482015290602090829060249082906001600160a01b03165afa90811561092c575f91613783575b501561055357610581995f6137b0565b61379c915060203d6020116109255761091781836104b3565b5f613773565b5f1981146107785760010190565b94809b9991959a92979a98939496989a600160f81b60ff60f81b6137d86004611dd18a612e5a565b16149081156139f4575b81156139eb575b81156139e0575b898983156139c6575b505050905061055357878661381194879c969c614bcf565b613824610a81611e2e83610b8b8b612e93565b1561383757613832906137a2565b613811565b96956138b56004969761385461384c86612fa4565b6103e8900490565b61385c6104e5565b6001600160a01b038616815291602083015260408201526138808a610b8b85612e93565b815181546001600160a01b0319166001600160a01b039190911617815590600290604090602081015160018501550151910155565b6007546020906138cf90610a81906001600160a01b031681565b6040516306fb495b60e31b815297889182905afa95861561092c57611f0b61393e610b8b95613926610bef610b989a610bea6104e39d613946985f916139a7575b50611efd61391d87612fbc565b620186a0900490565b611efd61393561384c83612fa4565b91610320900490565b601854612f23565b600361395182612e5a565b015488111561397057613965600391612e5a565b01612b5a81546137a2565b600361397b82612e5a565b015415613989575b50611f10565b613994600391612e5a565b0161399f81546137a2565b90555f613983565b6139c0915060203d602011610c2857610c1981836104b3565b5f613910565b6111d493506139d694898b614fd2565b8b905f89896137f9565b4283111591506137f0565b881591506137e9565b9050613a026111d487613abc565b906137e2565b600754613a1f90610a81906001600160a01b031681565b6040516306fb495b60e31b8152602081600481855afa801561092c57600493600261116d611167613a59946020965f91613aa55750612f93565b91604051938480926306fb495b60e31b82525afa90811561092c57610581925f92613a845750612f23565b613a9e91925060203d602011610c2857610c1981836104b3565b905f61355b565b6130829150873d8911610c2857610c1981836104b3565b600160f81b6001600160f81b0319613ad86004611dd185612e5a565b1603613b22576001600160a01b03613af2611e2e83612e5a565b1615908115613b0b575b5015613b06575f90565b600190565b60019150613b1890612e5a565b015415155f613afc565b613b2d600191612e5a565b0154613b06575f90565b5f906001613b4482612e5a565b01544211613cf6576002613b67613b5a83612e93565b5f805260205260405f2090565b0154151580613cde575b613c40575b5080613b8a5750681b1ae4d6e2ef50000090565b613b9661384c82612fe7565b600754909190613bb090610a81906001600160a01b031681565b916040516306fb495b60e31b8152602081600481875afa801561092c57613bde915f91613c13575b50612fd2565b1015613c3257506020600491604051928380926306fb495b60e31b82525afa801561092c57610581915f91613c135750612fd2565b613c2c915060203d602011610c2857610c1981836104b3565b5f613bd8565b610581915061384c90612fe7565b91905f5b6003613c4f85612e5a565b0154811015613cd457426001613c6883610b8b88612e93565b01541180613cb3575b613c7e575b600101613c44565b816002613c8e83610b8b88612e93565b01541115613c7657905060016002613ca983610b8b87612e93565b0154919050613c76565b506001600160a01b03613ccc611e2e83610b8b88612e93565b161515613c71565b509091505f613b76565b506001613ced613b5a83612e93565b01541515613b71565b5050600754600490602090613d1590610a81906001600160a01b031681565b6040516306fb495b60e31b815292839182905afa801561092c57610581915f91613c135750612fd2565b9190826080910312610553578151613d56816106df565b916020810151613d65816106df565b916060604083015192015190565b9190601f8111613d8257505050565b6104e3925f5260205f20906020601f840160051c83019310613dac575b601f0160051c019061360c565b9091508190613d9f565b919091828114613e9d57613dca83546135d4565b6001600160401b0381116104ae57613dec81613de684546135d4565b84613d73565b5f93601f8211600114613e2b57613e1c92939482915f92613e20575b50508160011b915f199060031b1c19161790565b9055565b015490505f80613e08565b613e3d601f198316915f5260205f2090565b94613e4b845f5260205f2090565b915f5b818110613e8557509583600195969710613e6d575b505050811b019055565b01545f1960f88460031b161c191690555f8080613e63565b9192600180602092868b015481550194019201613e4e565b509050565b8015610778575f190190565b9592939791946111d4613ec7919892988987898b61502e565b61055357836002613ed787612e5a565b015411156105535787613efa936366a1958042105f14614070575f905b88614bcf565b806002613f0684612e5a565b015403613fdb57610b98926002613f2e84610c8d61109e610b8b96610b8b613f399b99612e76565b01612b5a8154613ea2565b600754613f5090610a81906001600160a01b031681565b6040516333b6331760e21b8152336004820152909190602081602481865afa90811561092c575f91613fbc575b50613f86575050565b6020600492604051938480926306fb495b60e31b82525afa90811561092c57610bea610bef926104e3945f916111755750612f5b565b613fd5915060203d6020116109255761091781836104b3565b5f613f7d565b949290949391935b6002613fee87612e5a565b01548110156140365760019061403061401e61400989612e76565b61401284612f15565b5f5260205260405f2090565b61402b83610b8b8b612e76565b613db6565b01613fe3565b50610b8b610b9892946002613f2e613f399698610c8d61109e61405883612e76565b8561406285612e5a565b01545f5260205260405f2090565b61407861328c565b90613ef4565b600160f81b6001600160f81b031961409a6004611dd185612e5a565b16036140df576001600160a01b036140b4611e2e83612e5a565b16159081156140c8575b5015613b06575f80fd5b600191506140d590612e5a565b015415155f6140be565b6140ea600191612e5a565b0154613b06575f80fd5b6001600160401b0381116104ae5760051b60200190565b634e487b7160e01b5f52603260045260245ffd5b80518210156141335760209160051b010190565b61410b565b9060405191825f82549261414b846135d4565b80845293600181169081156141b45750600114614170575b506104e3925003836104b3565b90505f9291925260205f20905f915b8183106141985750509060206104e3928201015f614163565b602091935080600191548385890101520191019091849261417f565b9050602092506104e394915060ff191682840152151560051b8201015f614163565b906141fc602060405180936141ee8383018097612e48565b9081520380845201826104b3565b51902090565b9496909397919560018060a01b03861698895f52600360205260405f20865f5260205260ff60405f20541661055357600a546001600160a01b03168a90036144da575b6142516111d489614995565b9081156144c2575b506105535787906366a1958042101561444b575f9361428a936142a996936142849387905b8b614bcf565b866141d6565b60405180938192639201de5560e01b8352600483019190602083019252565b038173__$2586ee71363c751a7dcf59a6d696ae69ac$__5af4801561092c576142d8915f9161359f57506133e8565b946142e8610a81611e2e88612e5a565b14801590614436575b61055357610b8b610b9892611f1061434195610c9261430f42612ee4565b916143186104d4565b6001600160a01b03861681529260208401525f60408401525f60608401525f6080840152612e5a565b60075461435890610a81906001600160a01b031681565b6040516333b6331760e21b8152336004820152602081602481855afa90811561092c575f91614417575b506143b3575b50506143966104e391612e5a565b60045f918281558260018201558260028201558260038201550155565b916020600493604051948580926306fb495b60e31b82525afa92831561092c57610bef61439693610bea6104e3966143f2945f916143f8575b50612ffd565b91614388565b614411915060203d602011610c2857610c1981836104b3565b5f6143ec565b614430915060203d6020116109255761091781836104b3565b5f614382565b5042600161444387612e5a565b0154116142f1565b919390506004602061446a610a81610a8160075460018060a01b031690565b6040516306fb495b60e31b815292839182905afa93841561092c576142a9958a61428a956144a35f98614284968a916144a95750612f4a565b9061427e565b610d24915060203d602011610c2857610c1981836104b3565b6144d491506111d49087878b8b6151a0565b5f614259565b6144e388615123565b50614245565b9397959194979692909660018060a01b038516805f52600360205260405f20835f5260205260ff60405f20541661055357604051614527818b612e48565b5f81528190036020019020546001600160a01b0316036105535784600161454d8a612e5a565b015442109182159261467d575b821561465b575b50509050610553578361457e938861457889613a08565b91614bcf565b5f5b600261458b85612e5a565b01548110156145ad57806145a761109e600193610b8b88612e76565b01614580565b50614607610b98600493956145f460036145c688612e5a565b01546145d06104d4565b905f82525f60208301525f604083015260608201525f6080820152610c9288612e5a565b335f908152600360205260409020610b8b565b60075460209061462190610a81906001600160a01b031681565b6040516306fb495b60e31b815293849182905afa801561092c576104e393600261116d611167610bea94610bef975f916111755750612f5b565b6111d492506111cf61466f614675956152cf565b8b6151ee565b80845f614561565b9150600160f81b6001600160f81b031961469b6004611dd18d612e5a565b16149161455a565b97969594939291906040516146b88184612e48565b5f81528190036020019020546001600160a01b038a81169116819003610553575f52600360205260405f20815f5260205260ff60405f205416610553576007546040516333b6331760e21b815233600482015290602090829060249082906001600160a01b03165afa90811561092c575f9161473e575b5015610553576104e39861481c565b614757915060203d6020116109255761091781836104b3565b5f61472f565b91909182516001600160401b0381116104ae5761477e81613de684546135d4565b6020601f82116001146147b8578190613e1c9394955f926147ad5750508160011b915f199060031b1c19161790565b015190505f80613e08565b601f198216906147cb845f5260205f2090565b915f5b818110614804575095836001959697106147ec57505050811b019055565b01515f1960f88460031b161c191690555f8080613e63565b9192602060018192868b0151815501940192016147ce565b959392946111d487614840926111cf868a61483a889e999f986152cf565b91615227565b610553578451156105535761486891836366a19580421095865f14614987575f905b89614bcf565b60075461487f90610a81906001600160a01b031681565b6040516333b6331760e21b8152336004820152602081602481855afa90811561092c575f91614968575b506148e2575b505050610b989291600261396586610c8d610b8b956148dd6148d36104e39b612e76565b8661406286612e5a565b61475d565b9060206004926040979694959751938480926306fb495b60e31b82525afa96871561092c57610c8d610b9897614947610bef61396595610bea610b8b9a6149356104e39f60029b5f916111755750612f5b565b901561495557611efd612bc75f612f7d565b9550509650829495506148af565b611efd612bc761496361328c565b612f7d565b614981915060203d6020116109255761091781836104b3565b5f6148a9565b61498f61328c565b90614862565b60016040516020816149a78186612e48565b5f81520301902001546149ba5750600190565b6149ce602060019260405192838092612e48565b5f8152030190200154624f1a00810180911161077857421190565b92614a3d91614a4b6111cf926001614a3d614a10614a0a6105819b996152cf565b936152cf565b928260405198899767323138313136303960c01b60208a0152600b60fa1b60288a01526029890190612e48565b600b60fa1b81520190612e48565b03601f1981018352826104b3565b6001600160a01b0391821681529181166020830152610100604083018190525f9083015260016060830152608082019290925260a081019290925290911660c082015261012060e0820181905261058192910190612196565b6001600160a01b0391821681529181166020830152610120604083018190525f9083015260016060830152608082019290925260a081019290925260c0820192909252911660e0820152610140610100820181905261058192910190612196565b939290919015614b8557600754614b3490610a81906001600160a01b031681565b90813b15610553575f809491614b6682936040519889978896879563f4e1895b60e01b87523093309060048901614ab2565b03925af1801561092c57614b775750565b80610e865f6104e3936104b3565b91929050614ba0610a81610a8160075460018060a01b031690565b803b15610553575f808094614b66604051978896879586946327d50fd160e11b86523092309060048801614a59565b94919390929015614c2157600754614bf190610a81906001600160a01b031681565b91823b15610553575f94614b6686926040519889978896879563f4e1895b60e01b87523093309060048901614ab2565b6007549194925090614c3d90610a81906001600160a01b031681565b90813b15610553575f8094614b66604051978896879586946327d50fd160e11b86523092309060048801614a59565b6007546001600160a01b031691823b156105535760405163c898a6e960e01b81526001600160a01b039092166004830152600160248301526044820152905f908290606490829084905af1801561092c57614cc45750565b5f6104e3916104b3565b908151811015614133570160200190565b5f905f805b8251811015614ed0576001600160f81b0319821615614e70575b6001600160f81b03198216600160f81b14614e4c575b6001600160f81b03198216600160f91b14614e04575b6001600160f81b03198216600360f81b14614de0575b6001600160f81b03198216600160fa1b14614d64575b614d5f906137a2565b614ce4565b92614d88614d83614d758686614cce565b516001600160f81b03191690565b615675565b15614da257614d99614d5f916137a2565b935b9050614d56565b614dc5614db2614d758686614cce565b6001600160f81b031916601760f91b1490565b156105535760021115614dd6575f80fd5b614d5f5f93614d9b565b9260039150105f14614df0575f80fd5b600160fa1b614dff5f936137a2565b614d40565b92614e15614d83614d758686614cce565b15614e2957614e23906137a2565b92614d2a565b929050614e3c614db2614d758385614cce565b1561055357600360f81b90614d2a565b9260039150105f14614e5c575f80fd5b600160f91b614e6b5f936137a2565b614d14565b92614e86614e81614d758686614cce565b61556f565b15614e9a57614e94906137a2565b92614cfe565b929050614ec0614ead614d758385614cce565b6001600160f81b031916600160fe1b1490565b1561055357600160f81b90614cfe565b506001600160f81b031916603f60fa1b019150610553905057600190565b9192909260405193639201de5560e01b855260048501525f8460248173__$2586ee71363c751a7dcf59a6d696ae69ac$__5af493841561092c5761058194614a3d926111cf925f92614f75575b50614f48614a4b916152cf565b600160405195869467311b1b1bb19c183160c11b6020870152600b60fa1b60288701526029860190612e48565b614a4b919250614f91614f48913d805f833e6135b381836104b3565b929150614f3b565b6104e39061340a614a3d9493600160405196879467336537383939613160c01b6020870152600b60fa1b60288701526029860190612e48565b9390614a4b61058196946001614a3d6111cf9582614a3d615001614a0a614ffb614a3d9c6152cf565b976152cf565b95826040519b8c9a67353236343963326560c01b60208d0152600b60fa1b60288d015260298c0190612e48565b92614a3d91614a4b6111cf926001614a3d61504f614a0a6105819b996152cf565b928260405198899767383030316139393960c01b60208a0152600b60fa1b60288a01526029890190612e48565b80516014811090816150ca575b50610553575f5b81518110156150c3576150b66001600160f81b03196150af8385614cce565b51166156c2565b1561055357600101615090565b5050600190565b60059150115f615089565b92614a3d91614a4b6111cf926001614a3d6150f6614a0a6105819b996152cf565b92826040519889976730b2999b33329b9960c11b60208a0152600b60fa1b60288a01526029890190612e48565b805160048110610553571561413357602081015161514e906111d4906001600160f81b031916615675565b610553575f5b81518110156150c3576151756111d4615170614d758486614cce565b6156c2565b80615187575b61055357600101615154565b5061519b6111d4614d83614d758486614cce565b61517b565b92614a3d91614a4b6111cf926001614a3d6151c1614a0a6105819b996152cf565b928260405198899767373566373531636560c01b60208a0152600b60fa1b60288a01526029890190612e48565b6104e39061340a614a3d9493600160405196879467643232633831366360c01b6020870152600b60fa1b60288701526029860190612e48565b61340a614a3d94936001614a3d6104e39582604051998a9767653665666566666160c01b60208a0152600b60fa1b60288a01526029890190612e48565b6104e39061340a614a3d9493600160405196879467663137343734383360c01b6020870152600b60fa1b60288701526029860190612e48565b906152a7826104f4565b6152b460405191826104b3565b82815280926152c5601f19916104f4565b0190602036910137565b805f9172184f03e93ff9f4daa797ed6e38ed64bf6a1f0160401b821015615402575b806d04ee2d6d415b85acef8100000000600a9210156153e6575b662386f26fc100008110156153d1575b6305f5e1008110156153bf575b6127108110156153af575b60648110156153a0575b1015615395575b61538060216153556001850161529d565b938401015b5f1901916f181899199a1a9b1b9c1cb0b131b232b360811b600a82061a8353600a900490565b801561539057615380909161535a565b505090565b600190910190615344565b6002906064900493019261533d565b6004906127109004930192615333565b6008906305f5e1009004930192615328565b601090662386f26fc10000900493019261531b565b6020906d04ee2d6d415b85acef8100000000900493019261530b565b506040915072184f03e93ff9f4daa797ed6e38ed64bf6a1f0160401b81046152f1565b614a4b61547761543583516152cf565b9260405192839161547160208401967f19457468657265756d205369676e6564204d6573736167653a0a0000000000008852603a850190612e48565b90612e48565b519020604182510361552a57815f916020809401519160606040820151910151841a92601b8410615513575b906154e7916154c160ff8616601b8114908115615508575b506156f8565b604051948594859094939260ff6060936080840197845216602083015260408201520152565b838052039060015afa1561092c575f516001600160a01b0390811691161490565b601c9150145f6154bb565b92906155216154e7926156e6565b939091506154a3565b60405162461bcd60e51b815260206004820152601860248201527f496e76616c6964207369676e6174757265206c656e67746800000000000000006044820152606490fd5b61557881615675565b908115615664575b8115615631575b81156155fe575b81156155cb575b811561559f575090565b607b60f81b6001600160f81b0319909116908110159150816155bf575090565b603f60f91b1015905090565b9050605b60f81b6001600160f81b031982169081101590816155ef575b5090615595565b600360fd1b101590505f6155e8565b9050601d60f91b6001600160f81b03198216908110159081615622575b509061558e565b603f60f81b101590505f61561b565b9050602160f81b6001600160f81b03198216908110159081615655575b5090615587565b602f60f81b101590505f61564e565b905061566f816156c2565b90615580565b60ff60f81b16604160f81b81101590816156b3575b8115615694575090565b606160f81b8110159150816156a7575090565b603d60f91b1015905090565b602d60f91b811115915061568a565b60ff60f81b16600360fc1b81101590816156da575090565b603960f81b1015919050565b60ff601b9116019060ff821161077857565b156156ff57565b60405162461bcd60e51b815260206004820152601760248201527f496e76616c6964207369676e61747572652076616c75650000000000000000006044820152606490fdfea2646970667358221220a287ea30d2b214cb4bde0b6bcef59e44a445d2706a6151012201b9fc5d7591f664736f6c634300081a0033","linkReferences":{"src/libraries/AdvancedStrings.sol":{"AdvancedStrings":[{"start":13591,"length":20},{"start":17247,"length":20},{"start":20414,"length":20}]}}},"methodIdentifiers":{"acceptChangeEvvmAddress()":"48ffba55","acceptOffer(address,uint256,string,uint256,uint256,bytes,uint256,bool,bytes)":"ae36fe72","acceptProposeAdmin()":"eba5e53e","addCustomMetadata(address,uint256,string,string,uint256,bytes,uint256,bool,bytes)":"e6efeffa","cancelChangeAutority()":"c150741e","cancelChangeEmailRegistery()":"b88dc004","cancelChangeEvvmAddress()":"24866f15","cancelChangePhoneNumberRegistery()":"2e76af5c","cancelProposeAdmin()":"88ecb91f","cancelSetStopChangeVerificationsAddress()":"f7b2efb5","cancelWithdrawMateTokens()":"81bb2df3","changeAutority()":"331a3989","changeEmailRegistery()":"dfb91dea","changePhoneNumberRegistery()":"c12615bb","checkIfMNSNonceIsAvailable(address,uint256)":"debeef5c","claimTransferEmail(string)":"8104625d","claimTransferTelephoneNumber(string)":"76de08a1","claimWithdrawMateTokens()":"b2bc0ed6","flushCustomMetadata(address,uint256,string,uint256,bytes,uint256,bool,bytes)":"3e7899a1","flushUsername(address,string,uint256,uint256,bytes,uint256,bool,bytes)":"d22c816c","getAdmin()":"6e9960c3","getAdminFullDetails()":"5548a762","getAmountOfCustomMetadata(string)":"6b5bb1ca","getAutority()":"10e5c25f","getAutorityFullDetails()":"bf2e9ab5","getCustomMetadataMaxSlotsOfIdentity(string)":"7bd9da7a","getEmailRegistery()":"11eed714","getEmailRegisteryFullDetails()":"6413033f","getEvvmAddress()":"0d1ffe3a","getEvvmAddressFullDetails()":"49166379","getExpireDateOfUsername(string)":"6a74ca46","getFullCustomMetadataOfIdentity(string)":"b19517dd","getIdentityBasicMetadata(string)":"c97da33e","getLengthOfOffersUsername(string)":"fe7ab683","getOffersOfUsername(string)":"d7fd3134","getOwnerOfIdentity(string)":"0d3dcb9f","getPhoneNumberRegistery()":"35834e10","getPhoneNumberRegisteryFullDetails()":"10d8bb09","getPricePerRegistration()":"b8086f98","getPriceToAddCustomMetadata()":"36e7a1b8","getPriceToFlushCustomMetadata(string)":"1f4131fb","getPriceToFlushUsername(string)":"54dc585d","getPriceToRemoveCustomMetadata()":"99e7bac2","getProposedWithdrawAmountFullDetails()":"d2234a1a","getSingleCustomMetadataOfIdentity(string,uint256)":"f6d0ecbe","getSingleOfferOfUsername(string,uint256)":"43a82d67","getStopChangeVerificationsAddressFullDetails()":"ff9794f0","hashUsername(string,uint256)":"bcd5a47c","isUsernameAvailable(string)":"f69c6dec","makeOffer(address,uint256,string,uint256,uint256,uint256,bytes,uint256,bool,bytes)":"52649c2e","preRegistrationUsername(address,uint256,bytes32,uint256,bytes,uint256,bool,bytes)":"393b9c6f","prepareChangeAutority(address)":"f559b24e","prepareChangeEmailRegistery(address)":"a893b5ec","proposeAdmin(address)":"147bf6c4","proposeChangeEvvmAddress(address)":"a6ba51ca","proposeChangePhoneNumberRegistery(address)":"cf97ed1a","proposeSetStopChangeVerificationsAddress()":"b7e5296d","proposeWithdrawMateTokens(uint256)":"b0d107da","registrationEmail(address,uint256,string,uint256,bytes,uint256,bytes,uint256,uint256,bool,bytes)":"27f8290d","registrationTelephoneNumber(address,uint256,string,uint256,bytes,uint256,bytes,uint256,uint256,bool,bytes)":"aa5ae794","registrationUsername(address,uint256,string,uint256,bytes,uint256,uint256,bool,bytes)":"d134f8b4","removeCustomMetadata(address,uint256,string,uint256,uint256,bytes,uint256,bool,bytes)":"8001a999","renewUsername(address,uint256,string,uint256,bytes,uint256,bool,bytes)":"f1747483","reverseTransferEmail(address,uint256,string,uint256,bytes)":"49973b19","reverseTransferTelephoneNumber(address,uint256,string,uint256,bytes)":"950f80b1","seePriceToRenew(string)":"75dab53b","setStopChangeVerificationsAddress()":"6a582c30","strictVerifyIfIdentityExist(string)":"86c8ac58","verifyIfIdentityExists(string)":"7126b2a3","verifyStrictAndGetOwnerOfIdentity(string)":"0c78d2c6","withdrawOffer(address,uint256,string,uint256,uint256,bytes,uint256,bool,bytes)":"21811609"},"id":86}