{"abi":[{"type":"constructor","inputs":[{"name":"_MNS_ADDRESS","type":"address","internalType":"address"},{"name":"_autority","type":"address","internalType":"address"}],"stateMutability":"nonpayable"},{"type":"function","name":"MNS_ADDRESS","inputs":[],"outputs":[{"name":"","type":"address","internalType":"address"}],"stateMutability":"view"},{"type":"function","name":"changeAutority","inputs":[{"name":"_newAutority","type":"address","internalType":"address"}],"outputs":[],"stateMutability":"nonpayable"},{"type":"function","name":"claimTransfer","inputs":[{"name":"_email","type":"string","internalType":"string"}],"outputs":[{"name":"reward","type":"uint256","internalType":"uint256"}],"stateMutability":"nonpayable"},{"type":"function","name":"getFullMetadata","inputs":[{"name":"email","type":"string","internalType":"string"}],"outputs":[{"name":"","type":"address","internalType":"address"},{"name":"","type":"address","internalType":"address"},{"name":"","type":"uint256","internalType":"uint256"},{"name":"","type":"uint256","internalType":"uint256"}],"stateMutability":"view"},{"type":"function","name":"register","inputs":[{"name":"_user","type":"address","internalType":"address"},{"name":"_email","type":"string","internalType":"string"},{"name":"_timestampUser","type":"uint256","internalType":"uint256"},{"name":"_signatureUser","type":"bytes","internalType":"bytes"},{"name":"_timestampAutority","type":"uint256","internalType":"uint256"},{"name":"_signatureAutority","type":"bytes","internalType":"bytes"}],"outputs":[{"name":"reward","type":"uint256","internalType":"uint256"}],"stateMutability":"nonpayable"},{"type":"function","name":"reverseTransfer","inputs":[{"name":"_user","type":"address","internalType":"address"},{"name":"_email","type":"string","internalType":"string"},{"name":"_timestamp","type":"uint256","internalType":"uint256"},{"name":"_signature","type":"bytes","internalType":"bytes"}],"outputs":[{"name":"reward","type":"uint256","internalType":"uint256"}],"stateMutability":"nonpayable"}],"bytecode":{"object":"0x60a03460aa57601f610d5d38819003918201601f19168301916001600160401b0383118484101760ae57808492604094855283398101031260aa57604b602060458360c2565b920160c2565b608091909152600180546001600160a01b0319166001600160a01b03909216919091179055604051610c8790816100d68239608051818181608f015281816101e3015281816102da015281816103b90152818161055801526106a80152f35b5f80fd5b634e487b7160e01b5f52604160045260245ffd5b51906001600160a01b038216820360aa5756fe60806040526004361015610011575f80fd5b5f3560e01c80630846e1fe146100745780630f88ab5c1461006f5780637f7d4a281461006a578063bd91a16214610065578063de9b8e89146100605763f106fe1d1461005b575f80fd5b6104f8565b6103a9565b610309565b6102c5565b6101d3565b346100df5760203660031901126100df5761008d6100e3565b7f00000000000000000000000000000000000000000000000000000000000000006001600160a01b031633036100df57600180546001600160a01b0319166001600160a01b0392909216919091179055005b5f80fd5b600435906001600160a01b03821682036100df57565b634e487b7160e01b5f52604160045260245ffd5b90601f8019910116810190811067ffffffffffffffff82111761012f57604052565b6100f9565b6040519061014360808361010d565b565b67ffffffffffffffff811161012f57601f01601f191660200190565b81601f820112156100df5760208135910161017b82610145565b92610189604051948561010d565b828452828201116100df57815f92602092838601378301015290565b60206003198201126100df576004359067ffffffffffffffff82116100df576101d091600401610161565b90565b346100df576101e1366101a5565b7f00000000000000000000000000000000000000000000000000000000000000006001600160a01b031633036100df5760405161021e8183610673565b905f825260208160018060a01b03930301902054166102c160405160016102458286610673565b915f8352602081838060a01b0394030190200154169260036102896020600260405182816102738189610673565b5f81520301902001549360405192838092610673565b5f8152030190200154604080516001600160a01b03958616815295909416602086015292840152606083019190915281906080820190565b0390f35b346100df575f3660031901126100df576040517f00000000000000000000000000000000000000000000000000000000000000006001600160a01b03168152602090f35b346100df5760c03660031901126100df576103226100e3565b60243567ffffffffffffffff81116100df57610342903690600401610161565b906044359060643567ffffffffffffffff81116100df57610367903690600401610161565b6084359060a4359367ffffffffffffffff85116100df576102c195610393610399963690600401610161565b946106a1565b6040519081529081906020820190565b346100df576103b7366101a5565b7f00000000000000000000000000000000000000000000000000000000000000006001600160a01b031633036100df576001600160a01b036104086103fb83610685565b546001600160a01b031690565b161580156104e4575b80156104c7575b6100df578061047161043f60016104316104bb95610685565b01546001600160a01b031690565b9161045a61044b610134565b6001600160a01b039094168452565b5f60208401525f60408401525f6060840152610685565b815181546001600160a01b039182166001600160a01b0319918216178355602084015160018401805491909316911617905560408201516002820155606090910151600390910155565b60405160198152602090f35b506104dd60036104d683610685565b01546106f3565b4211610418565b5060036104f082610685565b015415610411565b346100df5760803660031901126100df576105116100e3565b60243567ffffffffffffffff81116100df57610531903690600401610161565b9060443560643567ffffffffffffffff81116100df57610555903690600401610161565b907f00000000000000000000000000000000000000000000000000000000000000006001600160a01b031633036100df57610599916105959185856108cd565b1590565b6100df576001600160a01b036105b16103fb84610685565b161590811561064d575b811561062a575b508015610615575b6100df5760026106075f924260036105e183610685565b015561060260016105f183610685565b0180546001600160a01b0319169055565b610685565b015560405160198152602090f35b50600261062182610685565b015442116105ca565b90506106386103fb83610685565b6001600160a01b03908116911614155f6105c2565b905061066c610660600161043185610685565b6001600160a01b031690565b15906105bb565b805191908290602001825e015f815290565b60206106979160405192838092610673565b5f81520301902090565b94939291907f00000000000000000000000000000000000000000000000000000000000000006001600160a01b031633036100df576101d095610717565b634e487b7160e01b5f52601160045260245ffd5b9062015180820180921161070357565b6106df565b90610e10820180921161070357565b939294909461072b61059582858989610801565b6100df5761073f9184876105959388610882565b6100df5761074c90610708565b42119081156107ee575b506100df576001600160a01b0361076f6103fb84610685565b166107a45761078061079f92610685565b80546001600160a01b0319166001600160a01b03909216919091179055565b603290565b6107d39060016107b384610685565b0180546001600160a01b0319166001600160a01b03909216919091179055565b60026107e76107e1426106f3565b92610685565b0155601990565b90506107fa4291610708565b105f610756565b926108616108719261085361081861084596610943565b60016040519788946731321c98b0989b1960c11b6020870152600b60fa1b60288701526029860190610673565b600b60fa1b81520190610673565b03601f19810185528461010d565b82516001600160a01b0393610aa4565b6001600160a01b0390921691161490565b9390610861906108536108719460016108456108a061084599610943565b92826040519a8b976731321c98b0989b1960c11b60208a0152600b60fa1b60288a01526029890190610673565b92610861610871926108536108e461084596610943565b600160405197889467198c4c0d99994c5960c21b6020870152600b60fa1b60288701526029860190610673565b9061091b82610145565b610928604051918261010d565b8281528092610939601f1991610145565b0190602036910137565b805f9172184f03e93ff9f4daa797ed6e38ed64bf6a1f0160401b821015610a76575b806d04ee2d6d415b85acef8100000000600a921015610a5a575b662386f26fc10000811015610a45575b6305f5e100811015610a33575b612710811015610a23575b6064811015610a14575b1015610a09575b6109f460216109c960018501610911565b938401015b5f1901916f181899199a1a9b1b9c1cb0b131b232b360811b600a82061a8353600a900490565b8015610a04576109f490916109ce565b505090565b6001909101906109b8565b600290606490049301926109b1565b60049061271090049301926109a7565b6008906305f5e100900493019261099c565b601090662386f26fc10000900493019261098f565b6020906d04ee2d6d415b85acef8100000000900493019261097f565b506040915072184f03e93ff9f4daa797ed6e38ed64bf6a1f0160401b8104610965565b6040513d5f823e3d90fd5b90610b04610ab4610af692610943565b92604051928391610af060208401967f19457468657265756d205369676e6564204d6573736167653a0a0000000000008852603a850190610673565b90610673565b03601f19810183528261010d565b5190206041825103610bae57815f916020809401519160606040820151910151841a92601b8410610b97575b90610b7491610b4e60ff8616601b8114908115610b8c575b50610c05565b604051948594859094939260ff6060936080840197845216602083015260408201520152565b838052039060015afa15610b87575f5190565b610a99565b601c9150145f610b48565b9290610ba5610b7492610bf3565b93909150610b30565b60405162461bcd60e51b815260206004820152601860248201527f496e76616c6964207369676e6174757265206c656e67746800000000000000006044820152606490fd5b60ff601b9116019060ff821161070357565b15610c0c57565b60405162461bcd60e51b815260206004820152601760248201527f496e76616c6964207369676e61747572652076616c75650000000000000000006044820152606490fdfea2646970667358221220713dd695db58371559f2c4308c7689bce543c03c3673a2d5c0d775837673ea5564736f6c634300081a0033","linkReferences":{}},"methodIdentifiers":{"MNS_ADDRESS()":"7f7d4a28","changeAutority(address)":"0846e1fe","claimTransfer(string)":"de9b8e89","getFullMetadata(string)":"0f88ab5c","register(address,string,uint256,bytes,uint256,bytes)":"bd91a162","reverseTransfer(address,string,uint256,bytes)":"f106fe1d"},"id":97}