{"abi":[{"type":"constructor","inputs":[{"name":"_evvmAddress","type":"address","internalType":"address"},{"name":"_owner","type":"address","internalType":"address"}],"stateMutability":"nonpayable"},{"type":"function","name":"acceptFillFixedPercentage","inputs":[],"outputs":[],"stateMutability":"nonpayable"},{"type":"function","name":"acceptFillPropotionalPercentage","inputs":[],"outputs":[],"stateMutability":"nonpayable"},{"type":"function","name":"acceptMaxLimitFillFixedFee","inputs":[],"outputs":[],"stateMutability":"nonpayable"},{"type":"function","name":"acceptOwner","inputs":[],"outputs":[],"stateMutability":"nonpayable"},{"type":"function","name":"acceptPercentageFee","inputs":[],"outputs":[],"stateMutability":"nonpayable"},{"type":"function","name":"acceptWithdrawal","inputs":[],"outputs":[],"stateMutability":"nonpayable"},{"type":"function","name":"cancelOrder","inputs":[{"name":"user","type":"address","internalType":"address"},{"name":"metadata","type":"tuple","internalType":"struct P2PSwap.MetadataCancelOrder","components":[{"name":"nonce","type":"uint256","internalType":"uint256"},{"name":"tokenA","type":"address","internalType":"address"},{"name":"tokenB","type":"address","internalType":"address"},{"name":"orderId","type":"uint256","internalType":"uint256"},{"name":"signature","type":"bytes","internalType":"bytes"}]},{"name":"_priorityFee_Evvm","type":"uint256","internalType":"uint256"},{"name":"_nonce_Evvm","type":"uint256","internalType":"uint256"},{"name":"_priority_Evvm","type":"bool","internalType":"bool"},{"name":"_signature_Evvm","type":"bytes","internalType":"bytes"}],"outputs":[],"stateMutability":"nonpayable"},{"type":"function","name":"checkIfANonceP2PSwapIsUsed","inputs":[{"name":"user","type":"address","internalType":"address"},{"name":"nonce","type":"uint256","internalType":"uint256"}],"outputs":[{"name":"","type":"bool","internalType":"bool"}],"stateMutability":"view"},{"type":"function","name":"dispatchOrder_fillFixedFee","inputs":[{"name":"user","type":"address","internalType":"address"},{"name":"metadata","type":"tuple","internalType":"struct P2PSwap.MetadataDispatchOrder","components":[{"name":"nonce","type":"uint256","internalType":"uint256"},{"name":"tokenA","type":"address","internalType":"address"},{"name":"tokenB","type":"address","internalType":"address"},{"name":"orderId","type":"uint256","internalType":"uint256"},{"name":"amountOfTokenBToFill","type":"uint256","internalType":"uint256"},{"name":"signature","type":"bytes","internalType":"bytes"}]},{"name":"_priorityFee_Evvm","type":"uint256","internalType":"uint256"},{"name":"_nonce_Evvm","type":"uint256","internalType":"uint256"},{"name":"_priority_Evvm","type":"bool","internalType":"bool"},{"name":"_signature_Evvm","type":"bytes","internalType":"bytes"}],"outputs":[],"stateMutability":"nonpayable"},{"type":"function","name":"dispatchOrder_fillPropotionalFee","inputs":[{"name":"user","type":"address","internalType":"address"},{"name":"metadata","type":"tuple","internalType":"struct P2PSwap.MetadataDispatchOrder","components":[{"name":"nonce","type":"uint256","internalType":"uint256"},{"name":"tokenA","type":"address","internalType":"address"},{"name":"tokenB","type":"address","internalType":"address"},{"name":"orderId","type":"uint256","internalType":"uint256"},{"name":"amountOfTokenBToFill","type":"uint256","internalType":"uint256"},{"name":"signature","type":"bytes","internalType":"bytes"}]},{"name":"_priorityFee_Evvm","type":"uint256","internalType":"uint256"},{"name":"_nonce_Evvm","type":"uint256","internalType":"uint256"},{"name":"_priority_Evvm","type":"bool","internalType":"bool"},{"name":"_signature_Evvm","type":"bytes","internalType":"bytes"}],"outputs":[],"stateMutability":"nonpayable"},{"type":"function","name":"findMarket","inputs":[{"name":"tokenA","type":"address","internalType":"address"},{"name":"tokenB","type":"address","internalType":"address"}],"outputs":[{"name":"","type":"uint256","internalType":"uint256"}],"stateMutability":"view"},{"type":"function","name":"getAllMarketsMetadata","inputs":[],"outputs":[{"name":"","type":"tuple[]","internalType":"struct P2PSwap.MarketInformation[]","components":[{"name":"tokenA","type":"address","internalType":"address"},{"name":"tokenB","type":"address","internalType":"address"},{"name":"maxSlot","type":"uint256","internalType":"uint256"},{"name":"ordersAvailable","type":"uint256","internalType":"uint256"}]}],"stateMutability":"view"},{"type":"function","name":"getAllMartetOrders","inputs":[{"name":"market","type":"uint256","internalType":"uint256"}],"outputs":[{"name":"orders","type":"tuple[]","internalType":"struct P2PSwap.OrderForGetter[]","components":[{"name":"marketId","type":"uint256","internalType":"uint256"},{"name":"orderId","type":"uint256","internalType":"uint256"},{"name":"seller","type":"address","internalType":"address"},{"name":"amountA","type":"uint256","internalType":"uint256"},{"name":"amountB","type":"uint256","internalType":"uint256"}]}],"stateMutability":"view"},{"type":"function","name":"getMarketMetadata","inputs":[{"name":"market","type":"uint256","internalType":"uint256"}],"outputs":[{"name":"","type":"tuple","internalType":"struct P2PSwap.MarketInformation","components":[{"name":"tokenA","type":"address","internalType":"address"},{"name":"tokenB","type":"address","internalType":"address"},{"name":"maxSlot","type":"uint256","internalType":"uint256"},{"name":"ordersAvailable","type":"uint256","internalType":"uint256"}]}],"stateMutability":"view"},{"type":"function","name":"getMyOrdersInSpecificMarket","inputs":[{"name":"user","type":"address","internalType":"address"},{"name":"market","type":"uint256","internalType":"uint256"}],"outputs":[{"name":"orders","type":"tuple[]","internalType":"struct P2PSwap.OrderForGetter[]","components":[{"name":"marketId","type":"uint256","internalType":"uint256"},{"name":"orderId","type":"uint256","internalType":"uint256"},{"name":"seller","type":"address","internalType":"address"},{"name":"amountA","type":"uint256","internalType":"uint256"},{"name":"amountB","type":"uint256","internalType":"uint256"}]}],"stateMutability":"view"},{"type":"function","name":"makeOrder","inputs":[{"name":"user","type":"address","internalType":"address"},{"name":"metadata","type":"tuple","internalType":"struct P2PSwap.MetadataMakeOrder","components":[{"name":"nonce","type":"uint256","internalType":"uint256"},{"name":"tokenA","type":"address","internalType":"address"},{"name":"tokenB","type":"address","internalType":"address"},{"name":"amountA","type":"uint256","internalType":"uint256"},{"name":"amountB","type":"uint256","internalType":"uint256"},{"name":"signature","type":"bytes","internalType":"bytes"}]},{"name":"signature","type":"bytes","internalType":"bytes"},{"name":"_priorityFee_Evvm","type":"uint256","internalType":"uint256"},{"name":"_nonce_Evvm","type":"uint256","internalType":"uint256"},{"name":"_priority_Evvm","type":"bool","internalType":"bool"},{"name":"_signature_Evvm","type":"bytes","internalType":"bytes"}],"outputs":[{"name":"market","type":"uint256","internalType":"uint256"},{"name":"orderId","type":"uint256","internalType":"uint256"}],"stateMutability":"nonpayable"},{"type":"function","name":"proposeFillFixedPercentage","inputs":[{"name":"_seller","type":"uint256","internalType":"uint256"},{"name":"_service","type":"uint256","internalType":"uint256"},{"name":"_mateStaker","type":"uint256","internalType":"uint256"}],"outputs":[],"stateMutability":"nonpayable"},{"type":"function","name":"proposeFillPropotionalPercentage","inputs":[{"name":"_seller","type":"uint256","internalType":"uint256"},{"name":"_service","type":"uint256","internalType":"uint256"},{"name":"_mateStaker","type":"uint256","internalType":"uint256"}],"outputs":[],"stateMutability":"nonpayable"},{"type":"function","name":"proposeMaxLimitFillFixedFee","inputs":[{"name":"_maxLimitFillFixedFee","type":"uint256","internalType":"uint256"}],"outputs":[],"stateMutability":"nonpayable"},{"type":"function","name":"proposeOwner","inputs":[{"name":"_owner","type":"address","internalType":"address"}],"outputs":[],"stateMutability":"nonpayable"},{"type":"function","name":"proposePercentageFee","inputs":[{"name":"_percentageFee","type":"uint256","internalType":"uint256"}],"outputs":[],"stateMutability":"nonpayable"},{"type":"function","name":"proposeWithdrawal","inputs":[{"name":"_tokenToWithdraw","type":"address","internalType":"address"},{"name":"_amountToWithdraw","type":"uint256","internalType":"uint256"},{"name":"_to","type":"address","internalType":"address"}],"outputs":[],"stateMutability":"nonpayable"},{"type":"function","name":"rejectProposeFillFixedPercentage","inputs":[],"outputs":[],"stateMutability":"nonpayable"},{"type":"function","name":"rejectProposeFillPropotionalPercentage","inputs":[],"outputs":[],"stateMutability":"nonpayable"},{"type":"function","name":"rejectProposeMaxLimitFillFixedFee","inputs":[],"outputs":[],"stateMutability":"nonpayable"},{"type":"function","name":"rejectProposeOwner","inputs":[],"outputs":[],"stateMutability":"nonpayable"},{"type":"function","name":"rejectProposePercentageFee","inputs":[],"outputs":[],"stateMutability":"nonpayable"},{"type":"function","name":"rejectProposeWithdrawal","inputs":[],"outputs":[],"stateMutability":"nonpayable"}],"bytecode":{"object":"0x6080604052346100fa57604051601f61322d38819003918201601f19168301916001600160401b038311848410176100e65780849260409485528339810103126100fa576100586020610051836100fe565b92016100fe565b600380546001600160a01b039384166001600160a01b0319918216179091555f805492909316911617905566038d7ea4c68000600e556101f4600b55604051606081018181106001600160401b038211176100e6576103e89160409182526113888152610fa060208201520152611388600455610fa06005556103e860065560405161311a90816101138239f35b634e487b7160e01b5f52604160045260245ffd5b5f80fd5b51906001600160a01b03821682036100fa5756fe60806040526004361015610011575f80fd5b5f3560e01c80631128a79a146101ca57806314438428146101c557806316790f81146101c057806326415c71146101bb578063313c66dc146101b657806335287eaf146101b157806335b2c22c146101ac5780634fe13edd146101a757806354282704146101a25780636ae76d5b1461019d5780636b6445b6146101985780636cdbf92714610193578063701c70de1461018e5780637280ff351461018957806374efedc91461018457806376a75a2914610175578063891b8fa21461017f5780638a82edca1461017a5780638eb163d314610175578063952469d01461016b578063a936e0d114610170578063af5cecc01461016b578063b3d4fd7914610166578063b5ed298a14610161578063b7ac72ff1461015c578063cfb35fd014610157578063db7ccd63146101525763ebbc49651461014d575f80fd5b6119fa565b61199b565b611940565b611883565b611828565b6117ed565b61176b565b6117b3565b611608565b61171d565b611677565b6115cc565b611591565b6112da565b611255565b6111cc565b6110eb565b611087565b610a03565b610679565b61061f565b6104cc565b61041c565b61034b565b610217565b6101dd565b5f9103126101d957565b5f80fd5b346101d9575f3660031901126101d9575f546001600160a01b0316331480159061020c575b6101d9575f600f55005b506010544211610202565b346101d9575f3660031901126101d9575f546001600160a01b031633148015906102cf575b6101d957601354601154610260916001600160a01b03908116911660125491612431565b601180546001600160a01b03191690556102795f601255565b601380546001600160a01b03191690556102925f601455565b6012546011546102cb906102c3906001600160a01b03165b6001600160a01b03165f908152601a6020526040902090565b918254611a67565b9055005b50601454421161023c565b60206040818301928281528451809452019201905f5b8181106102fd5750505090565b909192602060808261034060019488516060809160018060a01b03815116845260018060a01b036020820151166020850152604081015160408501520151910152565b0194019291016102f0565b346101d9575f3660031901126101d95760155460018101908181116104175761037382611ac9565b916103816040519384610844565b808352610390601f1991611ac9565b015f5b81811061040057505060015b818111156103b957604051806103b585826102da565b0390f35b806103f56103d26103fb935f52601860205260405f2090565b6103e46103de84611a59565b91611b5c565b6103ee8288611b48565b5285611b48565b50611b04565b61039f565b60209061040b611ae0565b82828701015201610393565b611a45565b346101d9575f3660031901126101d957600154336001600160a01b03821614801590610456575b6101d9576001600160a01b031916600155005b506002544211610443565b60206040818301928281528451809452019201905f5b8181106104845750505090565b909192602060a0600192608087518051835284810151858401528580851b03604082015116604084015260608101516060840152015160808201520194019101919091610477565b346101d95760203660031901126101d95760043561050661050160026104fa845f52601860205260405f2090565b0154611a74565b611b9a565b9060015b61052160026104fa845f52601860205260405f2090565b8111610611578061056d61056161055461057694610547875f52601960205260405f2090565b905f5260205260405f2090565b546001600160a01b031690565b6001600160a01b031690565b61057b57611b04565b61050a565b6103f561059761055483610547875f52601960205260405f2090565b60016105af84610547885f52601960205260405f2090565b015460026105c985610547895f52601960205260405f2090565b0154906105f36105d7610865565b888152602081018790526001600160a01b039094166040850152565b6060830152608082015261060683611a59565b906103ee8288611b48565b604051806103b58582610461565b346101d9575f3660031901126101d9575f546001600160a01b03163314801590610650575b6101d957600c54600b55005b50600d544211610644565b6001600160a01b038116036101d957565b35906106778261065b565b565b346101d95760403660031901126101d9576004356106968161065b565b6024356106b361050160026104fa845f52601860205260405f2090565b6001600160a01b039092169160015b6106d960026104fa855f52601860205260405f2090565b81116107b15761070f908460018060a01b0361070461055484610547895f52601960205260405f2090565b161461071457611b04565b6106c2565b6103f561073061055483610547885f52601960205260405f2090565b600161074884610547895f52601960205260405f2090565b01546002610762856105478a5f52601960205260405f2090565b01549061078c610770610865565b898152602081018790526001600160a01b039094166040850152565b6060830152608082015261079f83611a59565b906107aa8287611b48565b5284611b48565b604051806103b58482610461565b634e487b7160e01b5f52604160045260245ffd5b60c081019081106001600160401b038211176107ee57604052565b6107bf565b60a081019081106001600160401b038211176107ee57604052565b608081019081106001600160401b038211176107ee57604052565b604081019081106001600160401b038211176107ee57604052565b90601f801991011681019081106001600160401b038211176107ee57604052565b6040519061067760a083610844565b60405190610677604083610844565b60405190610677606083610844565b6001600160401b0381116107ee57601f01601f191660200190565b81601f820112156101d9578035906108c482610892565b926108d26040519485610844565b828452602083830101116101d957815f926020809301838601378301015290565b919060c0838203126101d9576040519061090c826107d3565b81938035835260208101356109208161065b565b60208401526109316040820161066c565b6040840152606081013560608401526080810135608084015260a0810135916001600160401b0383116101d95760a09261096b92016108ad565b910152565b801515036101d957565b6084359061067782610970565b60a4359061067782610970565b9060c06003198301126101d9576004356109ad8161065b565b916024356001600160401b0381116101d957816109cc916004016108f3565b9160443591606435916084356109e181610970565b9160a435906001600160401b0382116101d957610a00916004016108ad565b90565b346101d957610a1136610994565b8451602086015160408701805160608901805160a08b0151919b9998979396959394610a5394610a4f946001600160a01b039081169216908c6124a1565b1590565b6101d9576020870151610aa0906001600160a01b031684516001600160a01b03165b906001600160a01b039081165f90815260176020908152604080832093909416825291909152205490565b9485158015611051575b8015611020575b6101d95783516001600160a01b0316610ad2875f52601960205260405f2090565b8a51610ae591905f5260205260405f2090565b60020154610af29161255b565b909460808a01968b83888a5192610b118d5f52601960205260405f2090565b9051610b2491905f5260205260405f2090565b6002015490610b3291611abc565b90610b3c91611a67565b116101d95788610cd385610d36958f97610d3c9a8f9a610b77928f9c8f9d99610d079a610b6f8d5160018060a01b031690565b9051926128ea565b610bb38c5191610bae8b6002610ba78d610b998b5f52601960205260405f2090565b90515f5260205260405f2090565b0154611abc565b611a67565b111580610ffc575b15610ff157878d8c89610bf682516002610bee610be08b5f52601960205260405f2090565b85515f5260205260405f2090565b015490611a67565b965b898351610c24876002610ba7610c16875f52601960205260405f2090565b88515f5260205260405f2090565b10610fa7575b509350505050610ca8610c8d610554610c41611c07565b9a610b99610c7e6002610c5f610be0895f52601960205260405f2090565b0154610c78610c72600454612710900490565b8c611cc3565b90611abc565b955f52601960205260405f2090565b610c95610874565b9283526001600160a01b03166020830152565b610cb188611b26565b52610cbb87611b26565b50610c78610ccd600654612710900490565b84611cc3565b610cdb610874565b908152336020820152610ced86611b38565b52610cf785611b38565b5060055461271090045b90611cc3565b8151610d2790610d1f906001600160a01b03166102aa565b918254611abc565b9055516001600160a01b031690565b9061298a565b6020850151610d7d906001600160a01b03165b6001610d74610d66875f52601960205260405f2090565b8a515f5260205260405f2090565b01549086612431565b600354610d9490610561906001600160a01b031681565b6040516333b6331760e21b8152336004820152909290602081602481875afa908115610f09575f91610f78575b50610e45575b50610e43610e3686610b99876003610e1089610e02610df28f610b99845f52601960205260405f2090565b80546001600160a01b0319169055565b5f52601860205260405f2090565b01610e1b8154611d05565b90556001600160a01b03165f90815260166020526040902090565b805460ff19166001179055565b005b91602091610e7960049597969451916002610ba7610e6b8b5f52601960205260405f2090565b8c515f5260205260405f2090565b1015610f0e576040516306fb495b60e31b815293849182905afa918215610f0957610e10610e3695610e02610df2610e4399610ecb610ec5610b99996003985f91610eda575b50611c69565b336123cf565b99505050935082949550610dc7565b610efc915060203d602011610f02575b610ef48183610844565b810190611cf6565b5f610ebf565b503d610eea565b611ceb565b6040516306fb495b60e31b815293849182905afa918215610f0957610e10610e3695610e02610df2610e4399610ecb610f54610b99996003985f91610f59575b50611c53565b610ec5565b610f72915060203d602011610f0257610ef48183610844565b5f610f4e565b610f9a915060203d602011610fa0575b610f928183610844565b810190611cd6565b5f610dc1565b503d610f88565b51610fe695610fe093610fda92600291610ba791610b99906001600160a01b03165b9851965f52601960205260405f2090565b90611a67565b91612431565b878d8c898f89610c2a565b878d8c898396610bf8565b508a5161101a896002610ba7610e6b885f52601960205260405f2090565b11610bbb565b506001600160a01b0387165f90815260166020526040902061104c9061104590610d66565b5460ff1690565b610ab1565b50611064865f52601960205260405f2090565b61108061055460018060a01b03928c515f5260205260405f2090565b1615610aaa565b346101d9575f3660031901126101d9575f546001600160a01b031633148015906110e0575b6101d9576001600160601b0360a01b601154166011555f6012556001600160601b0360a01b601354166013555f6014555f80f35b5060145442116110ac565b346101d95760c03660031901126101d9576004356111088161065b565b602435906001600160401b0382116101d95760a060031983360301126101d95760405191611135836107f3565b80600401358352602481013561114a8161065b565b6020840152604481013561115d8161065b565b6040840152606481013560608401526084810135906001600160401b0382116101d957600461118f92369201016108ad565b60808301526044356064356111a261097a565b9160a435946001600160401b0386116101d9576111c6610e439636906004016108ad565b94611d11565b346101d95760203660031901126101d9576004356111e8611ae0565b505f52601860205260806111fe60405f20611b5c565b61123960405180926060809160018060a01b03815116845260018060a01b036020820151166020850152604081015160408501520151910152565bf35b60609060031901126101d957600435906024359060443590565b346101d9576112633661123b565b5f549192916001600160a01b031633036101d9578282018083116104175781810180911161041757612710036101d9576112c992604051926112a6606085610844565b835260208301526040820152604090805160075560208101516008550151600955565b610e436112d542611a82565b600a55565b346101d95760a06112ea36610994565b908495949392935160208701611332610a4f61130c835160018060a01b031690565b60408b0180519095918c916001600160a01b031690606083019e8f51930151938d6124a1565b6101d9578051611355906001600160a01b031683516001600160a01b0316610a75565b958615801561155b575b8015611527575b6101d957610b9995608095886113c18c60028f610ba7906113ab836113a4611396895f52601960205260405f2090565b84515f5260205260405f2090565b0154612a8c565b9c8d94019d8e51965f52601960205260405f2090565b116101d957610d36856114ac848f948e8d8f88908f9a610d7d9f95610d4f9f96611405926114e89f8f996113fb905160018060a01b031690565b908851918a6128ea565b878351611423876002610ba7610c16875f52601960205260405f2090565b106114f5575b509350505050611481610c8d610554611440611c07565b98610b99610c7e8c610c7860026114706114628b5f52601960205260405f2090565b87515f5260205260405f2090565b015491610d01600454612710900490565b61148a86611b26565b5261149485611b26565b50610c786114a6600654612710900490565b87611cc3565b6114b4610874565b9081523360208201526114c684611b38565b526114d083611b38565b50610d076114e2600554612710900490565b85611cc3565b516001600160a01b031690565b5161151b95610fe093610fda92600291610ba791610b99906001600160a01b0316610fc9565b858e8d8f889087611429565b506001600160a01b0388165f90815260166020526040902061155690611045905b8b515f5260205260405f2090565b611366565b5061156e875f52601960205260405f2090565b61158a61055460018060a01b03928d515f5260205260405f2090565b161561135f565b346101d95760203660031901126101d9575f54600435906001600160a01b031633036101d957600f5562015180420180421161041757601055005b346101d9575f3660031901126101d9575f546001600160a01b031633148015906115fd575b6101d957600f54600e55005b5060105442116115f1565b346101d9575f3660031901126101d9575f546001600160a01b0316331480159061166c575b6101d957604051606081018181106001600160401b038211176107ee575f91604091825282815282602082015201525f6007555f6008555f6009555f80f35b50600a54421161162d565b346101d95760e03660031901126101d9576004356116948161065b565b6024356001600160401b0381116101d9576116b39036906004016108f3565b906044356001600160401b0381116101d9576116d39036906004016108ad565b6084356064356116e1610987565b9260c435956001600160401b0387116101d95761170561170b9736906004016108ad565b95611fd4565b60408051928352602083019190915290f35b346101d95760403660031901126101d95760043561173a8161065b565b6024359060018060a01b03165f52601660205260405f20905f52602052602060ff60405f2054166040519015158152f35b346101d9575f3660031901126101d9575f546001600160a01b031633148015906117a8575b6101d957600754600455600854600555600954600655005b50600a544211611790565b346101d9575f3660031901126101d9575f546001600160a01b031633148015906117e2575b6101d9575f600c55005b50600d5442116117d8565b346101d95760203660031901126101d9575f54600435906001600160a01b031633036101d957600c5562015180420180421161041757600d55005b346101d95760203660031901126101d9576004356118458161065b565b5f546001600160a01b031633036101d95760018060a01b03166001600160601b0360a01b600154161760015562015180420180421161041757600255005b346101d95760603660031901126101d9576004356118a08161065b565b60243590604435906118b18261065b565b5f546001600160a01b03163314801590611920575b6101d95761190f926118f29160018060a01b03166001600160601b0360a01b6011541617601155601255565b60018060a01b03166001600160601b0360a01b6013541617601355565b610e4361191b42611a82565b601455565b506001600160a01b0381165f908152601a602052604090205483116118c6565b346101d95761194e3661123b565b5f549192916001600160a01b03163314158061197c575b6101d9576112c992604051926112a6606085610844565b5082820180831161041757818101809111610417576127101415611965565b346101d95760403660031901126101d95760206119f16004356119bd8161065b565b602435906119ca8261065b565b60018060a01b03165f526017835260405f209060018060a01b03165f5260205260405f2090565b54604051908152f35b346101d9575f3660031901126101d9576001546001600160a01b0316338114801590611a3a575b6101d9576001600160601b0360a01b5f5416175f555f80f35b506002544211611a21565b634e487b7160e01b5f52601160045260245ffd5b5f1981019190821161041757565b9190820391821161041757565b906001820180921161041757565b9062015180820180921161041757565b90600c820180921161041757565b600201908160021161041757565b600301908160031161041757565b9190820180921161041757565b6001600160401b0381116107ee5760051b60200190565b60405190611aed8261080e565b5f6060838281528260208201528260408201520152565b5f1981146104175760010190565b634e487b7160e01b5f52603260045260245ffd5b805115611b335760200190565b611b12565b805160011015611b335760400190565b8051821015611b335760209160051b010190565b90604051611b698161080e565b82546001600160a01b0390811682526001840154166020820152600283015460408201526003909201546060830152565b90611ba482611ac9565b611bb16040519182610844565b8281528092611bc2601f1991611ac9565b01905f5b828110611bd257505050565b602090604051611be1816107f3565b5f81525f838201525f60408201525f60608201525f608082015282828501015201611bc6565b60405160609190611c188382610844565b6002815291601f1901825f5b828110611c3057505050565b602090604051611c3f81610829565b5f81525f8382015282828501015201611c24565b908160021b918083046004149015171561041757565b9060058202918083046005149015171561041757565b908160011b918083046002149015171561041757565b9060038202918083046003149015171561041757565b906103e88202918083046103e8149015171561041757565b8181029291811591840414171561041757565b908160209103126101d95751610a0081610970565b6040513d5f823e3d90fd5b908160209103126101d9575190565b8015610417575f190190565b81516020830180519397929695939091906001600160a01b0316611d5b610a4f898b6040810194611d48865160018060a01b031690565b9060608301976080895194015194612a34565b6101d9578251611d829190610a75906001600160a01b03165b91516001600160a01b031690565b9586158015611faa575b8015611f7d575b6101d957611dc6610df29389611df896611de6948a8015159a8b611f6a575b505092516001600160a01b03169392505050565b6001611ddd610be08a5f52601960205260405f2090565b01549089612431565b610b99865f52601960205260405f2090565b600354611e0f90610561906001600160a01b031681565b6040516333b6331760e21b8152336004820152909190602081602481865afa908115610f09575f91611f4b575b50611e64575b50505091610b99610e36926003610e10610677965f52601860205260405f2090565b919492939115611ee557906020600492604051938480926306fb495b60e31b82525afa8015610f0957610e10610e3695611eba610ec561067799611eb5600396610b99995f91611ec6575b50611c95565b611abc565b94965050819450611e42565b611edf915060203d602011610f0257610ef48183610844565b5f611eaf565b600493919450602090604051948580926306fb495b60e31b82525afa938415610f09576003610e10610b9993611eba610f5461067799610e36995f91611f2c575b50611c7f565b611f45915060203d602011610f0257610ef48183610844565b5f611f26565b611f64915060203d602011610fa057610f928183610844565b5f611e3c565b611f7394612824565b895f808a81611db2565b50611f96610554611396895f52601960205260405f2090565b6001600160a01b0389811691161415611d93565b506001600160a01b0388165f908152601660205260409020611fcf9061104590611548565b611d8c565b929091969394955f9683519660208501928351611ff69060018060a01b031690565b604087018051909c91949189916001600160a01b03169b60608a019c8d519060808c019889519361202696612aa0565b156101d9576001600160a01b0388165f908152601660205260409020612058906110459089515f5260205260405f2090565b6101d95784518a516120759488926001600160a01b03168b6128ea565b8151612094906001600160a01b03168a516001600160a01b0316610a75565b9889156123a7575b5060026120b18a5f52601860205260405f2090565b015460036120c78b5f52601860205260405f2090565b015403612314576121a0919293949596975060026120ed8a5f52601860205260405f2090565b016120f88154611b04565b9055600361210e8a5f52601860205260405f2090565b016121198154611b04565b9055600261212f8a5f52601860205260405f2090565b0154975b51905161213e610883565b6001600160a01b0388168152916020830152604082015261216b886105478b5f52601960205260405f2090565b815181546001600160a01b0319166001600160a01b039190911617815590600290604090602081015160018501550151910155565b6003546121b790610561906001600160a01b031681565b6040516333b6331760e21b815233600482015290602090829060249082905afa908115610f09575f916122f5575b50612212575b50506001600160a01b039091165f90815260166020526040902061067791610e3691610b99565b906004929181151591826122d8575b5050156122855760035460209061224290610561906001600160a01b031681565b6040516306fb495b60e31b815293849182905afa918215610f09576106779361227b610ec5610e3695610b99945f91611ec65750611c95565b93508192506121eb565b60035460209061229f90610561906001600160a01b031681565b6040516306fb495b60e31b815293849182905afa918215610f09576106779361227b610f54610e3695610b99945f91611f2c5750611c7f565b90516122ee91906001600160a01b031633612431565b5f80612221565b61230e915060203d602011610fa057610f928183610844565b5f6121e5565b60015b8961232f60026104fa835f52601860205260405f2090565b82116123975761056161055483610547612351945f52601960205260405f2090565b156123645761235f90611b04565b612317565b6121a09293949596979850975b60036123858b5f52601860205260405f2090565b016123908154611b04565b9055612133565b50506121a0919293949596612371565b82519199506123c8916123c2906001600160a01b0316611d74565b90612b87565b975f61209c565b6003546001600160a01b031691823b156101d95760405163c898a6e960e01b81526001600160a01b039092166004830152600160248301526044820152905f908290606490829084905af18015610f09576124275750565b5f61067791610844565b6003549091906001600160a01b0316803b156101d95760405163c898a6e960e01b81526001600160a01b03938416600482015291909216602482015260448101929092525f908290606490829084905af18015610f09576124275750565b805191908290602001825e015f815290565b949161251961253594600161250b61250b988261250b6124de6124d86124d26124cc6125279c612c90565b9a612e57565b97612e57565b93612c90565b95826040519d8e9a6732199a9c1a1b1c9b60c11b60208d0152600b60fa1b60288d015260298c019061248f565b600b60fa1b8152019061248f565b03601f198101855284610844565b6001600160a01b0392612f3c565b6001600160a01b0390921691161490565b908160209103126101d95751610a008161065b565b91905f906001600160a01b0384161561271e5760035461258590610561906001600160a01b031681565b604051632d60756560e21b81526001600160a01b0386166004820152602081602481855afa908115610f09575f916126ff575b506001600160a01b03166125d657506125d391929350612a8c565b91565b604051632d60756560e21b81526001600160a01b038616600482015290602082602481845afa908115610f095761266a966020935f936126d0575b50600e546001600160801b031660405163068f077760e21b81526001600160a01b0394851660048201529390911660248401526001600160801b03166044830152610bb860648301529095869190829081906084820190565b03915afa938415610f09575f946126af575b508361268782612a8c565b11156126a3575050610a0061269b83611cab565b612710900490565b6125d391929350612a8c565b6126c991945060203d602011610f0257610ef48183610844565b925f61267c565b6126f1919350843d86116126f8575b6126e98183610844565b810190612546565b915f612611565b503d6126df565b612718915060203d6020116126f8576126e98183610844565b5f6125b8565b925061272983612a8c565b92600e548094115f146126a3575050610a0061269b83611cab565b805180835260209291819084018484015e5f828201840152601f01601f1916010190565b6001600160a01b0391821681529181166020830152610100604083018190525f908301529182166060820152608081019290925260a0820192909252911660c082015261012060e08201819052610a0092910190612744565b6001600160a01b0391821681529181166020830152610120604083018190525f908301529182166060820152608081019290925260a082019290925260c081019290925290911660e08201526101406101008201819052610a0092910190612744565b93929091901561289e5760035461284590610561906001600160a01b031681565b90813b156101d9575f80949161287982936040519889978896879563f4e1895b60e01b875260013094309060048a016127c1565b03925af18015610f095761288a5750565b806128985f61067793610844565b806101cf565b919290506128b961056161056160035460018060a01b031690565b803b156101d9575f808094612879604051978896879586946327d50fd160e11b865260013093309060048901612768565b9495909291955f1461293e5760035461290d90610561906001600160a01b031681565b92833b156101d9576128795f96928793604051998a988997889663f4e1895b60e01b88523094309060048a016127c1565b600354949550919361295a90610561906001600160a01b031681565b91823b156101d9575f946128798692604051988997889687956327d50fd160e11b87523093309060048901612768565b60035491926001600160a01b0390921691823b156101d95792906040519384926353d04b7b60e11b8452606484016060600486015283518091526020608486019401905f5b818110612a06575050506001600160a01b0316602484015260448301525f929082900390829084905af18015610f095761288a5750565b8251805187526020908101516001600160a01b031681880152899750604090960195909201916001016129cf565b949161251961253594600161250b61250b988261250b612a5f6124d86124d26124cc6125279c612c90565b95826040519d8e9a67323135343937633160c01b60208d0152600b60fa1b60288d015260298c019061248f565b612a9c61271091600b5490611cc3565b0490565b959391929490612aaf90612c90565b92612ab990612e57565b94612ac390612e57565b91612acd90612c90565b90612ad790612c90565b916040519586946020860167363362383839366360c01b905260288601600b60fa1b905260298601612b089161248f565b600b60fa1b8152600101612b1b9161248f565b600b60fa1b8152600101612b2e9161248f565b600b60fa1b8152600101612b419161248f565b600b60fa1b8152600101612b549161248f565b03601f1981018352612b669083610844565b612b6f91612f3c565b6001600160a01b03166001600160a01b039091161490565b90600390612b96601554611b04565b60158190556001600160a01b039384165f8181526017602090815260408083209786168352969052949094205560405192612bd08461080e565b8352602083019060018060a01b03168152604083015f8152612c4e60608501925f8452612c29612c0a6015545f52601860205260405f2090565b965187546001600160a01b0319166001600160a01b0391909116178755565b516001860180546001600160a01b0319166001600160a01b0392909216919091179055565b5160028401555191015560155490565b90612c6882610892565b612c756040519182610844565b8281528092612c86601f1991610892565b0190602036910137565b805f9172184f03e93ff9f4daa797ed6e38ed64bf6a1f0160401b821015612dc3575b806d04ee2d6d415b85acef8100000000600a921015612da7575b662386f26fc10000811015612d92575b6305f5e100811015612d80575b612710811015612d70575b6064811015612d61575b1015612d56575b612d416021612d1660018501612c5e565b938401015b5f1901916f181899199a1a9b1b9c1cb0b131b232b360811b600a82061a8353600a900490565b8015612d5157612d419091612d1b565b505090565b600190910190612d05565b60029060649004930192612cfe565b6004906127109004930192612cf4565b6008906305f5e1009004930192612ce9565b601090662386f26fc100009004930192612cdc565b6020906d04ee2d6d415b85acef81000000009004930192612ccc565b506040915072184f03e93ff9f4daa797ed6e38ed64bf6a1f0160401b8104612cb2565b60405190612df5604083610844565b601082526f181899199a1a9b1b9c1cb0b131b232b360811b6020830152565b60405160609190612e258382610844565b602a815291601f1901366020840137565b805160011015611b335760210190565b908151811015611b33570160200190565b6001600160a01b0316612e68612de6565b90612e71612e14565b916030612e7d84611b26565b536078612e8984612e36565b535f5b60148110612e9a5750505090565b612ea381611a92565b6020811015611b3357612ed190612ec39085901a60041c600f1684612e46565b516001600160f81b03191690565b612eef612ee5612ee084611c7f565b611aa0565b915f1a9186612e46565b53612ef981611a92565b906020821015611b3357612f17612ec3600f866001951a1685612e46565b612f35612f2b612f2684611c7f565b611aae565b915f1a9187612e46565b5301612e8c565b612f8e612f9c612f4c8351612c90565b92604051928391612f8860208401967f19457468657265756d205369676e6564204d6573736167653a0a0000000000008852603a85019061248f565b9061248f565b03601f198101835282610844565b519020604182510361304157815f916020809401519160606040820151910151841a92601b841061302a575b9061300c91612fe660ff8616601b811490811561301f575b50613098565b604051948594859094939260ff6060936080840197845216602083015260408201520152565b838052039060015afa15610f09575f5190565b601c9150145f612fe0565b929061303861300c92613086565b93909150612fc8565b60405162461bcd60e51b815260206004820152601860248201527f496e76616c6964207369676e6174757265206c656e67746800000000000000006044820152606490fd5b60ff601b9116019060ff821161041757565b1561309f57565b60405162461bcd60e51b815260206004820152601760248201527f496e76616c6964207369676e61747572652076616c75650000000000000000006044820152606490fdfea26469706673582212201d9309eb56c75f6ac53e448b7c316529ac9fb1ae5f3a844ab6d184fb18927fe464736f6c634300081a0033","linkReferences":{}},"methodIdentifiers":{"acceptFillFixedPercentage()":"af5cecc0","acceptFillPropotionalPercentage()":"952469d0","acceptMaxLimitFillFixedFee()":"74efedc9","acceptOwner()":"ebbc4965","acceptPercentageFee()":"35287eaf","acceptWithdrawal()":"14438428","cancelOrder(address,(uint256,address,address,uint256,bytes),uint256,uint256,bool,bytes)":"6ae76d5b","checkIfANonceP2PSwapIsUsed(address,uint256)":"8a82edca","dispatchOrder_fillFixedFee(address,(uint256,address,address,uint256,uint256,bytes),uint256,uint256,bool,bytes)":"4fe13edd","dispatchOrder_fillPropotionalFee(address,(uint256,address,address,uint256,uint256,bytes),uint256,uint256,bool,bytes)":"701c70de","findMarket(address,address)":"db7ccd63","getAllMarketsMetadata()":"16790f81","getAllMartetOrders(uint256)":"313c66dc","getMarketMetadata(uint256)":"6b6445b6","getMyOrdersInSpecificMarket(address,uint256)":"35b2c22c","makeOrder(address,(uint256,address,address,uint256,uint256,bytes),bytes,uint256,uint256,bool,bytes)":"891b8fa2","proposeFillFixedPercentage(uint256,uint256,uint256)":"6cdbf927","proposeFillPropotionalPercentage(uint256,uint256,uint256)":"cfb35fd0","proposeMaxLimitFillFixedFee(uint256)":"7280ff35","proposeOwner(address)":"b5ed298a","proposePercentageFee(uint256)":"b3d4fd79","proposeWithdrawal(address,uint256,address)":"b7ac72ff","rejectProposeFillFixedPercentage()":"76a75a29","rejectProposeFillPropotionalPercentage()":"8eb163d3","rejectProposeMaxLimitFillFixedFee()":"1128a79a","rejectProposeOwner()":"26415c71","rejectProposePercentageFee()":"a936e0d1","rejectProposeWithdrawal()":"54282704"},"id":87}