{"abi":[{"type":"constructor","inputs":[{"name":"initialAdmin","type":"address","internalType":"address"}],"stateMutability":"nonpayable"},{"type":"function","name":"acceptNewAdmin","inputs":[],"outputs":[],"stateMutability":"nonpayable"},{"type":"function","name":"acceptNewEstimator","inputs":[],"outputs":[],"stateMutability":"nonpayable"},{"type":"function","name":"acceptNewGoldenFisher","inputs":[],"outputs":[],"stateMutability":"nonpayable"},{"type":"function","name":"acceptSetSecondsToUnlockStaking","inputs":[],"outputs":[],"stateMutability":"nonpayable"},{"type":"function","name":"addPresaleStaker","inputs":[{"name":"_staker","type":"address","internalType":"address"}],"outputs":[],"stateMutability":"nonpayable"},{"type":"function","name":"addPresaleStakers","inputs":[{"name":"_stakers","type":"address[]","internalType":"address[]"}],"outputs":[],"stateMutability":"nonpayable"},{"type":"function","name":"cancelSetAllowExternalStaking","inputs":[],"outputs":[],"stateMutability":"nonpayable"},{"type":"function","name":"cancelSetAllowInternalStaking","inputs":[],"outputs":[],"stateMutability":"nonpayable"},{"type":"function","name":"cancelSetSecondsToUnllockFullUnstaking","inputs":[],"outputs":[],"stateMutability":"nonpayable"},{"type":"function","name":"checkIfStakeNonceUsed","inputs":[{"name":"_account","type":"address","internalType":"address"},{"name":"_nonce","type":"uint256","internalType":"uint256"}],"outputs":[{"name":"","type":"bool","internalType":"bool"}],"stateMutability":"view"},{"type":"function","name":"confirmSetAllowExternalStaking","inputs":[],"outputs":[],"stateMutability":"nonpayable"},{"type":"function","name":"confirmSetAllowInternalStaking","inputs":[],"outputs":[],"stateMutability":"nonpayable"},{"type":"function","name":"confirmSetSecondsToUnllockFullUnstaking","inputs":[],"outputs":[],"stateMutability":"nonpayable"},{"type":"function","name":"externalStaking","inputs":[{"name":"_isStaking","type":"bool","internalType":"bool"},{"name":"_user","type":"address","internalType":"address"},{"name":"_nonce","type":"uint256","internalType":"uint256"},{"name":"_amountOfSMate","type":"uint256","internalType":"uint256"},{"name":"_signature","type":"bytes","internalType":"bytes"},{"name":"_priorityFee_Evvm","type":"uint256","internalType":"uint256"},{"name":"_nonce_Evvm","type":"uint256","internalType":"uint256"},{"name":"_priority_Evvm","type":"bool","internalType":"bool"},{"name":"_signature_Evvm","type":"bytes","internalType":"bytes"}],"outputs":[],"stateMutability":"nonpayable"},{"type":"function","name":"getAddressHistory","inputs":[{"name":"_account","type":"address","internalType":"address"}],"outputs":[{"name":"","type":"tuple[]","internalType":"struct SMateMock.HistoryMetadata[]","components":[{"name":"transactionType","type":"bytes32","internalType":"bytes32"},{"name":"amount","type":"uint256","internalType":"uint256"},{"name":"timestamp","type":"uint256","internalType":"uint256"},{"name":"totalStaked","type":"uint256","internalType":"uint256"}]}],"stateMutability":"view"},{"type":"function","name":"getAddressHistoryByIndex","inputs":[{"name":"_account","type":"address","internalType":"address"},{"name":"_index","type":"uint256","internalType":"uint256"}],"outputs":[{"name":"","type":"tuple","internalType":"struct SMateMock.HistoryMetadata","components":[{"name":"transactionType","type":"bytes32","internalType":"bytes32"},{"name":"amount","type":"uint256","internalType":"uint256"},{"name":"timestamp","type":"uint256","internalType":"uint256"},{"name":"totalStaked","type":"uint256","internalType":"uint256"}]}],"stateMutability":"view"},{"type":"function","name":"getAllowExternalStaking","inputs":[],"outputs":[{"name":"","type":"bool","internalType":"bool"}],"stateMutability":"view"},{"type":"function","name":"getAllowInternalStaking","inputs":[],"outputs":[{"name":"","type":"bool","internalType":"bool"}],"stateMutability":"view"},{"type":"function","name":"getEstimatorAddress","inputs":[],"outputs":[{"name":"","type":"address","internalType":"address"}],"stateMutability":"view"},{"type":"function","name":"getEstimatorProposal","inputs":[],"outputs":[{"name":"","type":"address","internalType":"address"}],"stateMutability":"view"},{"type":"function","name":"getEvvmAddress","inputs":[],"outputs":[{"name":"","type":"address","internalType":"address"}],"stateMutability":"view"},{"type":"function","name":"getGoldenFisher","inputs":[],"outputs":[{"name":"","type":"address","internalType":"address"}],"stateMutability":"view"},{"type":"function","name":"getGoldenFisherProposal","inputs":[],"outputs":[{"name":"","type":"address","internalType":"address"}],"stateMutability":"view"},{"type":"function","name":"getMateAddress","inputs":[],"outputs":[{"name":"","type":"address","internalType":"address"}],"stateMutability":"pure"},{"type":"function","name":"getOwner","inputs":[],"outputs":[{"name":"","type":"address","internalType":"address"}],"stateMutability":"view"},{"type":"function","name":"getPresaleStaker","inputs":[{"name":"_account","type":"address","internalType":"address"}],"outputs":[{"name":"","type":"bool","internalType":"bool"},{"name":"","type":"uint256","internalType":"uint256"}],"stateMutability":"view"},{"type":"function","name":"getPresaleStakerCount","inputs":[],"outputs":[{"name":"","type":"uint256","internalType":"uint256"}],"stateMutability":"view"},{"type":"function","name":"getSecondsToUnlockFullUnstaking","inputs":[],"outputs":[{"name":"","type":"uint256","internalType":"uint256"}],"stateMutability":"view"},{"type":"function","name":"getSecondsToUnlockStaking","inputs":[],"outputs":[{"name":"","type":"uint256","internalType":"uint256"}],"stateMutability":"view"},{"type":"function","name":"getSizeOfAddressHistory","inputs":[{"name":"_account","type":"address","internalType":"address"}],"outputs":[{"name":"","type":"uint256","internalType":"uint256"}],"stateMutability":"view"},{"type":"function","name":"getTimeAllowExternalStaking","inputs":[],"outputs":[{"name":"","type":"uint256","internalType":"uint256"}],"stateMutability":"view"},{"type":"function","name":"getTimeAllowInternalStaking","inputs":[],"outputs":[{"name":"","type":"uint256","internalType":"uint256"}],"stateMutability":"view"},{"type":"function","name":"getTimeToUserUnlockFullUnstakingTime","inputs":[{"name":"_account","type":"address","internalType":"address"}],"outputs":[{"name":"","type":"uint256","internalType":"uint256"}],"stateMutability":"view"},{"type":"function","name":"getTimeToUserUnlockStakingTime","inputs":[{"name":"_account","type":"address","internalType":"address"}],"outputs":[{"name":"","type":"uint256","internalType":"uint256"}],"stateMutability":"view"},{"type":"function","name":"getUserAmountStaked","inputs":[{"name":"_account","type":"address","internalType":"address"}],"outputs":[{"name":"","type":"uint256","internalType":"uint256"}],"stateMutability":"view"},{"type":"function","name":"gimmeYiel","inputs":[{"name":"user","type":"address","internalType":"address"}],"outputs":[{"name":"epochAnswer","type":"bytes32","internalType":"bytes32"},{"name":"tokenToBeRewarded","type":"address","internalType":"address"},{"name":"amountTotalToBeRewarded","type":"uint256","internalType":"uint256"},{"name":"idToOverwriteUserHistory","type":"uint256","internalType":"uint256"},{"name":"timestampToBeOverwritten","type":"uint256","internalType":"uint256"}],"stateMutability":"nonpayable"},{"type":"function","name":"goldenStaking","inputs":[{"name":"_isStaking","type":"bool","internalType":"bool"},{"name":"_amountOfSMate","type":"uint256","internalType":"uint256"},{"name":"_signature_Evvm","type":"bytes","internalType":"bytes"}],"outputs":[],"stateMutability":"nonpayable"},{"type":"function","name":"prepareSetAllowExternalStaking","inputs":[],"outputs":[],"stateMutability":"nonpayable"},{"type":"function","name":"prepareSetAllowInternalStaking","inputs":[],"outputs":[],"stateMutability":"nonpayable"},{"type":"function","name":"prepareSetSecondsToUnllockFullUnstaking","inputs":[{"name":"_secondsToUnllockFullUnstaking","type":"uint256","internalType":"uint256"}],"outputs":[],"stateMutability":"nonpayable"},{"type":"function","name":"presaleStake","inputs":[{"name":"_isStaking","type":"bool","internalType":"bool"},{"name":"_user","type":"address","internalType":"address"},{"name":"_nonce","type":"uint256","internalType":"uint256"},{"name":"_signature","type":"bytes","internalType":"bytes"},{"name":"_priorityFee_Evvm","type":"uint256","internalType":"uint256"},{"name":"_nonce_Evvm","type":"uint256","internalType":"uint256"},{"name":"_priority_Evvm","type":"bool","internalType":"bool"},{"name":"_signature_Evvm","type":"bytes","internalType":"bytes"}],"outputs":[],"stateMutability":"nonpayable"},{"type":"function","name":"priceOfSMate","inputs":[],"outputs":[{"name":"","type":"uint256","internalType":"uint256"}],"stateMutability":"pure"},{"type":"function","name":"proposeAdmin","inputs":[{"name":"_newAdmin","type":"address","internalType":"address"}],"outputs":[],"stateMutability":"nonpayable"},{"type":"function","name":"proposeEstimator","inputs":[{"name":"_estimator","type":"address","internalType":"address"}],"outputs":[],"stateMutability":"nonpayable"},{"type":"function","name":"proposeGoldenFisher","inputs":[{"name":"_goldenFisher","type":"address","internalType":"address"}],"outputs":[],"stateMutability":"nonpayable"},{"type":"function","name":"proposeSetSecondsToUnlockStaking","inputs":[{"name":"_secondsToUnlockStaking","type":"uint256","internalType":"uint256"}],"outputs":[],"stateMutability":"nonpayable"},{"type":"function","name":"rejectProposalAdmin","inputs":[],"outputs":[],"stateMutability":"nonpayable"},{"type":"function","name":"rejectProposalEstimator","inputs":[],"outputs":[],"stateMutability":"nonpayable"},{"type":"function","name":"rejectProposalGoldenFisher","inputs":[],"outputs":[],"stateMutability":"nonpayable"},{"type":"function","name":"rejectProposalSetSecondsToUnlockStaking","inputs":[],"outputs":[],"stateMutability":"nonpayable"},{"type":"error","name":"Logic","inputs":[{"name":"code","type":"uint256","internalType":"uint256"}]},{"type":"error","name":"Time","inputs":[{"name":"","type":"uint256","internalType":"uint256"}]}],"bytecode":{"object":"0x60a03461020557601f61c0db38819003918201601f19168301916001600160401b038311848410176101f15780849260209460405283398101031261020557516001600160a01b0381169081900361020557600180546001600160a01b031916821790556040516184ae808201906001600160401b038211838310176101f1576040918391613c2d83398481523060208201520301905ff080156101e6576001600160a01b03166080819052600480546001600160a01b031916739965507d1a55bcc2695c58ba16fb37d819b0a4dc1790556010805460ff199081169091556012805490911690555f600a55621baf80600d556040519161120b90818401906001600160401b038211858310176101f1576080938593612a22853973976ea74026e726554db657fa54763abd0c3a0aa98352602083015230604083015260608201520301905ff080156101e657600780546001600160a01b0319166001600160a01b0392909216919091179055604051612818908161020a823960805181818161035c0152818161078601528181610a0d01528181611b7801528181611c7101528181611e2301528181611ef001528181611f9d0152818161209e0152818161212d015281816121ad015281816125ec0152818161266b015281816126cf015261272d0152f35b6040513d5f823e3d90fd5b634e487b7160e01b5f52604160045260245ffd5b5f80fdfe60806040526004361015610011575f80fd5b5f3560e01c80630d1ffe3a1461033457806311b934451461032f578063147bf6c41461032a57806328a2fd3a1461032557806332cab81f1461032057806333bf91101461031b57806334dd90d6146103165780633900738a146103115780633d8ff69a1461030c5780634273367d14610307578063475c31ff14610302578063489c5ad4146102fd5780634e4d5d25146102f8578063602c4fb4146102f3578063610a0476146102ee5780636254300b146102e957806366d161aa146102e45780636b2933a2146102df5780636c58f77b146102da5780636fa7ff17146102d55780637c25faef146102d05780637f8da591146102cb578063893d20e8146102c65780638a4bd308146102c15780638f4b3f28146102bc5780639053a258146102b757806395d3a364146102b257806396ae4e45146102ad5780639cde1d3e146102a85780639e411233146102a3578063a06831ba1461029e578063a108c0a114610299578063a84e9f2314610294578063b241a4871461028f578063b384c5741461028a578063b38c950a14610285578063b40dad8614610280578063be1003451461027b578063be3b331314610276578063c130a71914610271578063cd6b54601461026c578063d5bbacd514610267578063e4e7b88514610262578063e6cbd0a61461025d578063e6f2ebe414610258578063eb57af4a14610253578063f5c1af1c1461024e578063fa6215f314610249578063fabd08e8146102445763fc2feab21461023f575f80fd5b6113e3565b611347565b6112ca565b6112ad565b61125f565b611242565b61121a565b61118d565b611166565b61110f565b6110bc565b611088565b61102b565b611009565b610fd1565b610fa4565b610f82565b610f4a565b610f08565b610ed0565b610ea9565b610e7a565b610e5f565b610e3b565b610dc7565b610d5b565b610d27565b610cff565b610cd7565b610caa565b610c54565b610bec565b610bb0565b610b88565b610b60565b610b23565b61086f565b610852565b6107f6565b610709565b6106ec565b6106b0565b610654565b6105fe565b6105d6565b6105ae565b61056c565b61050b565b61047d565b610347565b5f91031261034357565b5f80fd5b34610343575f366003190112610343576040517f00000000000000000000000000000000000000000000000000000000000000006001600160a01b03168152602090f35b8015150361034357565b60e435906103a28261038b565b565b6001600160a01b0381160361034357565b634e487b7160e01b5f52604160045260245ffd5b6080810190811067ffffffffffffffff8211176103e557604052565b6103b5565b90601f8019910116810190811067ffffffffffffffff8211176103e557604052565b604051906103a26080836103ea565b67ffffffffffffffff81116103e557601f01601f191660200190565b81601f820112156103435780359061044e8261041b565b9261045c60405194856103ea565b8284526020838301011161034357815f926020809301838601378301015290565b34610343576101003660031901126103435760043561049b8161038b565b602435906104a8826103a4565b60443560643567ffffffffffffffff8111610343576104cb903690600401610437565b60843560a4359160c435936104df8561038b565b60e4359667ffffffffffffffff881161034357610503610509983690600401610437565b9661141e565b005b3461034357602036600319011261034357600435610528816103a4565b6001546001600160a01b031633036103435760018060a01b03166001600160601b0360a01b600254161760025562015180420180421161056757600355005b611544565b34610343575f366003190112610343576001546001600160a01b031633036103435760135442106103435760125460ff80821615169060ff1916176012555f80f35b34610343575f366003190112610343576001546001600160a01b03163303610343575f601355005b34610343575f366003190112610343576001546001600160a01b03163303610343575f601155005b34610343575f366003190112610343576001546001600160a01b031633036103435760065442106103435760058054600480546001600160a01b03199081166001600160a01b038416179091551690555f600655005b3461034357602036600319011261034357600435610671816103a4565b6001546001600160a01b031633036103435760018060a01b03166001600160601b0360a01b600854161760085562015180420180421161056757600955005b3461034357602036600319011261034357600154600435906001600160a01b0316330361034357600e5562015180420180421161056757600f55005b34610343575f366003190112610343576020601354604051908152f35b34610343576060366003190112610343576004356107268161038b565b6024359060443567ffffffffffffffff81116103435761074a903690600401610437565b6004546001600160a01b0316929091903384900361034357604051630d9a602960e31b8152336004820152936020856024816001600160a01b037f0000000000000000000000000000000000000000000000000000000000000000165afa9283156107f157610509955f946107c0575b50611b47565b6107e391945060203d6020116107ea575b6107db81836103ea565b810190611565565b925f6107ba565b503d6107d1565b611574565b3461034357602036600319011261034357600435610813816103a4565b6001546001600160a01b031633036103435760018060a01b03166001600160601b0360a01b600554161760055562015180420180421161056757600655005b34610343575f366003190112610343576020601154604051908152f35b346103435760203660031901126103435760043561088c816103a4565b6001600160a01b0381165f9081526016602052604081208190819081908190546108e9575b604080519485526001600160a01b03959095166020850152938301939093526060820192909252608081019190915260a090f35b0390f35b5050600754610912935061090692506001600160a01b0316905081565b6001600160a01b031690565b60405163f702720760e01b81526001600160a01b0383166004820152919060a090839060249082905f905af180156107f1575f925f925f925f925f91610ae6575b5080928092858798809882610971575b5050505050508493926108b1565b92826109aa9261098860029795846109ed986121ab565b6001600160a01b0383165f9081526016602052604090206109af9086906115da565b6115da565b505560016109d1856109aa8560018060a01b03165f52601660205260405f2090565b5001556001600160a01b03165f90815260166020526040902090565b5001556040516333b6331760e21b81523360048201526001600160a01b037f0000000000000000000000000000000000000000000000000000000000000000169390602081602481885afa9081156107f1575f91610ab7575b50610a57575b928080808080610963565b6020600494604051958680926306fb495b60e31b82525afa80156107f157610a8d610a93916108e5965f91610a98575b5061160b565b3361212b565b610a4c565b610ab1915060203d6020116107ea576107db81836103ea565b5f610a87565b610ad9915060203d602011610adf575b610ad181836103ea565b8101906115f3565b5f610a46565b503d610ac7565b935050935050610b0e915060a03d60a011610b1c575b610b0681836103ea565b81019061157f565b91939490929392915f610953565b503d610afc565b34610343575f366003190112610343576001546001600160a01b0316330361034357600c54421061034357600b54600a555f600b555f600c555f80f35b34610343575f366003190112610343576005546040516001600160a01b039091168152602090f35b34610343575f366003190112610343576007546040516001600160a01b039091168152602090f35b3461034357602036600319011261034357600154600435906001600160a01b0316330361034357600b5562015180420180421161056757600c55005b3461034357602036600319011261034357600435610c09816103a4565b6001546001600160a01b03163303610343576103205f5411610343576001600160a01b03165f908152601560205260408120805460ff1916600117905554610c5090611655565b5f55005b34610343575f366003190112610343576001546001600160a01b031633036103435760095442106103435760088054600780546001600160a01b03199081166001600160a01b038416179091551690555f600955005b34610343575f366003190112610343576001546001600160a01b03163303610343575f600b819055600c55005b34610343575f366003190112610343576004546040516001600160a01b039091168152602090f35b34610343575f366003190112610343576001546040516001600160a01b039091168152602090f35b34610343575f366003190112610343576001546001600160a01b031633036103435762015180420180421161056757601155005b34610343575f366003190112610343576001546001600160a01b0316330361034357600f54421061034357600e54600d555f600e555f600f555f80f35b6103a2909291926080810193606080918051845260208101516020850152604081015160408501520151910152565b34610343576040366003190112610343576108e5610e2f610e29600435610ded816103a4565b602435905f6060604051610e00816103c9565b828152826020820152826040820152015260018060a01b03165f52601660205260405f206115da565b50611663565b60405191829182610d98565b34610343575f3660031901126103435760206040516901138ccba11c9e8c00008152f35b34610343575f36600319011261034357602060405160018152f35b34610343576020366003190112610343576020610ea1600435610e9c816103a4565b6116b0565b604051908152f35b34610343576020366003190112610343576020610ea1600435610ecb816103a4565b6116fc565b34610343575f366003190112610343576001546001600160a01b0316330361034357600880546001600160a01b03191690555f600955005b34610343575f366003190112610343576001546001600160a01b031633036103435760115442106103435760105460ff80821615169060ff1916176010555f80f35b34610343575f366003190112610343576001546001600160a01b0316330361034357600580546001600160a01b03191690555f600655005b34610343575f36600319011261034357602060ff601254166040519015158152f35b34610343575f366003190112610343576001546001600160a01b03163303610343575f600e819055600f55005b34610343575f366003190112610343576001546001600160a01b0316330361034357600280546001600160a01b03191690555f600355005b34610343575f36600319011261034357602060ff601054166040519015158152f35b346103435760203660031901126103435760043567ffffffffffffffff8111610343573660238201121561034357806004013567ffffffffffffffff8111610343573660248260051b840101116103435760246105099201611783565b34610343575f366003190112610343576001546001600160a01b031633036103435762015180420180421161056757601355005b346103435760203660031901126103435760406004356110db816103a4565b60018060a01b0316805f52601560205260ff825f205416905f5260156020526001825f200154825191151582526020820152f35b34610343575f366003190112610343576002546001600160a01b03811633811480159061115b575b61034357600180546001600160a01b0319908116929092179055166002555f600355005b506003544210611137565b34610343576020366003190112610343576020610ea1600435611188816103a4565b6117ff565b3461034357610120366003190112610343576004356111ab8161038b565b602435906111b8826103a4565b60443560643560843567ffffffffffffffff8111610343576111de903690600401610437565b60a4359060c435926111ee610395565b94610104359767ffffffffffffffff891161034357611214610509993690600401610437565b976118b4565b34610343575f366003190112610343576008546040516001600160a01b039091168152602090f35b34610343575f366003190112610343576020600a54604051908152f35b346103435760403660031901126103435760043561127c816103a4565b6024359060018060a01b03165f52601460205260405f20905f52602052602060ff60405f2054166040519015158152f35b34610343575f366003190112610343576020600d54604051908152f35b34610343575f3660031901126103435760205f54604051908152f35b60206040818301928281528451809452019201905f5b8181106113095750505090565b909192602060808261133c6001948851606080918051845260208101516020850152604081015160408501520151910152565b0194019291016112fc565b3461034357602036600319011261034357600435611364816103a4565b6001600160a01b03165f908152601660205260409020805467ffffffffffffffff81116103e5576040519161139f60208360051b01846103ea565b81835260208301905f5260205f205f915b8383106113c557604051806108e587826112e6565b600460206001926113d585611663565b8152019201920191906113b0565b3461034357602036600319011261034357600435611400816103a4565b60018060a01b03165f526016602052602060405f2054604051908152f35b919496909261147b84604092611476845161143986826103ea565b6008815267030646231356138360c41b602082015287156115215761145c611988565b6114666001612256565b906114708d612256565b926119bc565b6123ac565b1561150d576001600160a01b0384165f908152601460209081528282208883529052205460ff166114f9576103a2966114ec966114df9585856114c1826114c698611a00565b611acb565b6001600160a01b03165f90815260146020526040902090565b905f5260205260405f2090565b805460ff19166001179055565b633cd7c85b60e11b5f52600260045260245ffd5b633cd7c85b60e11b5f52600160045260245ffd5b855161152d87826103ea565b600581526466616c736560d81b602082015261145c565b634e487b7160e01b5f52601160045260245ffd5b9190820180921161056757565b90816020910312610343575190565b6040513d5f823e3d90fd5b908160a091031261034357805191602082015161159b816103a4565b916040810151916080606083015192015190565b634e487b7160e01b5f52603260045260245ffd5b8054156115d5575f5260205f20905f90565b6115af565b80548210156115d5575f5260205f209060021b01905f90565b9081602091031261034357516116088161038b565b90565b908115600183800414171561056757565b90816901138ccba11c9e8c000002916901138ccba11c9e8c000083040361056757565b908160011b918083046002149015171561056757565b5f1981146105675760010190565b90604051611670816103c9565b6060600382948054845260018101546020850152600281015460408501520154910152565b5f1981019190821161056757565b9190820391821161056757565b6001600160a01b03165f818152601660205260409020549081156116f6575f52601660205260405f205f198201918211610567576003916116f0916115da565b50015490565b50505f90565b6001600160a01b0381165f818152601660205260409020549190821561177c575f526016602052600361173b60405f2061173585611695565b906115da565b5001546116f6576001600160a01b03165f90815260166020526040902060029161176a91611735905b91611695565b500154600a5481018091116105675790565b5050505f90565b6001549092906001600160a01b03163303610343575f5b828110156117ed576103205f5411610343576001908060051b8501356117bf816103a4565b828060a01b03165f52601560205260405f208260ff198254161790556117e55f54611655565b5f550161179a565b50915050565b8015610567575f190190565b6001600160a01b0381165f90815260166020526040902054805b61185057506001600160a01b03165f90815260166020526040902061160890600290611844906115c3565b500154600d5490611558565b6001600160a01b0382165f9081526016602052604090206003906118779061173584611695565b5001541561188e57611888906117f3565b80611819565b6118446002916117356117646116089560018060a01b03165f52601660205260405f2090565b92949690939791959760ff60105416156103435761190f8560409261147684516118de86826103ea565b6008815267636564633134383360c01b6020820152881561195c578b8b611470611909611909611988565b92612256565b1561150d5761193b876119429260018060a01b0388165f5260146020525f20905f5260205260405f2090565b5460ff1690565b6114f9576103a2976114ec976114df96866114c696611ec5565b8b8b61147061190989516119708b826103ea565b600581526466616c736560d81b602082015292612256565b604051906119976040836103ea565b60048252637472756560e01b6020830152565b805191908290602001825e015f815290565b906119e4949360016119e46103a295826119e46119f296826040519c8d9a60208c01906119aa565b600b60fa1b815201906119aa565b03601f1981018452836103ea565b611a13611a0f60105460ff1690565b1590565b15610343576001600160a01b0382165f9081526015602052604090205460ff16156103435715611a88576001600160a01b0381165f908152601560205260409020600290600101541015610343576001600160a01b03165f908152601560205260409020600101611a848154611655565b9055565b6001600160a01b0381165f9081526015602052604090206001015415610343576001600160a01b03165f908152601560205260409020600101611a8481546117f3565b949391909460ff6012541615610343576103a295600191611ec5565b8054680100000000000000008110156103e557611b09916001820181556115da565b919091611b345760608160039251845560208101516001850155604081015160028501550151910155565b634e487b7160e01b5f525f60045260245ffd5b91929093825f14611da257611b5b856116fc565b421061034357611b76915f80611b708761161c565b886126c2565b7f00000000000000000000000000000000000000000000000000000000000000006001600160a01b031692833b156103435760405163adb6233f60e01b81526001600160a01b0382166004820152600160f81b6024820152935f908590604490829084905af19384156107f157611c5494611d88575b506001600160a01b0381165f9081526016602052604090205b54611d3457611c2a835b6001600160a01b039092165f90815260166020526040902090565b9115611d2c576001925b611c3c61040c565b93845260208401524260408401526060830152611ae7565b6040516333b6331760e21b81523360048201526001600160a01b037f00000000000000000000000000000000000000000000000000000000000000001690602081602481855afa9081156107f1575f91611d0d575b50611cb15750565b6020600491604051928380926306fb495b60e31b82525afa9081156107f1575f611ce96103a293610a8d938391611cee575b5061163f565b611558565b611d07915060203d6020116107ea576107db81836103ea565b5f611ce3565b611d26915060203d602011610adf57610ad181836103ea565b5f611ca9565b600292611c34565b611c2a611d83846003611d7b611d5a8660018060a01b03165f52601660205260405f2090565b6001600160a01b0387165f9081526016602052604090206117359054611695565b500154611558565b611c0f565b80611d965f611d9c936103ea565b80610339565b5f611bec565b5050611dad836116b0565b8214611e12575b82611c2a611de6846003611dde611d5a611c549960018060a01b03165f52601660205260405f2090565b5001546116a3565b91611df9611df38661161c565b8261212b565b6001600160a01b03165f90815260166020526040902090565b611e1b836117ff565b4210611eb0577f00000000000000000000000000000000000000000000000000000000000000006001600160a01b031692833b156103435760405163adb6233f60e01b81526001600160a01b03821660048201525f6024820181905290948590604490829084905af19384156107f157611c5494611e9c575b509250611db4565b80611d965f611eaa936103ea565b5f611e94565b600d54633cd7c85b60e11b5f5260045260245ffd5b929590949193831561203457611eda866116fc565b421061034357611eee9287611b708761161c565b7f00000000000000000000000000000000000000000000000000000000000000006001600160a01b031692833b156103435760405163adb6233f60e01b81526001600160a01b0382166004820152600160f81b6024820152935f908590604490829084905af19384156107f157611f8094611d8857506001600160a01b0381165f908152601660205260409020611c05565b6040516333b6331760e21b81523360048201526001600160a01b037f0000000000000000000000000000000000000000000000000000000000000000169190602081602481865afa9081156107f1575f91612015575b50611fdf575050565b6020600492604051938480926306fb495b60e31b82525afa9081156107f157611ce9610a8d926103a2945f91611cee575061163f565b61202e915060203d602011610adf57610ad181836103ea565b5f611fd6565b949190612040836116b0565b851461208d575b611f80958761207a575b505050611c2a611de6846003611dde611d5a8660018060a01b03165f52601660205260405f2090565b6120859288856125e2565b5f8080612051565b612096836117ff565b4210611eb0577f00000000000000000000000000000000000000000000000000000000000000006001600160a01b031695863b156103435760405163adb6233f60e01b81526001600160a01b03851660048201525f6024820181905290978890604490829084905af19687156107f157611f8097612117575b509550612047565b80611d965f612125936103ea565b5f61210f565b7f00000000000000000000000000000000000000000000000000000000000000006001600160a01b031691823b156103435760405163c898a6e960e01b81526001600160a01b039092166004830152600160248301526044820152905f908290606490829084905af180156107f1576121a15750565b5f6103a2916103ea565b7f00000000000000000000000000000000000000000000000000000000000000006001600160a01b0316803b156103435760405163c898a6e960e01b81526001600160a01b03938416600482015291909216602482015260448101929092525f908290606490829084905af180156107f1576121a15750565b9061222e8261041b565b61223b60405191826103ea565b828152809261224c601f199161041b565b0190602036910137565b805f9172184f03e93ff9f4daa797ed6e38ed64bf6a1f0160401b821015612389575b806d04ee2d6d415b85acef8100000000600a92101561236d575b662386f26fc10000811015612358575b6305f5e100811015612346575b612710811015612336575b6064811015612327575b101561231c575b61230760216122dc60018501612224565b938401015b5f1901916f181899199a1a9b1b9c1cb0b131b232b360811b600a82061a8353600a900490565b80156123175761230790916122e1565b505090565b6001909101906122cb565b600290606490049301926122c4565b60049061271090049301926122ba565b6008906305f5e10090049301926122af565b601090662386f26fc1000090049301926122a2565b6020906d04ee2d6d415b85acef81000000009004930192612292565b506040915072184f03e93ff9f4daa797ed6e38ed64bf6a1f0160401b8104612278565b6123fe61240c6123bc8351612256565b926040519283916123f860208401967f19457468657265756d205369676e6564204d6573736167653a0a0000000000008852603a8501906119aa565b906119aa565b03601f1981018352826103ea565b51902060418251036124bf57815f916020809401519160606040820151910151841a92601b84106124a8575b9061247c9161245660ff8616601b811490811561249d575b50612796565b604051948594859094939260ff6060936080840197845216602083015260408201520152565b838052039060015afa156107f1575f516001600160a01b0390811691161490565b601c9150145f612450565b92906124b661247c92612784565b93909150612438565b60405162461bcd60e51b815260206004820152601860248201527f496e76616c6964207369676e6174757265206c656e67746800000000000000006044820152606490fd5b805180835260209291819084018484015e5f828201840152601f01601f1916010190565b6001600160a01b0391821681529181166020830152610100604083018190525f9083015260016060830152608082019290925260a081019290925290911660c082015261012060e0820181905261160892910190612504565b6001600160a01b0391821681529181166020830152610120604083018190525f9083015260016060830152608082019290925260a081019290925260c0820192909252911660e0820152610140610100820181905261160892910190612504565b93929115612665577f00000000000000000000000000000000000000000000000000000000000000006001600160a01b031690813b15610343575f80949161264682936040519889978896879563f4e1895b60e01b87523093309060048901612581565b03925af180156107f1576126575750565b80611d965f6103a2936103ea565b919290507f00000000000000000000000000000000000000000000000000000000000000006001600160a01b0316803b15610343575f808094612646604051978896879586946327d50fd160e11b86523092309060048801612528565b94919093925f14612727577f00000000000000000000000000000000000000000000000000000000000000006001600160a01b031691823b15610343575f9461264686926040519889978896879563f4e1895b60e01b87523093309060048901612581565b909391507f00000000000000000000000000000000000000000000000000000000000000006001600160a01b031690813b15610343575f8094612646604051978896879586946327d50fd160e11b86523092309060048801612528565b60ff601b9116019060ff821161056757565b1561279d57565b60405162461bcd60e51b815260206004820152601760248201527f496e76616c6964207369676e61747572652076616c75650000000000000000006044820152606490fdfea264697066735822122046c81ef947371753b80ab67007a25b3956a9c167503e45d252d2ceeb8dfe1cd864736f6c634300081a00336080346100cd57601f61120b38819003918201601f19168301916001600160401b038311848410176100d1578084926080946040528339810103126100cd57610047816100e5565b90610054602082016100e5565b61006c6060610065604085016100e5565b93016100e5565b6003601155600580546001600160a01b03199081166001600160a01b039687161790915560088054821693861693909317909255600b8054831693851693909317909255600e80549091169190921617905560405161111190816100fa8239f35b5f80fd5b634e487b7160e01b5f52604160045260245ffd5b51906001600160a01b03821682036100cd5756fe6080806040526004361015610012575f80fd5b5f3560e01c908163112c1d5a14610758575080631fa756731461070257806330b3d71f146106ab57806333a61fc3146106875780634cc05f461461064f57806355dbb3111461060b5780635637455a146105e15780635b74440a1461058b5780635fd99c5914610501578063608bd0bf146104bd57806369ec08641461048557806370b170da1461044d578063779a3481146103f657806379eb30f01461039e5780637fa80f0814610346578063a9131e23146102ee578063b1fc6a9114610297578063bd9731f91461022b578063c1a53583146101d4578063c9ed28e9146101b7578063f70272071461014a5763fd3607d01461010e575f80fd5b34610146575f366003190112610146576005546001600160a01b0316330361014657600680546001600160a01b03191690555f600755005b5f80fd5b346101465760203660031901126101465761016361081f565b600b546001600160a01b03163303610146576101816101b391610bd2565b604080519586526001600160a01b039094166020860152928401919091526060830152608082015290819060a0820190565b0390f35b34610146575f366003190112610146576020601154604051908152f35b34610146575f366003190112610146576101ec6108bf565b506101b36040516101fc81610865565b600e546001600160a01b039081168252600f5416602082015260105460408083019190915251918291826107f0565b346101465760203660031901126101465761024461081f565b600e546001600160a01b031633036101465760018060a01b03166001600160601b0360a01b600c541617600c5562015180420180421161028357600d55005b634e487b7160e01b5f52601160045260245ffd5b34610146575f366003190112610146576102af6108bf565b506101b36040516102bf81610865565b6005546001600160a01b03908116825260065416602082015260075460408083019190915251918291826107f0565b346101465760203660031901126101465761030761081f565b600e546001600160a01b031633036101465760018060a01b03166001600160601b0360a01b600954161760095562015180420180421161028357600a55005b346101465760203660031901126101465761035f61081f565b600e546001600160a01b031633036101465760018060a01b03166001600160601b0360a01b600f541617600f5562015180420180421161028357601055005b34610146576020366003190112610146576103b761081f565b6005546001600160a01b031633036101465760018060a01b03166001600160601b0360a01b600654161760065562015180420180421161028357600755005b34610146575f3660031901126101465761040e6108bf565b506101b360405161041e81610865565b6008546001600160a01b039081168252600954166020820152600a5460408083019190915251918291826107f0565b34610146575f36600319011261014657600e546001600160a01b0316330361014657600980546001600160a01b03191690555f600a55005b34610146575f36600319011261014657600e546001600160a01b0316330361014657600c80546001600160a01b03191690555f600d55005b34610146575f3660031901126101465760075442106101465760068054600580546001600160a01b03199081166001600160a01b038416179091551690555f600755005b346101465760803660031901126101465761051a61081f565b600554606435916044359160243591906001600160a01b03163303610146578360806040519261054984610835565b60018060a01b03169283815284602082015285604082015242606082015201526001600160601b0360a01b5f5416175f55600155600255426003556004555f80f35b34610146575f36600319011261014657600e546001600160a01b0316330361014657600d54421061014657600c8054600b80546001600160a01b03199081166001600160a01b038416179091551690555f600d55005b34610146575f36600319011261014657601154600119810190811161028357602090604051908152f35b34610146575f36600319011261014657601054421061014657600f8054600e80546001600160a01b03199081166001600160a01b038416179091551690555f601055005b34610146575f36600319011261014657600e546001600160a01b0316330361014657600f80546001600160a01b03191690555f601055005b34610146576020366003190112610146576101b36101816106a661081f565b610988565b34610146575f366003190112610146576106c36108bf565b506101b36040516106d381610865565b600b546001600160a01b039081168252600c54166020820152600d5460408083019190915251918291826107f0565b34610146575f36600319011261014657600e546001600160a01b0316330361014657600a5442106101465760098054600880546001600160a01b03199081166001600160a01b038416179091551690555f600a55005b34610146575f366003190112610146576080816107755f93610835565b828152826020820152826040820152826060820152015260a060405161079a81610835565b600180831b035f5416908181526001546020820190815260025460408301908152600354916060840192835260806004549401938452604051948552516020850152516040840152516060830152516080820152f35b81516001600160a01b039081168252602080840151909116908201526040918201519181019190915260600190565b600435906001600160a01b038216820361014657565b60a0810190811067ffffffffffffffff82111761085157604052565b634e487b7160e01b5f52604160045260245ffd5b6060810190811067ffffffffffffffff82111761085157604052565b6080810190811067ffffffffffffffff82111761085157604052565b90601f8019910116810190811067ffffffffffffffff82111761085157604052565b604051906108cc82610865565b5f6040838281528260208201520152565b604051906108ea82610881565b5f6060838281528260208201528260408201520152565b908160809103126101465760606040519161091b83610881565b8051835260208101516020840152604081015160408401520151606082015290565b9190820391821161028357565b8181029291811591840414171561028357565b9190820180921161028357565b8115610974570490565b634e487b7160e01b5f52601260045260245ffd5b905f915f915f905f925f600454918261099f6108dd565b50600b54604051637e17f55960e11b81526001600160a01b038481166004830152909116976020826024818c5afa918215610b93575f92610b9e575b50929197905f9360035499601154915b838710610a55575b50505050505050670de0b6b3a7640000810290808204670de0b6b3a7640000149015171561028357610a3b610a5091610a35670de0b6b3a7640000948861093d565b9061096a565b610a4a6001546002549061096a565b9061094a565b049290565b60405163120a744b60e31b81526001600160a01b038716600482015260248101889052969a509495939492939192608083604481895afa928315610b93575f93610b63575b5060408301918c835111610b135784845114610af85781610acf575b5050516060919091015160018a019594939291906109eb565b97610aea610af092610ae5859b6060965161093d565b61094a565b9061095d565b96905f610ab6565b5050505050505050505093505050505f905f905f905f905f90565b9550955050916001915097949714610b57575b5081610b3c575b5050925f8080808080806109f3565b610b4f929591610ae5610aea928961093d565b925f80610b2d565b6060015191505f610b26565b610b8591935060803d8111610b8c575b610b7d818361089d565b810190610901565b915f610a9a565b503d610b73565b6040513d5f823e3d90fd5b9091506020813d602011610bca575b81610bba6020938361089d565b810103126101465751905f6109db565b3d9150610bad565b5f915f915f905f925f916004548091610be96108dd565b600b54604051637e17f55960e11b81526001600160a01b038481166004830152929990949290911691602085602481865afa948515610b93575f95610fee575b5093915f9391939260035495601154905b828610610d78575b50505050505050610c7e604051610c5a60408261089d565b6012815271666f72206c6f6f7020656e646564202d2d2d60701b60208201526110a0565b670de0b6b3a7640000840291848304670de0b6b3a7640000148515171561028357610d0b96610d68610cb9610d7395610a356060958761093d565b93600154610d3560025496670de0b6b3a7640000610ce0610cda8a8661096a565b8361094a565b049c8d949b604051610cf360408261089d565b60068152651cdd5b54db5560d21b6020820152611046565b604051610d1960408261089d565b600a8152694176657261676520534d60b01b6020820152611046565b610d6382604051610d4760408261089d565b600a81526922b9ba34b6b0ba34b7b760b11b6020820152611046565b61093d565b60015501519061093d565b600255565b60405163120a744b60e31b81526001600160a01b038616600482015260248101879052969c50949a5092949193909290608083604481885afa928315610b93575f93610fce575b50829b60018514610fc3575b610df881604051610ddd60408261089d565b60098152681d1bdd14db53185cdd60ba1b6020820152611046565b604084019188835111610e9e5783855114610e835781610e65575b5050606090610e3d8c604051610e2a60408261089d565b60018152606960f81b6020820152611046565b610e4f8b604051610cf360408261089d565b519201519260018b019492959395919091610c3a565b9a610aea610e7b92610ae5859e6060965161093d565b99905f610e13565b505f9e508e9d508d9c508c9b508b9a50505050505050505050565b94509450999450505081610fa5575b5050805f80610f879398610f03604051610ec860608261089d565b602381527f682e74696d657374616d70203e2065706f63682e7446696e616c2068617070656020820152621b995960ea1b60408201526110a0565b51610f6460405191610f1660408461089d565b60018352601f60f91b6020840152610f50604051938492630dea9f5360e21b60208501526024840152606060448401526084830190611022565b88606483015203601f19810183528261089d565b6020815191016a636f6e736f6c652e6c6f675afa50604051610e2a60408261089d565b610f9984604051610cf360408261089d565b5f808080808080610c42565b95610aea610fbb92610ae5610f8795998761093d565b94905f610ead565b506060830151610dcb565b610fe791935060803d8111610b8c57610b7d818361089d565b915f610dbf565b9094506020813d60201161101a575b8161100a6020938361089d565b810103126101465751935f610c29565b3d9150610ffd565b805180835260209291819084018484015e5f828201840152601f01601f1916010190565b6110756110895f93928493604051938492632d839cb360e21b6020850152604060248501526064840190611022565b90604483015203601f19810183528261089d565b6020815191016a636f6e736f6c652e6c6f675afa50565b5f6110cd611089829360405192839163104c13eb60e21b6020840152602060248401526044830190611022565b03601f19810183528261089d56fea264697066735822122062affc83cd78036dcd7d97dc1736121aa3aa08e778434cec3933f515513bba5664736f6c634300081a003360806040523461022c57604051601f6184ae38819003918201601f19168301916001600160401b0383118484101761021857808492604094855283398101031261022c57610058602061005183610230565b9201610230565b604051608081016001600160401b038111828210176102185760409081526b0691ef14d9ee1d2ee43400008083526b0348f78a6cf70e97721a000060208401819052674563918244f4000083850181905260016060909501859052600892909255600955600a55600b80546001600160a01b031990811690931790556004805483166001600160a01b03948516908117909155601280549093169490931693841790915567016345785d8a00006018555190916149f48083016001600160401b03811184821017610218576040928492613aba843930825260208201520301905ff0801561020d5760018060a01b0316805f52601c60205260405f2060018060a01b03600b541660018060a01b03165f5260205269021e19e0c9bab240000060405f2055600a548060011b90808204600214901517156101f9575f928352601c60209081526040808520600b546001600160a01b0316865290915290922091909155600380546001600160a01b031916821790556101d590610244565b6004546101ea906001600160a01b0316610244565b604051613840908161027a8239f35b634e487b7160e01b5f52601160045260245ffd5b6040513d5f823e3d90fd5b634e487b7160e01b5f52604160045260245ffd5b5f80fd5b51906001600160a01b038216820361022c57565b6004546001600160a01b0316330361022c576001600160a01b03165f908152601b60205260409020805460ff1916600117905556fe60806040526004361015610019575b3415612b8a575b5f80fd5b5f3560e01c806306c8b949146103585780630e18b6811461035357806312ca7d4c1461034e578063147bf6c41461034957806315ba56e5146103445780631820170c1461033f578063219f9c3d1461033a57806329cca5691461033557806337da4ad8146103305780633de62f671461032b5780633f54542a146103265780633feb36cf146103215780634234a7061461031c5780634925e4ed146103175780634b4a293a146103125780634faa1fa21461030d5780635300e16214610308578063643d430c146103035780636cd30148146102fe578063719ca6df146102f957806373d867f5146102f45780637d8e3059146102ef578063861cd16d146102ea5780638ae06ec1146102e55780638bf6b935146102e05780638e006981146102db57806391afcf5c146102d657806394e961c9146102d1578063959dd66f146102cc5780639a1f2e16146102c75780639c113d1b146102c25780639dd18c15146102bd578063a2b2389d146102b8578063a4cba4ba146102b3578063a7a096f6146102ae578063adb6233f146102a9578063adc525c7146102a4578063b08361141461029f578063b38c950a1461029a578063b581d59414610295578063c898a6e914610290578063cb62c7bc1461028b578063ced8cc5c14610286578063d0e3692d14610281578063d5d7b2f11461027c578063e4532e9b14610277578063e9a7e38a14610272578063ef83c1d61461026d578063f4e1895b14610268578063f7ebfebd14610263578063fcaa94441461025e5763fe9e63490361000e57611cec565b611ccf565b611c7e565b611b56565b611a0e565b611931565b611914565b6118a9565b61185b565b61182a565b61180d565b6117d0565b61178a565b611752565b61172c565b6116a1565b61165b565b61159e565b611564565b611530565b6114a4565b6113bc565b611378565b61133b565b611313565b6112eb565b61115f565b6110c0565b611098565b61104e565b610ee7565b610e41565b610dd6565b610d9b565b610d73565b610cf6565b610b79565b610aca565b610aa2565b610a67565b6109d7565b610952565b610904565b6108e7565b6108bf565b610892565b610682565b61054d565b6104d3565b610492565b610444565b6103ca565b6001600160a01b0381160361001557565b6024359061037b8261035d565b565b6044359061037b8261035d565b60e4359061037b8261035d565b359061037b8261035d565b6040906003190112610015576004356103ba8161035d565b906024356103c78161035d565b90565b34610015576103d8366103a2565b6012549091906001600160a01b03163303610015576001600160a01b03165f8181526021602052604090205490919060ff1615610015575f918252602160205260409091208054610100600160a81b03191660089290921b610100600160a81b0316919091179055005b005b34610015575f366003190112610015576014544210610015576013546001600160a01b0381163381900361001557601280546001600160a01b0319908116929092179055166013555f601455005b3461001557602036600319011261001557601254600435906001600160a01b03163303610015576019556201518042018042116104ce57601a55005b611d2c565b34610015576020366003190112610015576004356104f08161035d565b6012546001600160a01b03169033829003610015576001600160a01b0316908115908115610543575b50610015576001600160601b0360a01b60135416176013556201518042018042116104ce57601455005b905081145f610519565b34610015575f366003190112610015576012546001600160a01b031633036100155760175442106100155760168054601580546001600160a01b03199081166001600160a01b038416179091551690555f601755005b634e487b7160e01b5f52604160045260245ffd5b604081019081106001600160401b038211176105d257604052565b6105a3565b606081019081106001600160401b038211176105d257604052565b90601f801991011681019081106001600160401b038211176105d257604052565b6040519061037b610140836105f2565b6001600160401b0381116105d257601f01601f191660200190565b81601f820112156100155760208135910161065882610623565b9261066660405194856105f2565b8284528282011161001557815f92602092838601378301015290565b346100155760c03660031901126100155760043561069f8161035d565b602435906106ac8261035d565b6044356106b88161035d565b606435906084359360a4356001600160401b0381116100155761070c918685856106e961070895369060040161063e565b6001600160a01b038a165f90815260208052604090205490948a612bb9565b1590565b61088357600b5461072d906001600160a01b03165b6001600160a01b031690565b6001600160a01b038216908114801561084f575b6100155715610841575b6107b26107ba9161075f8461083397611d6a565b61079d610795836107808960018060a01b03165f52601c60205260405f2090565b9060018060a01b03165f5260205260405f2090565b918254611d77565b9055335f908152601c60205260409020610780565b918254611d6a565b9055600a54335f908152601c602052604090206107f7906107b2905b600b546001600160a01b03165b60018060a01b03165f5260205260405f2090565b90556001600160a01b0381165f90815260208052604090206108198154611d84565b90556001600160a01b03165f908152602080526040902090565b61083d8154611d84565b9055005b60185484111561074b575f80fd5b506001600160a01b0384165f908152601c60205260409020610872908390610780565b5461087d8487611d6a565b11610741565b638baa579f60e01b5f5260045ffd5b34610015575f366003190112610015576012546001600160a01b03163303610015575f6019819055601a55005b34610015575f366003190112610015576015546040516001600160a01b039091168152602090f35b34610015575f366003190112610015576020600a54604051908152f35b34610015575f366003190112610015576012546001600160a01b03163303610015576001600160601b0360a01b600554166005556001600160601b0360a01b600654166006555f6007555f80f35b34610015575f366003190112610015576012546001600160a01b0316330361001557601680546001600160a01b03191690555f601755005b60e4359060ff8216820361001557565b60c4359060ff8216820361001557565b9181601f84011215610015578235916001600160401b038311610015576020838186019501011161001557565b610120366003190112610015576004356109f08161035d565b6024356109fc8161035d565b604435610a088161035d565b6064356084359060a4359260c4356001600160401b03811161001557610a3290369060040161063e565b94610a3b61098a565b5061010435966001600160401b03881161001557610a606104429836906004016109aa565b5050611d92565b3461001557602036600319011261001557600435610a848161035d565b60018060a01b03165f52601f602052602060405f2054604051908152f35b34610015575f366003190112610015576004546040516001600160a01b039091168152602090f35b34610015575f366003190112610015576016546040516001600160a01b039091168152602090f35b9061010060031983011261001557600435610b0c8161035d565b91602435610b198161035d565b916044356001600160401b0381116100155782610b389160040161063e565b91606435610b458161035d565b916084359160a4359160c435610b5a8161035d565b9160e435906001600160401b038211610015576103c79160040161063e565b3461001557610bbe610708610b8d36610af2565b81888486888a849f989e97999b9c610bb7819c9f60018060a01b03165f52601d60205260405f2090565b5495612e03565b610015576001600160a01b031680610cea575b50610bde6107083361270e565b610015578390610bf8610708610bf2611e93565b86612fa2565b15610cda575050600354610c3892602091610c1d90610721906001600160a01b031681565b604051808096819463063c696360e11b835260048301611ee0565b03915afa908115610cd5578361070892610c5b945f91610ca6575b505b87612fcf565b6100155781610c8c575b61083383610c72336130ab565b506001600160a01b03165f908152601d6020526040902090565b610c9b91610708913385612fcf565b610015575f80610c65565b610cc8915060203d602011610cce575b610cc081836105f2565b810190611ea7565b5f610c53565b503d610cb6565b611ef1565b610c5b9350906107089291610c55565b3303610015575f610bd1565b34610015575f366003190112610015576008546009549081811115610015578181039081116104ce5760011c81018091116104ce57600955610d42600a54610d3c6131ea565b90611f12565b335f908152601c60205260409020610d5d906107b2906107d6565b9055610442610d6e600a5460011c90565b600a55565b34610015575f366003190112610015576012546040516001600160a01b039091168152602090f35b3461001557602036600319011261001557600435610db88161035d565b60018060a01b03165f52601d602052602060405f2054604051908152f35b3461001557610de4366103a2565b6012549091906001600160a01b031633036100155760018060a01b03166001600160601b0360a01b600554161760055560018060a01b03166001600160601b0360a01b60065416176006556201518042018042116104ce57600755005b34610015575f366003190112610015576020601454604051908152f35b61012060031982011261001557600435610e778161035d565b91602435610e848161035d565b916044356001600160401b0381116100155781610ea39160040161063e565b91606435610eb08161035d565b916084359160a4359160c43591610ec760e4610397565b9161010435906001600160401b038211610015576103c79160040161063e565b3461001557610708610f13610efb36610e5e565b9082899a9486888a969e968c869a9c9e9d9b9d612e8a565b610015576001600160a01b031680611016575b50610f5c610f5587610f488860018060a01b03165f52601e60205260405f2090565b905f5260205260405f2090565b5460ff1690565b61001557610f6e610708610bf2611e93565b1561100757506020610f929293610c1d61072161072160035460018060a01b031690565b03915afa928315610cd557610fb493610708935f91610fe8575b505b85612fcf565b610015576001600160a01b03165f908152601e6020526040902061044291610fdb91610f48565b805460ff19166001179055565b611001915060203d602011610cce57610cc081836105f2565b5f610fac565b610fb493509161070892610fae565b3303610015575f610f26565b60609060031901126100155760043561103a8161035d565b906024356110478161035d565b9060443590565b346100155761108961105f36611022565b929160018060a01b03165f52601c60205260405f209060018060a01b03165f5260205260405f2090565b80549182018092116104ce5755005b34610015575f366003190112610015576003546040516001600160a01b039091168152602090f35b34610015575f366003190112610015576020601754604051908152f35b6001600160401b0381116105d25760051b60200190565b8015150361001557565b60c4359061037b826110f4565b359061037b826110f4565b608090602092936060820194825283820152606060408201528451809452019201905f5b8181106111475750505090565b8251151584526020938401939092019160010161113a565b34610015576020366003190112610015576004356001600160401b038111610015573660238201121561001557806004013561119a816110dd565b916111a860405193846105f2565b8183526024602084019260051b820101903682116100155760248101925b8284106111ec576111e86111d986611f84565b60409391935193849384611116565b0390f35b83356001600160401b038111610015578201610140602319823603011261001557611215610613565b9161122260248301610397565b835261123060448301610397565b602084015260648201356001600160401b03811161001557611258906024369185010161063e565b604084015261126960848301610397565b606084015260a4820135608084015260c482013560a084015260e482013560c0840152611299610104830161110b565b60e08401526112ab6101248301610397565b610100840152610144820135926001600160401b038411610015576112da60209493602486953692010161063e565b6101208201528152019301926111c6565b34610015575f366003190112610015576013546040516001600160a01b039091168152602090f35b34610015575f366003190112610015576005546040516001600160a01b039091168152602090f35b34610015575f366003190112610015576012546001600160a01b0316330361001557601a544210610015576019546018555f6019555f601a555f80f35b346100155760206113b361138b366103a2565b6001600160a01b039182165f908152601c855260408082209290931681526020919091522090565b54604051908152f35b34610015575f366003190112610015576012546001600160a01b0316330361001557600754421061001557600654604051611459916001600160a01b0316611403826105b7565b6001825260208083019182526005546001600160a01b03165f908152602190915260409020915182549151610100600160a81b0360089190911b1690151560ff166001600160a81b031990921691909117179055565b6005546001600160a01b03165f90815260216020526040902061147b90610fdb565b600580546001600160a01b0319169055600680546001600160a01b03191690556104425f600755565b34610015576020366003190112610015576004356114c18161035d565b6012546001600160a01b031633036100155760018060a01b03166001600160601b0360a01b601654161760165562278d0042018042116104ce57601755005b6040906003190112610015576004356115188161035d565b906024356001600160f81b0319811681036100155790565b346100155761044261154136611500565b9060018060a01b03165f52601b60205260405f209060f81c60ff19825416179055565b34610015576020366003190112610015576004356115818161035d565b60018060a01b03165f5260208052602060405f2054604051908152f35b34610015576060366003190112610015576004356001600160401b0381116100155736602382011215610015578060040135906115da826110dd565b906115e860405192836105f2565b8282526024602083019360061b8201019036821161001557602401925b818410611621576104428361161861036e565b60443591612460565b604084360312610015576020604091825161163b816105b7565b863581528287013561164c8161035d565b83820152815201930192611605565b346100155761166936611500565b6004546001600160a01b03163303610015576104429160018060a01b03165f52601b60205260405f209060f81c60ff19825416179055565b610100366003190112610015576004356116ba8161035d565b6024356116c68161035d565b6044356116d28161035d565b6064356084359160a4356001600160401b038111610015576116f890369060040161063e565b9361170161099a565b5060e435956001600160401b038711610015576117256104429736906004016109aa565b505061252f565b34610015576020366003190112610015576004356008549081018091116104ce57600855005b34610015575f366003190112610015576012546001600160a01b0316330361001557601380546001600160a01b03191690555f601455005b34610015576020366003190112610015576004356117a78161035d565b60018060a01b03165f526021602052602060018060a01b0360405f205460081c16604051908152f35b34610015576117de36611022565b90333b15610015576117f09233612fcf565b15610015576117fe3361270e565b61180457005b610442336130ab565b34610015575f366003190112610015576020601854604051908152f35b3461001557602036600319011261001557602061185160043561184c8161035d565b61270e565b6040519015158152f35b34610015576040366003190112610015576004356118788161035d565b6024359060018060a01b03165f52601e60205260405f20905f52602052602060ff60405f2054166040519015158152f35b34610015576020366003190112610015576004356118c68161035d565b6012546001600160a01b03163303610015576001600160a01b03165f8181526021602052604090205460ff1615610015575f90815260216020526040902080546001600160a81b0319169055005b34610015575f366003190112610015576020600854604051908152f35b346100155761196e61070861194536610af2565b908786999385878a99849e989b610bb7879b9e60018060a01b03165f52601d60205260405f2090565b610015576001600160a01b031680611a02575b50611990610708610bf2611e93565b156119f3575060206119b49293610c1d61072161072160035460018060a01b031690565b03915afa928315610cd5576119d493610708935f91610fe8575085612fcf565b610015576001600160a01b03165f908152601d60205260409020610833565b6119d493509161070892610fae565b3303610015575f611981565b346100155761012036600319011261001557600435611a2c8161035d565b6024356001600160401b038111610015576004019036601f83011215610015578135611a57816110dd565b92611a6560405194856105f2565b81845260208085019260051b820101903682116100155760208101925b828410611ad8578585611a9361037d565b60643560a435608435611aa46110fe565b92611aad61038a565b9461010435976001600160401b03891161001557611ad261044299369060040161063e565b976127e3565b83356001600160401b0381116100155782016060601f1982360301126100155760405191611b05836105d7565b602082013583526040820135611b1a8161035d565b60208401526060820135926001600160401b03841161001557611b46602094938580953692010161063e565b6040820152815201930192611a82565b3461001557610708611b82611b6a36610e5e565b81838587898d9e979f96989d8d8d919e9b9c9e612e8a565b610883576001600160a01b031680611c63575b50611ba26107083361270e565b61001557611bc7610f5588610f488960018060a01b03165f52601e60205260405f2090565b610015578390611bdb610708610bf2611e93565b15611c53575050600354611c0092602091610c1d90610721906001600160a01b031681565b03915afa908115610cd5578361070892611c21945f91610ca6575087612fcf565b6100155781611c39575b5050610fb4610708336130ab565b611c4891610708913385612fcf565b610015575f80611c2b565b611c219350906107089291610c55565b3303611c6f575f611b95565b6370138bef60e01b5f5260045ffd5b3461001557602036600319011261001557600435611c9b8161035d565b6012546001600160a01b0316330361001557600380546001600160a01b0319166001600160a01b0392909216919091179055005b34610015575f366003190112610015576020600954604051908152f35b3461001557602036600319011261001557600435611d098161035d565b60018060a01b03165f526021602052602060ff60405f2054166040519015158152f35b634e487b7160e01b5f52601160045260245ffd5b90600c82018092116104ce57565b60020190816002116104ce57565b60030190816003116104ce57565b919082018092116104ce57565b919082039182116104ce57565b5f1981146104ce5760010190565b958584958495611da695610708958b612cb1565b61088357600b54611dbf906001600160a01b0316610721565b6001600160a01b0382169081148015611e6c575b8015611e45575b6100155715611e2c575b83610fdb9392611e11610795610f489461078061037b9960018060a01b03165f52601c60205260405f2090565b90556001600160a01b03165f908152601e6020526040902090565b67016345785d8a00008293921161001557919091611de4565b5082611e65836107808860018060a01b03165f52601c60205260405f2090565b5410611dda565b50611e8e610f5585610f488860018060a01b03165f52601e60205260405f2090565b611dd3565b60405190611ea26020836105f2565b5f8252565b9081602091031261001557516103c78161035d565b805180835260209291819084018484015e5f828201840152601f01601f1916010190565b9060206103c7928181520190611ebc565b6040513d5f823e3d90fd5b908160011b91808304600214901517156104ce57565b818102929181159184041417156104ce57565b90611f2f826110dd565b611f3c60405191826105f2565b8281528092611f4d601f19916110dd565b0190602036910137565b634e487b7160e01b5f52603260045260245ffd5b8051821015611f7f5760209160051b010190565b611f57565b5f915f611f918351611f25565b905f905b8451821015612440578180611fbb611fad8289611f6b565b51516001600160a01b031690565b878080611fdc6020611fcd8784611f6b565b5101516001600160a01b031690565b6040611fe88784611f6b565b510151611ffa6060611fcd8986611f6b565b60806120068986611f6b565b5101519160a06120168a87611f6b565b5101519361203160e06120298c89611f6b565b510151151590565b156123ec57896120418188611f6b565b5160c00151966120829c612073610100611fcd6107089f61206d60e06120296101209961207999611f6b565b9d611f6b565b9a611f6b565b51015198612eea565b61001557612099610721610100611fcd8589611f6b565b6123c8575b6120ad60e06120298488611f6b565b15612369576120ff610708610f556120e46120cb611fad878b611f6b565b6001600160a01b03165f908152601e6020526040902090565b60c06120f0878b611f6b565b5101515f5260205260405f2090565b1561235e57612126610fdb61211a6120cb611fad868a611f6b565b60c06120f0868a611f6b565b61214961070860406121388589611f6b565b510151612143611e93565b90612fa2565b1561234a576003546121979060209061216c90610721906001600160a01b031681565b6040612178868a611f6b565b51015190604051808095819463063c696360e11b835260048301611ee0565b03915afa908115610cd5575f9161232c575b505b6121d260a06121ba8589611f6b565b51015160806121c9868a611f6b565b51015190611d6a565b61220d6121fe6121e5611fad878b611f6b565b6001600160a01b03165f908152601c6020526040902090565b6107e36060611fcd888c611f6b565b54106123205761070861224d91612227611fad868a611f6b565b906122376060611fcd888c611f6b565b906080612244888c611f6b565b51015192612fcf565b156122725761225d600191611d84565b915f6122698286611f6b565b525b0190611f95565b909460a06122808787611f6b565b510151151580612311575b6122b4575b61229b600191611d84565b956122af6122a98286611f6b565b60019052565b61226b565b6122ed6107086122c7611fad8989611f6b565b6122d66060611fcd8b8b611f6b565b60a06122e28b8b611f6b565b510151913390612fcf565b156122905794906122ff600191611d84565b915f61230b8286611f6b565b5261226b565b5061231b3361270e565b61228b565b506122ff600191611d84565b612344915060203d8111610cce57610cc081836105f2565b5f6121a9565b6123596020611fcd8488611f6b565b6121ab565b6122ff600191611d84565b612392612379611fad8488611f6b565b6001600160a01b03165f908152601d6020526040902090565b5460c061239f8488611f6b565b5101510361235e576123b7612379611fad8488611f6b565b6123c18154611d84565b9055612126565b6123db610721610100611fcd8589611f6b565b331461209e576122ff600191611d84565b896123f78188611f6b565b51516001600160a01b03166001600160a01b03165f908152601d6020526040902054966120829c612073610100611fcd6107089f61206d60e06120296101209961207999611f6b565b9350509061244d3361270e565b61245357565b61245d8433613140565b50565b909291333b1561001557335f908152601c602052604081208290612485908790610780565b541061001557335f908152601c602052604090206124a4908690610780565b6124af838254611d77565b90555f905b835182101561250c576124d3906124cb8386611f6b565b515190611d6a565b9082821161001557806124e860019286611f6b565b51516125036107b2896107806121e56020611fcd888d611f6b565b905501906124b4565b92505091925003610015576125203361270e565b61252657565b61245d336130ab565b939194849161254e8360018060a01b03165f52601d60205260405f2090565b546040519161255e6040846105f2565b60088352671a991c1c9b3098b360c11b602084015261257c906133ff565b94612586896133ff565b916125908861350c565b9161259a9061350c565b906125a49061350c565b916125ad612c6c565b93604051988996602088016125c1916127bc565b600b60fa1b81526001016125d4916127bc565b600b60fa1b81526001016125e7916127bc565b600b60fa1b81526001016125fa916127bc565b600b60fa1b815260010161260d916127bc565b600b60fa1b8152600101612620916127bc565b600b60fa1b8152600101612633916127bc565b03601f198101845261264590846105f2565b61264e92613662565b1561088357600b54612668906001600160a01b0316610721565b6001600160a01b03841690811480156126e7575b61001557156126d3575b6126aa6107956126c5946107808560018060a01b03165f52601c60205260405f2090565b90556001600160a01b03165f908152601d6020526040902090565b6126cf8154611d84565b9055565b67016345785d8a0000811115612686575f80fd5b5081612707856107808660018060a01b03165f52601c60205260405f2090565b541061267c565b6001600160a01b03165f908152601b602052604090205460f81b6001600160f81b031916600160f81b1490565b602081016020825282518091526040820191602060408360051b8301019401925f915b83831061276d57505050505090565b90919293946020806127ad600193603f19868203018752606060408b5180518452878060a01b038682015116868501520151918160408201520190611ebc565b9701930193019193929061275e565b805191908290602001825e015f815290565b9081602091031261001557516103c7816110f4565b91989396909594929760205f61281f604051612813816128058d87830161273b565b03601f1981018352826105f2565b604051918280926127bc565b039060025afa15610cd5576107086128499183888d8c8e5f5192845f14612b6c578b935b8b613256565b6108835784906001600160a01b031680612b5d575b50612b28575b6001600160a01b0381165f908152601c60205260409020612886908990610780565b546128918789611d6a565b11610015575f936128a28789611d6a565b6128c36107958b6107808660018060a01b03165f52601c60205260405f2090565b90555f965f955b8751871015612a71576128e1906124cb888a611f6b565b958a6128f56107086040612138858d611f6b565b15612a3c57506003546129419061291690610721906001600160a01b031681565b60206040612924858d611f6b565b510151604051809481926310d9158b60e31b835260048301611ee0565b0381845afa8015610cd5578d925f91612a0e575b5061299a575b5090896129916107b2600194610780612974868f611f6b565b51516001600160a01b039095165f908152601c6020526040902090565b905501956128ca565b899a506020915060406129b0846129cf9c611f6b565b5101519060405180809c8194630d3dcb9f60e01b835260048301611ee0565b03915afa908115610cd557808c928b9a5f916129f0575b509a50919061295b565b612a08915060203d8111610cce57610cc081836105f2565b5f6129e6565b612a2f915060203d8111612a35575b612a2781836105f2565b8101906127ce565b5f612955565b503d612a1d565b9088995080612a4b818b611f6b565b51602001516001600160a01b03169a6107b26001946107806129748f9561299195611f6b565b929750945094509691969590950361001557612a8c3361270e565b15612afd576107b2612ab591612aa1336130ab565b50335f908152601c60205260409020610780565b90555b15612ae0576001600160a01b03165f908152601e6020526040902061037b91610fdb91610f48565b6001600160a01b03165f908152601d6020526040902090506126c5565b6001600160a01b0384165f908152601c60205260409020612b21916107b291610780565b9055612ab8565b612b49610f5583610f488460018060a01b03165f52601e60205260405f2090565b1561286457631849850b60e01b5f5260045ffd5b90503303611c6f57835f61285e565b6001600160a01b038b165f908152601d602052604090205493612843565b6015546001600160a01b03811615610015575f8091368280378136915af43d5f803e15612bb5573d5ff35b3d5ffd5b9490612bc99096949293966133ff565b92612bd39061350c565b95612bdd906133ff565b91612be79061350c565b90612bf19061350c565b9160405196879460208601612c05916127bc565b600b60fa1b8152600101612c18916127bc565b600b60fa1b8152600101612c2b916127bc565b600b60fa1b8152600101612c3e916127bc565b600b60fa1b8152600101612c51916127bc565b03601f1981018452612c6390846105f2565b6103c792613662565b60405190612c7b6040836105f2565b600582526466616c736560d81b6020830152565b60405190612c9e6040836105f2565b60048252637472756560e01b6020830152565b9495939092919560405193612cc76040866105f2565b60088552671c99183319b21b9b60c11b6020860152612ce5906133ff565b96612cef906133ff565b92612cf99061350c565b91612d039061350c565b90612d0d9061350c565b91612d16612c8f565b9360405198899660208801612d2a916127bc565b600b60fa1b8152600101612d3d916127bc565b600b60fa1b8152600101612c05916127bc565b95939197969492909760405198899760208901612d6c916127bc565b600b60fa1b8152600101612d7f916127bc565b600b60fa1b8152600101612d92916127bc565b600b60fa1b8152600101612da5916127bc565b600b60fa1b8152600101612db8916127bc565b600b60fa1b8152600101612dcb916127bc565b600b60fa1b8152600101612dde916127bc565b600b60fa1b8152600101612df1916127bc565b03601f198101835261037b90836105f2565b969291946103c798969194612e5d612e57612e57612e57612e759a6040519a612e2d60408d6105f2565b60088c52671a3330b098b3309960c11b60208d01526001600160a01b038116612e7a5750976133ff565b9361350c565b93612e6f612e69612c6c565b966133ff565b96612d50565b613662565b612e8491506133ff565b976133ff565b969291946103c798969194612ede612e57612e57612e57612e759a6040519a612eb460408d6105f2565b60088c5267331a32989c1c9ab160c11b60208d01526001600160a01b038116612e7a5750976133ff565b93612e6f612e69612c8f565b97936103c7999793612f4d612f47612f47612f47612e759b979a969a895f14612f7957604051612f1b6040826105f2565b6008815267331a32989c1c9ab160c11b60208201529b5b6001600160a01b038116612f695750946133ff565b9461350c565b9415612f5e57612e6f612e69612c8f565b612e6f612e69612c6c565b612f7391506133ff565b946133ff565b604051612f876040826105f2565b60088152671a3330b098b3309960c11b60208201529b612f32565b9081518151908181149384612fb9575b5050505090565b602092939450820120920120145f808080612fb2565b6001600160a01b038181165f908152601c60208181526040808420888616808652908352818520549588168552928252808420928452919052902054929492939290919080831015613025575050505050505f90565b8083039283116104ce576130a694610780936130588661078061308b9660018060a01b03165f52601c60205260405f2090565b556130638282611d6a565b6001600160a01b0388165f908152601c60205260409020613085908790610780565b55611d6a565b6001600160a01b039094165f908152601c6020526040902090565b541490565b600a54801581800460011417156104ce576001600160a01b038281165f818152601c60209081526040808320600b549095168084529490915290209091905492808401938481116104ce576130a694613085613125946107d6965f52601c60205260405f209060018060a01b03165f5260205260405f2090565b6001600160a01b039093165f908152601c6020526040902090565b9061314d90600a54611f12565b6001600160a01b038281165f818152601c60209081526040808320600b549095168084529490915290205492830193919290919084106104ce57836131b36130a6946131cd945f52601c60205260405f209060018060a01b03165f5260205260405f2090565b556001600160a01b03165f908152601c6020526040902090565b600b546001600160a01b03165f9081526020919091526040902090565b6113db60405160208101904282524460408201526040815261320d6060826105f2565b51902006600101806001116104ce5790565b94929096959391604051978896602088016733191bb31b98b23160c11b905260288801600b60fa1b905260298801612d7f916127bc565b96979593919492909460405195639201de5560e01b875260048701525f8660248173__$2586ee71363c751a7dcf59a6d696ae69ac$__5af4958615610cd5575f966132e3575b50916103c79893916132bb612e57612e57612e57612e759a99976133ff565b93156132d8576132d26132cc612c8f565b956133ff565b9561321f565b6132d26132cc612c6c565b989391955093913d805f8b3e6132f9818b6105f2565b8901986020818b0312610015578051906001600160401b03821161001557019589601f880112156100155786519661333088610623565b9a61333e6040519c8d6105f2565b888c526020898301011161001557612e57612e57612e576103c79d5f60208d612e759e826132bb99018386015e830101529a50505050509193989490929461329c565b604051906133906040836105f2565b601082526f181899199a1a9b1b9c1cb0b131b232b360811b6020830152565b604051606091906133c083826105f2565b602a815291601f1901366020840137565b805115611f7f5760200190565b805160011015611f7f5760210190565b908151811015611f7f570160200190565b6001600160a01b0316613410613381565b906134196133af565b916030613425846133d1565b536078613431846133de565b535f5b601481106134425750505090565b61344b81611d40565b6020811015611f7f576134799061346b9085901a60041c600f16846133ee565b516001600160f81b03191690565b61349761348d61348884611efc565b611d4e565b915f1a91866133ee565b536134a181611d40565b906020821015611f7f576134bf61346b600f866001951a16856133ee565b6134dd6134d36134ce84611efc565b611d5c565b915f1a91876133ee565b5301613434565b906134ee82610623565b6134fb60405191826105f2565b8281528092611f4d601f1991610623565b805f9172184f03e93ff9f4daa797ed6e38ed64bf6a1f0160401b82101561363f575b806d04ee2d6d415b85acef8100000000600a921015613623575b662386f26fc1000081101561360e575b6305f5e1008110156135fc575b6127108110156135ec575b60648110156135dd575b10156135d2575b6135bd6021613592600185016134e4565b938401015b5f1901916f181899199a1a9b1b9c1cb0b131b232b360811b600a82061a8353600a900490565b80156135cd576135bd9091613597565b505090565b600190910190613581565b6002906064900493019261357a565b6004906127109004930192613570565b6008906305f5e1009004930192613565565b601090662386f26fc100009004930192613558565b6020906d04ee2d6d415b85acef81000000009004930192613548565b506040915072184f03e93ff9f4daa797ed6e38ed64bf6a1f0160401b810461352e565b6128056136b4613672835161350c565b926040519283916136ae60208401967f19457468657265756d205369676e6564204d6573736167653a0a0000000000008852603a8501906127bc565b906127bc565b519020604182510361376757815f916020809401519160606040820151910151841a92601b8410613750575b90613724916136fe60ff8616601b8114908115613745575b506137be565b604051948594859094939260ff6060936080840197845216602083015260408201520152565b838052039060015afa15610cd5575f516001600160a01b0390811691161490565b601c9150145f6136f8565b929061375e613724926137ac565b939091506136e0565b60405162461bcd60e51b815260206004820152601860248201527f496e76616c6964207369676e6174757265206c656e67746800000000000000006044820152606490fd5b60ff601b9116019060ff82116104ce57565b156137c557565b60405162461bcd60e51b815260206004820152601760248201527f496e76616c6964207369676e61747572652076616c75650000000000000000006044820152606490fdfea26469706673582212202d324bd1e57f4a03dde954f672b6c4a6ed4197054cf3dcec6f38bfb93ca8b88964736f6c634300081a0033608034608657601f6149f438819003918201601f19168301916001600160401b03831184841017608a578084926040948552833981010312608657604b6020604583609e565b9201609e565b600780546001600160a01b039384166001600160a01b031991821617909155600a805492909316911617905560405161494290816100b28239f35b5f80fd5b634e487b7160e01b5f52604160045260245ffd5b51906001600160a01b038216820360865756fe60806040526004361015610011575f80fd5b5f3560e01c80630c78d2c61461043a5780630d1ffe3a146104355780630d3dcb9f1461043057806310d8bb091461042b57806310e5c25f1461042657806311eed71414610421578063147bf6c41461041c5780631de25a89146104175780631f4131fb14610412578063218116091461040d57806324866f15146104085780632e76af5c14610403578063331a3989146103fe57806335834e10146103f957806336e7a1b814610390578063393b9c6f146103f45780633e7899a1146103ef57806343a82d67146103ea57806348ffba55146103e557806349166379146103e057806352649c2e146103db57806354dc585d146103d65780635548a762146103d15780636196fc67146103cc5780636413033f146103c75780636a582c30146103c25780636a74ca46146103bd5780636b5bb1ca146103a95780636e9960c3146103b85780637126b2a3146103b357806375dab53b146103ae5780637bd9da7a146103a95780638001a999146103a457806381bb2df31461039f57806386c8ac581461039a57806388ecb91f1461039557806399e7bac214610390578063a6ba51ca1461038b578063a893b5ec14610386578063ae36fe7214610381578063b0d107da1461037c578063b19517dd14610377578063b2bc0ed614610372578063b7e5296d1461036d578063b8086f9814610368578063b88dc00414610363578063bcd5a47c1461035e578063bf2e9ab514610359578063c12615bb14610354578063c150741e1461034f578063c97da33e1461034a578063cf97ed1a14610345578063d134f8b414610340578063d2234a1a1461033b578063d22c816c14610336578063d7fd313414610331578063debeef5c1461032c578063dfb91dea14610327578063e6efeffa14610322578063eba5e53e1461031d578063f174748314610318578063f559b24e14610313578063f69c6dec1461030e578063f6d0ecbe14610309578063f7b2efb514610304578063fe7ab683146102ff5763ff9794f0146102fa575f80fd5b612873565b612815565b6127ed565b61271e565b6126f5565b61269d565b6124a0565b61242d565b612377565b612321565b6122d7565b61220c565b612118565b6120f4565b61205a565b612002565b611fab565b611f73565b611eea565b611eae565b611e95565b611e5d565b611e43565b611e05565b611dc1565b611cfc565b611b56565b61189a565b611842565b6117e3565b610c7e565b6117ab565b611793565b611766565b61150c565b611494565b6114f4565b6114d2565b6114aa565b611461565b6113f2565b6113b6565b61127a565b61123e565b611226565b611174565b611138565b6110af565b611010565b610d9d565b610c98565b610c56565b610c00565b610bc8565b610b90565b610900565b610813565b610784565b6106fa565b610692565b61066a565b61062a565b6105f0565b6105c8565b61055f565b634e487b7160e01b5f52604160045260245ffd5b60a081019081106001600160401b0382111761046e57604052565b61043f565b606081019081106001600160401b0382111761046e57604052565b90601f801991011681019081106001600160401b0382111761046e57604052565b604051906104be60a08361048e565b565b604051906104be60608361048e565b6001600160401b03811161046e57601f01601f191660200190565b81601f8201121561052e57602081359101610504826104cf565b92610512604051948561048e565b8284528282011161052e57815f92602092838601378301015290565b5f80fd5b602060031982011261052e57600435906001600160401b03821161052e5761055c916004016104ea565b90565b3461052e57602061056f36610532565b5f9061057a816136ef565b610592575b506040516001600160a01b039091168152f35b90506105a1604051809261289c565b5f808252908290038301909120546001600160a01b03169061057f565b5f91031261052e57565b3461052e575f36600319011261052e576007546040516001600160a01b039091168152602090f35b3461052e57602061060036610532565b61060d604051809261289c565b5f815281900382019020546040516001600160a01b039091168152f35b3461052e575f36600319011261052e57600d54600e54600f54604080516001600160a01b03948516815293909216602084015290820152606090f35b0390f35b3461052e575f36600319011261052e576013546040516001600160a01b039091168152602090f35b3461052e575f36600319011261052e576010546040516001600160a01b039091168152602090f35b600435906001600160a01b038216820361052e57565b602435906001600160a01b038216820361052e57565b35906001600160a01b038216820361052e57565b3461052e57602036600319011261052e576107136106ba565b600a546001600160a01b03169033829003610775576001600160a01b031690811590811561076b575b5061052e576001600160601b0360a01b600b541617600b5562015180420180421161076657600c55005b612904565b905081145f61073c565b6349e27cff60e01b5f5260045ffd5b3461052e5760c036600319011261052e576004356001600160401b03811161052e576107b49036906004016104ea565b60a036602319011261052e576040516107cc81610453565b6107d46106d0565b815260443560208201526064356040820152608435606082015260a435916001600160f81b03198316830361052e576108119260808301526129d8565b005b3461052e57602061082b61082636610532565b612af7565b604051908152f35b8015150361052e57565b60c435906104be82610833565b61010435906104be82610833565b60e435906104be82610833565b35906104be82610833565b61012060031982011261052e5761088760046106e6565b91602435916044356001600160401b03811161052e57816108aa916004016104ea565b91606435916084359160a4356001600160401b03811161052e57826108d1916004016104ea565b9160c435916108e060e4610865565b9161010435906001600160401b03821161052e5761055c916004016104ea565b3461052e5761090e36610870565b909793949260018060a09998991b03851690815f52600360205260405f20885f5260205260ff60405f205416610b8257600160f81b6001600160f81b0319610962600461095a8d6128ae565b015460f81b90565b1614918215610b50575b508115610b34575b5061052e576004978580610b21575b505050506109ae60026109a683610999896128ca565b905f5260205260405f2090565b015483614188565b6109ce6109be82610999886128ca565b80546001600160a01b0319169055565b6007546020906109f4906109e8906001600160a01b031681565b6001600160a01b031690565b6040516306fb495b60e31b815297889182905afa958615610b1c57610aa486610a6d610a9e610a976002610a5e88610a7e6108119f610aca9f9d610a736109999f92610ab19e610a7894610aac9f5f93610ad7575b5089610a5e610a6d93610999610a65946128ca565b0154612a31565b61031c900490565b90612977565b612977565b33614188565b61099983610a8f836109998b6128ca565b0154976128ca565b60c7900490565b60021c90565b601854612b64565b601855565b6001600160a01b03165f90815260036020526040902090565b805460ff19166001179055565b610a65919350610a5e610a6d93610999610b098e9460203d602011610b15575b610b01818361048e565b810190612a17565b96945050935050610a49565b503d610af7565b612a26565b610b2b9386614029565b5f808085610983565b610b4a9150610b469088868b89613eff565b1590565b5f610974565b9091506001600160a01b03610b78610b6b876109998d6128ca565b546001600160a01b031690565b161415905f61096c565b623f613760e71b5f5260045ffd5b3461052e575f36600319011261052e57600a546001600160a01b0316330361077557600880546001600160a01b03191690555f600955005b3461052e575f36600319011261052e57600a546001600160a01b0316330361077557600e80546001600160a01b03191690555f600f55005b3461052e575f36600319011261052e57600a546001600160a01b0316330361077557601554421061052e5760148054601380546001600160a01b03199081166001600160a01b038416179091551690555f601555005b3461052e575f36600319011261052e57600d546040516001600160a01b039091168152602090f35b3461052e575f36600319011261052e57602061082b612b71565b3461052e5761010036600319011261052e57610cb26106ba565b6024356064356084356001600160401b03811161052e57610cd79036906004016104ea565b60a43590610ce361083d565b9260e435956001600160401b03871161052e57610d076108119736906004016104ea565b9560443591612bd6565b9061010060031983011261052e57610d2960046106e6565b91602435916044356001600160401b03811161052e5782610d4c916004016104ea565b91606435916084356001600160401b03811161052e5782610d6f916004016104ea565b9160a43591610d7e60c4610865565b9160e435906001600160401b03821161052e5761055c916004016104ea565b3461052e57610dab36610d11565b919260409694959651610dbe818961289c565b5f81528190036020019020546001600160a01b038981169116819003610fd0575f52600360205260405f20855f5260205260ff60405f205416610b8257610b4688610e1a92610e15610e0f8961459d565b8b614295565b6146f3565b610fc1576002610e29876128ae565b015415610fb25784610e4593610e3e88612af7565b90896140eb565b5f5b6002610e52856128ae565b0154811015610e795780610e73610e6e600193610999886128e7565b612eb2565b01610e47565b5060075484908490610e95906109e8906001600160a01b031681565b6040516333b6331760e21b8152336004820152909490602081602481895afa908115610b1c575f91610f83575b50610efa575b610811610aca85610999865f6002610edf896128ae565b01556001600160a01b03165f90815260036020526040902090565b92916020600495604051968780926306fb495b60e31b82525afa8015610b1c576002610edf61099994610f58610a78610aca99610a73610f465f986108119e8a91610f64575b50612a42565b87610f50876128ae565b015490612ae4565b94505050509192610ec8565b610f7d915060203d602011610b1557610b01818361048e565b8f610f40565b610fa5915060203d602011610fab575b610f9d818361048e565b810190612e4f565b86610ec2565b503d610f93565b63041674a560e41b5f5260045ffd5b63ebbaebff60e01b5f5260045ffd5b630d86710960e31b5f5260045ffd5b604060031982011261052e57600435906001600160401b03821161052e57611009916004016104ea565b9060243590565b3461052e57602061103a61102336610fdf565b929061102d612f11565b506040519283809261289c565b6001815203019020905f5260205261066660405f2060026040519161105e83610473565b80546001600160a01b03168352600181015460208401520154604080830191909152519182918281516001600160a01b03168152602080830151908201526040918201519181019190915260600190565b3461052e575f36600319011261052e57600a546001600160a01b0316330361077557600954421061052e5760085460408051611122926001600160a01b0316915f916110fa81610473565b838152826020820152015260018060a01b03166001600160601b0360a01b6007541617600755565b600880546001600160a01b03191690555f600955005b3461052e575f36600319011261052e57600754600854600954604080516001600160a01b03948516815293909216602084015290820152606090f35b3461052e5761014036600319011261052e5761118e6106ba565b602435906044356001600160401b03811161052e576111b19036906004016104ea565b9060643560843560a43560c4356001600160401b03811161052e576111da9036906004016104ea565b9060e435926111e761084a565b9461012435976001600160401b03891161052e57610666996112106112169a36906004016104ea565b98612f60565b6040519081529081906020820190565b3461052e57602061082b61123936610532565b6131d5565b3461052e575f36600319011261052e57600a54600b54600c54604080516001600160a01b03948516815293909216602084015290820152606090f35b3461052e57606036600319011261052e576004356001600160401b03811161052e576112aa9036906004016104ea565b6024356044356001600160401b03811161052e5760206112d16112de9236906004016104ea565b936040519283809261289c565b6002815203019020905f5260205260405f2081516001600160401b03811161046e576113148161130e8454612e64565b84613289565b602092601f821160011461135357611344929382915f92611348575b50508160011b915f199060031b1c19161790565b9055005b015190505f80611330565b601f19821693611366845f5260205f2090565b915f5b86811061139e5750836001959610611386575b505050811b019055005b01515f1960f88460031b161c191690555f808061137c565b91926020600181928685015181550194019201611369565b3461052e575f36600319011261052e57601054601154601254604080516001600160a01b03948516815293909216602084015290820152606090f35b3461052e575f36600319011261052e57600a546001600160a01b0316330361077557601754421061052e57604051604081018181106001600160401b0382111761046e575f9160209160405260018152015261145b600160ff8019601654169115151617601655565b5f601755005b3461052e57602060016114838261147736610532565b6040519283809261289c565b5f8152030190200154604051908152f35b3461052e57602060026114838261147736610532565b3461052e575f36600319011261052e57600a546040516001600160a01b039091168152602090f35b3461052e5760206114ea6114e536610532565b613385565b6040519015158152f35b3461052e57602061082b61150736610532565b613400565b3461052e5761151a36610870565b9192604098969594985161152e818861289c565b5f81528190036020019020546001600160a01b038881169116819003610fd0575f52600360205260405f20885f5260205260ff60405f205416610b8257610b4661157b918987898b61432a565b6117575783600261158b876128ae565b0154111561052e57876115a7936115a0612b71565b90886140eb565b8060026115b3846128ae565b0154036116c557610aca9260026115e0846115db610e6e610999966109996116069b996128e7565b6128ae565b016115eb81546136e3565b90556001600160a01b03165f90815260036020526040902090565b60075461161d906109e8906001600160a01b031681565b6040516333b6331760e21b8152336004820152909190602081602481865afa908115610b1c575f916116a6575b5061165157005b6020600492604051938480926306fb495b60e31b82525afa908115610b1c57610a73610a7892610811945f916116875750612a42565b6116a0915060203d602011610b1557610b01818361048e565b5f610f40565b6116bf915060203d602011610fab57610f9d818361048e565b5f61164a565b93919290935b60026116d6866128ae565b015481101561171e576001906117186117066116f1886128e7565b6116fa84612918565b5f5260205260405f2090565b611713836109998a6128e7565b613603565b016116cb565b506109996116069360026115e0610aca95976115db610e6e61173f836128e7565b85611749856128ae565b01545f5260205260405f2090565b638baa579f60e01b5f5260045ffd5b3461052e575f36600319011261052e57600a546001600160a01b03163303610775575f6005819055600655005b3461052e5760206114ea6117a636610532565b6136ef565b3461052e575f36600319011261052e57600a546001600160a01b0316330361077557600b80546001600160a01b03191690555f600c55005b3461052e57602036600319011261052e576117fc6106ba565b600a546001600160a01b03163303610775576001600160a01b0316801561052e576001600160601b0360a01b600854161760085562015180420180421161076657600955005b3461052e57602036600319011261052e5761185b6106ba565b600a546001600160a01b031633036107755760018060a01b03166001600160601b0360a01b601154161760115562015180420180421161076657601255005b3461052e576118a836610870565b91926040989798516118ba818961289c565b5f81528190036020019020546001600160a01b038981169116819003610fd0575f52600360205260405f20895f5260205260ff60405f205416610b8257600160f81b6001600160f81b0319611913600461095a8b6128ae565b16148015611b36575b8015611b1d575b61052e57610b46611937918a888a8c614378565b611757578380611b0a575b50505050611960600261195884610999876128ca565b015485614188565b61199b611973610b6b84610999876128ca565b61197c856128ae565b80546001600160a01b0319166001600160a01b03909216919091179055565b6119ab6109be83610999866128ca565b6007546119c2906109e8906001600160a01b031681565b6040516333b6331760e21b8152336004820152602081602481855afa908115610b1c575f91611aeb575b50611a28575b50610811610aca8661099987610ab1610aac610aa48a610a6d610a9e610a976002610a5e8f61099983610a8f836109998b6128ca565b91602060049694959293604051978880926306fb495b60e31b82525afa958615610b1c57610aa486610a6d610a9e610a976002610a5e88611a9e6108119f610aca9f9d610a736109999f92610ab19e610a7894610aac9f5f93611ab2575b50610a978a610a5e610a6d94610999610a9e956128ca565b9a50505050505095975050508194506119f2565b610a9e9193508a610a5e610a6d94610999611ade610a979560203d602011610b1557610b01818361048e565b9795505094505050611a86565b611b04915060203d602011610fab57610f9d818361048e565b5f6119ec565b611b149388614029565b5f808083611942565b506001611b2d876109998a6128ca565b01544211611923565b506001600160a01b03611b4f610b6b886109998b6128ca565b161561191c565b3461052e57602036600319011261052e57600435600a546001600160a01b0316330361077557600754611b93906109e8906001600160a01b031681565b604051634d0f970b60e11b81523060048201526001602482015290602082604481845afa918215610b1c575f92611c54575b506020600491604051928380926306fb495b60e31b82525afa918215610b1c57611c07611bfe8594611c0d945f91611c35575b50612926565b60185490612977565b90612b64565b108015611c2d575b61052e57600555610811611c2842612936565b600655565b508015611c15565b611c4e915060203d602011610b1557610b01818361048e565b5f611bf8565b6004919250611c71602091823d8411610b1557610b01818361048e565b929150611bc5565b805180835260209291819084018484015e5f828201840152601f01601f1916010190565b602081016020825282518091526040820191602060408360051b8301019401925f915b838310611ccf57505050505090565b9091929394602080611ced600193603f198682030187528951611c79565b97019301930191939290611cc0565b3461052e57611d0a36610532565b6002604051602081611d1c818661289c565b5f815203019020015490611d2f82613765565b91611d3d604051938461048e565b808352611d4c601f1991613765565b015f5b818110611db05750505f5b6002611d65836128ae565b0154811015611da25780611d86611d81600193610999866128e7565b6137a9565b611d908286613790565b52611d9b8185613790565b5001611d5a565b604051806106668582611c9d565b806060602080938701015201611d4f565b3461052e575f36600319011261052e57600a546001600160a01b03163381900361077557600654421061052e57600554611dfa91614188565b5f6005819055600655005b3461052e575f36600319011261052e57600a546001600160a01b031633036107755760ff6016541661052e5762015180420180421161076657601755005b3461052e575f36600319011261052e57602061082b613847565b3461052e575f36600319011261052e57600a546001600160a01b0316330361077557601180546001600160a01b03191690555f601255005b3461052e57602061082b611ea836610fdf565b906138b1565b3461052e575f36600319011261052e57601354601454601554604080516001600160a01b03948516815293909216602084015290820152606090f35b3461052e575f36600319011261052e57600a546001600160a01b0316330361077557600f54421061052e57600e5460408051611f5d926001600160a01b0316915f91611f3581610473565b838152826020820152015260018060a01b03166001600160601b0360a01b600d541617600d55565b600e80546001600160a01b03191690555f600f55005b3461052e575f36600319011261052e57600a546001600160a01b0316330361077557601480546001600160a01b03191690555f601555005b3461052e576040611fbb36610532565b6001611fed60208451611fce818661289c565b905f82528281868060a01b03930301902054169385519283809261289c565b5f815203019020015482519182526020820152f35b3461052e57602036600319011261052e5761201b6106ba565b600a546001600160a01b031633036107755760018060a01b03166001600160601b0360a01b600e541617600e5562015180420180421161076657600f55005b3461052e5761012036600319011261052e576120746106ba565b602435906044356001600160401b03811161052e576120979036906004016104ea565b6064356084356001600160401b03811161052e576120b99036906004016104ea565b60a4359060c435926120c9610858565b9461010435976001600160401b03891161052e576120ee6108119936906004016104ea565b976138dd565b3461052e575f36600319011261052e57604060055460065482519182526020820152f35b3461052e5761010036600319011261052e576121326106ba565b6024356001600160401b03811161052e576121519036906004016104ea565b906044356064356084356001600160401b03811161052e576121779036906004016104ea565b60a4359161218361083d565b9360e435966001600160401b03881161052e576121a76108119836906004016104ea565b96613b58565b60206040818301928281528451809452019201905f5b8181106121d05750505090565b909192602060608261220160019488516040809160018060a01b038151168452602081015160208501520151910152565b0194019291016121c3565b3461052e5761221a36610532565b600360405160208161222c818661289c565b5f81520301902001549061223f82613765565b9161224d604051938461048e565b80835261225c601f1991613765565b015f5b8181106122c05750505f5b6003612275836128ae565b01548110156122b25780612296612291600193610999866128ca565b612f2f565b6122a08286613790565b526122ab8185613790565b500161226a565b6040518061066685826121ad565b6020906122cb612f11565b8282870101520161225f565b3461052e57604036600319011261052e576122f06106ba565b6024359060018060a01b03165f52600360205260405f20905f52602052602060ff60405f2054166040519015158152f35b3461052e575f36600319011261052e57600a546001600160a01b0316330361077557601254421061052e5760118054601080546001600160a01b03199081166001600160a01b038416179091551690555f601255005b3461052e5761012036600319011261052e576123916106ba565b602435906044356001600160401b03811161052e576123b49036906004016104ea565b6064356001600160401b03811161052e576123d39036906004016104ea565b60843560a4356001600160401b03811161052e576123f59036906004016104ea565b9060c43592612402610858565b9461010435976001600160401b03891161052e576124276108119936906004016104ea565b97613d19565b3461052e575f36600319011261052e57600b546001600160a01b031633810361052e57600c54421061052e575f6040805161246781610473565b838152602081018390520152600a80546001600160a01b039092166001600160a01b0319928316179055600b805490911690555f600c55005b3461052e576124ae36610d11565b909193926040979597516124c2818a61289c565b5f81528190036020019020546001600160a01b038781169116819003610fd0575f52600360205260405f20875f5260205260ff60405f205416610b825785600160f81b6001600160f81b031961251c600461095a8d6128ae565b161491821561267a575b505061052e57612541600161253a896128ae565b0154612946565b61254a42612957565b1061052e57612565918361255d89613400565b8096886140eb565b60075461257c906109e8906001600160a01b031681565b6040516333b6331760e21b8152336004820152602081602481855afa908115610b1c575f9161265b575b506125cd575b610811610aca866109998760016125c28c6128ae565b016115eb8154612946565b9060206004959492604051968780926306fb495b60e31b82525afa948515610b1c5761081196612626610a78600194610a73610aca9a610999996125c2975f92612632575b5061261f610a6d91612a53565b6064900490565b965050819394506125ac565b610a6d91925061265361261f9160203d602011610b1557610b01818361048e565b929150612612565b612674915060203d602011610fab57610f9d818361048e565b5f6125a6565b612696925090610b4691610e156126908b61459d565b8c614532565b855f612526565b3461052e57602036600319011261052e576126b66106ba565b600a546001600160a01b031633036107755760018060a01b03166001600160601b0360a01b601454161760145562015180420180421161076657601555005b3461052e5760206114ea61270836610532565b613eab565b90602061055c928181520190611c79565b3461052e5761273661272f36610fdf565b91906128e7565b905f5260205260405f20604051905f9080549061275282612e64565b80855291600181169081156127c65750600114612786575b6106668461277a8186038261048e565b6040519182918261270d565b5f90815260208120939250905b8082106127ac5750909150810160200161277a8261276a565b919260018160209254838588010152019101909291612793565b60ff191660208087019190915292151560051b8501909201925061277a915083905061276a565b3461052e575f36600319011261052e57600a546001600160a01b03163303610775575f601755005b3461052e5761282336610532565b5f9060015b1561283e575b6128385f926131c7565b91612828565b60405160208161284e818561289c565b6001815203019020825f52602052600160405f20015461282e57602082604051908152f35b3461052e575f36600319011261052e57604060ff60165416601754825191151582526020820152f35b805191908290602001825e015f815290565b60206128c0916040519283809261289c565b5f81520301902090565b60206128dc916040519283809261289c565b600181520301902090565b60206128f9916040519283809261289c565b600281520301902090565b634e487b7160e01b5f52601160045260245ffd5b906001820180921161076657565b6113db0190816113db1161076657565b9062015180820180921161076657565b906301e28500820180921161076657565b9063bc7bf400820180921161076657565b90610708820180921161076657565b9190820180921161076657565b815181546001600160a01b0319166001600160a01b03919091161781556080906004905b6020840151600182015560408401516002820155606084015160038201550191015160f81c60ff19825416179055565b60046129ee60206080936040519283809261289c565b5f815203019020835181546001600160a01b0319166001600160a01b03919091161781556129a8565b9081602091031261052e575190565b6040513d5f823e3d90fd5b908115600183800414171561076657565b908160050291600583040361076657565b9060328202918083046032149015171561076657565b9081600a0291600a83040361076657565b906103e38202918083046103e3149015171561076657565b90607d820291808304607d149015171561076657565b90816207a12002916207a12083040361076657565b9060058202918083046005149015171561076657565b908160320291603283040361076657565b8181029291811591840414171561076657565b6007546040516306fb495b60e31b81529190602090839060049082906001600160a01b03165afa918215610b1c57610f50612b3f61055c946002935f91612b45575b50612a69565b926128ae565b612b5e915060203d602011610b1557610b01818361048e565b5f612b39565b9190820391821161076657565b6007546040516306fb495b60e31b815290602090829060049082906001600160a01b03165afa908115610b1c575f91612bb7575b5080600a0290600a8204036107665790565b612bd0915060203d602011610b1557610b01818361048e565b5f612ba5565b95929694909360018060a01b0387165f52600360205260405f20855f5260205260ff60405f205416610b8257610b46612c119186858a6141ea565b610fc157612c45945f938880612daa575b5050505060405180948192639201de5560e01b8352600483019190602083019252565b038173__$2586ee71363c751a7dcf59a6d696ae69ac$__5af4918215610b1c57612ccc93610ab1612c84610aca95610999945f91612d88575b50612e1f565b612cc7612c9042612968565b91612c996104af565b6001600160a01b03861681529260208401525f604084018190526060840152600160f81b60808401526128ae565b612984565b600754612ce3906109e8906001600160a01b031681565b6040516333b6331760e21b8152336004820152602081602481855afa908115610b1c575f91612d69575b50612d16575050565b6020600491604051928380926306fb495b60e31b82525afa918215610b1c576104be92610a78925f91612d4a575b50612977565b612d63915060203d602011610b1557610b01818361048e565b5f612d44565b612d82915060203d602011610fab57610f9d818361048e565b5f612d0d565b612da491503d805f833e612d9c818361048e565b810190612dbd565b5f612c7e565b612db49389614029565b5f808088612c22565b60208183031261052e578051906001600160401b03821161052e570181601f8201121561052e57805190612df0826104cf565b92612dfe604051948561048e565b8284526020838301011161052e57815f9260208093018386015e8301015290565b906104be612e4192604051938491600160fe1b6020840152602183019061289c565b03601f19810184528361048e565b9081602091031261052e575161055c81610833565b90600182811c92168015612e92575b6020831014612e7e57565b634e487b7160e01b5f52602260045260245ffd5b91607f1691612e73565b818110612ea7575050565b5f8155600101612e9c565b612ebc8154612e64565b9081612ec6575050565b81601f5f9311600114612ed7575055565b81835260208320612ef391601f0160051c810190600101612e9c565b808252602082209081548360011b9084198560031b1c191617905555565b60405190612f1e82610473565b5f6040838281528260208201520152565b90604051612f3c81610473565b82546001600160a01b03168152600183015460208201526002909201546040830152565b93999798909598969192949660018060a01b0385165f52600360205260405f20875f5260205260ff60405f205416610b82575f99600160f81b6001600160f81b0319612fb0600461095a896128ae565b161480156131b5575b80156131ad575b80156131a3575b61052e57610b46612fdc9189898f898b6142ce565b611757578786612fef94879c969c6140eb565b6130026109e8610b6b836109998b6128ca565b1561301557613010906131c7565b612fef565b956130926004969861303161302986612a7a565b6103e8900490565b6130396104c0565b6001600160a01b0386168152916020830152604082015261305d89610999856128ca565b815181546001600160a01b0319166001600160a01b039190911617815590600290604090602081015160018501550151910155565b6007546020906130ac906109e8906001600160a01b031681565b6040516306fb495b60e31b815297889182905afa958615610b1c57610aac61311b61099995613103610a78610aca9a610a7361055c9d613123985f91613184575b50610a6d6130fa87612a92565b620186a0900490565b610a6d61311261302983612a7a565b91610320900490565b601854612977565b600361312e826128ae565b015487111561314d576131426003916128ae565b016115eb81546131c7565b6003613158826128ae565b015415613166575b50610ab1565b6131716003916128ae565b0161317c81546131c7565b90555f613160565b61319d915060203d602011610b1557610b01818361048e565b5f6130ed565b50428c1115612fc7565b508615612fc0565b506131c2610b4686613385565b612fb9565b5f1981146107665760010190565b6007546131ec906109e8906001600160a01b031681565b6040516306fb495b60e31b8152602081600481855afa8015610b1c576004936002610f50612b3f613226946020965f916132725750612a69565b91604051938480926306fb495b60e31b82525afa908115610b1c5761055c925f926132515750612977565b61326b91925060203d602011610b1557610b01818361048e565b905f612d44565b612b5e9150873d8911610b1557610b01818361048e565b9190601f811161329857505050565b6104be925f5260205f20906020601f840160051c830193106132c2575b601f0160051c0190612e9c565b90915081906132b5565b91909182516001600160401b03811161046e576132ed8161130e8454612e64565b6020601f821160011461332057819061331c9394955f926113485750508160011b915f199060031b1c19161790565b9055565b601f19821690613333845f5260205f2090565b915f5b81811061336d57509583600195969710613355575b505050811b019055565b01515f1960f88460031b161c191690555f808061334b565b9192602060018192868b015181550194019201613336565b600160f81b6001600160f81b03196133a1600461095a856128ae565b16036133eb576001600160a01b036133bb610b6b836128ae565b16159081156133d4575b50156133cf575f90565b600190565b600191506133e1906128ae565b015415155f6133c5565b6133f66001916128ae565b01546133cf575f90565b5f90600161340d826128ae565b0154421161359a576002613430613423836128ca565b5f805260205260405f2090565b0154151580613582575b6134e4575b50806134535750681b1ae4d6e2ef50000090565b600754600490602090613470906109e8906001600160a01b031681565b6040516306fb495b60e31b815292839182905afa908115610b1c575f916134c5575b5061349f61302983612abd565b6134a882612aa8565b10156134b85761055c9150612aa8565b5061302961055c91612abd565b6134de915060203d602011610b1557610b01818361048e565b5f613492565b91905f5b60036134f3856128ae565b01548110156135785742600161350c83610999886128ca565b01541180613557575b613522575b6001016134e8565b81600261353283610999886128ca565b0154111561351a5790506001600261354d83610999876128ca565b015491905061351a565b506001600160a01b03613570610b6b83610999886128ca565b161515613515565b509091505f61343f565b506001613591613423836128ca565b0154151561343a565b50506007546004906020906135b9906109e8906001600160a01b031681565b6040516306fb495b60e31b815292839182905afa8015610b1c5761055c915f916135e4575b50612aa8565b6135fd915060203d602011610b1557610b01818361048e565b5f6135de565b9190918281146136de576136178354612e64565b6001600160401b03811161046e576136338161130e8454612e64565b5f93601f821160011461366d5761331c92939482915f926136625750508160011b915f199060031b1c19161790565b015490505f80611330565b61367f601f198316915f5260205f2090565b9461368d845f5260205f2090565b915f5b8181106136c6575095836001959697106136ae57505050811b019055565b01545f1960f88460031b161c191690555f808061334b565b9192600180602092868b015481550194019201613690565b509050565b8015610766575f190190565b600160f81b6001600160f81b031961370b600461095a856128ae565b1603613750576001600160a01b03613725610b6b836128ae565b1615908115613739575b50156133cf575f80fd5b60019150613746906128ae565b015415155f61372f565b61375b6001916128ae565b01546133cf575f80fd5b6001600160401b03811161046e5760051b60200190565b634e487b7160e01b5f52603260045260245ffd5b80518210156137a45760209160051b010190565b61377c565b9060405191825f8254926137bc84612e64565b808452936001811690811561382557506001146137e1575b506104be9250038361048e565b90505f9291925260205f20905f915b8183106138095750509060206104be928201015f6137d4565b60209193508060019154838589010152019101909184926137f0565b9050602092506104be94915060ff191682840152151560051b8201015f6137d4565b6007546040516306fb495b60e31b815290602090829060049082906001600160a01b03165afa908115610b1c575f91613892575b506064810290808204606414901517156107665790565b6138ab915060203d602011610b1557610b01818361048e565b5f61387b565b906138d7602060405180936138c9838301809761289c565b90815203808452018261048e565b51902090565b949690939791959260018060a01b03861698895f52600360205260405f20865f5260205260ff60405f205416610b8257600a546001600160a01b03168a9003613b38575b61392d610b4689613eab565b613b2957610b466139419187848b8b61446e565b610fc1576139625f93613968938a6139879761395b613847565b908b6140eb565b866138b1565b60405180938192639201de5560e01b8352600483019190602083019252565b038173__$2586ee71363c751a7dcf59a6d696ae69ac$__5af48015610b1c576139b6915f91612d885750612e1f565b946139c66109e8610b6b886128ae565b14801590613b14575b61052e57610999610aca92610ab1613a1f95612cc76139ed42612946565b916139f66104af565b6001600160a01b03861681529260208401525f60408401525f60608401525f60808401526128ae565b600754613a36906109e8906001600160a01b031681565b6040516333b6331760e21b8152336004820152602081602481855afa908115610b1c575f91613af5575b50613a91575b5050613a746104be916128ae565b60045f918281558260018201558260028201558260038201550155565b916020600493604051948580926306fb495b60e31b82525afa928315610b1c57610a78613a7493610a736104be96613ad0945f91613ad6575b50612ad3565b91613a66565b613aef915060203d602011610b1557610b01818361048e565b5f613aca565b613b0e915060203d602011610fab57610f9d818361048e565b5f613a60565b506001613b20866128ae565b015442106139cf565b633efbb39b60e11b5f5260045ffd5b613b44610b46896143d7565b1561392157630a1de65160e31b5f5260045ffd5b93979591979692909660018060a01b038516805f52600360205260405f20835f5260205260ff60405f205416610b8257604051613b95818b61289c565b5f81528190036020019020546001600160a01b031603610fd057846001613bbb8a6128ae565b0154421091821592613cf3575b8215613cd1575b5050905061052e5786613bec9385613be6896131d5565b916140eb565b5f5b6002613bf9856128ae565b0154811015613c1b5780613c15610e6e600193610999886128e7565b01613bee565b506007549193600492602090613c3b906109e8906001600160a01b031681565b6040516306fb495b60e31b815294859182905afa938415610b1c57613c85610a78613cbe93610a73613c7a6104be99610aca995f916116875750612a42565b6002610f50876128ae565b612cc76003613c93836128ae565b015491613c9e6104af565b925f84525f60208501525f604085015260608401525f60808401526128ae565b335f908152600360205260409020610999565b610b469250610e15613ce5613ceb9561459d565b8b6144bc565b80845f613bcf565b9150600160f81b6001600160f81b0319613d11600461095a8d6128ae565b161491613bc8565b959294979197969096604051613d2f818b61289c565b5f81528190036020019020546001600160a01b038881169116819003610fd0575f52600360205260405f20885f5260205260ff60405f205416610b8257610b4687613d8892610e158c8a613d828e61459d565b916144f5565b61052e5784511561052e5783613da0936115a0612b71565b600754613db7906109e8906001600160a01b031681565b6040516333b6331760e21b8152336004820152602081602481855afa908115610b1c575f91613e8c575b50613e19575b5050610aca92916002613142866115db61099995613e14613e0a6104be9b6128e7565b86611749866128ae565b6132cc565b602060049160409695939651928380926306fb495b60e31b82525afa908115610b1c576104be966115db61099995613e7d610a78610aca9a610a73613e6a600299613142995f916116875750612a42565b610a6d61261f613e78612b71565b612a53565b95505096505081939450613de7565b613ea5915060203d602011610fab57610f9d818361048e565b5f613de1565b6001604051602081613ebd818661289c565b5f8152030190200154613ed05750600190565b613ee460206001926040519283809261289c565b5f8152030190200154624f1a00810180911161076657421190565b92613f5391613f61610e15926001613f53613f26613f2061055c9b9961459d565b9361459d565b928260405198899767323138313136303960c01b60208a0152600b60fa1b60288a0152602989019061289c565b600b60fa1b8152019061289c565b03601f19810183528261048e565b6001600160a01b0391821681529181166020830152610100604083018190525f9083015260016060830152608082019290925260a081019290925290911660c082015261012060e0820181905261055c92910190611c79565b6001600160a01b0391821681529181166020830152610120604083018190525f9083015260016060830152608082019290925260a081019290925260c0820192909252911660e0820152610140610100820181905261055c92910190611c79565b9392909190156140a15760075461404a906109e8906001600160a01b031681565b90813b1561052e575f80949161407c82936040519889978896879563f4e1895b60e01b87523093309060048901613fc8565b03925af18015610b1c5761408d5750565b8061409b5f6104be9361048e565b806105be565b919290506140bc6109e86109e860075460018060a01b031690565b803b1561052e575f80809461407c604051978896879586946327d50fd160e11b86523092309060048801613f6f565b9491939092901561413d5760075461410d906109e8906001600160a01b031681565b91823b1561052e575f9461407c86926040519889978896879563f4e1895b60e01b87523093309060048901613fc8565b6007549194925090614159906109e8906001600160a01b031681565b90813b1561052e575f809461407c604051978896879586946327d50fd160e11b86523092309060048801613f6f565b6007546001600160a01b031691823b1561052e5760405163c898a6e960e01b81526001600160a01b039092166004830152600160248301526044820152905f908290606490829084905af18015610b1c576141e05750565b5f6104be9161048e565b9192909260405193639201de5560e01b855260048501525f8460248173__$2586ee71363c751a7dcf59a6d696ae69ac$__5af4938415610b1c5761055c94613f5392610e15925f92614271575b50614244613f619161459d565b600160405195869467311b1b1bb19c183160c11b6020870152600b60fa1b6028870152602986019061289c565b613f6191925061428d614244913d805f833e612d9c818361048e565b929150614237565b6104be90612e41613f539493600160405196879467336537383939613160c01b6020870152600b60fa1b6028870152602986019061289c565b9390613f6161055c96946001613f53610e159582613f536142fd613f206142f7613f539c61459d565b9761459d565b95826040519b8c9a67353236343963326560c01b60208d0152600b60fa1b60288d015260298c019061289c565b92613f5391613f61610e15926001613f5361434b613f2061055c9b9961459d565b928260405198899767383030316139393960c01b60208a0152600b60fa1b60288a0152602989019061289c565b92613f5391613f61610e15926001613f53614399613f2061055c9b9961459d565b92826040519889976730b2999b33329b9960c11b60208a0152600b60fa1b60288a0152602989019061289c565b9081518110156137a4570160200190565b80516004811061052e57156137a457602081015161440790610b46906001600160f81b03191661483d565b61483d565b61052e575f5b81518110156144675761443c610b4661443761442984866143c6565b516001600160f81b03191690565b61488a565b8061444e575b61052e5760010161440d565b50614462610b4661440261442984866143c6565b614442565b5050600190565b92613f5391613f61610e15926001613f5361448f613f2061055c9b9961459d565b928260405198899767373566373531636560c01b60208a0152600b60fa1b60288a0152602989019061289c565b6104be90612e41613f539493600160405196879467643232633831366360c01b6020870152600b60fa1b6028870152602986019061289c565b612e41613f5394936001613f536104be9582604051998a9767653665666566666160c01b60208a0152600b60fa1b60288a0152602989019061289c565b6104be90612e41613f539493600160405196879467663137343734383360c01b6020870152600b60fa1b6028870152602986019061289c565b90614575826104cf565b614582604051918261048e565b8281528092614593601f19916104cf565b0190602036910137565b805f9172184f03e93ff9f4daa797ed6e38ed64bf6a1f0160401b8210156146d0575b806d04ee2d6d415b85acef8100000000600a9210156146b4575b662386f26fc1000081101561469f575b6305f5e10081101561468d575b61271081101561467d575b606481101561466e575b1015614663575b61464e60216146236001850161456b565b938401015b5f1901916f181899199a1a9b1b9c1cb0b131b232b360811b600a82061a8353600a900490565b801561465e5761464e9091614628565b505090565b600190910190614612565b6002906064900493019261460b565b6004906127109004930192614601565b6008906305f5e10090049301926145f6565b601090662386f26fc1000090049301926145e9565b6020906d04ee2d6d415b85acef810000000090049301926145d9565b506040915072184f03e93ff9f4daa797ed6e38ed64bf6a1f0160401b81046145bf565b613f61614745614703835161459d565b9260405192839161473f60208401967f19457468657265756d205369676e6564204d6573736167653a0a0000000000008852603a85019061289c565b9061289c565b51902060418251036147f857815f916020809401519160606040820151910151841a92601b84106147e1575b906147b59161478f60ff8616601b81149081156147d6575b506148c0565b604051948594859094939260ff6060936080840197845216602083015260408201520152565b838052039060015afa15610b1c575f516001600160a01b0390811691161490565b601c9150145f614789565b92906147ef6147b5926148ae565b93909150614771565b60405162461bcd60e51b815260206004820152601860248201527f496e76616c6964207369676e6174757265206c656e67746800000000000000006044820152606490fd5b60ff60f81b16604160f81b811015908161487b575b811561485c575090565b606160f81b81101591508161486f575090565b603d60f91b1015905090565b602d60f91b8111159150614852565b60ff60f81b16600360fc1b81101590816148a2575090565b603960f81b1015919050565b60ff601b9116019060ff821161076657565b156148c757565b60405162461bcd60e51b815260206004820152601760248201527f496e76616c6964207369676e61747572652076616c75650000000000000000006044820152606490fdfea2646970667358221220bb412953b92dbdaf148612b2eb8e1f9a4b3c0e59bf58b61c049bcd32c806683464736f6c634300081a0033","linkReferences":{"src/libraries/AdvancedStrings.sol":{"AdvancedStrings":[{"start":28960,"length":20},{"start":41954,"length":20},{"start":45348,"length":20},{"start":47521,"length":20}]}}},"methodIdentifiers":{"acceptNewAdmin()":"cd6b5460","acceptNewEstimator()":"6fa7ff17","acceptNewGoldenFisher()":"34dd90d6","acceptSetSecondsToUnlockStaking()":"610a0476","addPresaleStaker(address)":"6c58f77b","addPresaleStakers(address[])":"be100345","cancelSetAllowExternalStaking()":"33bf9110","cancelSetAllowInternalStaking()":"32cab81f","cancelSetSecondsToUnllockFullUnstaking()":"b384c574","checkIfStakeNonceUsed(address,uint256)":"eb57af4a","confirmSetAllowExternalStaking()":"a108c0a1","confirmSetAllowInternalStaking()":"28a2fd3a","confirmSetSecondsToUnllockFullUnstaking()":"8f4b3f28","externalStaking(bool,address,uint256,uint256,bytes,uint256,uint256,bool,bytes)":"e4e7b885","getAddressHistory(address)":"fabd08e8","getAddressHistoryByIndex(address,uint256)":"9053a258","getAllowExternalStaking()":"b40dad86","getAllowInternalStaking()":"b241a487","getEstimatorAddress()":"66d161aa","getEstimatorProposal()":"e6cbd0a6","getEvvmAddress()":"0d1ffe3a","getGoldenFisher()":"7f8da591","getGoldenFisherProposal()":"6254300b","getMateAddress()":"96ae4e45","getOwner()":"893d20e8","getPresaleStaker(address)":"c130a719","getPresaleStakerCount()":"fa6215f3","getSecondsToUnlockFullUnstaking()":"f5c1af1c","getSecondsToUnlockStaking()":"e6f2ebe4","getSizeOfAddressHistory(address)":"fc2feab2","getTimeAllowExternalStaking()":"4e4d5d25","getTimeAllowInternalStaking()":"4273367d","getTimeToUserUnlockFullUnstakingTime(address)":"d5bbacd5","getTimeToUserUnlockStakingTime(address)":"9e411233","getUserAmountStaked(address)":"9cde1d3e","gimmeYiel(address)":"602c4fb4","goldenStaking(bool,uint256,bytes)":"475c31ff","prepareSetAllowExternalStaking()":"8a4bd308","prepareSetAllowInternalStaking()":"be3b3313","prepareSetSecondsToUnllockFullUnstaking(uint256)":"3d8ff69a","presaleStake(bool,address,uint256,bytes,uint256,uint256,bool,bytes)":"11b93445","priceOfSMate()":"95d3a364","proposeAdmin(address)":"147bf6c4","proposeEstimator(address)":"3900738a","proposeGoldenFisher(address)":"489c5ad4","proposeSetSecondsToUnlockStaking(uint256)":"6b2933a2","rejectProposalAdmin()":"b38c950a","rejectProposalEstimator()":"a06831ba","rejectProposalGoldenFisher()":"a84e9f23","rejectProposalSetSecondsToUnlockStaking()":"7c25faef"},"id":82}